{
	"contracts/SecuritiesTrading.sol": {
		"SecuritiesTrading": {
			"abi": [
				{
					"anonymous": false,
					"inputs": [
						{
							"indexed": true,
							"internalType": "address",
							"name": "user",
							"type": "address"
						},
						{
							"indexed": false,
							"internalType": "uint256",
							"name": "amount",
							"type": "uint256"
						}
					],
					"name": "BalanceAdded",
					"type": "event"
				},
				{
					"anonymous": false,
					"inputs": [
						{
							"indexed": true,
							"internalType": "uint256",
							"name": "requestId",
							"type": "uint256"
						},
						{
							"indexed": false,
							"internalType": "uint256",
							"name": "securityOffered",
							"type": "uint256"
						},
						{
							"indexed": false,
							"internalType": "uint256",
							"name": "securityRequested",
							"type": "uint256"
						},
						{
							"indexed": false,
							"internalType": "address",
							"name": "owner1",
							"type": "address"
						},
						{
							"indexed": false,
							"internalType": "address",
							"name": "owner2",
							"type": "address"
						}
					],
					"name": "ExchangeCompleted",
					"type": "event"
				},
				{
					"anonymous": false,
					"inputs": [
						{
							"indexed": true,
							"internalType": "uint256",
							"name": "requestId",
							"type": "uint256"
						}
					],
					"name": "ExchangeRejected",
					"type": "event"
				},
				{
					"anonymous": false,
					"inputs": [
						{
							"indexed": true,
							"internalType": "uint256",
							"name": "requestId",
							"type": "uint256"
						},
						{
							"indexed": false,
							"internalType": "uint256",
							"name": "securityOffered",
							"type": "uint256"
						},
						{
							"indexed": false,
							"internalType": "uint256",
							"name": "securityRequested",
							"type": "uint256"
						},
						{
							"indexed": false,
							"internalType": "address",
							"name": "requester",
							"type": "address"
						},
						{
							"indexed": false,
							"internalType": "address",
							"name": "receiver",
							"type": "address"
						}
					],
					"name": "ExchangeRequested",
					"type": "event"
				},
				{
					"anonymous": false,
					"inputs": [
						{
							"indexed": true,
							"internalType": "uint256",
							"name": "securityId",
							"type": "uint256"
						},
						{
							"indexed": false,
							"internalType": "string",
							"name": "name",
							"type": "string"
						},
						{
							"indexed": false,
							"internalType": "uint256",
							"name": "price",
							"type": "uint256"
						},
						{
							"indexed": false,
							"internalType": "address",
							"name": "owner",
							"type": "address"
						}
					],
					"name": "SecurityListed",
					"type": "event"
				},
				{
					"anonymous": false,
					"inputs": [
						{
							"indexed": true,
							"internalType": "uint256",
							"name": "securityId",
							"type": "uint256"
						},
						{
							"indexed": false,
							"internalType": "address",
							"name": "from",
							"type": "address"
						},
						{
							"indexed": false,
							"internalType": "address",
							"name": "to",
							"type": "address"
						},
						{
							"indexed": false,
							"internalType": "uint256",
							"name": "price",
							"type": "uint256"
						}
					],
					"name": "SecurityPurchased",
					"type": "event"
				},
				{
					"inputs": [
						{
							"internalType": "uint256",
							"name": "_requestId",
							"type": "uint256"
						}
					],
					"name": "approveExchange",
					"outputs": [],
					"stateMutability": "nonpayable",
					"type": "function"
				},
				{
					"inputs": [
						{
							"internalType": "uint256",
							"name": "",
							"type": "uint256"
						}
					],
					"name": "exchangeRequests",
					"outputs": [
						{
							"internalType": "uint256",
							"name": "securityOffered",
							"type": "uint256"
						},
						{
							"internalType": "uint256",
							"name": "securityRequested",
							"type": "uint256"
						},
						{
							"internalType": "address",
							"name": "requester",
							"type": "address"
						},
						{
							"internalType": "address",
							"name": "receiver",
							"type": "address"
						},
						{
							"internalType": "bool",
							"name": "isPending",
							"type": "bool"
						}
					],
					"stateMutability": "view",
					"type": "function"
				},
				{
					"inputs": [],
					"name": "getBalance",
					"outputs": [
						{
							"internalType": "uint256",
							"name": "",
							"type": "uint256"
						}
					],
					"stateMutability": "view",
					"type": "function"
				},
				{
					"inputs": [],
					"name": "getUserSecurities",
					"outputs": [
						{
							"internalType": "uint256[]",
							"name": "securityIds",
							"type": "uint256[]"
						},
						{
							"internalType": "string[]",
							"name": "names",
							"type": "string[]"
						},
						{
							"internalType": "uint256[]",
							"name": "prices",
							"type": "uint256[]"
						}
					],
					"stateMutability": "view",
					"type": "function"
				},
				{
					"inputs": [
						{
							"internalType": "string",
							"name": "_name",
							"type": "string"
						},
						{
							"internalType": "uint256",
							"name": "_price",
							"type": "uint256"
						}
					],
					"name": "listSecurity",
					"outputs": [
						{
							"internalType": "uint256",
							"name": "",
							"type": "uint256"
						}
					],
					"stateMutability": "nonpayable",
					"type": "function"
				},
				{
					"inputs": [
						{
							"internalType": "uint256",
							"name": "_securityId",
							"type": "uint256"
						}
					],
					"name": "purchaseSecurity",
					"outputs": [],
					"stateMutability": "payable",
					"type": "function"
				},
				{
					"inputs": [
						{
							"internalType": "uint256",
							"name": "_requestId",
							"type": "uint256"
						}
					],
					"name": "rejectExchange",
					"outputs": [],
					"stateMutability": "nonpayable",
					"type": "function"
				},
				{
					"inputs": [
						{
							"internalType": "uint256",
							"name": "_securityOffered",
							"type": "uint256"
						},
						{
							"internalType": "uint256",
							"name": "_securityRequested",
							"type": "uint256"
						}
					],
					"name": "requestExchange",
					"outputs": [
						{
							"internalType": "uint256",
							"name": "",
							"type": "uint256"
						}
					],
					"stateMutability": "nonpayable",
					"type": "function"
				},
				{
					"inputs": [
						{
							"internalType": "uint256",
							"name": "",
							"type": "uint256"
						}
					],
					"name": "securities",
					"outputs": [
						{
							"internalType": "string",
							"name": "name",
							"type": "string"
						},
						{
							"internalType": "uint256",
							"name": "price",
							"type": "uint256"
						},
						{
							"internalType": "address",
							"name": "owner",
							"type": "address"
						},
						{
							"internalType": "bool",
							"name": "isListed",
							"type": "bool"
						}
					],
					"stateMutability": "view",
					"type": "function"
				},
				{
					"stateMutability": "payable",
					"type": "receive"
				}
			],
			"devdoc": {
				"kind": "dev",
				"methods": {},
				"version": 1
			},
			"evm": {
				"assembly": "    /* \"contracts/SecuritiesTrading.sol\":60:7049  contract SecuritiesTrading {... */\n  mstore(0x40, 0x80)\n    /* \"contracts/SecuritiesTrading.sol\":685:686  1 */\n  0x01\n    /* \"contracts/SecuritiesTrading.sol\":652:686  uint256 private nextSecurityId = 1 */\n  0x04\n  sstore\n    /* \"contracts/SecuritiesTrading.sol\":725:726  1 */\n  0x01\n    /* \"contracts/SecuritiesTrading.sol\":693:726  uint256 private nextRequestId = 1 */\n  0x05\n  sstore\n    /* \"contracts/SecuritiesTrading.sol\":60:7049  contract SecuritiesTrading {... */\n  callvalue\n  dup1\n  iszero\n  tag_1\n  jumpi\n  0x00\n  dup1\n  revert\ntag_1:\n  pop\n  dataSize(sub_0)\n  dup1\n  dataOffset(sub_0)\n  0x00\n  codecopy\n  0x00\n  return\nstop\n\nsub_0: assembly {\n        /* \"contracts/SecuritiesTrading.sol\":60:7049  contract SecuritiesTrading {... */\n      mstore(0x40, 0x80)\n      jumpi(tag_1, lt(calldatasize, 0x04))\n      shr(0xe0, calldataload(0x00))\n      dup1\n      0x8a2355bb\n      gt\n      tag_12\n      jumpi\n      dup1\n      0x8a2355bb\n      eq\n      tag_7\n      jumpi\n      dup1\n      0x8ca305a0\n      eq\n      tag_8\n      jumpi\n      dup1\n      0x9e15438a\n      eq\n      tag_9\n      jumpi\n      dup1\n      0xc6f6298c\n      eq\n      tag_10\n      jumpi\n      dup1\n      0xfcd68fb8\n      eq\n      tag_11\n      jumpi\n      jump(tag_2)\n    tag_12:\n      dup1\n      0x12065fe0\n      eq\n      tag_3\n      jumpi\n      dup1\n      0x204e73a0\n      eq\n      tag_4\n      jumpi\n      dup1\n      0x3bf13b44\n      eq\n      tag_5\n      jumpi\n      dup1\n      0x646f9004\n      eq\n      tag_6\n      jumpi\n      jump(tag_2)\n    tag_1:\n      jumpi(tag_2, calldatasize)\n        /* \"contracts/SecuritiesTrading.sol\":1410:1419  msg.value */\n      callvalue\n        /* \"contracts/SecuritiesTrading.sol\":1386:1394  balances */\n      0x03\n        /* \"contracts/SecuritiesTrading.sol\":1386:1406  balances[msg.sender] */\n      0x00\n        /* \"contracts/SecuritiesTrading.sol\":1395:1405  msg.sender */\n      caller\n        /* \"contracts/SecuritiesTrading.sol\":1386:1406  balances[msg.sender] */\n      0xffffffffffffffffffffffffffffffffffffffff\n      and\n      0xffffffffffffffffffffffffffffffffffffffff\n      and\n      dup2\n      mstore\n      0x20\n      add\n      swap1\n      dup2\n      mstore\n      0x20\n      add\n      0x00\n      keccak256\n      0x00\n        /* \"contracts/SecuritiesTrading.sol\":1386:1419  balances[msg.sender] += msg.value */\n      dup3\n      dup3\n      sload\n      tag_15\n      swap2\n      swap1\n      tag_16\n      jump\t// in\n    tag_15:\n      swap3\n      pop\n      pop\n      dup2\n      swap1\n      sstore\n      pop\n        /* \"contracts/SecuritiesTrading.sol\":1448:1458  msg.sender */\n      caller\n        /* \"contracts/SecuritiesTrading.sol\":1435:1470  BalanceAdded(msg.sender, msg.value) */\n      0xffffffffffffffffffffffffffffffffffffffff\n      and\n      0xe96dd7a15a3974e8e7d5eb80de2cb6fd69907a1ee089170cd976cfffaedfa8ac\n        /* \"contracts/SecuritiesTrading.sol\":1460:1469  msg.value */\n      callvalue\n        /* \"contracts/SecuritiesTrading.sol\":1435:1470  BalanceAdded(msg.sender, msg.value) */\n      mload(0x40)\n      tag_17\n      swap2\n      swap1\n      tag_18\n      jump\t// in\n    tag_17:\n      mload(0x40)\n      dup1\n      swap2\n      sub\n      swap1\n      log2\n        /* \"contracts/SecuritiesTrading.sol\":60:7049  contract SecuritiesTrading {... */\n      stop\n    tag_2:\n      0x00\n      dup1\n      revert\n        /* \"contracts/SecuritiesTrading.sol\":6494:6592  function getBalance() public view returns (uint256) {... */\n    tag_3:\n      callvalue\n      dup1\n      iszero\n      tag_19\n      jumpi\n      0x00\n      dup1\n      revert\n    tag_19:\n      pop\n      tag_20\n      tag_21\n      jump\t// in\n    tag_20:\n      mload(0x40)\n      tag_22\n      swap2\n      swap1\n      tag_18\n      jump\t// in\n    tag_22:\n      mload(0x40)\n      dup1\n      swap2\n      sub\n      swap1\n      return\n        /* \"contracts/SecuritiesTrading.sol\":2845:3904  function requestExchange(uint256 _securityOffered, uint256 _securityRequested) public returns (uint256) {... */\n    tag_4:\n      callvalue\n      dup1\n      iszero\n      tag_23\n      jumpi\n      0x00\n      dup1\n      revert\n    tag_23:\n      pop\n      tag_24\n      0x04\n      dup1\n      calldatasize\n      sub\n      dup2\n      add\n      swap1\n      tag_25\n      swap2\n      swap1\n      tag_26\n      jump\t// in\n    tag_25:\n      tag_27\n      jump\t// in\n    tag_24:\n      mload(0x40)\n      tag_28\n      swap2\n      swap1\n      tag_18\n      jump\t// in\n    tag_28:\n      mload(0x40)\n      dup1\n      swap2\n      sub\n      swap1\n      return\n        /* \"contracts/SecuritiesTrading.sol\":470:529  mapping(uint256 => ExchangeRequest) public exchangeRequests */\n    tag_5:\n      callvalue\n      dup1\n      iszero\n      tag_29\n      jumpi\n      0x00\n      dup1\n      revert\n    tag_29:\n      pop\n      tag_30\n      0x04\n      dup1\n      calldatasize\n      sub\n      dup2\n      add\n      swap1\n      tag_31\n      swap2\n      swap1\n      tag_32\n      jump\t// in\n    tag_31:\n      tag_33\n      jump\t// in\n    tag_30:\n      mload(0x40)\n      tag_34\n      swap6\n      swap5\n      swap4\n      swap3\n      swap2\n      swap1\n      tag_35\n      jump\t// in\n    tag_34:\n      mload(0x40)\n      dup1\n      swap2\n      sub\n      swap1\n      return\n        /* \"contracts/SecuritiesTrading.sol\":1490:2035  function listSecurity(string memory _name, uint256 _price) public returns (uint256) {... */\n    tag_6:\n      callvalue\n      dup1\n      iszero\n      tag_36\n      jumpi\n      0x00\n      dup1\n      revert\n    tag_36:\n      pop\n      tag_37\n      0x04\n      dup1\n      calldatasize\n      sub\n      dup2\n      add\n      swap1\n      tag_38\n      swap2\n      swap1\n      tag_39\n      jump\t// in\n    tag_38:\n      tag_40\n      jump\t// in\n    tag_37:\n      mload(0x40)\n      tag_41\n      swap2\n      swap1\n      tag_18\n      jump\t// in\n    tag_41:\n      mload(0x40)\n      dup1\n      swap2\n      sub\n      swap1\n      return\n        /* \"contracts/SecuritiesTrading.sol\":5590:6482  function getUserSecurities() public view returns (... */\n    tag_7:\n      callvalue\n      dup1\n      iszero\n      tag_42\n      jumpi\n      0x00\n      dup1\n      revert\n    tag_42:\n      pop\n      tag_43\n      tag_44\n      jump\t// in\n    tag_43:\n      mload(0x40)\n      tag_45\n      swap4\n      swap3\n      swap2\n      swap1\n      tag_46\n      jump\t// in\n    tag_45:\n      mload(0x40)\n      dup1\n      swap2\n      sub\n      swap1\n      return\n        /* \"contracts/SecuritiesTrading.sol\":5206:5578  function rejectExchange(uint256 _requestId) public {... */\n    tag_8:\n      callvalue\n      dup1\n      iszero\n      tag_47\n      jumpi\n      0x00\n      dup1\n      revert\n    tag_47:\n      pop\n      tag_48\n      0x04\n      dup1\n      calldatasize\n      sub\n      dup2\n      add\n      swap1\n      tag_49\n      swap2\n      swap1\n      tag_32\n      jump\t// in\n    tag_49:\n      tag_50\n      jump\t// in\n    tag_48:\n      stop\n        /* \"contracts/SecuritiesTrading.sol\":3916:5194  function approveExchange(uint256 _requestId) public {... */\n    tag_9:\n      callvalue\n      dup1\n      iszero\n      tag_51\n      jumpi\n      0x00\n      dup1\n      revert\n    tag_51:\n      pop\n      tag_52\n      0x04\n      dup1\n      calldatasize\n      sub\n      dup2\n      add\n      swap1\n      tag_53\n      swap2\n      swap1\n      tag_32\n      jump\t// in\n    tag_53:\n      tag_54\n      jump\t// in\n    tag_52:\n      stop\n        /* \"contracts/SecuritiesTrading.sol\":417:463  mapping(uint256 => Security) public securities */\n    tag_10:\n      callvalue\n      dup1\n      iszero\n      tag_55\n      jumpi\n      0x00\n      dup1\n      revert\n    tag_55:\n      pop\n      tag_56\n      0x04\n      dup1\n      calldatasize\n      sub\n      dup2\n      add\n      swap1\n      tag_57\n      swap2\n      swap1\n      tag_32\n      jump\t// in\n    tag_57:\n      tag_58\n      jump\t// in\n    tag_56:\n      mload(0x40)\n      tag_59\n      swap5\n      swap4\n      swap3\n      swap2\n      swap1\n      tag_60\n      jump\t// in\n    tag_59:\n      mload(0x40)\n      dup1\n      swap2\n      sub\n      swap1\n      return\n        /* \"contracts/SecuritiesTrading.sol\":2047:2833  function purchaseSecurity(uint256 _securityId) public payable {... */\n    tag_11:\n      tag_61\n      0x04\n      dup1\n      calldatasize\n      sub\n      dup2\n      add\n      swap1\n      tag_62\n      swap2\n      swap1\n      tag_32\n      jump\t// in\n    tag_62:\n      tag_63\n      jump\t// in\n    tag_61:\n      stop\n        /* \"contracts/SecuritiesTrading.sol\":6494:6592  function getBalance() public view returns (uint256) {... */\n    tag_21:\n        /* \"contracts/SecuritiesTrading.sol\":6537:6544  uint256 */\n      0x00\n        /* \"contracts/SecuritiesTrading.sol\":6564:6572  balances */\n      0x03\n        /* \"contracts/SecuritiesTrading.sol\":6564:6584  balances[msg.sender] */\n      0x00\n        /* \"contracts/SecuritiesTrading.sol\":6573:6583  msg.sender */\n      caller\n        /* \"contracts/SecuritiesTrading.sol\":6564:6584  balances[msg.sender] */\n      0xffffffffffffffffffffffffffffffffffffffff\n      and\n      0xffffffffffffffffffffffffffffffffffffffff\n      and\n      dup2\n      mstore\n      0x20\n      add\n      swap1\n      dup2\n      mstore\n      0x20\n      add\n      0x00\n      keccak256\n      sload\n        /* \"contracts/SecuritiesTrading.sol\":6557:6584  return balances[msg.sender] */\n      swap1\n      pop\n        /* \"contracts/SecuritiesTrading.sol\":6494:6592  function getBalance() public view returns (uint256) {... */\n      swap1\n      jump\t// out\n        /* \"contracts/SecuritiesTrading.sol\":2845:3904  function requestExchange(uint256 _securityOffered, uint256 _securityRequested) public returns (uint256) {... */\n    tag_27:\n        /* \"contracts/SecuritiesTrading.sol\":2940:2947  uint256 */\n      0x00\n        /* \"contracts/SecuritiesTrading.sol\":2960:2992  Security storage securityOffered */\n      dup1\n        /* \"contracts/SecuritiesTrading.sol\":2995:3005  securities */\n      0x00\n        /* \"contracts/SecuritiesTrading.sol\":2995:3023  securities[_securityOffered] */\n      dup1\n        /* \"contracts/SecuritiesTrading.sol\":3006:3022  _securityOffered */\n      dup6\n        /* \"contracts/SecuritiesTrading.sol\":2995:3023  securities[_securityOffered] */\n      dup2\n      mstore\n      0x20\n      add\n      swap1\n      dup2\n      mstore\n      0x20\n      add\n      0x00\n      keccak256\n        /* \"contracts/SecuritiesTrading.sol\":2960:3023  Security storage securityOffered = securities[_securityOffered] */\n      swap1\n      pop\n        /* \"contracts/SecuritiesTrading.sol\":3034:3068  Security storage securityRequested */\n      0x00\n        /* \"contracts/SecuritiesTrading.sol\":3071:3081  securities */\n      dup1\n        /* \"contracts/SecuritiesTrading.sol\":3071:3101  securities[_securityRequested] */\n      0x00\n        /* \"contracts/SecuritiesTrading.sol\":3082:3100  _securityRequested */\n      dup6\n        /* \"contracts/SecuritiesTrading.sol\":3071:3101  securities[_securityRequested] */\n      dup2\n      mstore\n      0x20\n      add\n      swap1\n      dup2\n      mstore\n      0x20\n      add\n      0x00\n      keccak256\n        /* \"contracts/SecuritiesTrading.sol\":3034:3101  Security storage securityRequested = securities[_securityRequested] */\n      swap1\n      pop\n        /* \"contracts/SecuritiesTrading.sol\":3130:3145  securityOffered */\n      dup2\n        /* \"contracts/SecuritiesTrading.sol\":3130:3154  securityOffered.isListed */\n      0x02\n      add\n      0x14\n      swap1\n      sload\n      swap1\n      0x0100\n      exp\n      swap1\n      div\n      0xff\n      and\n        /* \"contracts/SecuritiesTrading.sol\":3130:3184  securityOffered.isListed && securityRequested.isListed */\n      dup1\n      iszero\n      tag_66\n      jumpi\n      pop\n        /* \"contracts/SecuritiesTrading.sol\":3158:3175  securityRequested */\n      dup1\n        /* \"contracts/SecuritiesTrading.sol\":3158:3184  securityRequested.isListed */\n      0x02\n      add\n      0x14\n      swap1\n      sload\n      swap1\n      0x0100\n      exp\n      swap1\n      div\n      0xff\n      and\n        /* \"contracts/SecuritiesTrading.sol\":3130:3184  securityOffered.isListed && securityRequested.isListed */\n    tag_66:\n        /* \"contracts/SecuritiesTrading.sol\":3122:3219  require(securityOffered.isListed && securityRequested.isListed, \"Both securities must be listed\") */\n      tag_67\n      jumpi\n      mload(0x40)\n      0x08c379a000000000000000000000000000000000000000000000000000000000\n      dup2\n      mstore\n      0x04\n      add\n      tag_68\n      swap1\n      tag_69\n      jump\t// in\n    tag_68:\n      mload(0x40)\n      dup1\n      swap2\n      sub\n      swap1\n      revert\n    tag_67:\n        /* \"contracts/SecuritiesTrading.sol\":3263:3273  msg.sender */\n      caller\n        /* \"contracts/SecuritiesTrading.sol\":3238:3273  securityOffered.owner == msg.sender */\n      0xffffffffffffffffffffffffffffffffffffffff\n      and\n        /* \"contracts/SecuritiesTrading.sol\":3238:3253  securityOffered */\n      dup3\n        /* \"contracts/SecuritiesTrading.sol\":3238:3259  securityOffered.owner */\n      0x02\n      add\n      0x00\n      swap1\n      sload\n      swap1\n      0x0100\n      exp\n      swap1\n      div\n      0xffffffffffffffffffffffffffffffffffffffff\n      and\n        /* \"contracts/SecuritiesTrading.sol\":3238:3273  securityOffered.owner == msg.sender */\n      0xffffffffffffffffffffffffffffffffffffffff\n      and\n      eq\n        /* \"contracts/SecuritiesTrading.sol\":3230:3311  require(securityOffered.owner == msg.sender, \"You must own the offered security\") */\n      tag_70\n      jumpi\n      mload(0x40)\n      0x08c379a000000000000000000000000000000000000000000000000000000000\n      dup2\n      mstore\n      0x04\n      add\n      tag_71\n      swap1\n      tag_72\n      jump\t// in\n    tag_71:\n      mload(0x40)\n      dup1\n      swap2\n      sub\n      swap1\n      revert\n    tag_70:\n        /* \"contracts/SecuritiesTrading.sol\":3357:3367  msg.sender */\n      caller\n        /* \"contracts/SecuritiesTrading.sol\":3330:3367  securityRequested.owner != msg.sender */\n      0xffffffffffffffffffffffffffffffffffffffff\n      and\n        /* \"contracts/SecuritiesTrading.sol\":3330:3347  securityRequested */\n      dup2\n        /* \"contracts/SecuritiesTrading.sol\":3330:3353  securityRequested.owner */\n      0x02\n      add\n      0x00\n      swap1\n      sload\n      swap1\n      0x0100\n      exp\n      swap1\n      div\n      0xffffffffffffffffffffffffffffffffffffffff\n      and\n        /* \"contracts/SecuritiesTrading.sol\":3330:3367  securityRequested.owner != msg.sender */\n      0xffffffffffffffffffffffffffffffffffffffff\n      and\n      sub\n        /* \"contracts/SecuritiesTrading.sol\":3322:3401  require(securityRequested.owner != msg.sender, \"Cannot exchange with yourself\") */\n      tag_73\n      jumpi\n      mload(0x40)\n      0x08c379a000000000000000000000000000000000000000000000000000000000\n      dup2\n      mstore\n      0x04\n      add\n      tag_74\n      swap1\n      tag_75\n      jump\t// in\n    tag_74:\n      mload(0x40)\n      dup1\n      swap2\n      sub\n      swap1\n      revert\n    tag_73:\n        /* \"contracts/SecuritiesTrading.sol\":3422:3439  uint256 requestId */\n      0x00\n        /* \"contracts/SecuritiesTrading.sol\":3442:3455  nextRequestId */\n      0x05\n      0x00\n        /* \"contracts/SecuritiesTrading.sol\":3442:3457  nextRequestId++ */\n      dup2\n      sload\n      dup1\n      swap3\n      swap2\n      swap1\n      tag_76\n      swap1\n      tag_77\n      jump\t// in\n    tag_76:\n      swap2\n      swap1\n      pop\n      sstore\n        /* \"contracts/SecuritiesTrading.sol\":3422:3457  uint256 requestId = nextRequestId++ */\n      swap1\n      pop\n        /* \"contracts/SecuritiesTrading.sol\":3498:3740  ExchangeRequest({... */\n      mload(0x40)\n      dup1\n      0xa0\n      add\n      0x40\n      mstore\n      dup1\n        /* \"contracts/SecuritiesTrading.sol\":3546:3562  _securityOffered */\n      dup8\n        /* \"contracts/SecuritiesTrading.sol\":3498:3740  ExchangeRequest({... */\n      dup2\n      mstore\n      0x20\n      add\n        /* \"contracts/SecuritiesTrading.sol\":3596:3614  _securityRequested */\n      dup7\n        /* \"contracts/SecuritiesTrading.sol\":3498:3740  ExchangeRequest({... */\n      dup2\n      mstore\n      0x20\n      add\n        /* \"contracts/SecuritiesTrading.sol\":3640:3650  msg.sender */\n      caller\n        /* \"contracts/SecuritiesTrading.sol\":3498:3740  ExchangeRequest({... */\n      0xffffffffffffffffffffffffffffffffffffffff\n      and\n      dup2\n      mstore\n      0x20\n      add\n        /* \"contracts/SecuritiesTrading.sol\":3675:3692  securityRequested */\n      dup4\n        /* \"contracts/SecuritiesTrading.sol\":3675:3698  securityRequested.owner */\n      0x02\n      add\n      0x00\n      swap1\n      sload\n      swap1\n      0x0100\n      exp\n      swap1\n      div\n      0xffffffffffffffffffffffffffffffffffffffff\n      and\n        /* \"contracts/SecuritiesTrading.sol\":3498:3740  ExchangeRequest({... */\n      0xffffffffffffffffffffffffffffffffffffffff\n      and\n      dup2\n      mstore\n      0x20\n      add\n        /* \"contracts/SecuritiesTrading.sol\":3724:3728  true */\n      0x01\n        /* \"contracts/SecuritiesTrading.sol\":3498:3740  ExchangeRequest({... */\n      iszero\n      iszero\n      dup2\n      mstore\n      pop\n        /* \"contracts/SecuritiesTrading.sol\":3468:3484  exchangeRequests */\n      0x01\n        /* \"contracts/SecuritiesTrading.sol\":3468:3495  exchangeRequests[requestId] */\n      0x00\n        /* \"contracts/SecuritiesTrading.sol\":3485:3494  requestId */\n      dup4\n        /* \"contracts/SecuritiesTrading.sol\":3468:3495  exchangeRequests[requestId] */\n      dup2\n      mstore\n      0x20\n      add\n      swap1\n      dup2\n      mstore\n      0x20\n      add\n      0x00\n      keccak256\n        /* \"contracts/SecuritiesTrading.sol\":3468:3740  exchangeRequests[requestId] = ExchangeRequest({... */\n      0x00\n      dup3\n      add\n      mload\n      dup2\n      0x00\n      add\n      sstore\n      0x20\n      dup3\n      add\n      mload\n      dup2\n      0x01\n      add\n      sstore\n      0x40\n      dup3\n      add\n      mload\n      dup2\n      0x02\n      add\n      exp(0x0100, 0x00)\n      dup2\n      sload\n      dup2\n      0xffffffffffffffffffffffffffffffffffffffff\n      mul\n      not\n      and\n      swap1\n      dup4\n      0xffffffffffffffffffffffffffffffffffffffff\n      and\n      mul\n      or\n      swap1\n      sstore\n      pop\n      0x60\n      dup3\n      add\n      mload\n      dup2\n      0x03\n      add\n      exp(0x0100, 0x00)\n      dup2\n      sload\n      dup2\n      0xffffffffffffffffffffffffffffffffffffffff\n      mul\n      not\n      and\n      swap1\n      dup4\n      0xffffffffffffffffffffffffffffffffffffffff\n      and\n      mul\n      or\n      swap1\n      sstore\n      pop\n      0x80\n      dup3\n      add\n      mload\n      dup2\n      0x03\n      add\n      exp(0x0100, 0x14)\n      dup2\n      sload\n      dup2\n      0xff\n      mul\n      not\n      and\n      swap1\n      dup4\n      iszero\n      iszero\n      mul\n      or\n      swap1\n      sstore\n      pop\n      swap1\n      pop\n      pop\n        /* \"contracts/SecuritiesTrading.sol\":3784:3793  requestId */\n      dup1\n        /* \"contracts/SecuritiesTrading.sol\":3766:3869  ExchangeRequested(requestId, _securityOffered, _securityRequested, msg.sender, securityRequested.owner) */\n      0x6edfdc9b701a7247ac2f7823b864e96becb1b22964c1eb1c1f9af42f4ce10f5d\n        /* \"contracts/SecuritiesTrading.sol\":3795:3811  _securityOffered */\n      dup8\n        /* \"contracts/SecuritiesTrading.sol\":3813:3831  _securityRequested */\n      dup8\n        /* \"contracts/SecuritiesTrading.sol\":3833:3843  msg.sender */\n      caller\n        /* \"contracts/SecuritiesTrading.sol\":3845:3862  securityRequested */\n      dup7\n        /* \"contracts/SecuritiesTrading.sol\":3845:3868  securityRequested.owner */\n      0x02\n      add\n      0x00\n      swap1\n      sload\n      swap1\n      0x0100\n      exp\n      swap1\n      div\n      0xffffffffffffffffffffffffffffffffffffffff\n      and\n        /* \"contracts/SecuritiesTrading.sol\":3766:3869  ExchangeRequested(requestId, _securityOffered, _securityRequested, msg.sender, securityRequested.owner) */\n      mload(0x40)\n      tag_78\n      swap5\n      swap4\n      swap3\n      swap2\n      swap1\n      tag_79\n      jump\t// in\n    tag_78:\n      mload(0x40)\n      dup1\n      swap2\n      sub\n      swap1\n      log2\n        /* \"contracts/SecuritiesTrading.sol\":3887:3896  requestId */\n      dup1\n        /* \"contracts/SecuritiesTrading.sol\":3880:3896  return requestId */\n      swap4\n      pop\n      pop\n      pop\n      pop\n        /* \"contracts/SecuritiesTrading.sol\":2845:3904  function requestExchange(uint256 _securityOffered, uint256 _securityRequested) public returns (uint256) {... */\n      swap3\n      swap2\n      pop\n      pop\n      jump\t// out\n        /* \"contracts/SecuritiesTrading.sol\":470:529  mapping(uint256 => ExchangeRequest) public exchangeRequests */\n    tag_33:\n      mstore(0x20, 0x01)\n      dup1\n      0x00\n      mstore\n      keccak256(0x00, 0x40)\n      0x00\n      swap2\n      pop\n      swap1\n      pop\n      dup1\n      0x00\n      add\n      sload\n      swap1\n      dup1\n      0x01\n      add\n      sload\n      swap1\n      dup1\n      0x02\n      add\n      0x00\n      swap1\n      sload\n      swap1\n      0x0100\n      exp\n      swap1\n      div\n      0xffffffffffffffffffffffffffffffffffffffff\n      and\n      swap1\n      dup1\n      0x03\n      add\n      0x00\n      swap1\n      sload\n      swap1\n      0x0100\n      exp\n      swap1\n      div\n      0xffffffffffffffffffffffffffffffffffffffff\n      and\n      swap1\n      dup1\n      0x03\n      add\n      0x14\n      swap1\n      sload\n      swap1\n      0x0100\n      exp\n      swap1\n      div\n      0xff\n      and\n      swap1\n      pop\n      dup6\n      jump\t// out\n        /* \"contracts/SecuritiesTrading.sol\":1490:2035  function listSecurity(string memory _name, uint256 _price) public returns (uint256) {... */\n    tag_40:\n        /* \"contracts/SecuritiesTrading.sol\":1565:1572  uint256 */\n      0x00\n        /* \"contracts/SecuritiesTrading.sol\":1602:1603  0 */\n      dup1\n        /* \"contracts/SecuritiesTrading.sol\":1593:1599  _price */\n      dup3\n        /* \"contracts/SecuritiesTrading.sol\":1593:1603  _price > 0 */\n      gt\n        /* \"contracts/SecuritiesTrading.sol\":1585:1636  require(_price > 0, \"Price must be greater than 0\") */\n      tag_81\n      jumpi\n      mload(0x40)\n      0x08c379a000000000000000000000000000000000000000000000000000000000\n      dup2\n      mstore\n      0x04\n      add\n      tag_82\n      swap1\n      tag_83\n      jump\t// in\n    tag_82:\n      mload(0x40)\n      dup1\n      swap2\n      sub\n      swap1\n      revert\n    tag_81:\n        /* \"contracts/SecuritiesTrading.sol\":1657:1675  uint256 securityId */\n      0x00\n        /* \"contracts/SecuritiesTrading.sol\":1678:1692  nextSecurityId */\n      0x04\n      0x00\n        /* \"contracts/SecuritiesTrading.sol\":1678:1694  nextSecurityId++ */\n      dup2\n      sload\n      dup1\n      swap3\n      swap2\n      swap1\n      tag_84\n      swap1\n      tag_77\n      jump\t// in\n    tag_84:\n      swap2\n      swap1\n      pop\n      sstore\n        /* \"contracts/SecuritiesTrading.sol\":1657:1694  uint256 securityId = nextSecurityId++ */\n      swap1\n      pop\n        /* \"contracts/SecuritiesTrading.sol\":1730:1866  Security({... */\n      mload(0x40)\n      dup1\n      0x80\n      add\n      0x40\n      mstore\n      dup1\n        /* \"contracts/SecuritiesTrading.sol\":1760:1765  _name */\n      dup6\n        /* \"contracts/SecuritiesTrading.sol\":1730:1866  Security({... */\n      dup2\n      mstore\n      0x20\n      add\n        /* \"contracts/SecuritiesTrading.sol\":1787:1793  _price */\n      dup5\n        /* \"contracts/SecuritiesTrading.sol\":1730:1866  Security({... */\n      dup2\n      mstore\n      0x20\n      add\n        /* \"contracts/SecuritiesTrading.sol\":1815:1825  msg.sender */\n      caller\n        /* \"contracts/SecuritiesTrading.sol\":1730:1866  Security({... */\n      0xffffffffffffffffffffffffffffffffffffffff\n      and\n      dup2\n      mstore\n      0x20\n      add\n        /* \"contracts/SecuritiesTrading.sol\":1850:1854  true */\n      0x01\n        /* \"contracts/SecuritiesTrading.sol\":1730:1866  Security({... */\n      iszero\n      iszero\n      dup2\n      mstore\n      pop\n        /* \"contracts/SecuritiesTrading.sol\":1705:1715  securities */\n      0x00\n        /* \"contracts/SecuritiesTrading.sol\":1705:1727  securities[securityId] */\n      dup1\n        /* \"contracts/SecuritiesTrading.sol\":1716:1726  securityId */\n      dup4\n        /* \"contracts/SecuritiesTrading.sol\":1705:1727  securities[securityId] */\n      dup2\n      mstore\n      0x20\n      add\n      swap1\n      dup2\n      mstore\n      0x20\n      add\n      0x00\n      keccak256\n        /* \"contracts/SecuritiesTrading.sol\":1705:1866  securities[securityId] = Security({... */\n      0x00\n      dup3\n      add\n      mload\n      dup2\n      0x00\n      add\n      swap1\n      dup2\n      tag_85\n      swap2\n      swap1\n      tag_86\n      jump\t// in\n    tag_85:\n      pop\n      0x20\n      dup3\n      add\n      mload\n      dup2\n      0x01\n      add\n      sstore\n      0x40\n      dup3\n      add\n      mload\n      dup2\n      0x02\n      add\n      exp(0x0100, 0x00)\n      dup2\n      sload\n      dup2\n      0xffffffffffffffffffffffffffffffffffffffff\n      mul\n      not\n      and\n      swap1\n      dup4\n      0xffffffffffffffffffffffffffffffffffffffff\n      and\n      mul\n      or\n      swap1\n      sstore\n      pop\n      0x60\n      dup3\n      add\n      mload\n      dup2\n      0x02\n      add\n      exp(0x0100, 0x14)\n      dup2\n      sload\n      dup2\n      0xff\n      mul\n      not\n      and\n      swap1\n      dup4\n      iszero\n      iszero\n      mul\n      or\n      swap1\n      sstore\n      pop\n      swap1\n      pop\n      pop\n        /* \"contracts/SecuritiesTrading.sol\":1887:1901  userSecurities */\n      0x02\n        /* \"contracts/SecuritiesTrading.sol\":1887:1913  userSecurities[msg.sender] */\n      0x00\n        /* \"contracts/SecuritiesTrading.sol\":1902:1912  msg.sender */\n      caller\n        /* \"contracts/SecuritiesTrading.sol\":1887:1913  userSecurities[msg.sender] */\n      0xffffffffffffffffffffffffffffffffffffffff\n      and\n      0xffffffffffffffffffffffffffffffffffffffff\n      and\n      dup2\n      mstore\n      0x20\n      add\n      swap1\n      dup2\n      mstore\n      0x20\n      add\n      0x00\n      keccak256\n        /* \"contracts/SecuritiesTrading.sol\":1919:1929  securityId */\n      dup2\n        /* \"contracts/SecuritiesTrading.sol\":1887:1930  userSecurities[msg.sender].push(securityId) */\n      swap1\n      dup1\n      0x01\n      dup2\n      sload\n      add\n      dup1\n      dup3\n      sstore\n      dup1\n      swap2\n      pop\n      pop\n      0x01\n      swap1\n      sub\n      swap1\n      0x00\n      mstore\n      keccak256(0x00, 0x20)\n      add\n      0x00\n      swap1\n      swap2\n      swap1\n      swap2\n      swap1\n      swap2\n      pop\n      sstore\n        /* \"contracts/SecuritiesTrading.sol\":1961:1971  securityId */\n      dup1\n        /* \"contracts/SecuritiesTrading.sol\":1946:1999  SecurityListed(securityId, _name, _price, msg.sender) */\n      0xceb0bf651dfcd2820b323207631d6ba7c71c145c326d630f7d9ca846aeaf25b0\n        /* \"contracts/SecuritiesTrading.sol\":1973:1978  _name */\n      dup6\n        /* \"contracts/SecuritiesTrading.sol\":1980:1986  _price */\n      dup6\n        /* \"contracts/SecuritiesTrading.sol\":1988:1998  msg.sender */\n      caller\n        /* \"contracts/SecuritiesTrading.sol\":1946:1999  SecurityListed(securityId, _name, _price, msg.sender) */\n      mload(0x40)\n      tag_88\n      swap4\n      swap3\n      swap2\n      swap1\n      tag_89\n      jump\t// in\n    tag_88:\n      mload(0x40)\n      dup1\n      swap2\n      sub\n      swap1\n      log2\n        /* \"contracts/SecuritiesTrading.sol\":2017:2027  securityId */\n      dup1\n        /* \"contracts/SecuritiesTrading.sol\":2010:2027  return securityId */\n      swap2\n      pop\n      pop\n        /* \"contracts/SecuritiesTrading.sol\":1490:2035  function listSecurity(string memory _name, uint256 _price) public returns (uint256) {... */\n      swap3\n      swap2\n      pop\n      pop\n      jump\t// out\n        /* \"contracts/SecuritiesTrading.sol\":5590:6482  function getUserSecurities() public view returns (... */\n    tag_44:\n        /* \"contracts/SecuritiesTrading.sol\":5650:5678  uint256[] memory securityIds */\n      0x60\n        /* \"contracts/SecuritiesTrading.sol\":5689:5710  string[] memory names */\n      dup1\n        /* \"contracts/SecuritiesTrading.sol\":5721:5744  uint256[] memory prices */\n      0x60\n        /* \"contracts/SecuritiesTrading.sol\":5763:5796  uint256[] storage userSecurityIds */\n      0x00\n        /* \"contracts/SecuritiesTrading.sol\":5799:5813  userSecurities */\n      0x02\n        /* \"contracts/SecuritiesTrading.sol\":5799:5825  userSecurities[msg.sender] */\n      0x00\n        /* \"contracts/SecuritiesTrading.sol\":5814:5824  msg.sender */\n      caller\n        /* \"contracts/SecuritiesTrading.sol\":5799:5825  userSecurities[msg.sender] */\n      0xffffffffffffffffffffffffffffffffffffffff\n      and\n      0xffffffffffffffffffffffffffffffffffffffff\n      and\n      dup2\n      mstore\n      0x20\n      add\n      swap1\n      dup2\n      mstore\n      0x20\n      add\n      0x00\n      keccak256\n        /* \"contracts/SecuritiesTrading.sol\":5763:5825  uint256[] storage userSecurityIds = userSecurities[msg.sender] */\n      swap1\n      pop\n        /* \"contracts/SecuritiesTrading.sol\":5836:5850  uint256 length */\n      0x00\n        /* \"contracts/SecuritiesTrading.sol\":5853:5868  userSecurityIds */\n      dup2\n        /* \"contracts/SecuritiesTrading.sol\":5853:5875  userSecurityIds.length */\n      dup1\n      sload\n      swap1\n      pop\n        /* \"contracts/SecuritiesTrading.sol\":5836:5875  uint256 length = userSecurityIds.length */\n      swap1\n      pop\n        /* \"contracts/SecuritiesTrading.sol\":5917:5923  length */\n      dup1\n        /* \"contracts/SecuritiesTrading.sol\":5904:5924  new string[](length) */\n      0xffffffffffffffff\n      dup2\n      gt\n      iszero\n      tag_91\n      jumpi\n      tag_92\n      tag_93\n      jump\t// in\n    tag_92:\n    tag_91:\n      mload(0x40)\n      swap1\n      dup1\n      dup3\n      mstore\n      dup1\n      0x20\n      mul\n      0x20\n      add\n      dup3\n      add\n      0x40\n      mstore\n      dup1\n      iszero\n      tag_94\n      jumpi\n      dup2\n      0x20\n      add\n    tag_95:\n      0x60\n      dup2\n      mstore\n      0x20\n      add\n      swap1\n      0x01\n      swap1\n      sub\n      swap1\n      dup2\n      tag_95\n      jumpi\n      swap1\n      pop\n    tag_94:\n      pop\n        /* \"contracts/SecuritiesTrading.sol\":5896:5924  names = new string[](length) */\n      swap4\n      pop\n        /* \"contracts/SecuritiesTrading.sol\":5958:5964  length */\n      dup1\n        /* \"contracts/SecuritiesTrading.sol\":5944:5965  new uint256[](length) */\n      0xffffffffffffffff\n      dup2\n      gt\n      iszero\n      tag_96\n      jumpi\n      tag_97\n      tag_93\n      jump\t// in\n    tag_97:\n    tag_96:\n      mload(0x40)\n      swap1\n      dup1\n      dup3\n      mstore\n      dup1\n      0x20\n      mul\n      0x20\n      add\n      dup3\n      add\n      0x40\n      mstore\n      dup1\n      iszero\n      tag_98\n      jumpi\n      dup2\n      0x20\n      add\n      0x20\n      dup3\n      mul\n      dup1\n      calldatasize\n      dup4\n      calldatacopy\n      dup1\n      dup3\n      add\n      swap2\n      pop\n      pop\n      swap1\n      pop\n    tag_98:\n      pop\n        /* \"contracts/SecuritiesTrading.sol\":5935:5965  prices = new uint256[](length) */\n      swap3\n      pop\n        /* \"contracts/SecuritiesTrading.sol\":6004:6010  length */\n      dup1\n        /* \"contracts/SecuritiesTrading.sol\":5990:6011  new uint256[](length) */\n      0xffffffffffffffff\n      dup2\n      gt\n      iszero\n      tag_99\n      jumpi\n      tag_100\n      tag_93\n      jump\t// in\n    tag_100:\n    tag_99:\n      mload(0x40)\n      swap1\n      dup1\n      dup3\n      mstore\n      dup1\n      0x20\n      mul\n      0x20\n      add\n      dup3\n      add\n      0x40\n      mstore\n      dup1\n      iszero\n      tag_101\n      jumpi\n      dup2\n      0x20\n      add\n      0x20\n      dup3\n      mul\n      dup1\n      calldatasize\n      dup4\n      calldatacopy\n      dup1\n      dup3\n      add\n      swap2\n      pop\n      pop\n      swap1\n      pop\n    tag_101:\n      pop\n        /* \"contracts/SecuritiesTrading.sol\":5976:6011  securityIds = new uint256[](length) */\n      swap5\n      pop\n        /* \"contracts/SecuritiesTrading.sol\":6037:6046  uint256 i */\n      0x00\n        /* \"contracts/SecuritiesTrading.sol\":6032:6419  for (uint256 i = 0; i < length; i++) {... */\n    tag_102:\n        /* \"contracts/SecuritiesTrading.sol\":6056:6062  length */\n      dup2\n        /* \"contracts/SecuritiesTrading.sol\":6052:6053  i */\n      dup2\n        /* \"contracts/SecuritiesTrading.sol\":6052:6062  i < length */\n      lt\n        /* \"contracts/SecuritiesTrading.sol\":6032:6419  for (uint256 i = 0; i < length; i++) {... */\n      iszero\n      tag_103\n      jumpi\n        /* \"contracts/SecuritiesTrading.sol\":6084:6102  uint256 securityId */\n      0x00\n        /* \"contracts/SecuritiesTrading.sol\":6105:6120  userSecurityIds */\n      dup4\n        /* \"contracts/SecuritiesTrading.sol\":6121:6122  i */\n      dup3\n        /* \"contracts/SecuritiesTrading.sol\":6105:6123  userSecurityIds[i] */\n      dup2\n      sload\n      dup2\n      lt\n      tag_105\n      jumpi\n      tag_106\n      tag_107\n      jump\t// in\n    tag_106:\n    tag_105:\n      swap1\n      0x00\n      mstore\n      keccak256(0x00, 0x20)\n      add\n      sload\n        /* \"contracts/SecuritiesTrading.sol\":6084:6123  uint256 securityId = userSecurityIds[i] */\n      swap1\n      pop\n        /* \"contracts/SecuritiesTrading.sol\":6138:6163  Security storage security */\n      0x00\n        /* \"contracts/SecuritiesTrading.sol\":6166:6176  securities */\n      dup1\n        /* \"contracts/SecuritiesTrading.sol\":6166:6188  securities[securityId] */\n      0x00\n        /* \"contracts/SecuritiesTrading.sol\":6177:6187  securityId */\n      dup4\n        /* \"contracts/SecuritiesTrading.sol\":6166:6188  securities[securityId] */\n      dup2\n      mstore\n      0x20\n      add\n      swap1\n      dup2\n      mstore\n      0x20\n      add\n      0x00\n      keccak256\n        /* \"contracts/SecuritiesTrading.sol\":6138:6188  Security storage security = securities[securityId] */\n      swap1\n      pop\n        /* \"contracts/SecuritiesTrading.sol\":6225:6235  msg.sender */\n      caller\n        /* \"contracts/SecuritiesTrading.sol\":6207:6235  security.owner == msg.sender */\n      0xffffffffffffffffffffffffffffffffffffffff\n      and\n        /* \"contracts/SecuritiesTrading.sol\":6207:6215  security */\n      dup2\n        /* \"contracts/SecuritiesTrading.sol\":6207:6221  security.owner */\n      0x02\n      add\n      0x00\n      swap1\n      sload\n      swap1\n      0x0100\n      exp\n      swap1\n      div\n      0xffffffffffffffffffffffffffffffffffffffff\n      and\n        /* \"contracts/SecuritiesTrading.sol\":6207:6235  security.owner == msg.sender */\n      0xffffffffffffffffffffffffffffffffffffffff\n      and\n      eq\n        /* \"contracts/SecuritiesTrading.sol\":6207:6256  security.owner == msg.sender && security.isListed */\n      dup1\n      iszero\n      tag_109\n      jumpi\n      pop\n        /* \"contracts/SecuritiesTrading.sol\":6239:6247  security */\n      dup1\n        /* \"contracts/SecuritiesTrading.sol\":6239:6256  security.isListed */\n      0x02\n      add\n      0x14\n      swap1\n      sload\n      swap1\n      0x0100\n      exp\n      swap1\n      div\n      0xff\n      and\n        /* \"contracts/SecuritiesTrading.sol\":6207:6256  security.owner == msg.sender && security.isListed */\n    tag_109:\n        /* \"contracts/SecuritiesTrading.sol\":6203:6408  if (security.owner == msg.sender && security.isListed) {... */\n      iszero\n      tag_110\n      jumpi\n        /* \"contracts/SecuritiesTrading.sol\":6294:6304  securityId */\n      dup2\n        /* \"contracts/SecuritiesTrading.sol\":6277:6288  securityIds */\n      dup9\n        /* \"contracts/SecuritiesTrading.sol\":6289:6290  i */\n      dup5\n        /* \"contracts/SecuritiesTrading.sol\":6277:6291  securityIds[i] */\n      dup2\n      mload\n      dup2\n      lt\n      tag_111\n      jumpi\n      tag_112\n      tag_107\n      jump\t// in\n    tag_112:\n    tag_111:\n      0x20\n      mul\n      0x20\n      add\n      add\n        /* \"contracts/SecuritiesTrading.sol\":6277:6304  securityIds[i] = securityId */\n      dup2\n      dup2\n      mstore\n      pop\n      pop\n        /* \"contracts/SecuritiesTrading.sol\":6334:6342  security */\n      dup1\n        /* \"contracts/SecuritiesTrading.sol\":6334:6347  security.name */\n      0x00\n      add\n        /* \"contracts/SecuritiesTrading.sol\":6323:6347  names[i] = security.name */\n      dup1\n      sload\n      tag_113\n      swap1\n      tag_114\n      jump\t// in\n    tag_113:\n      dup1\n      0x1f\n      add\n      0x20\n      dup1\n      swap2\n      div\n      mul\n      0x20\n      add\n      mload(0x40)\n      swap1\n      dup2\n      add\n      0x40\n      mstore\n      dup1\n      swap3\n      swap2\n      swap1\n      dup2\n      dup2\n      mstore\n      0x20\n      add\n      dup3\n      dup1\n      sload\n      tag_115\n      swap1\n      tag_114\n      jump\t// in\n    tag_115:\n      dup1\n      iszero\n      tag_116\n      jumpi\n      dup1\n      0x1f\n      lt\n      tag_117\n      jumpi\n      0x0100\n      dup1\n      dup4\n      sload\n      div\n      mul\n      dup4\n      mstore\n      swap2\n      0x20\n      add\n      swap2\n      jump(tag_116)\n    tag_117:\n      dup3\n      add\n      swap2\n      swap1\n      0x00\n      mstore\n      keccak256(0x00, 0x20)\n      swap1\n    tag_118:\n      dup2\n      sload\n      dup2\n      mstore\n      swap1\n      0x01\n      add\n      swap1\n      0x20\n      add\n      dup1\n      dup4\n      gt\n      tag_118\n      jumpi\n      dup3\n      swap1\n      sub\n      0x1f\n      and\n      dup3\n      add\n      swap2\n    tag_116:\n      pop\n      pop\n      pop\n      pop\n      pop\n        /* \"contracts/SecuritiesTrading.sol\":6323:6328  names */\n      dup8\n        /* \"contracts/SecuritiesTrading.sol\":6329:6330  i */\n      dup5\n        /* \"contracts/SecuritiesTrading.sol\":6323:6331  names[i] */\n      dup2\n      mload\n      dup2\n      lt\n      tag_119\n      jumpi\n      tag_120\n      tag_107\n      jump\t// in\n    tag_120:\n    tag_119:\n      0x20\n      mul\n      0x20\n      add\n      add\n        /* \"contracts/SecuritiesTrading.sol\":6323:6347  names[i] = security.name */\n      dup2\n      swap1\n      mstore\n      pop\n        /* \"contracts/SecuritiesTrading.sol\":6378:6386  security */\n      dup1\n        /* \"contracts/SecuritiesTrading.sol\":6378:6392  security.price */\n      0x01\n      add\n      sload\n        /* \"contracts/SecuritiesTrading.sol\":6366:6372  prices */\n      dup7\n        /* \"contracts/SecuritiesTrading.sol\":6373:6374  i */\n      dup5\n        /* \"contracts/SecuritiesTrading.sol\":6366:6375  prices[i] */\n      dup2\n      mload\n      dup2\n      lt\n      tag_121\n      jumpi\n      tag_122\n      tag_107\n      jump\t// in\n    tag_122:\n    tag_121:\n      0x20\n      mul\n      0x20\n      add\n      add\n        /* \"contracts/SecuritiesTrading.sol\":6366:6392  prices[i] = security.price */\n      dup2\n      dup2\n      mstore\n      pop\n      pop\n        /* \"contracts/SecuritiesTrading.sol\":6203:6408  if (security.owner == msg.sender && security.isListed) {... */\n    tag_110:\n        /* \"contracts/SecuritiesTrading.sol\":6069:6419  {... */\n      pop\n      pop\n        /* \"contracts/SecuritiesTrading.sol\":6064:6067  i++ */\n      dup1\n      dup1\n      0x01\n      add\n      swap2\n      pop\n      pop\n        /* \"contracts/SecuritiesTrading.sol\":6032:6419  for (uint256 i = 0; i < length; i++) {... */\n      jump(tag_102)\n    tag_103:\n      pop\n        /* \"contracts/SecuritiesTrading.sol\":6439:6474  return (securityIds, names, prices) */\n      pop\n      pop\n        /* \"contracts/SecuritiesTrading.sol\":5590:6482  function getUserSecurities() public view returns (... */\n      swap1\n      swap2\n      swap3\n      jump\t// out\n        /* \"contracts/SecuritiesTrading.sol\":5206:5578  function rejectExchange(uint256 _requestId) public {... */\n    tag_50:\n        /* \"contracts/SecuritiesTrading.sol\":5268:5299  ExchangeRequest storage request */\n      0x00\n        /* \"contracts/SecuritiesTrading.sol\":5302:5318  exchangeRequests */\n      0x01\n        /* \"contracts/SecuritiesTrading.sol\":5302:5330  exchangeRequests[_requestId] */\n      0x00\n        /* \"contracts/SecuritiesTrading.sol\":5319:5329  _requestId */\n      dup4\n        /* \"contracts/SecuritiesTrading.sol\":5302:5330  exchangeRequests[_requestId] */\n      dup2\n      mstore\n      0x20\n      add\n      swap1\n      dup2\n      mstore\n      0x20\n      add\n      0x00\n      keccak256\n        /* \"contracts/SecuritiesTrading.sol\":5268:5330  ExchangeRequest storage request = exchangeRequests[_requestId] */\n      swap1\n      pop\n        /* \"contracts/SecuritiesTrading.sol\":5349:5356  request */\n      dup1\n        /* \"contracts/SecuritiesTrading.sol\":5349:5366  request.isPending */\n      0x03\n      add\n      0x14\n      swap1\n      sload\n      swap1\n      0x0100\n      exp\n      swap1\n      div\n      0xff\n      and\n        /* \"contracts/SecuritiesTrading.sol\":5341:5402  require(request.isPending, \"Exchange request is not pending\") */\n      tag_124\n      jumpi\n      mload(0x40)\n      0x08c379a000000000000000000000000000000000000000000000000000000000\n      dup2\n      mstore\n      0x04\n      add\n      tag_125\n      swap1\n      tag_126\n      jump\t// in\n    tag_125:\n      mload(0x40)\n      dup1\n      swap2\n      sub\n      swap1\n      revert\n    tag_124:\n        /* \"contracts/SecuritiesTrading.sol\":5435:5442  request */\n      dup1\n        /* \"contracts/SecuritiesTrading.sol\":5435:5451  request.receiver */\n      0x03\n      add\n      0x00\n      swap1\n      sload\n      swap1\n      0x0100\n      exp\n      swap1\n      div\n      0xffffffffffffffffffffffffffffffffffffffff\n      and\n        /* \"contracts/SecuritiesTrading.sol\":5421:5451  msg.sender == request.receiver */\n      0xffffffffffffffffffffffffffffffffffffffff\n      and\n        /* \"contracts/SecuritiesTrading.sol\":5421:5431  msg.sender */\n      caller\n        /* \"contracts/SecuritiesTrading.sol\":5421:5451  msg.sender == request.receiver */\n      0xffffffffffffffffffffffffffffffffffffffff\n      and\n      eq\n        /* \"contracts/SecuritiesTrading.sol\":5413:5480  require(msg.sender == request.receiver, \"Only receiver can reject\") */\n      tag_127\n      jumpi\n      mload(0x40)\n      0x08c379a000000000000000000000000000000000000000000000000000000000\n      dup2\n      mstore\n      0x04\n      add\n      tag_128\n      swap1\n      tag_129\n      jump\t// in\n    tag_128:\n      mload(0x40)\n      dup1\n      swap2\n      sub\n      swap1\n      revert\n    tag_127:\n        /* \"contracts/SecuritiesTrading.sol\":5521:5526  false */\n      0x00\n        /* \"contracts/SecuritiesTrading.sol\":5501:5508  request */\n      dup2\n        /* \"contracts/SecuritiesTrading.sol\":5501:5518  request.isPending */\n      0x03\n      add\n      0x14\n        /* \"contracts/SecuritiesTrading.sol\":5501:5526  request.isPending = false */\n      0x0100\n      exp\n      dup2\n      sload\n      dup2\n      0xff\n      mul\n      not\n      and\n      swap1\n      dup4\n      iszero\n      iszero\n      mul\n      or\n      swap1\n      sstore\n      pop\n        /* \"contracts/SecuritiesTrading.sol\":5559:5569  _requestId */\n      dup2\n        /* \"contracts/SecuritiesTrading.sol\":5542:5570  ExchangeRejected(_requestId) */\n      0xa1c9c2960de4cf480352c598967a5bc05fdf3ebff2da8172b62187afa5dc0343\n      mload(0x40)\n      mload(0x40)\n      dup1\n      swap2\n      sub\n      swap1\n      log2\n        /* \"contracts/SecuritiesTrading.sol\":5257:5578  {... */\n      pop\n        /* \"contracts/SecuritiesTrading.sol\":5206:5578  function rejectExchange(uint256 _requestId) public {... */\n      pop\n      jump\t// out\n        /* \"contracts/SecuritiesTrading.sol\":3916:5194  function approveExchange(uint256 _requestId) public {... */\n    tag_54:\n        /* \"contracts/SecuritiesTrading.sol\":3979:4010  ExchangeRequest storage request */\n      0x00\n        /* \"contracts/SecuritiesTrading.sol\":4013:4029  exchangeRequests */\n      0x01\n        /* \"contracts/SecuritiesTrading.sol\":4013:4041  exchangeRequests[_requestId] */\n      0x00\n        /* \"contracts/SecuritiesTrading.sol\":4030:4040  _requestId */\n      dup4\n        /* \"contracts/SecuritiesTrading.sol\":4013:4041  exchangeRequests[_requestId] */\n      dup2\n      mstore\n      0x20\n      add\n      swap1\n      dup2\n      mstore\n      0x20\n      add\n      0x00\n      keccak256\n        /* \"contracts/SecuritiesTrading.sol\":3979:4041  ExchangeRequest storage request = exchangeRequests[_requestId] */\n      swap1\n      pop\n        /* \"contracts/SecuritiesTrading.sol\":4052:4084  Security storage securityOffered */\n      0x00\n        /* \"contracts/SecuritiesTrading.sol\":4087:4097  securities */\n      dup1\n        /* \"contracts/SecuritiesTrading.sol\":4087:4122  securities[request.securityOffered] */\n      0x00\n        /* \"contracts/SecuritiesTrading.sol\":4098:4105  request */\n      dup4\n        /* \"contracts/SecuritiesTrading.sol\":4098:4121  request.securityOffered */\n      0x00\n      add\n      sload\n        /* \"contracts/SecuritiesTrading.sol\":4087:4122  securities[request.securityOffered] */\n      dup2\n      mstore\n      0x20\n      add\n      swap1\n      dup2\n      mstore\n      0x20\n      add\n      0x00\n      keccak256\n        /* \"contracts/SecuritiesTrading.sol\":4052:4122  Security storage securityOffered = securities[request.securityOffered] */\n      swap1\n      pop\n        /* \"contracts/SecuritiesTrading.sol\":4133:4167  Security storage securityRequested */\n      0x00\n        /* \"contracts/SecuritiesTrading.sol\":4170:4180  securities */\n      dup1\n        /* \"contracts/SecuritiesTrading.sol\":4170:4207  securities[request.securityRequested] */\n      0x00\n        /* \"contracts/SecuritiesTrading.sol\":4181:4188  request */\n      dup5\n        /* \"contracts/SecuritiesTrading.sol\":4181:4206  request.securityRequested */\n      0x01\n      add\n      sload\n        /* \"contracts/SecuritiesTrading.sol\":4170:4207  securities[request.securityRequested] */\n      dup2\n      mstore\n      0x20\n      add\n      swap1\n      dup2\n      mstore\n      0x20\n      add\n      0x00\n      keccak256\n        /* \"contracts/SecuritiesTrading.sol\":4133:4207  Security storage securityRequested = securities[request.securityRequested] */\n      swap1\n      pop\n        /* \"contracts/SecuritiesTrading.sol\":4236:4243  request */\n      dup3\n        /* \"contracts/SecuritiesTrading.sol\":4236:4253  request.isPending */\n      0x03\n      add\n      0x14\n      swap1\n      sload\n      swap1\n      0x0100\n      exp\n      swap1\n      div\n      0xff\n      and\n        /* \"contracts/SecuritiesTrading.sol\":4228:4289  require(request.isPending, \"Exchange request is not pending\") */\n      tag_131\n      jumpi\n      mload(0x40)\n      0x08c379a000000000000000000000000000000000000000000000000000000000\n      dup2\n      mstore\n      0x04\n      add\n      tag_132\n      swap1\n      tag_126\n      jump\t// in\n    tag_132:\n      mload(0x40)\n      dup1\n      swap2\n      sub\n      swap1\n      revert\n    tag_131:\n        /* \"contracts/SecuritiesTrading.sol\":4322:4329  request */\n      dup3\n        /* \"contracts/SecuritiesTrading.sol\":4322:4338  request.receiver */\n      0x03\n      add\n      0x00\n      swap1\n      sload\n      swap1\n      0x0100\n      exp\n      swap1\n      div\n      0xffffffffffffffffffffffffffffffffffffffff\n      and\n        /* \"contracts/SecuritiesTrading.sol\":4308:4338  msg.sender == request.receiver */\n      0xffffffffffffffffffffffffffffffffffffffff\n      and\n        /* \"contracts/SecuritiesTrading.sol\":4308:4318  msg.sender */\n      caller\n        /* \"contracts/SecuritiesTrading.sol\":4308:4338  msg.sender == request.receiver */\n      0xffffffffffffffffffffffffffffffffffffffff\n      and\n      eq\n        /* \"contracts/SecuritiesTrading.sol\":4300:4368  require(msg.sender == request.receiver, \"Only receiver can approve\") */\n      tag_133\n      jumpi\n      mload(0x40)\n      0x08c379a000000000000000000000000000000000000000000000000000000000\n      dup2\n      mstore\n      0x04\n      add\n      tag_134\n      swap1\n      tag_135\n      jump\t// in\n    tag_134:\n      mload(0x40)\n      dup1\n      swap2\n      sub\n      swap1\n      revert\n    tag_133:\n        /* \"contracts/SecuritiesTrading.sol\":4414:4424  msg.sender */\n      caller\n        /* \"contracts/SecuritiesTrading.sol\":4387:4424  securityRequested.owner == msg.sender */\n      0xffffffffffffffffffffffffffffffffffffffff\n      and\n        /* \"contracts/SecuritiesTrading.sol\":4387:4404  securityRequested */\n      dup2\n        /* \"contracts/SecuritiesTrading.sol\":4387:4410  securityRequested.owner */\n      0x02\n      add\n      0x00\n      swap1\n      sload\n      swap1\n      0x0100\n      exp\n      swap1\n      div\n      0xffffffffffffffffffffffffffffffffffffffff\n      and\n        /* \"contracts/SecuritiesTrading.sol\":4387:4424  securityRequested.owner == msg.sender */\n      0xffffffffffffffffffffffffffffffffffffffff\n      and\n      eq\n        /* \"contracts/SecuritiesTrading.sol\":4379:4464  require(securityRequested.owner == msg.sender, \"You must own the requested security\") */\n      tag_136\n      jumpi\n      mload(0x40)\n      0x08c379a000000000000000000000000000000000000000000000000000000000\n      dup2\n      mstore\n      0x04\n      add\n      tag_137\n      swap1\n      tag_138\n      jump\t// in\n    tag_137:\n      mload(0x40)\n      dup1\n      swap2\n      sub\n      swap1\n      revert\n    tag_136:\n        /* \"contracts/SecuritiesTrading.sol\":4485:4554  _removeFromUserSecurities(request.requester, request.securityOffered) */\n      tag_139\n        /* \"contracts/SecuritiesTrading.sol\":4511:4518  request */\n      dup4\n        /* \"contracts/SecuritiesTrading.sol\":4511:4528  request.requester */\n      0x02\n      add\n      0x00\n      swap1\n      sload\n      swap1\n      0x0100\n      exp\n      swap1\n      div\n      0xffffffffffffffffffffffffffffffffffffffff\n      and\n        /* \"contracts/SecuritiesTrading.sol\":4530:4537  request */\n      dup5\n        /* \"contracts/SecuritiesTrading.sol\":4530:4553  request.securityOffered */\n      0x00\n      add\n      sload\n        /* \"contracts/SecuritiesTrading.sol\":4485:4510  _removeFromUserSecurities */\n      tag_140\n        /* \"contracts/SecuritiesTrading.sol\":4485:4554  _removeFromUserSecurities(request.requester, request.securityOffered) */\n      jump\t// in\n    tag_139:\n        /* \"contracts/SecuritiesTrading.sol\":4565:4635  _removeFromUserSecurities(request.receiver, request.securityRequested) */\n      tag_141\n        /* \"contracts/SecuritiesTrading.sol\":4591:4598  request */\n      dup4\n        /* \"contracts/SecuritiesTrading.sol\":4591:4607  request.receiver */\n      0x03\n      add\n      0x00\n      swap1\n      sload\n      swap1\n      0x0100\n      exp\n      swap1\n      div\n      0xffffffffffffffffffffffffffffffffffffffff\n      and\n        /* \"contracts/SecuritiesTrading.sol\":4609:4616  request */\n      dup5\n        /* \"contracts/SecuritiesTrading.sol\":4609:4634  request.securityRequested */\n      0x01\n      add\n      sload\n        /* \"contracts/SecuritiesTrading.sol\":4565:4590  _removeFromUserSecurities */\n      tag_140\n        /* \"contracts/SecuritiesTrading.sol\":4565:4635  _removeFromUserSecurities(request.receiver, request.securityRequested) */\n      jump\t// in\n    tag_141:\n        /* \"contracts/SecuritiesTrading.sol\":4656:4673  address tempOwner */\n      0x00\n        /* \"contracts/SecuritiesTrading.sol\":4676:4691  securityOffered */\n      dup3\n        /* \"contracts/SecuritiesTrading.sol\":4676:4697  securityOffered.owner */\n      0x02\n      add\n      0x00\n      swap1\n      sload\n      swap1\n      0x0100\n      exp\n      swap1\n      div\n      0xffffffffffffffffffffffffffffffffffffffff\n      and\n        /* \"contracts/SecuritiesTrading.sol\":4656:4697  address tempOwner = securityOffered.owner */\n      swap1\n      pop\n        /* \"contracts/SecuritiesTrading.sol\":4732:4749  securityRequested */\n      dup2\n        /* \"contracts/SecuritiesTrading.sol\":4732:4755  securityRequested.owner */\n      0x02\n      add\n      0x00\n      swap1\n      sload\n      swap1\n      0x0100\n      exp\n      swap1\n      div\n      0xffffffffffffffffffffffffffffffffffffffff\n      and\n        /* \"contracts/SecuritiesTrading.sol\":4708:4723  securityOffered */\n      dup4\n        /* \"contracts/SecuritiesTrading.sol\":4708:4729  securityOffered.owner */\n      0x02\n      add\n      0x00\n        /* \"contracts/SecuritiesTrading.sol\":4708:4755  securityOffered.owner = securityRequested.owner */\n      0x0100\n      exp\n      dup2\n      sload\n      dup2\n      0xffffffffffffffffffffffffffffffffffffffff\n      mul\n      not\n      and\n      swap1\n      dup4\n      0xffffffffffffffffffffffffffffffffffffffff\n      and\n      mul\n      or\n      swap1\n      sstore\n      pop\n        /* \"contracts/SecuritiesTrading.sol\":4792:4801  tempOwner */\n      dup1\n        /* \"contracts/SecuritiesTrading.sol\":4766:4783  securityRequested */\n      dup3\n        /* \"contracts/SecuritiesTrading.sol\":4766:4789  securityRequested.owner */\n      0x02\n      add\n      0x00\n        /* \"contracts/SecuritiesTrading.sol\":4766:4801  securityRequested.owner = tempOwner */\n      0x0100\n      exp\n      dup2\n      sload\n      dup2\n      0xffffffffffffffffffffffffffffffffffffffff\n      mul\n      not\n      and\n      swap1\n      dup4\n      0xffffffffffffffffffffffffffffffffffffffff\n      and\n      mul\n      or\n      swap1\n      sstore\n      pop\n        /* \"contracts/SecuritiesTrading.sol\":4822:4836  userSecurities */\n      0x02\n        /* \"contracts/SecuritiesTrading.sol\":4822:4859  userSecurities[securityOffered.owner] */\n      0x00\n        /* \"contracts/SecuritiesTrading.sol\":4837:4852  securityOffered */\n      dup5\n        /* \"contracts/SecuritiesTrading.sol\":4837:4858  securityOffered.owner */\n      0x02\n      add\n      0x00\n      swap1\n      sload\n      swap1\n      0x0100\n      exp\n      swap1\n      div\n      0xffffffffffffffffffffffffffffffffffffffff\n      and\n        /* \"contracts/SecuritiesTrading.sol\":4822:4859  userSecurities[securityOffered.owner] */\n      0xffffffffffffffffffffffffffffffffffffffff\n      and\n      0xffffffffffffffffffffffffffffffffffffffff\n      and\n      dup2\n      mstore\n      0x20\n      add\n      swap1\n      dup2\n      mstore\n      0x20\n      add\n      0x00\n      keccak256\n        /* \"contracts/SecuritiesTrading.sol\":4865:4872  request */\n      dup5\n        /* \"contracts/SecuritiesTrading.sol\":4865:4888  request.securityOffered */\n      0x00\n      add\n      sload\n        /* \"contracts/SecuritiesTrading.sol\":4822:4889  userSecurities[securityOffered.owner].push(request.securityOffered) */\n      swap1\n      dup1\n      0x01\n      dup2\n      sload\n      add\n      dup1\n      dup3\n      sstore\n      dup1\n      swap2\n      pop\n      pop\n      0x01\n      swap1\n      sub\n      swap1\n      0x00\n      mstore\n      keccak256(0x00, 0x20)\n      add\n      0x00\n      swap1\n      swap2\n      swap1\n      swap2\n      swap1\n      swap2\n      pop\n      sstore\n        /* \"contracts/SecuritiesTrading.sol\":4900:4914  userSecurities */\n      0x02\n        /* \"contracts/SecuritiesTrading.sol\":4900:4939  userSecurities[securityRequested.owner] */\n      0x00\n        /* \"contracts/SecuritiesTrading.sol\":4915:4932  securityRequested */\n      dup4\n        /* \"contracts/SecuritiesTrading.sol\":4915:4938  securityRequested.owner */\n      0x02\n      add\n      0x00\n      swap1\n      sload\n      swap1\n      0x0100\n      exp\n      swap1\n      div\n      0xffffffffffffffffffffffffffffffffffffffff\n      and\n        /* \"contracts/SecuritiesTrading.sol\":4900:4939  userSecurities[securityRequested.owner] */\n      0xffffffffffffffffffffffffffffffffffffffff\n      and\n      0xffffffffffffffffffffffffffffffffffffffff\n      and\n      dup2\n      mstore\n      0x20\n      add\n      swap1\n      dup2\n      mstore\n      0x20\n      add\n      0x00\n      keccak256\n        /* \"contracts/SecuritiesTrading.sol\":4945:4952  request */\n      dup5\n        /* \"contracts/SecuritiesTrading.sol\":4945:4970  request.securityRequested */\n      0x01\n      add\n      sload\n        /* \"contracts/SecuritiesTrading.sol\":4900:4971  userSecurities[securityRequested.owner].push(request.securityRequested) */\n      swap1\n      dup1\n      0x01\n      dup2\n      sload\n      add\n      dup1\n      dup3\n      sstore\n      dup1\n      swap2\n      pop\n      pop\n      0x01\n      swap1\n      sub\n      swap1\n      0x00\n      mstore\n      keccak256(0x00, 0x20)\n      add\n      0x00\n      swap1\n      swap2\n      swap1\n      swap2\n      swap1\n      swap2\n      pop\n      sstore\n        /* \"contracts/SecuritiesTrading.sol\":5012:5017  false */\n      0x00\n        /* \"contracts/SecuritiesTrading.sol\":4992:4999  request */\n      dup5\n        /* \"contracts/SecuritiesTrading.sol\":4992:5009  request.isPending */\n      0x03\n      add\n      0x14\n        /* \"contracts/SecuritiesTrading.sol\":4992:5017  request.isPending = false */\n      0x0100\n      exp\n      dup2\n      sload\n      dup2\n      0xff\n      mul\n      not\n      and\n      swap1\n      dup4\n      iszero\n      iszero\n      mul\n      or\n      swap1\n      sstore\n      pop\n        /* \"contracts/SecuritiesTrading.sol\":5061:5071  _requestId */\n      dup5\n        /* \"contracts/SecuritiesTrading.sol\":5043:5186  ExchangeCompleted(_requestId, request.securityOffered, request.securityRequested, ... */\n      0x4cce1d3129dd8e1d74219f4329d186f2910a4806ab09294065620e13e099ba7f\n        /* \"contracts/SecuritiesTrading.sol\":5073:5080  request */\n      dup6\n        /* \"contracts/SecuritiesTrading.sol\":5073:5096  request.securityOffered */\n      0x00\n      add\n      sload\n        /* \"contracts/SecuritiesTrading.sol\":5098:5105  request */\n      dup7\n        /* \"contracts/SecuritiesTrading.sol\":5098:5123  request.securityRequested */\n      0x01\n      add\n      sload\n        /* \"contracts/SecuritiesTrading.sol\":5139:5154  securityOffered */\n      dup7\n        /* \"contracts/SecuritiesTrading.sol\":5139:5160  securityOffered.owner */\n      0x02\n      add\n      0x00\n      swap1\n      sload\n      swap1\n      0x0100\n      exp\n      swap1\n      div\n      0xffffffffffffffffffffffffffffffffffffffff\n      and\n        /* \"contracts/SecuritiesTrading.sol\":5162:5179  securityRequested */\n      dup7\n        /* \"contracts/SecuritiesTrading.sol\":5162:5185  securityRequested.owner */\n      0x02\n      add\n      0x00\n      swap1\n      sload\n      swap1\n      0x0100\n      exp\n      swap1\n      div\n      0xffffffffffffffffffffffffffffffffffffffff\n      and\n        /* \"contracts/SecuritiesTrading.sol\":5043:5186  ExchangeCompleted(_requestId, request.securityOffered, request.securityRequested, ... */\n      mload(0x40)\n      tag_144\n      swap5\n      swap4\n      swap3\n      swap2\n      swap1\n      tag_79\n      jump\t// in\n    tag_144:\n      mload(0x40)\n      dup1\n      swap2\n      sub\n      swap1\n      log2\n        /* \"contracts/SecuritiesTrading.sol\":3968:5194  {... */\n      pop\n      pop\n      pop\n      pop\n        /* \"contracts/SecuritiesTrading.sol\":3916:5194  function approveExchange(uint256 _requestId) public {... */\n      pop\n      jump\t// out\n        /* \"contracts/SecuritiesTrading.sol\":417:463  mapping(uint256 => Security) public securities */\n    tag_58:\n      mstore(0x20, 0x00)\n      dup1\n      0x00\n      mstore\n      keccak256(0x00, 0x40)\n      0x00\n      swap2\n      pop\n      swap1\n      pop\n      dup1\n      0x00\n      add\n      dup1\n      sload\n      tag_145\n      swap1\n      tag_114\n      jump\t// in\n    tag_145:\n      dup1\n      0x1f\n      add\n      0x20\n      dup1\n      swap2\n      div\n      mul\n      0x20\n      add\n      mload(0x40)\n      swap1\n      dup2\n      add\n      0x40\n      mstore\n      dup1\n      swap3\n      swap2\n      swap1\n      dup2\n      dup2\n      mstore\n      0x20\n      add\n      dup3\n      dup1\n      sload\n      tag_146\n      swap1\n      tag_114\n      jump\t// in\n    tag_146:\n      dup1\n      iszero\n      tag_147\n      jumpi\n      dup1\n      0x1f\n      lt\n      tag_148\n      jumpi\n      0x0100\n      dup1\n      dup4\n      sload\n      div\n      mul\n      dup4\n      mstore\n      swap2\n      0x20\n      add\n      swap2\n      jump(tag_147)\n    tag_148:\n      dup3\n      add\n      swap2\n      swap1\n      0x00\n      mstore\n      keccak256(0x00, 0x20)\n      swap1\n    tag_149:\n      dup2\n      sload\n      dup2\n      mstore\n      swap1\n      0x01\n      add\n      swap1\n      0x20\n      add\n      dup1\n      dup4\n      gt\n      tag_149\n      jumpi\n      dup3\n      swap1\n      sub\n      0x1f\n      and\n      dup3\n      add\n      swap2\n    tag_147:\n      pop\n      pop\n      pop\n      pop\n      pop\n      swap1\n      dup1\n      0x01\n      add\n      sload\n      swap1\n      dup1\n      0x02\n      add\n      0x00\n      swap1\n      sload\n      swap1\n      0x0100\n      exp\n      swap1\n      div\n      0xffffffffffffffffffffffffffffffffffffffff\n      and\n      swap1\n      dup1\n      0x02\n      add\n      0x14\n      swap1\n      sload\n      swap1\n      0x0100\n      exp\n      swap1\n      div\n      0xff\n      and\n      swap1\n      pop\n      dup5\n      jump\t// out\n        /* \"contracts/SecuritiesTrading.sol\":2047:2833  function purchaseSecurity(uint256 _securityId) public payable {... */\n    tag_63:\n        /* \"contracts/SecuritiesTrading.sol\":2120:2145  Security storage security */\n      0x00\n        /* \"contracts/SecuritiesTrading.sol\":2148:2158  securities */\n      dup1\n        /* \"contracts/SecuritiesTrading.sol\":2148:2171  securities[_securityId] */\n      0x00\n        /* \"contracts/SecuritiesTrading.sol\":2159:2170  _securityId */\n      dup4\n        /* \"contracts/SecuritiesTrading.sol\":2148:2171  securities[_securityId] */\n      dup2\n      mstore\n      0x20\n      add\n      swap1\n      dup2\n      mstore\n      0x20\n      add\n      0x00\n      keccak256\n        /* \"contracts/SecuritiesTrading.sol\":2120:2171  Security storage security = securities[_securityId] */\n      swap1\n      pop\n        /* \"contracts/SecuritiesTrading.sol\":2190:2198  security */\n      dup1\n        /* \"contracts/SecuritiesTrading.sol\":2190:2207  security.isListed */\n      0x02\n      add\n      0x14\n      swap1\n      sload\n      swap1\n      0x0100\n      exp\n      swap1\n      div\n      0xff\n      and\n        /* \"contracts/SecuritiesTrading.sol\":2182:2234  require(security.isListed, \"Security is not listed\") */\n      tag_151\n      jumpi\n      mload(0x40)\n      0x08c379a000000000000000000000000000000000000000000000000000000000\n      dup2\n      mstore\n      0x04\n      add\n      tag_152\n      swap1\n      tag_153\n      jump\t// in\n    tag_152:\n      mload(0x40)\n      dup1\n      swap2\n      sub\n      swap1\n      revert\n    tag_151:\n        /* \"contracts/SecuritiesTrading.sol\":2266:2274  security */\n      dup1\n        /* \"contracts/SecuritiesTrading.sol\":2266:2280  security.price */\n      0x01\n      add\n      sload\n        /* \"contracts/SecuritiesTrading.sol\":2253:2262  msg.value */\n      callvalue\n        /* \"contracts/SecuritiesTrading.sol\":2253:2280  msg.value >= security.price */\n      lt\n      iszero\n        /* \"contracts/SecuritiesTrading.sol\":2245:2305  require(msg.value >= security.price, \"Insufficient payment\") */\n      tag_154\n      jumpi\n      mload(0x40)\n      0x08c379a000000000000000000000000000000000000000000000000000000000\n      dup2\n      mstore\n      0x04\n      add\n      tag_155\n      swap1\n      tag_156\n      jump\t// in\n    tag_155:\n      mload(0x40)\n      dup1\n      swap2\n      sub\n      swap1\n      revert\n    tag_154:\n        /* \"contracts/SecuritiesTrading.sol\":2342:2352  msg.sender */\n      caller\n        /* \"contracts/SecuritiesTrading.sol\":2324:2352  security.owner != msg.sender */\n      0xffffffffffffffffffffffffffffffffffffffff\n      and\n        /* \"contracts/SecuritiesTrading.sol\":2324:2332  security */\n      dup2\n        /* \"contracts/SecuritiesTrading.sol\":2324:2338  security.owner */\n      0x02\n      add\n      0x00\n      swap1\n      sload\n      swap1\n      0x0100\n      exp\n      swap1\n      div\n      0xffffffffffffffffffffffffffffffffffffffff\n      and\n        /* \"contracts/SecuritiesTrading.sol\":2324:2352  security.owner != msg.sender */\n      0xffffffffffffffffffffffffffffffffffffffff\n      and\n      sub\n        /* \"contracts/SecuritiesTrading.sol\":2316:2385  require(security.owner != msg.sender, \"Cannot buy your own security\") */\n      tag_157\n      jumpi\n      mload(0x40)\n      0x08c379a000000000000000000000000000000000000000000000000000000000\n      dup2\n      mstore\n      0x04\n      add\n      tag_158\n      swap1\n      tag_159\n      jump\t// in\n    tag_158:\n      mload(0x40)\n      dup1\n      swap2\n      sub\n      swap1\n      revert\n    tag_157:\n        /* \"contracts/SecuritiesTrading.sol\":2406:2427  address previousOwner */\n      0x00\n        /* \"contracts/SecuritiesTrading.sol\":2430:2438  security */\n      dup2\n        /* \"contracts/SecuritiesTrading.sol\":2430:2444  security.owner */\n      0x02\n      add\n      0x00\n      swap1\n      sload\n      swap1\n      0x0100\n      exp\n      swap1\n      div\n      0xffffffffffffffffffffffffffffffffffffffff\n      and\n        /* \"contracts/SecuritiesTrading.sol\":2406:2444  address previousOwner = security.owner */\n      swap1\n      pop\n        /* \"contracts/SecuritiesTrading.sol\":2465:2518  _removeFromUserSecurities(previousOwner, _securityId) */\n      tag_160\n        /* \"contracts/SecuritiesTrading.sol\":2491:2504  previousOwner */\n      dup2\n        /* \"contracts/SecuritiesTrading.sol\":2506:2517  _securityId */\n      dup5\n        /* \"contracts/SecuritiesTrading.sol\":2465:2490  _removeFromUserSecurities */\n      tag_140\n        /* \"contracts/SecuritiesTrading.sol\":2465:2518  _removeFromUserSecurities(previousOwner, _securityId) */\n      jump\t// in\n    tag_160:\n        /* \"contracts/SecuritiesTrading.sol\":2529:2543  userSecurities */\n      0x02\n        /* \"contracts/SecuritiesTrading.sol\":2529:2555  userSecurities[msg.sender] */\n      0x00\n        /* \"contracts/SecuritiesTrading.sol\":2544:2554  msg.sender */\n      caller\n        /* \"contracts/SecuritiesTrading.sol\":2529:2555  userSecurities[msg.sender] */\n      0xffffffffffffffffffffffffffffffffffffffff\n      and\n      0xffffffffffffffffffffffffffffffffffffffff\n      and\n      dup2\n      mstore\n      0x20\n      add\n      swap1\n      dup2\n      mstore\n      0x20\n      add\n      0x00\n      keccak256\n        /* \"contracts/SecuritiesTrading.sol\":2561:2572  _securityId */\n      dup4\n        /* \"contracts/SecuritiesTrading.sol\":2529:2573  userSecurities[msg.sender].push(_securityId) */\n      swap1\n      dup1\n      0x01\n      dup2\n      sload\n      add\n      dup1\n      dup3\n      sstore\n      dup1\n      swap2\n      pop\n      pop\n      0x01\n      swap1\n      sub\n      swap1\n      0x00\n      mstore\n      keccak256(0x00, 0x20)\n      add\n      0x00\n      swap1\n      swap2\n      swap1\n      swap2\n      swap1\n      swap2\n      pop\n      sstore\n        /* \"contracts/SecuritiesTrading.sol\":2611:2621  msg.sender */\n      caller\n        /* \"contracts/SecuritiesTrading.sol\":2594:2602  security */\n      dup3\n        /* \"contracts/SecuritiesTrading.sol\":2594:2608  security.owner */\n      0x02\n      add\n      0x00\n        /* \"contracts/SecuritiesTrading.sol\":2594:2621  security.owner = msg.sender */\n      0x0100\n      exp\n      dup2\n      sload\n      dup2\n      0xffffffffffffffffffffffffffffffffffffffff\n      mul\n      not\n      and\n      swap1\n      dup4\n      0xffffffffffffffffffffffffffffffffffffffff\n      and\n      mul\n      or\n      swap1\n      sstore\n      pop\n        /* \"contracts/SecuritiesTrading.sol\":2669:2678  msg.value */\n      callvalue\n        /* \"contracts/SecuritiesTrading.sol\":2642:2650  balances */\n      0x03\n        /* \"contracts/SecuritiesTrading.sol\":2642:2665  balances[previousOwner] */\n      0x00\n        /* \"contracts/SecuritiesTrading.sol\":2651:2664  previousOwner */\n      dup4\n        /* \"contracts/SecuritiesTrading.sol\":2642:2665  balances[previousOwner] */\n      0xffffffffffffffffffffffffffffffffffffffff\n      and\n      0xffffffffffffffffffffffffffffffffffffffff\n      and\n      dup2\n      mstore\n      0x20\n      add\n      swap1\n      dup2\n      mstore\n      0x20\n      add\n      0x00\n      keccak256\n      0x00\n        /* \"contracts/SecuritiesTrading.sol\":2642:2678  balances[previousOwner] += msg.value */\n      dup3\n      dup3\n      sload\n      tag_162\n      swap2\n      swap1\n      tag_16\n      jump\t// in\n    tag_162:\n      swap3\n      pop\n      pop\n      dup2\n      swap1\n      sstore\n      pop\n        /* \"contracts/SecuritiesTrading.sol\":2697:2710  previousOwner */\n      dup1\n        /* \"contracts/SecuritiesTrading.sol\":2689:2720  payable(previousOwner).transfer */\n      0xffffffffffffffffffffffffffffffffffffffff\n      and\n        /* \"contracts/SecuritiesTrading.sol\":2689:2731  payable(previousOwner).transfer(msg.value) */\n      0x08fc\n        /* \"contracts/SecuritiesTrading.sol\":2721:2730  msg.value */\n      callvalue\n        /* \"contracts/SecuritiesTrading.sol\":2689:2731  payable(previousOwner).transfer(msg.value) */\n      swap1\n      dup2\n      iszero\n      mul\n      swap1\n      mload(0x40)\n      0x00\n      mload(0x40)\n      dup1\n      dup4\n      sub\n      dup2\n      dup6\n      dup9\n      dup9\n      call\n      swap4\n      pop\n      pop\n      pop\n      pop\n      iszero\n      dup1\n      iszero\n      tag_164\n      jumpi\n      returndatasize\n      0x00\n      dup1\n      returndatacopy\n      revert(0x00, returndatasize)\n    tag_164:\n      pop\n        /* \"contracts/SecuritiesTrading.sol\":2775:2786  _securityId */\n      dup3\n        /* \"contracts/SecuritiesTrading.sol\":2757:2825  SecurityPurchased(_securityId, previousOwner, msg.sender, msg.value) */\n      0x0fc401afd9f3c929a6eda9e334bf948aa13a3a1de1a30bbe5985780a7bd5040f\n        /* \"contracts/SecuritiesTrading.sol\":2788:2801  previousOwner */\n      dup3\n        /* \"contracts/SecuritiesTrading.sol\":2803:2813  msg.sender */\n      caller\n        /* \"contracts/SecuritiesTrading.sol\":2815:2824  msg.value */\n      callvalue\n        /* \"contracts/SecuritiesTrading.sol\":2757:2825  SecurityPurchased(_securityId, previousOwner, msg.sender, msg.value) */\n      mload(0x40)\n      tag_165\n      swap4\n      swap3\n      swap2\n      swap1\n      tag_166\n      jump\t// in\n    tag_165:\n      mload(0x40)\n      dup1\n      swap2\n      sub\n      swap1\n      log2\n        /* \"contracts/SecuritiesTrading.sol\":2109:2833  {... */\n      pop\n      pop\n        /* \"contracts/SecuritiesTrading.sol\":2047:2833  function purchaseSecurity(uint256 _securityId) public payable {... */\n      pop\n      jump\t// out\n        /* \"contracts/SecuritiesTrading.sol\":6604:7046  function _removeFromUserSecurities(address user, uint256 securityId) private {... */\n    tag_140:\n        /* \"contracts/SecuritiesTrading.sol\":6692:6725  uint256[] storage userSecurityIds */\n      0x00\n        /* \"contracts/SecuritiesTrading.sol\":6728:6742  userSecurities */\n      0x02\n        /* \"contracts/SecuritiesTrading.sol\":6728:6748  userSecurities[user] */\n      0x00\n        /* \"contracts/SecuritiesTrading.sol\":6743:6747  user */\n      dup5\n        /* \"contracts/SecuritiesTrading.sol\":6728:6748  userSecurities[user] */\n      0xffffffffffffffffffffffffffffffffffffffff\n      and\n      0xffffffffffffffffffffffffffffffffffffffff\n      and\n      dup2\n      mstore\n      0x20\n      add\n      swap1\n      dup2\n      mstore\n      0x20\n      add\n      0x00\n      keccak256\n        /* \"contracts/SecuritiesTrading.sol\":6692:6748  uint256[] storage userSecurityIds = userSecurities[user] */\n      swap1\n      pop\n        /* \"contracts/SecuritiesTrading.sol\":6764:6773  uint256 i */\n      0x00\n        /* \"contracts/SecuritiesTrading.sol\":6759:7039  for (uint256 i = 0; i < userSecurityIds.length; i++) {... */\n    tag_168:\n        /* \"contracts/SecuritiesTrading.sol\":6783:6798  userSecurityIds */\n      dup2\n        /* \"contracts/SecuritiesTrading.sol\":6783:6805  userSecurityIds.length */\n      dup1\n      sload\n      swap1\n      pop\n        /* \"contracts/SecuritiesTrading.sol\":6779:6780  i */\n      dup2\n        /* \"contracts/SecuritiesTrading.sol\":6779:6805  i < userSecurityIds.length */\n      lt\n        /* \"contracts/SecuritiesTrading.sol\":6759:7039  for (uint256 i = 0; i < userSecurityIds.length; i++) {... */\n      iszero\n      tag_169\n      jumpi\n        /* \"contracts/SecuritiesTrading.sol\":6853:6863  securityId */\n      dup3\n        /* \"contracts/SecuritiesTrading.sol\":6831:6846  userSecurityIds */\n      dup3\n        /* \"contracts/SecuritiesTrading.sol\":6847:6848  i */\n      dup3\n        /* \"contracts/SecuritiesTrading.sol\":6831:6849  userSecurityIds[i] */\n      dup2\n      sload\n      dup2\n      lt\n      tag_171\n      jumpi\n      tag_172\n      tag_107\n      jump\t// in\n    tag_172:\n    tag_171:\n      swap1\n      0x00\n      mstore\n      keccak256(0x00, 0x20)\n      add\n      sload\n        /* \"contracts/SecuritiesTrading.sol\":6831:6863  userSecurityIds[i] == securityId */\n      sub\n        /* \"contracts/SecuritiesTrading.sol\":6827:7028  if (userSecurityIds[i] == securityId) {... */\n      tag_174\n      jumpi\n        /* \"contracts/SecuritiesTrading.sol\":6905:6920  userSecurityIds */\n      dup2\n        /* \"contracts/SecuritiesTrading.sol\":6946:6947  1 */\n      0x01\n        /* \"contracts/SecuritiesTrading.sol\":6921:6936  userSecurityIds */\n      dup4\n        /* \"contracts/SecuritiesTrading.sol\":6921:6943  userSecurityIds.length */\n      dup1\n      sload\n      swap1\n      pop\n        /* \"contracts/SecuritiesTrading.sol\":6921:6947  userSecurityIds.length - 1 */\n      tag_175\n      swap2\n      swap1\n      tag_176\n      jump\t// in\n    tag_175:\n        /* \"contracts/SecuritiesTrading.sol\":6905:6948  userSecurityIds[userSecurityIds.length - 1] */\n      dup2\n      sload\n      dup2\n      lt\n      tag_177\n      jumpi\n      tag_178\n      tag_107\n      jump\t// in\n    tag_178:\n    tag_177:\n      swap1\n      0x00\n      mstore\n      keccak256(0x00, 0x20)\n      add\n      sload\n        /* \"contracts/SecuritiesTrading.sol\":6884:6899  userSecurityIds */\n      dup3\n        /* \"contracts/SecuritiesTrading.sol\":6900:6901  i */\n      dup3\n        /* \"contracts/SecuritiesTrading.sol\":6884:6902  userSecurityIds[i] */\n      dup2\n      sload\n      dup2\n      lt\n      tag_180\n      jumpi\n      tag_181\n      tag_107\n      jump\t// in\n    tag_181:\n    tag_180:\n      swap1\n      0x00\n      mstore\n      keccak256(0x00, 0x20)\n      add\n        /* \"contracts/SecuritiesTrading.sol\":6884:6948  userSecurityIds[i] = userSecurityIds[userSecurityIds.length - 1] */\n      dup2\n      swap1\n      sstore\n      pop\n        /* \"contracts/SecuritiesTrading.sol\":6967:6982  userSecurityIds */\n      dup2\n        /* \"contracts/SecuritiesTrading.sol\":6967:6988  userSecurityIds.pop() */\n      dup1\n      sload\n      dup1\n      tag_183\n      jumpi\n      tag_184\n      tag_185\n      jump\t// in\n    tag_184:\n    tag_183:\n      0x01\n      swap1\n      sub\n      dup2\n      dup2\n      swap1\n      0x00\n      mstore\n      keccak256(0x00, 0x20)\n      add\n      0x00\n      swap1\n      sstore\n      swap1\n      sstore\n        /* \"contracts/SecuritiesTrading.sol\":7007:7012  break */\n      jump(tag_169)\n        /* \"contracts/SecuritiesTrading.sol\":6827:7028  if (userSecurityIds[i] == securityId) {... */\n    tag_174:\n        /* \"contracts/SecuritiesTrading.sol\":6807:6810  i++ */\n      dup1\n      dup1\n      0x01\n      add\n      swap2\n      pop\n      pop\n        /* \"contracts/SecuritiesTrading.sol\":6759:7039  for (uint256 i = 0; i < userSecurityIds.length; i++) {... */\n      jump(tag_168)\n    tag_169:\n      pop\n        /* \"contracts/SecuritiesTrading.sol\":6681:7046  {... */\n      pop\n        /* \"contracts/SecuritiesTrading.sol\":6604:7046  function _removeFromUserSecurities(address user, uint256 securityId) private {... */\n      pop\n      pop\n      jump\t// out\n        /* \"#utility.yul\":7:84   */\n    tag_187:\n        /* \"#utility.yul\":44:51   */\n      0x00\n        /* \"#utility.yul\":73:78   */\n      dup2\n        /* \"#utility.yul\":62:78   */\n      swap1\n      pop\n        /* \"#utility.yul\":7:84   */\n      swap2\n      swap1\n      pop\n      jump\t// out\n        /* \"#utility.yul\":90:270   */\n    tag_188:\n        /* \"#utility.yul\":138:215   */\n      0x4e487b7100000000000000000000000000000000000000000000000000000000\n        /* \"#utility.yul\":135:136   */\n      0x00\n        /* \"#utility.yul\":128:216   */\n      mstore\n        /* \"#utility.yul\":235:239   */\n      0x11\n        /* \"#utility.yul\":232:233   */\n      0x04\n        /* \"#utility.yul\":225:240   */\n      mstore\n        /* \"#utility.yul\":259:263   */\n      0x24\n        /* \"#utility.yul\":256:257   */\n      0x00\n        /* \"#utility.yul\":249:264   */\n      revert\n        /* \"#utility.yul\":276:467   */\n    tag_16:\n        /* \"#utility.yul\":316:319   */\n      0x00\n        /* \"#utility.yul\":335:355   */\n      tag_270\n        /* \"#utility.yul\":353:354   */\n      dup3\n        /* \"#utility.yul\":335:355   */\n      tag_187\n      jump\t// in\n    tag_270:\n        /* \"#utility.yul\":330:355   */\n      swap2\n      pop\n        /* \"#utility.yul\":369:389   */\n      tag_271\n        /* \"#utility.yul\":387:388   */\n      dup4\n        /* \"#utility.yul\":369:389   */\n      tag_187\n      jump\t// in\n    tag_271:\n        /* \"#utility.yul\":364:389   */\n      swap3\n      pop\n        /* \"#utility.yul\":412:413   */\n      dup3\n        /* \"#utility.yul\":409:410   */\n      dup3\n        /* \"#utility.yul\":405:414   */\n      add\n        /* \"#utility.yul\":398:414   */\n      swap1\n      pop\n        /* \"#utility.yul\":433:436   */\n      dup1\n        /* \"#utility.yul\":430:431   */\n      dup3\n        /* \"#utility.yul\":427:437   */\n      gt\n        /* \"#utility.yul\":424:460   */\n      iszero\n      tag_272\n      jumpi\n        /* \"#utility.yul\":440:458   */\n      tag_273\n      tag_188\n      jump\t// in\n    tag_273:\n        /* \"#utility.yul\":424:460   */\n    tag_272:\n        /* \"#utility.yul\":276:467   */\n      swap3\n      swap2\n      pop\n      pop\n      jump\t// out\n        /* \"#utility.yul\":473:591   */\n    tag_189:\n        /* \"#utility.yul\":560:584   */\n      tag_275\n        /* \"#utility.yul\":578:583   */\n      dup2\n        /* \"#utility.yul\":560:584   */\n      tag_187\n      jump\t// in\n    tag_275:\n        /* \"#utility.yul\":555:558   */\n      dup3\n        /* \"#utility.yul\":548:585   */\n      mstore\n        /* \"#utility.yul\":473:591   */\n      pop\n      pop\n      jump\t// out\n        /* \"#utility.yul\":597:819   */\n    tag_18:\n        /* \"#utility.yul\":690:694   */\n      0x00\n        /* \"#utility.yul\":728:730   */\n      0x20\n        /* \"#utility.yul\":717:726   */\n      dup3\n        /* \"#utility.yul\":713:731   */\n      add\n        /* \"#utility.yul\":705:731   */\n      swap1\n      pop\n        /* \"#utility.yul\":741:812   */\n      tag_277\n        /* \"#utility.yul\":809:810   */\n      0x00\n        /* \"#utility.yul\":798:807   */\n      dup4\n        /* \"#utility.yul\":794:811   */\n      add\n        /* \"#utility.yul\":785:791   */\n      dup5\n        /* \"#utility.yul\":741:812   */\n      tag_189\n      jump\t// in\n    tag_277:\n        /* \"#utility.yul\":597:819   */\n      swap3\n      swap2\n      pop\n      pop\n      jump\t// out\n        /* \"#utility.yul\":825:900   */\n    tag_190:\n        /* \"#utility.yul\":858:864   */\n      0x00\n        /* \"#utility.yul\":891:893   */\n      0x40\n        /* \"#utility.yul\":885:894   */\n      mload\n        /* \"#utility.yul\":875:894   */\n      swap1\n      pop\n        /* \"#utility.yul\":825:900   */\n      swap1\n      jump\t// out\n        /* \"#utility.yul\":906:1023   */\n    tag_191:\n        /* \"#utility.yul\":1015:1016   */\n      0x00\n        /* \"#utility.yul\":1012:1013   */\n      dup1\n        /* \"#utility.yul\":1005:1017   */\n      revert\n        /* \"#utility.yul\":1029:1146   */\n    tag_192:\n        /* \"#utility.yul\":1138:1139   */\n      0x00\n        /* \"#utility.yul\":1135:1136   */\n      dup1\n        /* \"#utility.yul\":1128:1140   */\n      revert\n        /* \"#utility.yul\":1152:1274   */\n    tag_193:\n        /* \"#utility.yul\":1225:1249   */\n      tag_282\n        /* \"#utility.yul\":1243:1248   */\n      dup2\n        /* \"#utility.yul\":1225:1249   */\n      tag_187\n      jump\t// in\n    tag_282:\n        /* \"#utility.yul\":1218:1223   */\n      dup2\n        /* \"#utility.yul\":1215:1250   */\n      eq\n        /* \"#utility.yul\":1205:1268   */\n      tag_283\n      jumpi\n        /* \"#utility.yul\":1264:1265   */\n      0x00\n        /* \"#utility.yul\":1261:1262   */\n      dup1\n        /* \"#utility.yul\":1254:1266   */\n      revert\n        /* \"#utility.yul\":1205:1268   */\n    tag_283:\n        /* \"#utility.yul\":1152:1274   */\n      pop\n      jump\t// out\n        /* \"#utility.yul\":1280:1419   */\n    tag_194:\n        /* \"#utility.yul\":1326:1331   */\n      0x00\n        /* \"#utility.yul\":1364:1370   */\n      dup2\n        /* \"#utility.yul\":1351:1371   */\n      calldataload\n        /* \"#utility.yul\":1342:1371   */\n      swap1\n      pop\n        /* \"#utility.yul\":1380:1413   */\n      tag_285\n        /* \"#utility.yul\":1407:1412   */\n      dup2\n        /* \"#utility.yul\":1380:1413   */\n      tag_193\n      jump\t// in\n    tag_285:\n        /* \"#utility.yul\":1280:1419   */\n      swap3\n      swap2\n      pop\n      pop\n      jump\t// out\n        /* \"#utility.yul\":1425:1899   */\n    tag_26:\n        /* \"#utility.yul\":1493:1499   */\n      0x00\n        /* \"#utility.yul\":1501:1507   */\n      dup1\n        /* \"#utility.yul\":1550:1552   */\n      0x40\n        /* \"#utility.yul\":1538:1547   */\n      dup4\n        /* \"#utility.yul\":1529:1536   */\n      dup6\n        /* \"#utility.yul\":1525:1548   */\n      sub\n        /* \"#utility.yul\":1521:1553   */\n      slt\n        /* \"#utility.yul\":1518:1637   */\n      iszero\n      tag_287\n      jumpi\n        /* \"#utility.yul\":1556:1635   */\n      tag_288\n      tag_191\n      jump\t// in\n    tag_288:\n        /* \"#utility.yul\":1518:1637   */\n    tag_287:\n        /* \"#utility.yul\":1676:1677   */\n      0x00\n        /* \"#utility.yul\":1701:1754   */\n      tag_289\n        /* \"#utility.yul\":1746:1753   */\n      dup6\n        /* \"#utility.yul\":1737:1743   */\n      dup3\n        /* \"#utility.yul\":1726:1735   */\n      dup7\n        /* \"#utility.yul\":1722:1744   */\n      add\n        /* \"#utility.yul\":1701:1754   */\n      tag_194\n      jump\t// in\n    tag_289:\n        /* \"#utility.yul\":1691:1754   */\n      swap3\n      pop\n        /* \"#utility.yul\":1647:1764   */\n      pop\n        /* \"#utility.yul\":1803:1805   */\n      0x20\n        /* \"#utility.yul\":1829:1882   */\n      tag_290\n        /* \"#utility.yul\":1874:1881   */\n      dup6\n        /* \"#utility.yul\":1865:1871   */\n      dup3\n        /* \"#utility.yul\":1854:1863   */\n      dup7\n        /* \"#utility.yul\":1850:1872   */\n      add\n        /* \"#utility.yul\":1829:1882   */\n      tag_194\n      jump\t// in\n    tag_290:\n        /* \"#utility.yul\":1819:1882   */\n      swap2\n      pop\n        /* \"#utility.yul\":1774:1892   */\n      pop\n        /* \"#utility.yul\":1425:1899   */\n      swap3\n      pop\n      swap3\n      swap1\n      pop\n      jump\t// out\n        /* \"#utility.yul\":1905:2234   */\n    tag_32:\n        /* \"#utility.yul\":1964:1970   */\n      0x00\n        /* \"#utility.yul\":2013:2015   */\n      0x20\n        /* \"#utility.yul\":2001:2010   */\n      dup3\n        /* \"#utility.yul\":1992:1999   */\n      dup5\n        /* \"#utility.yul\":1988:2011   */\n      sub\n        /* \"#utility.yul\":1984:2016   */\n      slt\n        /* \"#utility.yul\":1981:2100   */\n      iszero\n      tag_292\n      jumpi\n        /* \"#utility.yul\":2019:2098   */\n      tag_293\n      tag_191\n      jump\t// in\n    tag_293:\n        /* \"#utility.yul\":1981:2100   */\n    tag_292:\n        /* \"#utility.yul\":2139:2140   */\n      0x00\n        /* \"#utility.yul\":2164:2217   */\n      tag_294\n        /* \"#utility.yul\":2209:2216   */\n      dup5\n        /* \"#utility.yul\":2200:2206   */\n      dup3\n        /* \"#utility.yul\":2189:2198   */\n      dup6\n        /* \"#utility.yul\":2185:2207   */\n      add\n        /* \"#utility.yul\":2164:2217   */\n      tag_194\n      jump\t// in\n    tag_294:\n        /* \"#utility.yul\":2154:2217   */\n      swap2\n      pop\n        /* \"#utility.yul\":2110:2227   */\n      pop\n        /* \"#utility.yul\":1905:2234   */\n      swap3\n      swap2\n      pop\n      pop\n      jump\t// out\n        /* \"#utility.yul\":2240:2366   */\n    tag_195:\n        /* \"#utility.yul\":2277:2284   */\n      0x00\n        /* \"#utility.yul\":2317:2359   */\n      0xffffffffffffffffffffffffffffffffffffffff\n        /* \"#utility.yul\":2310:2315   */\n      dup3\n        /* \"#utility.yul\":2306:2360   */\n      and\n        /* \"#utility.yul\":2295:2360   */\n      swap1\n      pop\n        /* \"#utility.yul\":2240:2366   */\n      swap2\n      swap1\n      pop\n      jump\t// out\n        /* \"#utility.yul\":2372:2468   */\n    tag_196:\n        /* \"#utility.yul\":2409:2416   */\n      0x00\n        /* \"#utility.yul\":2438:2462   */\n      tag_297\n        /* \"#utility.yul\":2456:2461   */\n      dup3\n        /* \"#utility.yul\":2438:2462   */\n      tag_195\n      jump\t// in\n    tag_297:\n        /* \"#utility.yul\":2427:2462   */\n      swap1\n      pop\n        /* \"#utility.yul\":2372:2468   */\n      swap2\n      swap1\n      pop\n      jump\t// out\n        /* \"#utility.yul\":2474:2592   */\n    tag_197:\n        /* \"#utility.yul\":2561:2585   */\n      tag_299\n        /* \"#utility.yul\":2579:2584   */\n      dup2\n        /* \"#utility.yul\":2561:2585   */\n      tag_196\n      jump\t// in\n    tag_299:\n        /* \"#utility.yul\":2556:2559   */\n      dup3\n        /* \"#utility.yul\":2549:2586   */\n      mstore\n        /* \"#utility.yul\":2474:2592   */\n      pop\n      pop\n      jump\t// out\n        /* \"#utility.yul\":2598:2688   */\n    tag_198:\n        /* \"#utility.yul\":2632:2639   */\n      0x00\n        /* \"#utility.yul\":2675:2680   */\n      dup2\n        /* \"#utility.yul\":2668:2681   */\n      iszero\n        /* \"#utility.yul\":2661:2682   */\n      iszero\n        /* \"#utility.yul\":2650:2682   */\n      swap1\n      pop\n        /* \"#utility.yul\":2598:2688   */\n      swap2\n      swap1\n      pop\n      jump\t// out\n        /* \"#utility.yul\":2694:2803   */\n    tag_199:\n        /* \"#utility.yul\":2775:2796   */\n      tag_302\n        /* \"#utility.yul\":2790:2795   */\n      dup2\n        /* \"#utility.yul\":2775:2796   */\n      tag_198\n      jump\t// in\n    tag_302:\n        /* \"#utility.yul\":2770:2773   */\n      dup3\n        /* \"#utility.yul\":2763:2797   */\n      mstore\n        /* \"#utility.yul\":2694:2803   */\n      pop\n      pop\n      jump\t// out\n        /* \"#utility.yul\":2809:3461   */\n    tag_35:\n        /* \"#utility.yul\":3008:3012   */\n      0x00\n        /* \"#utility.yul\":3046:3049   */\n      0xa0\n        /* \"#utility.yul\":3035:3044   */\n      dup3\n        /* \"#utility.yul\":3031:3050   */\n      add\n        /* \"#utility.yul\":3023:3050   */\n      swap1\n      pop\n        /* \"#utility.yul\":3060:3131   */\n      tag_304\n        /* \"#utility.yul\":3128:3129   */\n      0x00\n        /* \"#utility.yul\":3117:3126   */\n      dup4\n        /* \"#utility.yul\":3113:3130   */\n      add\n        /* \"#utility.yul\":3104:3110   */\n      dup9\n        /* \"#utility.yul\":3060:3131   */\n      tag_189\n      jump\t// in\n    tag_304:\n        /* \"#utility.yul\":3141:3213   */\n      tag_305\n        /* \"#utility.yul\":3209:3211   */\n      0x20\n        /* \"#utility.yul\":3198:3207   */\n      dup4\n        /* \"#utility.yul\":3194:3212   */\n      add\n        /* \"#utility.yul\":3185:3191   */\n      dup8\n        /* \"#utility.yul\":3141:3213   */\n      tag_189\n      jump\t// in\n    tag_305:\n        /* \"#utility.yul\":3223:3295   */\n      tag_306\n        /* \"#utility.yul\":3291:3293   */\n      0x40\n        /* \"#utility.yul\":3280:3289   */\n      dup4\n        /* \"#utility.yul\":3276:3294   */\n      add\n        /* \"#utility.yul\":3267:3273   */\n      dup7\n        /* \"#utility.yul\":3223:3295   */\n      tag_197\n      jump\t// in\n    tag_306:\n        /* \"#utility.yul\":3305:3377   */\n      tag_307\n        /* \"#utility.yul\":3373:3375   */\n      0x60\n        /* \"#utility.yul\":3362:3371   */\n      dup4\n        /* \"#utility.yul\":3358:3376   */\n      add\n        /* \"#utility.yul\":3349:3355   */\n      dup6\n        /* \"#utility.yul\":3305:3377   */\n      tag_197\n      jump\t// in\n    tag_307:\n        /* \"#utility.yul\":3387:3454   */\n      tag_308\n        /* \"#utility.yul\":3449:3452   */\n      0x80\n        /* \"#utility.yul\":3438:3447   */\n      dup4\n        /* \"#utility.yul\":3434:3453   */\n      add\n        /* \"#utility.yul\":3425:3431   */\n      dup5\n        /* \"#utility.yul\":3387:3454   */\n      tag_199\n      jump\t// in\n    tag_308:\n        /* \"#utility.yul\":2809:3461   */\n      swap7\n      swap6\n      pop\n      pop\n      pop\n      pop\n      pop\n      pop\n      jump\t// out\n        /* \"#utility.yul\":3467:3584   */\n    tag_200:\n        /* \"#utility.yul\":3576:3577   */\n      0x00\n        /* \"#utility.yul\":3573:3574   */\n      dup1\n        /* \"#utility.yul\":3566:3578   */\n      revert\n        /* \"#utility.yul\":3590:3707   */\n    tag_201:\n        /* \"#utility.yul\":3699:3700   */\n      0x00\n        /* \"#utility.yul\":3696:3697   */\n      dup1\n        /* \"#utility.yul\":3689:3701   */\n      revert\n        /* \"#utility.yul\":3713:3815   */\n    tag_202:\n        /* \"#utility.yul\":3754:3760   */\n      0x00\n        /* \"#utility.yul\":3805:3807   */\n      0x1f\n        /* \"#utility.yul\":3801:3808   */\n      not\n        /* \"#utility.yul\":3796:3798   */\n      0x1f\n        /* \"#utility.yul\":3789:3794   */\n      dup4\n        /* \"#utility.yul\":3785:3799   */\n      add\n        /* \"#utility.yul\":3781:3809   */\n      and\n        /* \"#utility.yul\":3771:3809   */\n      swap1\n      pop\n        /* \"#utility.yul\":3713:3815   */\n      swap2\n      swap1\n      pop\n      jump\t// out\n        /* \"#utility.yul\":3821:4001   */\n    tag_93:\n        /* \"#utility.yul\":3869:3946   */\n      0x4e487b7100000000000000000000000000000000000000000000000000000000\n        /* \"#utility.yul\":3866:3867   */\n      0x00\n        /* \"#utility.yul\":3859:3947   */\n      mstore\n        /* \"#utility.yul\":3966:3970   */\n      0x41\n        /* \"#utility.yul\":3963:3964   */\n      0x04\n        /* \"#utility.yul\":3956:3971   */\n      mstore\n        /* \"#utility.yul\":3990:3994   */\n      0x24\n        /* \"#utility.yul\":3987:3988   */\n      0x00\n        /* \"#utility.yul\":3980:3995   */\n      revert\n        /* \"#utility.yul\":4007:4288   */\n    tag_203:\n        /* \"#utility.yul\":4090:4117   */\n      tag_314\n        /* \"#utility.yul\":4112:4116   */\n      dup3\n        /* \"#utility.yul\":4090:4117   */\n      tag_202\n      jump\t// in\n    tag_314:\n        /* \"#utility.yul\":4082:4088   */\n      dup2\n        /* \"#utility.yul\":4078:4118   */\n      add\n        /* \"#utility.yul\":4220:4226   */\n      dup2\n        /* \"#utility.yul\":4208:4218   */\n      dup2\n        /* \"#utility.yul\":4205:4227   */\n      lt\n        /* \"#utility.yul\":4184:4202   */\n      0xffffffffffffffff\n        /* \"#utility.yul\":4172:4182   */\n      dup3\n        /* \"#utility.yul\":4169:4203   */\n      gt\n        /* \"#utility.yul\":4166:4228   */\n      or\n        /* \"#utility.yul\":4163:4251   */\n      iszero\n      tag_315\n      jumpi\n        /* \"#utility.yul\":4231:4249   */\n      tag_316\n      tag_93\n      jump\t// in\n    tag_316:\n        /* \"#utility.yul\":4163:4251   */\n    tag_315:\n        /* \"#utility.yul\":4271:4281   */\n      dup1\n        /* \"#utility.yul\":4267:4269   */\n      0x40\n        /* \"#utility.yul\":4260:4282   */\n      mstore\n        /* \"#utility.yul\":4050:4288   */\n      pop\n        /* \"#utility.yul\":4007:4288   */\n      pop\n      pop\n      jump\t// out\n        /* \"#utility.yul\":4294:4423   */\n    tag_204:\n        /* \"#utility.yul\":4328:4334   */\n      0x00\n        /* \"#utility.yul\":4355:4375   */\n      tag_318\n      tag_190\n      jump\t// in\n    tag_318:\n        /* \"#utility.yul\":4345:4375   */\n      swap1\n      pop\n        /* \"#utility.yul\":4384:4417   */\n      tag_319\n        /* \"#utility.yul\":4412:4416   */\n      dup3\n        /* \"#utility.yul\":4404:4410   */\n      dup3\n        /* \"#utility.yul\":4384:4417   */\n      tag_203\n      jump\t// in\n    tag_319:\n        /* \"#utility.yul\":4294:4423   */\n      swap2\n      swap1\n      pop\n      jump\t// out\n        /* \"#utility.yul\":4429:4737   */\n    tag_205:\n        /* \"#utility.yul\":4491:4495   */\n      0x00\n        /* \"#utility.yul\":4581:4599   */\n      0xffffffffffffffff\n        /* \"#utility.yul\":4573:4579   */\n      dup3\n        /* \"#utility.yul\":4570:4600   */\n      gt\n        /* \"#utility.yul\":4567:4623   */\n      iszero\n      tag_321\n      jumpi\n        /* \"#utility.yul\":4603:4621   */\n      tag_322\n      tag_93\n      jump\t// in\n    tag_322:\n        /* \"#utility.yul\":4567:4623   */\n    tag_321:\n        /* \"#utility.yul\":4641:4670   */\n      tag_323\n        /* \"#utility.yul\":4663:4669   */\n      dup3\n        /* \"#utility.yul\":4641:4670   */\n      tag_202\n      jump\t// in\n    tag_323:\n        /* \"#utility.yul\":4633:4670   */\n      swap1\n      pop\n        /* \"#utility.yul\":4725:4729   */\n      0x20\n        /* \"#utility.yul\":4719:4723   */\n      dup2\n        /* \"#utility.yul\":4715:4730   */\n      add\n        /* \"#utility.yul\":4707:4730   */\n      swap1\n      pop\n        /* \"#utility.yul\":4429:4737   */\n      swap2\n      swap1\n      pop\n      jump\t// out\n        /* \"#utility.yul\":4743:4891   */\n    tag_206:\n        /* \"#utility.yul\":4841:4847   */\n      dup3\n        /* \"#utility.yul\":4836:4839   */\n      dup2\n        /* \"#utility.yul\":4831:4834   */\n      dup4\n        /* \"#utility.yul\":4818:4848   */\n      calldatacopy\n        /* \"#utility.yul\":4882:4883   */\n      0x00\n        /* \"#utility.yul\":4873:4879   */\n      dup4\n        /* \"#utility.yul\":4868:4871   */\n      dup4\n        /* \"#utility.yul\":4864:4880   */\n      add\n        /* \"#utility.yul\":4857:4884   */\n      mstore\n        /* \"#utility.yul\":4743:4891   */\n      pop\n      pop\n      pop\n      jump\t// out\n        /* \"#utility.yul\":4897:5322   */\n    tag_207:\n        /* \"#utility.yul\":4975:4980   */\n      0x00\n        /* \"#utility.yul\":5000:5066   */\n      tag_326\n        /* \"#utility.yul\":5016:5065   */\n      tag_327\n        /* \"#utility.yul\":5058:5064   */\n      dup5\n        /* \"#utility.yul\":5016:5065   */\n      tag_205\n      jump\t// in\n    tag_327:\n        /* \"#utility.yul\":5000:5066   */\n      tag_204\n      jump\t// in\n    tag_326:\n        /* \"#utility.yul\":4991:5066   */\n      swap1\n      pop\n        /* \"#utility.yul\":5089:5095   */\n      dup3\n        /* \"#utility.yul\":5082:5087   */\n      dup2\n        /* \"#utility.yul\":5075:5096   */\n      mstore\n        /* \"#utility.yul\":5127:5131   */\n      0x20\n        /* \"#utility.yul\":5120:5125   */\n      dup2\n        /* \"#utility.yul\":5116:5132   */\n      add\n        /* \"#utility.yul\":5165:5168   */\n      dup5\n        /* \"#utility.yul\":5156:5162   */\n      dup5\n        /* \"#utility.yul\":5151:5154   */\n      dup5\n        /* \"#utility.yul\":5147:5163   */\n      add\n        /* \"#utility.yul\":5144:5169   */\n      gt\n        /* \"#utility.yul\":5141:5253   */\n      iszero\n      tag_328\n      jumpi\n        /* \"#utility.yul\":5172:5251   */\n      tag_329\n      tag_201\n      jump\t// in\n    tag_329:\n        /* \"#utility.yul\":5141:5253   */\n    tag_328:\n        /* \"#utility.yul\":5262:5316   */\n      tag_330\n        /* \"#utility.yul\":5309:5315   */\n      dup5\n        /* \"#utility.yul\":5304:5307   */\n      dup3\n        /* \"#utility.yul\":5299:5302   */\n      dup6\n        /* \"#utility.yul\":5262:5316   */\n      tag_206\n      jump\t// in\n    tag_330:\n        /* \"#utility.yul\":4981:5322   */\n      pop\n        /* \"#utility.yul\":4897:5322   */\n      swap4\n      swap3\n      pop\n      pop\n      pop\n      jump\t// out\n        /* \"#utility.yul\":5342:5682   */\n    tag_208:\n        /* \"#utility.yul\":5398:5403   */\n      0x00\n        /* \"#utility.yul\":5447:5450   */\n      dup3\n        /* \"#utility.yul\":5440:5444   */\n      0x1f\n        /* \"#utility.yul\":5432:5438   */\n      dup4\n        /* \"#utility.yul\":5428:5445   */\n      add\n        /* \"#utility.yul\":5424:5451   */\n      slt\n        /* \"#utility.yul\":5414:5536   */\n      tag_332\n      jumpi\n        /* \"#utility.yul\":5455:5534   */\n      tag_333\n      tag_200\n      jump\t// in\n    tag_333:\n        /* \"#utility.yul\":5414:5536   */\n    tag_332:\n        /* \"#utility.yul\":5572:5578   */\n      dup2\n        /* \"#utility.yul\":5559:5579   */\n      calldataload\n        /* \"#utility.yul\":5597:5676   */\n      tag_334\n        /* \"#utility.yul\":5672:5675   */\n      dup5\n        /* \"#utility.yul\":5664:5670   */\n      dup3\n        /* \"#utility.yul\":5657:5661   */\n      0x20\n        /* \"#utility.yul\":5649:5655   */\n      dup7\n        /* \"#utility.yul\":5645:5662   */\n      add\n        /* \"#utility.yul\":5597:5676   */\n      tag_207\n      jump\t// in\n    tag_334:\n        /* \"#utility.yul\":5588:5676   */\n      swap2\n      pop\n        /* \"#utility.yul\":5404:5682   */\n      pop\n        /* \"#utility.yul\":5342:5682   */\n      swap3\n      swap2\n      pop\n      pop\n      jump\t// out\n        /* \"#utility.yul\":5688:6342   */\n    tag_39:\n        /* \"#utility.yul\":5766:5772   */\n      0x00\n        /* \"#utility.yul\":5774:5780   */\n      dup1\n        /* \"#utility.yul\":5823:5825   */\n      0x40\n        /* \"#utility.yul\":5811:5820   */\n      dup4\n        /* \"#utility.yul\":5802:5809   */\n      dup6\n        /* \"#utility.yul\":5798:5821   */\n      sub\n        /* \"#utility.yul\":5794:5826   */\n      slt\n        /* \"#utility.yul\":5791:5910   */\n      iszero\n      tag_336\n      jumpi\n        /* \"#utility.yul\":5829:5908   */\n      tag_337\n      tag_191\n      jump\t// in\n    tag_337:\n        /* \"#utility.yul\":5791:5910   */\n    tag_336:\n        /* \"#utility.yul\":5977:5978   */\n      0x00\n        /* \"#utility.yul\":5966:5975   */\n      dup4\n        /* \"#utility.yul\":5962:5979   */\n      add\n        /* \"#utility.yul\":5949:5980   */\n      calldataload\n        /* \"#utility.yul\":6007:6025   */\n      0xffffffffffffffff\n        /* \"#utility.yul\":5999:6005   */\n      dup2\n        /* \"#utility.yul\":5996:6026   */\n      gt\n        /* \"#utility.yul\":5993:6110   */\n      iszero\n      tag_338\n      jumpi\n        /* \"#utility.yul\":6029:6108   */\n      tag_339\n      tag_192\n      jump\t// in\n    tag_339:\n        /* \"#utility.yul\":5993:6110   */\n    tag_338:\n        /* \"#utility.yul\":6134:6197   */\n      tag_340\n        /* \"#utility.yul\":6189:6196   */\n      dup6\n        /* \"#utility.yul\":6180:6186   */\n      dup3\n        /* \"#utility.yul\":6169:6178   */\n      dup7\n        /* \"#utility.yul\":6165:6187   */\n      add\n        /* \"#utility.yul\":6134:6197   */\n      tag_208\n      jump\t// in\n    tag_340:\n        /* \"#utility.yul\":6124:6197   */\n      swap3\n      pop\n        /* \"#utility.yul\":5920:6207   */\n      pop\n        /* \"#utility.yul\":6246:6248   */\n      0x20\n        /* \"#utility.yul\":6272:6325   */\n      tag_341\n        /* \"#utility.yul\":6317:6324   */\n      dup6\n        /* \"#utility.yul\":6308:6314   */\n      dup3\n        /* \"#utility.yul\":6297:6306   */\n      dup7\n        /* \"#utility.yul\":6293:6315   */\n      add\n        /* \"#utility.yul\":6272:6325   */\n      tag_194\n      jump\t// in\n    tag_341:\n        /* \"#utility.yul\":6262:6325   */\n      swap2\n      pop\n        /* \"#utility.yul\":6217:6335   */\n      pop\n        /* \"#utility.yul\":5688:6342   */\n      swap3\n      pop\n      swap3\n      swap1\n      pop\n      jump\t// out\n        /* \"#utility.yul\":6348:6462   */\n    tag_209:\n        /* \"#utility.yul\":6415:6421   */\n      0x00\n        /* \"#utility.yul\":6449:6454   */\n      dup2\n        /* \"#utility.yul\":6443:6455   */\n      mload\n        /* \"#utility.yul\":6433:6455   */\n      swap1\n      pop\n        /* \"#utility.yul\":6348:6462   */\n      swap2\n      swap1\n      pop\n      jump\t// out\n        /* \"#utility.yul\":6468:6652   */\n    tag_210:\n        /* \"#utility.yul\":6567:6578   */\n      0x00\n        /* \"#utility.yul\":6601:6607   */\n      dup3\n        /* \"#utility.yul\":6596:6599   */\n      dup3\n        /* \"#utility.yul\":6589:6608   */\n      mstore\n        /* \"#utility.yul\":6641:6645   */\n      0x20\n        /* \"#utility.yul\":6636:6639   */\n      dup3\n        /* \"#utility.yul\":6632:6646   */\n      add\n        /* \"#utility.yul\":6617:6646   */\n      swap1\n      pop\n        /* \"#utility.yul\":6468:6652   */\n      swap3\n      swap2\n      pop\n      pop\n      jump\t// out\n        /* \"#utility.yul\":6658:6790   */\n    tag_211:\n        /* \"#utility.yul\":6725:6729   */\n      0x00\n        /* \"#utility.yul\":6748:6751   */\n      dup2\n        /* \"#utility.yul\":6740:6751   */\n      swap1\n      pop\n        /* \"#utility.yul\":6778:6782   */\n      0x20\n        /* \"#utility.yul\":6773:6776   */\n      dup3\n        /* \"#utility.yul\":6769:6783   */\n      add\n        /* \"#utility.yul\":6761:6783   */\n      swap1\n      pop\n        /* \"#utility.yul\":6658:6790   */\n      swap2\n      swap1\n      pop\n      jump\t// out\n        /* \"#utility.yul\":6796:6904   */\n    tag_212:\n        /* \"#utility.yul\":6873:6897   */\n      tag_346\n        /* \"#utility.yul\":6891:6896   */\n      dup2\n        /* \"#utility.yul\":6873:6897   */\n      tag_187\n      jump\t// in\n    tag_346:\n        /* \"#utility.yul\":6868:6871   */\n      dup3\n        /* \"#utility.yul\":6861:6898   */\n      mstore\n        /* \"#utility.yul\":6796:6904   */\n      pop\n      pop\n      jump\t// out\n        /* \"#utility.yul\":6910:7089   */\n    tag_213:\n        /* \"#utility.yul\":6979:6989   */\n      0x00\n        /* \"#utility.yul\":7000:7046   */\n      tag_348\n        /* \"#utility.yul\":7042:7045   */\n      dup4\n        /* \"#utility.yul\":7034:7040   */\n      dup4\n        /* \"#utility.yul\":7000:7046   */\n      tag_212\n      jump\t// in\n    tag_348:\n        /* \"#utility.yul\":7078:7082   */\n      0x20\n        /* \"#utility.yul\":7073:7076   */\n      dup4\n        /* \"#utility.yul\":7069:7083   */\n      add\n        /* \"#utility.yul\":7055:7083   */\n      swap1\n      pop\n        /* \"#utility.yul\":6910:7089   */\n      swap3\n      swap2\n      pop\n      pop\n      jump\t// out\n        /* \"#utility.yul\":7095:7208   */\n    tag_214:\n        /* \"#utility.yul\":7165:7169   */\n      0x00\n        /* \"#utility.yul\":7197:7201   */\n      0x20\n        /* \"#utility.yul\":7192:7195   */\n      dup3\n        /* \"#utility.yul\":7188:7202   */\n      add\n        /* \"#utility.yul\":7180:7202   */\n      swap1\n      pop\n        /* \"#utility.yul\":7095:7208   */\n      swap2\n      swap1\n      pop\n      jump\t// out\n        /* \"#utility.yul\":7244:7976   */\n    tag_215:\n        /* \"#utility.yul\":7363:7366   */\n      0x00\n        /* \"#utility.yul\":7392:7446   */\n      tag_351\n        /* \"#utility.yul\":7440:7445   */\n      dup3\n        /* \"#utility.yul\":7392:7446   */\n      tag_209\n      jump\t// in\n    tag_351:\n        /* \"#utility.yul\":7462:7548   */\n      tag_352\n        /* \"#utility.yul\":7541:7547   */\n      dup2\n        /* \"#utility.yul\":7536:7539   */\n      dup6\n        /* \"#utility.yul\":7462:7548   */\n      tag_210\n      jump\t// in\n    tag_352:\n        /* \"#utility.yul\":7455:7548   */\n      swap4\n      pop\n        /* \"#utility.yul\":7572:7628   */\n      tag_353\n        /* \"#utility.yul\":7622:7627   */\n      dup4\n        /* \"#utility.yul\":7572:7628   */\n      tag_211\n      jump\t// in\n    tag_353:\n        /* \"#utility.yul\":7651:7658   */\n      dup1\n        /* \"#utility.yul\":7682:7683   */\n      0x00\n        /* \"#utility.yul\":7667:7951   */\n    tag_354:\n        /* \"#utility.yul\":7692:7698   */\n      dup4\n        /* \"#utility.yul\":7689:7690   */\n      dup2\n        /* \"#utility.yul\":7686:7699   */\n      lt\n        /* \"#utility.yul\":7667:7951   */\n      iszero\n      tag_356\n      jumpi\n        /* \"#utility.yul\":7768:7774   */\n      dup2\n        /* \"#utility.yul\":7762:7775   */\n      mload\n        /* \"#utility.yul\":7795:7858   */\n      tag_357\n        /* \"#utility.yul\":7854:7857   */\n      dup9\n        /* \"#utility.yul\":7839:7852   */\n      dup3\n        /* \"#utility.yul\":7795:7858   */\n      tag_213\n      jump\t// in\n    tag_357:\n        /* \"#utility.yul\":7788:7858   */\n      swap8\n      pop\n        /* \"#utility.yul\":7881:7941   */\n      tag_358\n        /* \"#utility.yul\":7934:7940   */\n      dup4\n        /* \"#utility.yul\":7881:7941   */\n      tag_214\n      jump\t// in\n    tag_358:\n        /* \"#utility.yul\":7871:7941   */\n      swap3\n      pop\n        /* \"#utility.yul\":7727:7951   */\n      pop\n        /* \"#utility.yul\":7714:7715   */\n      0x01\n        /* \"#utility.yul\":7711:7712   */\n      dup2\n        /* \"#utility.yul\":7707:7716   */\n      add\n        /* \"#utility.yul\":7702:7716   */\n      swap1\n      pop\n        /* \"#utility.yul\":7667:7951   */\n      jump(tag_354)\n    tag_356:\n        /* \"#utility.yul\":7671:7685   */\n      pop\n        /* \"#utility.yul\":7967:7970   */\n      dup6\n        /* \"#utility.yul\":7960:7970   */\n      swap4\n      pop\n        /* \"#utility.yul\":7368:7976   */\n      pop\n      pop\n      pop\n        /* \"#utility.yul\":7244:7976   */\n      swap3\n      swap2\n      pop\n      pop\n      jump\t// out\n        /* \"#utility.yul\":7982:8106   */\n    tag_216:\n        /* \"#utility.yul\":8059:8065   */\n      0x00\n        /* \"#utility.yul\":8093:8098   */\n      dup2\n        /* \"#utility.yul\":8087:8099   */\n      mload\n        /* \"#utility.yul\":8077:8099   */\n      swap1\n      pop\n        /* \"#utility.yul\":7982:8106   */\n      swap2\n      swap1\n      pop\n      jump\t// out\n        /* \"#utility.yul\":8112:8306   */\n    tag_217:\n        /* \"#utility.yul\":8221:8232   */\n      0x00\n        /* \"#utility.yul\":8255:8261   */\n      dup3\n        /* \"#utility.yul\":8250:8253   */\n      dup3\n        /* \"#utility.yul\":8243:8262   */\n      mstore\n        /* \"#utility.yul\":8295:8299   */\n      0x20\n        /* \"#utility.yul\":8290:8293   */\n      dup3\n        /* \"#utility.yul\":8286:8300   */\n      add\n        /* \"#utility.yul\":8271:8300   */\n      swap1\n      pop\n        /* \"#utility.yul\":8112:8306   */\n      swap3\n      swap2\n      pop\n      pop\n      jump\t// out\n        /* \"#utility.yul\":8312:8454   */\n    tag_218:\n        /* \"#utility.yul\":8389:8393   */\n      0x00\n        /* \"#utility.yul\":8412:8415   */\n      dup2\n        /* \"#utility.yul\":8404:8415   */\n      swap1\n      pop\n        /* \"#utility.yul\":8442:8446   */\n      0x20\n        /* \"#utility.yul\":8437:8440   */\n      dup3\n        /* \"#utility.yul\":8433:8447   */\n      add\n        /* \"#utility.yul\":8425:8447   */\n      swap1\n      pop\n        /* \"#utility.yul\":8312:8454   */\n      swap2\n      swap1\n      pop\n      jump\t// out\n        /* \"#utility.yul\":8460:8559   */\n    tag_219:\n        /* \"#utility.yul\":8512:8518   */\n      0x00\n        /* \"#utility.yul\":8546:8551   */\n      dup2\n        /* \"#utility.yul\":8540:8552   */\n      mload\n        /* \"#utility.yul\":8530:8552   */\n      swap1\n      pop\n        /* \"#utility.yul\":8460:8559   */\n      swap2\n      swap1\n      pop\n      jump\t// out\n        /* \"#utility.yul\":8565:8724   */\n    tag_220:\n        /* \"#utility.yul\":8639:8650   */\n      0x00\n        /* \"#utility.yul\":8673:8679   */\n      dup3\n        /* \"#utility.yul\":8668:8671   */\n      dup3\n        /* \"#utility.yul\":8661:8680   */\n      mstore\n        /* \"#utility.yul\":8713:8717   */\n      0x20\n        /* \"#utility.yul\":8708:8711   */\n      dup3\n        /* \"#utility.yul\":8704:8718   */\n      add\n        /* \"#utility.yul\":8689:8718   */\n      swap1\n      pop\n        /* \"#utility.yul\":8565:8724   */\n      swap3\n      swap2\n      pop\n      pop\n      jump\t// out\n        /* \"#utility.yul\":8730:8869   */\n    tag_221:\n        /* \"#utility.yul\":8819:8825   */\n      dup3\n        /* \"#utility.yul\":8814:8817   */\n      dup2\n        /* \"#utility.yul\":8809:8812   */\n      dup4\n        /* \"#utility.yul\":8803:8826   */\n      mcopy\n        /* \"#utility.yul\":8860:8861   */\n      0x00\n        /* \"#utility.yul\":8851:8857   */\n      dup4\n        /* \"#utility.yul\":8846:8849   */\n      dup4\n        /* \"#utility.yul\":8842:8858   */\n      add\n        /* \"#utility.yul\":8835:8862   */\n      mstore\n        /* \"#utility.yul\":8730:8869   */\n      pop\n      pop\n      pop\n      jump\t// out\n        /* \"#utility.yul\":8875:9232   */\n    tag_222:\n        /* \"#utility.yul\":8953:8956   */\n      0x00\n        /* \"#utility.yul\":8981:9020   */\n      tag_366\n        /* \"#utility.yul\":9014:9019   */\n      dup3\n        /* \"#utility.yul\":8981:9020   */\n      tag_219\n      jump\t// in\n    tag_366:\n        /* \"#utility.yul\":9036:9097   */\n      tag_367\n        /* \"#utility.yul\":9090:9096   */\n      dup2\n        /* \"#utility.yul\":9085:9088   */\n      dup6\n        /* \"#utility.yul\":9036:9097   */\n      tag_220\n      jump\t// in\n    tag_367:\n        /* \"#utility.yul\":9029:9097   */\n      swap4\n      pop\n        /* \"#utility.yul\":9106:9171   */\n      tag_368\n        /* \"#utility.yul\":9164:9170   */\n      dup2\n        /* \"#utility.yul\":9159:9162   */\n      dup6\n        /* \"#utility.yul\":9152:9156   */\n      0x20\n        /* \"#utility.yul\":9145:9150   */\n      dup7\n        /* \"#utility.yul\":9141:9157   */\n      add\n        /* \"#utility.yul\":9106:9171   */\n      tag_221\n      jump\t// in\n    tag_368:\n        /* \"#utility.yul\":9196:9225   */\n      tag_369\n        /* \"#utility.yul\":9218:9224   */\n      dup2\n        /* \"#utility.yul\":9196:9225   */\n      tag_202\n      jump\t// in\n    tag_369:\n        /* \"#utility.yul\":9191:9194   */\n      dup5\n        /* \"#utility.yul\":9187:9226   */\n      add\n        /* \"#utility.yul\":9180:9226   */\n      swap2\n      pop\n        /* \"#utility.yul\":8957:9232   */\n      pop\n        /* \"#utility.yul\":8875:9232   */\n      swap3\n      swap2\n      pop\n      pop\n      jump\t// out\n        /* \"#utility.yul\":9238:9434   */\n    tag_223:\n        /* \"#utility.yul\":9327:9337   */\n      0x00\n        /* \"#utility.yul\":9362:9428   */\n      tag_371\n        /* \"#utility.yul\":9424:9427   */\n      dup4\n        /* \"#utility.yul\":9416:9422   */\n      dup4\n        /* \"#utility.yul\":9362:9428   */\n      tag_222\n      jump\t// in\n    tag_371:\n        /* \"#utility.yul\":9348:9428   */\n      swap1\n      pop\n        /* \"#utility.yul\":9238:9434   */\n      swap3\n      swap2\n      pop\n      pop\n      jump\t// out\n        /* \"#utility.yul\":9440:9563   */\n    tag_224:\n        /* \"#utility.yul\":9520:9524   */\n      0x00\n        /* \"#utility.yul\":9552:9556   */\n      0x20\n        /* \"#utility.yul\":9547:9550   */\n      dup3\n        /* \"#utility.yul\":9543:9557   */\n      add\n        /* \"#utility.yul\":9535:9557   */\n      swap1\n      pop\n        /* \"#utility.yul\":9440:9563   */\n      swap2\n      swap1\n      pop\n      jump\t// out\n        /* \"#utility.yul\":9597:10588   */\n    tag_225:\n        /* \"#utility.yul\":9736:9739   */\n      0x00\n        /* \"#utility.yul\":9765:9829   */\n      tag_374\n        /* \"#utility.yul\":9823:9828   */\n      dup3\n        /* \"#utility.yul\":9765:9829   */\n      tag_216\n      jump\t// in\n    tag_374:\n        /* \"#utility.yul\":9845:9941   */\n      tag_375\n        /* \"#utility.yul\":9934:9940   */\n      dup2\n        /* \"#utility.yul\":9929:9932   */\n      dup6\n        /* \"#utility.yul\":9845:9941   */\n      tag_217\n      jump\t// in\n    tag_375:\n        /* \"#utility.yul\":9838:9941   */\n      swap4\n      pop\n        /* \"#utility.yul\":9967:9970   */\n      dup4\n        /* \"#utility.yul\":10012:10016   */\n      0x20\n        /* \"#utility.yul\":10004:10010   */\n      dup3\n        /* \"#utility.yul\":10000:10017   */\n      mul\n        /* \"#utility.yul\":9995:9998   */\n      dup6\n        /* \"#utility.yul\":9991:10018   */\n      add\n        /* \"#utility.yul\":10042:10108   */\n      tag_376\n        /* \"#utility.yul\":10102:10107   */\n      dup6\n        /* \"#utility.yul\":10042:10108   */\n      tag_218\n      jump\t// in\n    tag_376:\n        /* \"#utility.yul\":10131:10138   */\n      dup1\n        /* \"#utility.yul\":10162:10163   */\n      0x00\n        /* \"#utility.yul\":10147:10543   */\n    tag_377:\n        /* \"#utility.yul\":10172:10178   */\n      dup6\n        /* \"#utility.yul\":10169:10170   */\n      dup2\n        /* \"#utility.yul\":10166:10179   */\n      lt\n        /* \"#utility.yul\":10147:10543   */\n      iszero\n      tag_379\n      jumpi\n        /* \"#utility.yul\":10243:10252   */\n      dup5\n        /* \"#utility.yul\":10237:10241   */\n      dup5\n        /* \"#utility.yul\":10233:10253   */\n      sub\n        /* \"#utility.yul\":10228:10231   */\n      dup10\n        /* \"#utility.yul\":10221:10254   */\n      mstore\n        /* \"#utility.yul\":10294:10300   */\n      dup2\n        /* \"#utility.yul\":10288:10301   */\n      mload\n        /* \"#utility.yul\":10322:10406   */\n      tag_380\n        /* \"#utility.yul\":10401:10405   */\n      dup6\n        /* \"#utility.yul\":10386:10399   */\n      dup3\n        /* \"#utility.yul\":10322:10406   */\n      tag_223\n      jump\t// in\n    tag_380:\n        /* \"#utility.yul\":10314:10406   */\n      swap5\n      pop\n        /* \"#utility.yul\":10429:10499   */\n      tag_381\n        /* \"#utility.yul\":10492:10498   */\n      dup4\n        /* \"#utility.yul\":10429:10499   */\n      tag_224\n      jump\t// in\n    tag_381:\n        /* \"#utility.yul\":10419:10499   */\n      swap3\n      pop\n        /* \"#utility.yul\":10528:10532   */\n      0x20\n        /* \"#utility.yul\":10523:10526   */\n      dup11\n        /* \"#utility.yul\":10519:10533   */\n      add\n        /* \"#utility.yul\":10512:10533   */\n      swap10\n      pop\n        /* \"#utility.yul\":10207:10543   */\n      pop\n        /* \"#utility.yul\":10194:10195   */\n      0x01\n        /* \"#utility.yul\":10191:10192   */\n      dup2\n        /* \"#utility.yul\":10187:10196   */\n      add\n        /* \"#utility.yul\":10182:10196   */\n      swap1\n      pop\n        /* \"#utility.yul\":10147:10543   */\n      jump(tag_377)\n    tag_379:\n        /* \"#utility.yul\":10151:10165   */\n      pop\n        /* \"#utility.yul\":10559:10563   */\n      dup3\n        /* \"#utility.yul\":10552:10563   */\n      swap8\n      pop\n        /* \"#utility.yul\":10579:10582   */\n      dup8\n        /* \"#utility.yul\":10572:10582   */\n      swap6\n      pop\n        /* \"#utility.yul\":9741:10588   */\n      pop\n      pop\n      pop\n      pop\n      pop\n        /* \"#utility.yul\":9597:10588   */\n      swap3\n      swap2\n      pop\n      pop\n      jump\t// out\n        /* \"#utility.yul\":10594:11529   */\n    tag_46:\n        /* \"#utility.yul\":10913:10917   */\n      0x00\n        /* \"#utility.yul\":10951:10953   */\n      0x60\n        /* \"#utility.yul\":10940:10949   */\n      dup3\n        /* \"#utility.yul\":10936:10954   */\n      add\n        /* \"#utility.yul\":10928:10954   */\n      swap1\n      pop\n        /* \"#utility.yul\":11000:11009   */\n      dup2\n        /* \"#utility.yul\":10994:10998   */\n      dup2\n        /* \"#utility.yul\":10990:11010   */\n      sub\n        /* \"#utility.yul\":10986:10987   */\n      0x00\n        /* \"#utility.yul\":10975:10984   */\n      dup4\n        /* \"#utility.yul\":10971:10988   */\n      add\n        /* \"#utility.yul\":10964:11011   */\n      mstore\n        /* \"#utility.yul\":11028:11136   */\n      tag_383\n        /* \"#utility.yul\":11131:11135   */\n      dup2\n        /* \"#utility.yul\":11122:11128   */\n      dup7\n        /* \"#utility.yul\":11028:11136   */\n      tag_215\n      jump\t// in\n    tag_383:\n        /* \"#utility.yul\":11020:11136   */\n      swap1\n      pop\n        /* \"#utility.yul\":11183:11192   */\n      dup2\n        /* \"#utility.yul\":11177:11181   */\n      dup2\n        /* \"#utility.yul\":11173:11193   */\n      sub\n        /* \"#utility.yul\":11168:11170   */\n      0x20\n        /* \"#utility.yul\":11157:11166   */\n      dup4\n        /* \"#utility.yul\":11153:11171   */\n      add\n        /* \"#utility.yul\":11146:11194   */\n      mstore\n        /* \"#utility.yul\":11211:11339   */\n      tag_384\n        /* \"#utility.yul\":11334:11338   */\n      dup2\n        /* \"#utility.yul\":11325:11331   */\n      dup6\n        /* \"#utility.yul\":11211:11339   */\n      tag_225\n      jump\t// in\n    tag_384:\n        /* \"#utility.yul\":11203:11339   */\n      swap1\n      pop\n        /* \"#utility.yul\":11386:11395   */\n      dup2\n        /* \"#utility.yul\":11380:11384   */\n      dup2\n        /* \"#utility.yul\":11376:11396   */\n      sub\n        /* \"#utility.yul\":11371:11373   */\n      0x40\n        /* \"#utility.yul\":11360:11369   */\n      dup4\n        /* \"#utility.yul\":11356:11374   */\n      add\n        /* \"#utility.yul\":11349:11397   */\n      mstore\n        /* \"#utility.yul\":11414:11522   */\n      tag_385\n        /* \"#utility.yul\":11517:11521   */\n      dup2\n        /* \"#utility.yul\":11508:11514   */\n      dup5\n        /* \"#utility.yul\":11414:11522   */\n      tag_215\n      jump\t// in\n    tag_385:\n        /* \"#utility.yul\":11406:11522   */\n      swap1\n      pop\n        /* \"#utility.yul\":10594:11529   */\n      swap5\n      swap4\n      pop\n      pop\n      pop\n      pop\n      jump\t// out\n        /* \"#utility.yul\":11535:11704   */\n    tag_226:\n        /* \"#utility.yul\":11619:11630   */\n      0x00\n        /* \"#utility.yul\":11653:11659   */\n      dup3\n        /* \"#utility.yul\":11648:11651   */\n      dup3\n        /* \"#utility.yul\":11641:11660   */\n      mstore\n        /* \"#utility.yul\":11693:11697   */\n      0x20\n        /* \"#utility.yul\":11688:11691   */\n      dup3\n        /* \"#utility.yul\":11684:11698   */\n      add\n        /* \"#utility.yul\":11669:11698   */\n      swap1\n      pop\n        /* \"#utility.yul\":11535:11704   */\n      swap3\n      swap2\n      pop\n      pop\n      jump\t// out\n        /* \"#utility.yul\":11710:12087   */\n    tag_227:\n        /* \"#utility.yul\":11798:11801   */\n      0x00\n        /* \"#utility.yul\":11826:11865   */\n      tag_388\n        /* \"#utility.yul\":11859:11864   */\n      dup3\n        /* \"#utility.yul\":11826:11865   */\n      tag_219\n      jump\t// in\n    tag_388:\n        /* \"#utility.yul\":11881:11952   */\n      tag_389\n        /* \"#utility.yul\":11945:11951   */\n      dup2\n        /* \"#utility.yul\":11940:11943   */\n      dup6\n        /* \"#utility.yul\":11881:11952   */\n      tag_226\n      jump\t// in\n    tag_389:\n        /* \"#utility.yul\":11874:11952   */\n      swap4\n      pop\n        /* \"#utility.yul\":11961:12026   */\n      tag_390\n        /* \"#utility.yul\":12019:12025   */\n      dup2\n        /* \"#utility.yul\":12014:12017   */\n      dup6\n        /* \"#utility.yul\":12007:12011   */\n      0x20\n        /* \"#utility.yul\":12000:12005   */\n      dup7\n        /* \"#utility.yul\":11996:12012   */\n      add\n        /* \"#utility.yul\":11961:12026   */\n      tag_221\n      jump\t// in\n    tag_390:\n        /* \"#utility.yul\":12051:12080   */\n      tag_391\n        /* \"#utility.yul\":12073:12079   */\n      dup2\n        /* \"#utility.yul\":12051:12080   */\n      tag_202\n      jump\t// in\n    tag_391:\n        /* \"#utility.yul\":12046:12049   */\n      dup5\n        /* \"#utility.yul\":12042:12081   */\n      add\n        /* \"#utility.yul\":12035:12081   */\n      swap2\n      pop\n        /* \"#utility.yul\":11802:12087   */\n      pop\n        /* \"#utility.yul\":11710:12087   */\n      swap3\n      swap2\n      pop\n      pop\n      jump\t// out\n        /* \"#utility.yul\":12093:12725   */\n    tag_60:\n        /* \"#utility.yul\":12284:12288   */\n      0x00\n        /* \"#utility.yul\":12322:12325   */\n      0x80\n        /* \"#utility.yul\":12311:12320   */\n      dup3\n        /* \"#utility.yul\":12307:12326   */\n      add\n        /* \"#utility.yul\":12299:12326   */\n      swap1\n      pop\n        /* \"#utility.yul\":12372:12381   */\n      dup2\n        /* \"#utility.yul\":12366:12370   */\n      dup2\n        /* \"#utility.yul\":12362:12382   */\n      sub\n        /* \"#utility.yul\":12358:12359   */\n      0x00\n        /* \"#utility.yul\":12347:12356   */\n      dup4\n        /* \"#utility.yul\":12343:12360   */\n      add\n        /* \"#utility.yul\":12336:12383   */\n      mstore\n        /* \"#utility.yul\":12400:12478   */\n      tag_393\n        /* \"#utility.yul\":12473:12477   */\n      dup2\n        /* \"#utility.yul\":12464:12470   */\n      dup8\n        /* \"#utility.yul\":12400:12478   */\n      tag_227\n      jump\t// in\n    tag_393:\n        /* \"#utility.yul\":12392:12478   */\n      swap1\n      pop\n        /* \"#utility.yul\":12488:12560   */\n      tag_394\n        /* \"#utility.yul\":12556:12558   */\n      0x20\n        /* \"#utility.yul\":12545:12554   */\n      dup4\n        /* \"#utility.yul\":12541:12559   */\n      add\n        /* \"#utility.yul\":12532:12538   */\n      dup7\n        /* \"#utility.yul\":12488:12560   */\n      tag_189\n      jump\t// in\n    tag_394:\n        /* \"#utility.yul\":12570:12642   */\n      tag_395\n        /* \"#utility.yul\":12638:12640   */\n      0x40\n        /* \"#utility.yul\":12627:12636   */\n      dup4\n        /* \"#utility.yul\":12623:12641   */\n      add\n        /* \"#utility.yul\":12614:12620   */\n      dup6\n        /* \"#utility.yul\":12570:12642   */\n      tag_197\n      jump\t// in\n    tag_395:\n        /* \"#utility.yul\":12652:12718   */\n      tag_396\n        /* \"#utility.yul\":12714:12716   */\n      0x60\n        /* \"#utility.yul\":12703:12712   */\n      dup4\n        /* \"#utility.yul\":12699:12717   */\n      add\n        /* \"#utility.yul\":12690:12696   */\n      dup5\n        /* \"#utility.yul\":12652:12718   */\n      tag_199\n      jump\t// in\n    tag_396:\n        /* \"#utility.yul\":12093:12725   */\n      swap6\n      swap5\n      pop\n      pop\n      pop\n      pop\n      pop\n      jump\t// out\n        /* \"#utility.yul\":12731:12911   */\n    tag_228:\n        /* \"#utility.yul\":12871:12903   */\n      0x426f74682073656375726974696573206d757374206265206c69737465640000\n        /* \"#utility.yul\":12867:12868   */\n      0x00\n        /* \"#utility.yul\":12859:12865   */\n      dup3\n        /* \"#utility.yul\":12855:12869   */\n      add\n        /* \"#utility.yul\":12848:12904   */\n      mstore\n        /* \"#utility.yul\":12731:12911   */\n      pop\n      jump\t// out\n        /* \"#utility.yul\":12917:13283   */\n    tag_229:\n        /* \"#utility.yul\":13059:13062   */\n      0x00\n        /* \"#utility.yul\":13080:13147   */\n      tag_399\n        /* \"#utility.yul\":13144:13146   */\n      0x1e\n        /* \"#utility.yul\":13139:13142   */\n      dup4\n        /* \"#utility.yul\":13080:13147   */\n      tag_226\n      jump\t// in\n    tag_399:\n        /* \"#utility.yul\":13073:13147   */\n      swap2\n      pop\n        /* \"#utility.yul\":13156:13249   */\n      tag_400\n        /* \"#utility.yul\":13245:13248   */\n      dup3\n        /* \"#utility.yul\":13156:13249   */\n      tag_228\n      jump\t// in\n    tag_400:\n        /* \"#utility.yul\":13274:13276   */\n      0x20\n        /* \"#utility.yul\":13269:13272   */\n      dup3\n        /* \"#utility.yul\":13265:13277   */\n      add\n        /* \"#utility.yul\":13258:13277   */\n      swap1\n      pop\n        /* \"#utility.yul\":12917:13283   */\n      swap2\n      swap1\n      pop\n      jump\t// out\n        /* \"#utility.yul\":13289:13708   */\n    tag_69:\n        /* \"#utility.yul\":13455:13459   */\n      0x00\n        /* \"#utility.yul\":13493:13495   */\n      0x20\n        /* \"#utility.yul\":13482:13491   */\n      dup3\n        /* \"#utility.yul\":13478:13496   */\n      add\n        /* \"#utility.yul\":13470:13496   */\n      swap1\n      pop\n        /* \"#utility.yul\":13542:13551   */\n      dup2\n        /* \"#utility.yul\":13536:13540   */\n      dup2\n        /* \"#utility.yul\":13532:13552   */\n      sub\n        /* \"#utility.yul\":13528:13529   */\n      0x00\n        /* \"#utility.yul\":13517:13526   */\n      dup4\n        /* \"#utility.yul\":13513:13530   */\n      add\n        /* \"#utility.yul\":13506:13553   */\n      mstore\n        /* \"#utility.yul\":13570:13701   */\n      tag_402\n        /* \"#utility.yul\":13696:13700   */\n      dup2\n        /* \"#utility.yul\":13570:13701   */\n      tag_229\n      jump\t// in\n    tag_402:\n        /* \"#utility.yul\":13562:13701   */\n      swap1\n      pop\n        /* \"#utility.yul\":13289:13708   */\n      swap2\n      swap1\n      pop\n      jump\t// out\n        /* \"#utility.yul\":13714:13934   */\n    tag_230:\n        /* \"#utility.yul\":13854:13888   */\n      0x596f75206d757374206f776e20746865206f6666657265642073656375726974\n        /* \"#utility.yul\":13850:13851   */\n      0x00\n        /* \"#utility.yul\":13842:13848   */\n      dup3\n        /* \"#utility.yul\":13838:13852   */\n      add\n        /* \"#utility.yul\":13831:13889   */\n      mstore\n        /* \"#utility.yul\":13923:13926   */\n      0x7900000000000000000000000000000000000000000000000000000000000000\n        /* \"#utility.yul\":13918:13920   */\n      0x20\n        /* \"#utility.yul\":13910:13916   */\n      dup3\n        /* \"#utility.yul\":13906:13921   */\n      add\n        /* \"#utility.yul\":13899:13927   */\n      mstore\n        /* \"#utility.yul\":13714:13934   */\n      pop\n      jump\t// out\n        /* \"#utility.yul\":13940:14306   */\n    tag_231:\n        /* \"#utility.yul\":14082:14085   */\n      0x00\n        /* \"#utility.yul\":14103:14170   */\n      tag_405\n        /* \"#utility.yul\":14167:14169   */\n      0x21\n        /* \"#utility.yul\":14162:14165   */\n      dup4\n        /* \"#utility.yul\":14103:14170   */\n      tag_226\n      jump\t// in\n    tag_405:\n        /* \"#utility.yul\":14096:14170   */\n      swap2\n      pop\n        /* \"#utility.yul\":14179:14272   */\n      tag_406\n        /* \"#utility.yul\":14268:14271   */\n      dup3\n        /* \"#utility.yul\":14179:14272   */\n      tag_230\n      jump\t// in\n    tag_406:\n        /* \"#utility.yul\":14297:14299   */\n      0x40\n        /* \"#utility.yul\":14292:14295   */\n      dup3\n        /* \"#utility.yul\":14288:14300   */\n      add\n        /* \"#utility.yul\":14281:14300   */\n      swap1\n      pop\n        /* \"#utility.yul\":13940:14306   */\n      swap2\n      swap1\n      pop\n      jump\t// out\n        /* \"#utility.yul\":14312:14731   */\n    tag_72:\n        /* \"#utility.yul\":14478:14482   */\n      0x00\n        /* \"#utility.yul\":14516:14518   */\n      0x20\n        /* \"#utility.yul\":14505:14514   */\n      dup3\n        /* \"#utility.yul\":14501:14519   */\n      add\n        /* \"#utility.yul\":14493:14519   */\n      swap1\n      pop\n        /* \"#utility.yul\":14565:14574   */\n      dup2\n        /* \"#utility.yul\":14559:14563   */\n      dup2\n        /* \"#utility.yul\":14555:14575   */\n      sub\n        /* \"#utility.yul\":14551:14552   */\n      0x00\n        /* \"#utility.yul\":14540:14549   */\n      dup4\n        /* \"#utility.yul\":14536:14553   */\n      add\n        /* \"#utility.yul\":14529:14576   */\n      mstore\n        /* \"#utility.yul\":14593:14724   */\n      tag_408\n        /* \"#utility.yul\":14719:14723   */\n      dup2\n        /* \"#utility.yul\":14593:14724   */\n      tag_231\n      jump\t// in\n    tag_408:\n        /* \"#utility.yul\":14585:14724   */\n      swap1\n      pop\n        /* \"#utility.yul\":14312:14731   */\n      swap2\n      swap1\n      pop\n      jump\t// out\n        /* \"#utility.yul\":14737:14916   */\n    tag_232:\n        /* \"#utility.yul\":14877:14908   */\n      0x43616e6e6f742065786368616e6765207769746820796f757273656c66000000\n        /* \"#utility.yul\":14873:14874   */\n      0x00\n        /* \"#utility.yul\":14865:14871   */\n      dup3\n        /* \"#utility.yul\":14861:14875   */\n      add\n        /* \"#utility.yul\":14854:14909   */\n      mstore\n        /* \"#utility.yul\":14737:14916   */\n      pop\n      jump\t// out\n        /* \"#utility.yul\":14922:15288   */\n    tag_233:\n        /* \"#utility.yul\":15064:15067   */\n      0x00\n        /* \"#utility.yul\":15085:15152   */\n      tag_411\n        /* \"#utility.yul\":15149:15151   */\n      0x1d\n        /* \"#utility.yul\":15144:15147   */\n      dup4\n        /* \"#utility.yul\":15085:15152   */\n      tag_226\n      jump\t// in\n    tag_411:\n        /* \"#utility.yul\":15078:15152   */\n      swap2\n      pop\n        /* \"#utility.yul\":15161:15254   */\n      tag_412\n        /* \"#utility.yul\":15250:15253   */\n      dup3\n        /* \"#utility.yul\":15161:15254   */\n      tag_232\n      jump\t// in\n    tag_412:\n        /* \"#utility.yul\":15279:15281   */\n      0x20\n        /* \"#utility.yul\":15274:15277   */\n      dup3\n        /* \"#utility.yul\":15270:15282   */\n      add\n        /* \"#utility.yul\":15263:15282   */\n      swap1\n      pop\n        /* \"#utility.yul\":14922:15288   */\n      swap2\n      swap1\n      pop\n      jump\t// out\n        /* \"#utility.yul\":15294:15713   */\n    tag_75:\n        /* \"#utility.yul\":15460:15464   */\n      0x00\n        /* \"#utility.yul\":15498:15500   */\n      0x20\n        /* \"#utility.yul\":15487:15496   */\n      dup3\n        /* \"#utility.yul\":15483:15501   */\n      add\n        /* \"#utility.yul\":15475:15501   */\n      swap1\n      pop\n        /* \"#utility.yul\":15547:15556   */\n      dup2\n        /* \"#utility.yul\":15541:15545   */\n      dup2\n        /* \"#utility.yul\":15537:15557   */\n      sub\n        /* \"#utility.yul\":15533:15534   */\n      0x00\n        /* \"#utility.yul\":15522:15531   */\n      dup4\n        /* \"#utility.yul\":15518:15535   */\n      add\n        /* \"#utility.yul\":15511:15558   */\n      mstore\n        /* \"#utility.yul\":15575:15706   */\n      tag_414\n        /* \"#utility.yul\":15701:15705   */\n      dup2\n        /* \"#utility.yul\":15575:15706   */\n      tag_233\n      jump\t// in\n    tag_414:\n        /* \"#utility.yul\":15567:15706   */\n      swap1\n      pop\n        /* \"#utility.yul\":15294:15713   */\n      swap2\n      swap1\n      pop\n      jump\t// out\n        /* \"#utility.yul\":15719:15952   */\n    tag_77:\n        /* \"#utility.yul\":15758:15761   */\n      0x00\n        /* \"#utility.yul\":15781:15805   */\n      tag_416\n        /* \"#utility.yul\":15799:15804   */\n      dup3\n        /* \"#utility.yul\":15781:15805   */\n      tag_187\n      jump\t// in\n    tag_416:\n        /* \"#utility.yul\":15772:15805   */\n      swap2\n      pop\n        /* \"#utility.yul\":15827:15893   */\n      0xffffffffffffffffffffffffffffffffffffffffffffffffffffffffffffffff\n        /* \"#utility.yul\":15820:15825   */\n      dup3\n        /* \"#utility.yul\":15817:15894   */\n      sub\n        /* \"#utility.yul\":15814:15917   */\n      tag_417\n      jumpi\n        /* \"#utility.yul\":15897:15915   */\n      tag_418\n      tag_188\n      jump\t// in\n    tag_418:\n        /* \"#utility.yul\":15814:15917   */\n    tag_417:\n        /* \"#utility.yul\":15944:15945   */\n      0x01\n        /* \"#utility.yul\":15937:15942   */\n      dup3\n        /* \"#utility.yul\":15933:15946   */\n      add\n        /* \"#utility.yul\":15926:15946   */\n      swap1\n      pop\n        /* \"#utility.yul\":15719:15952   */\n      swap2\n      swap1\n      pop\n      jump\t// out\n        /* \"#utility.yul\":15958:16511   */\n    tag_79:\n        /* \"#utility.yul\":16135:16139   */\n      0x00\n        /* \"#utility.yul\":16173:16176   */\n      0x80\n        /* \"#utility.yul\":16162:16171   */\n      dup3\n        /* \"#utility.yul\":16158:16177   */\n      add\n        /* \"#utility.yul\":16150:16177   */\n      swap1\n      pop\n        /* \"#utility.yul\":16187:16258   */\n      tag_420\n        /* \"#utility.yul\":16255:16256   */\n      0x00\n        /* \"#utility.yul\":16244:16253   */\n      dup4\n        /* \"#utility.yul\":16240:16257   */\n      add\n        /* \"#utility.yul\":16231:16237   */\n      dup8\n        /* \"#utility.yul\":16187:16258   */\n      tag_189\n      jump\t// in\n    tag_420:\n        /* \"#utility.yul\":16268:16340   */\n      tag_421\n        /* \"#utility.yul\":16336:16338   */\n      0x20\n        /* \"#utility.yul\":16325:16334   */\n      dup4\n        /* \"#utility.yul\":16321:16339   */\n      add\n        /* \"#utility.yul\":16312:16318   */\n      dup7\n        /* \"#utility.yul\":16268:16340   */\n      tag_189\n      jump\t// in\n    tag_421:\n        /* \"#utility.yul\":16350:16422   */\n      tag_422\n        /* \"#utility.yul\":16418:16420   */\n      0x40\n        /* \"#utility.yul\":16407:16416   */\n      dup4\n        /* \"#utility.yul\":16403:16421   */\n      add\n        /* \"#utility.yul\":16394:16400   */\n      dup6\n        /* \"#utility.yul\":16350:16422   */\n      tag_197\n      jump\t// in\n    tag_422:\n        /* \"#utility.yul\":16432:16504   */\n      tag_423\n        /* \"#utility.yul\":16500:16502   */\n      0x60\n        /* \"#utility.yul\":16489:16498   */\n      dup4\n        /* \"#utility.yul\":16485:16503   */\n      add\n        /* \"#utility.yul\":16476:16482   */\n      dup5\n        /* \"#utility.yul\":16432:16504   */\n      tag_197\n      jump\t// in\n    tag_423:\n        /* \"#utility.yul\":15958:16511   */\n      swap6\n      swap5\n      pop\n      pop\n      pop\n      pop\n      pop\n      jump\t// out\n        /* \"#utility.yul\":16517:16695   */\n    tag_234:\n        /* \"#utility.yul\":16657:16687   */\n      0x5072696365206d7573742062652067726561746572207468616e203000000000\n        /* \"#utility.yul\":16653:16654   */\n      0x00\n        /* \"#utility.yul\":16645:16651   */\n      dup3\n        /* \"#utility.yul\":16641:16655   */\n      add\n        /* \"#utility.yul\":16634:16688   */\n      mstore\n        /* \"#utility.yul\":16517:16695   */\n      pop\n      jump\t// out\n        /* \"#utility.yul\":16701:17067   */\n    tag_235:\n        /* \"#utility.yul\":16843:16846   */\n      0x00\n        /* \"#utility.yul\":16864:16931   */\n      tag_426\n        /* \"#utility.yul\":16928:16930   */\n      0x1c\n        /* \"#utility.yul\":16923:16926   */\n      dup4\n        /* \"#utility.yul\":16864:16931   */\n      tag_226\n      jump\t// in\n    tag_426:\n        /* \"#utility.yul\":16857:16931   */\n      swap2\n      pop\n        /* \"#utility.yul\":16940:17033   */\n      tag_427\n        /* \"#utility.yul\":17029:17032   */\n      dup3\n        /* \"#utility.yul\":16940:17033   */\n      tag_234\n      jump\t// in\n    tag_427:\n        /* \"#utility.yul\":17058:17060   */\n      0x20\n        /* \"#utility.yul\":17053:17056   */\n      dup3\n        /* \"#utility.yul\":17049:17061   */\n      add\n        /* \"#utility.yul\":17042:17061   */\n      swap1\n      pop\n        /* \"#utility.yul\":16701:17067   */\n      swap2\n      swap1\n      pop\n      jump\t// out\n        /* \"#utility.yul\":17073:17492   */\n    tag_83:\n        /* \"#utility.yul\":17239:17243   */\n      0x00\n        /* \"#utility.yul\":17277:17279   */\n      0x20\n        /* \"#utility.yul\":17266:17275   */\n      dup3\n        /* \"#utility.yul\":17262:17280   */\n      add\n        /* \"#utility.yul\":17254:17280   */\n      swap1\n      pop\n        /* \"#utility.yul\":17326:17335   */\n      dup2\n        /* \"#utility.yul\":17320:17324   */\n      dup2\n        /* \"#utility.yul\":17316:17336   */\n      sub\n        /* \"#utility.yul\":17312:17313   */\n      0x00\n        /* \"#utility.yul\":17301:17310   */\n      dup4\n        /* \"#utility.yul\":17297:17314   */\n      add\n        /* \"#utility.yul\":17290:17337   */\n      mstore\n        /* \"#utility.yul\":17354:17485   */\n      tag_429\n        /* \"#utility.yul\":17480:17484   */\n      dup2\n        /* \"#utility.yul\":17354:17485   */\n      tag_235\n      jump\t// in\n    tag_429:\n        /* \"#utility.yul\":17346:17485   */\n      swap1\n      pop\n        /* \"#utility.yul\":17073:17492   */\n      swap2\n      swap1\n      pop\n      jump\t// out\n        /* \"#utility.yul\":17498:17678   */\n    tag_236:\n        /* \"#utility.yul\":17546:17623   */\n      0x4e487b7100000000000000000000000000000000000000000000000000000000\n        /* \"#utility.yul\":17543:17544   */\n      0x00\n        /* \"#utility.yul\":17536:17624   */\n      mstore\n        /* \"#utility.yul\":17643:17647   */\n      0x22\n        /* \"#utility.yul\":17640:17641   */\n      0x04\n        /* \"#utility.yul\":17633:17648   */\n      mstore\n        /* \"#utility.yul\":17667:17671   */\n      0x24\n        /* \"#utility.yul\":17664:17665   */\n      0x00\n        /* \"#utility.yul\":17657:17672   */\n      revert\n        /* \"#utility.yul\":17684:18004   */\n    tag_114:\n        /* \"#utility.yul\":17728:17734   */\n      0x00\n        /* \"#utility.yul\":17765:17766   */\n      0x02\n        /* \"#utility.yul\":17759:17763   */\n      dup3\n        /* \"#utility.yul\":17755:17767   */\n      div\n        /* \"#utility.yul\":17745:17767   */\n      swap1\n      pop\n        /* \"#utility.yul\":17812:17813   */\n      0x01\n        /* \"#utility.yul\":17806:17810   */\n      dup3\n        /* \"#utility.yul\":17802:17814   */\n      and\n        /* \"#utility.yul\":17833:17851   */\n      dup1\n        /* \"#utility.yul\":17823:17904   */\n      tag_432\n      jumpi\n        /* \"#utility.yul\":17889:17893   */\n      0x7f\n        /* \"#utility.yul\":17881:17887   */\n      dup3\n        /* \"#utility.yul\":17877:17894   */\n      and\n        /* \"#utility.yul\":17867:17894   */\n      swap2\n      pop\n        /* \"#utility.yul\":17823:17904   */\n    tag_432:\n        /* \"#utility.yul\":17951:17953   */\n      0x20\n        /* \"#utility.yul\":17943:17949   */\n      dup3\n        /* \"#utility.yul\":17940:17954   */\n      lt\n        /* \"#utility.yul\":17920:17938   */\n      dup2\n        /* \"#utility.yul\":17917:17955   */\n      sub\n        /* \"#utility.yul\":17914:17998   */\n      tag_433\n      jumpi\n        /* \"#utility.yul\":17970:17988   */\n      tag_434\n      tag_236\n      jump\t// in\n    tag_434:\n        /* \"#utility.yul\":17914:17998   */\n    tag_433:\n        /* \"#utility.yul\":17735:18004   */\n      pop\n        /* \"#utility.yul\":17684:18004   */\n      swap2\n      swap1\n      pop\n      jump\t// out\n        /* \"#utility.yul\":18010:18151   */\n    tag_237:\n        /* \"#utility.yul\":18059:18063   */\n      0x00\n        /* \"#utility.yul\":18082:18085   */\n      dup2\n        /* \"#utility.yul\":18074:18085   */\n      swap1\n      pop\n        /* \"#utility.yul\":18105:18108   */\n      dup2\n        /* \"#utility.yul\":18102:18103   */\n      0x00\n        /* \"#utility.yul\":18095:18109   */\n      mstore\n        /* \"#utility.yul\":18139:18143   */\n      0x20\n        /* \"#utility.yul\":18136:18137   */\n      0x00\n        /* \"#utility.yul\":18126:18144   */\n      keccak256\n        /* \"#utility.yul\":18118:18144   */\n      swap1\n      pop\n        /* \"#utility.yul\":18010:18151   */\n      swap2\n      swap1\n      pop\n      jump\t// out\n        /* \"#utility.yul\":18157:18250   */\n    tag_238:\n        /* \"#utility.yul\":18194:18200   */\n      0x00\n        /* \"#utility.yul\":18241:18243   */\n      0x20\n        /* \"#utility.yul\":18236:18238   */\n      0x1f\n        /* \"#utility.yul\":18229:18234   */\n      dup4\n        /* \"#utility.yul\":18225:18239   */\n      add\n        /* \"#utility.yul\":18221:18244   */\n      div\n        /* \"#utility.yul\":18211:18244   */\n      swap1\n      pop\n        /* \"#utility.yul\":18157:18250   */\n      swap2\n      swap1\n      pop\n      jump\t// out\n        /* \"#utility.yul\":18256:18363   */\n    tag_239:\n        /* \"#utility.yul\":18300:18308   */\n      0x00\n        /* \"#utility.yul\":18350:18355   */\n      dup3\n        /* \"#utility.yul\":18344:18348   */\n      dup3\n        /* \"#utility.yul\":18340:18356   */\n      shl\n        /* \"#utility.yul\":18319:18356   */\n      swap1\n      pop\n        /* \"#utility.yul\":18256:18363   */\n      swap3\n      swap2\n      pop\n      pop\n      jump\t// out\n        /* \"#utility.yul\":18369:18762   */\n    tag_240:\n        /* \"#utility.yul\":18438:18444   */\n      0x00\n        /* \"#utility.yul\":18488:18489   */\n      0x08\n        /* \"#utility.yul\":18476:18486   */\n      dup4\n        /* \"#utility.yul\":18472:18490   */\n      mul\n        /* \"#utility.yul\":18511:18608   */\n      tag_439\n        /* \"#utility.yul\":18541:18607   */\n      0xffffffffffffffffffffffffffffffffffffffffffffffffffffffffffffffff\n        /* \"#utility.yul\":18530:18539   */\n      dup3\n        /* \"#utility.yul\":18511:18608   */\n      tag_239\n      jump\t// in\n    tag_439:\n        /* \"#utility.yul\":18629:18668   */\n      tag_440\n        /* \"#utility.yul\":18659:18667   */\n      dup7\n        /* \"#utility.yul\":18648:18657   */\n      dup4\n        /* \"#utility.yul\":18629:18668   */\n      tag_239\n      jump\t// in\n    tag_440:\n        /* \"#utility.yul\":18617:18668   */\n      swap6\n      pop\n        /* \"#utility.yul\":18701:18705   */\n      dup1\n        /* \"#utility.yul\":18697:18706   */\n      not\n        /* \"#utility.yul\":18690:18695   */\n      dup5\n        /* \"#utility.yul\":18686:18707   */\n      and\n        /* \"#utility.yul\":18677:18707   */\n      swap4\n      pop\n        /* \"#utility.yul\":18750:18754   */\n      dup1\n        /* \"#utility.yul\":18740:18748   */\n      dup7\n        /* \"#utility.yul\":18736:18755   */\n      and\n        /* \"#utility.yul\":18729:18734   */\n      dup5\n        /* \"#utility.yul\":18726:18756   */\n      or\n        /* \"#utility.yul\":18716:18756   */\n      swap3\n      pop\n        /* \"#utility.yul\":18445:18762   */\n      pop\n      pop\n        /* \"#utility.yul\":18369:18762   */\n      swap4\n      swap3\n      pop\n      pop\n      pop\n      jump\t// out\n        /* \"#utility.yul\":18768:18828   */\n    tag_241:\n        /* \"#utility.yul\":18796:18799   */\n      0x00\n        /* \"#utility.yul\":18817:18822   */\n      dup2\n        /* \"#utility.yul\":18810:18822   */\n      swap1\n      pop\n        /* \"#utility.yul\":18768:18828   */\n      swap2\n      swap1\n      pop\n      jump\t// out\n        /* \"#utility.yul\":18834:18976   */\n    tag_242:\n        /* \"#utility.yul\":18884:18893   */\n      0x00\n        /* \"#utility.yul\":18917:18970   */\n      tag_443\n        /* \"#utility.yul\":18935:18969   */\n      tag_444\n        /* \"#utility.yul\":18944:18968   */\n      tag_445\n        /* \"#utility.yul\":18962:18967   */\n      dup5\n        /* \"#utility.yul\":18944:18968   */\n      tag_187\n      jump\t// in\n    tag_445:\n        /* \"#utility.yul\":18935:18969   */\n      tag_241\n      jump\t// in\n    tag_444:\n        /* \"#utility.yul\":18917:18970   */\n      tag_187\n      jump\t// in\n    tag_443:\n        /* \"#utility.yul\":18904:18970   */\n      swap1\n      pop\n        /* \"#utility.yul\":18834:18976   */\n      swap2\n      swap1\n      pop\n      jump\t// out\n        /* \"#utility.yul\":18982:19057   */\n    tag_243:\n        /* \"#utility.yul\":19025:19028   */\n      0x00\n        /* \"#utility.yul\":19046:19051   */\n      dup2\n        /* \"#utility.yul\":19039:19051   */\n      swap1\n      pop\n        /* \"#utility.yul\":18982:19057   */\n      swap2\n      swap1\n      pop\n      jump\t// out\n        /* \"#utility.yul\":19063:19332   */\n    tag_244:\n        /* \"#utility.yul\":19173:19212   */\n      tag_448\n        /* \"#utility.yul\":19204:19211   */\n      dup4\n        /* \"#utility.yul\":19173:19212   */\n      tag_242\n      jump\t// in\n    tag_448:\n        /* \"#utility.yul\":19234:19325   */\n      tag_449\n        /* \"#utility.yul\":19283:19324   */\n      tag_450\n        /* \"#utility.yul\":19307:19323   */\n      dup3\n        /* \"#utility.yul\":19283:19324   */\n      tag_243\n      jump\t// in\n    tag_450:\n        /* \"#utility.yul\":19275:19281   */\n      dup5\n        /* \"#utility.yul\":19268:19272   */\n      dup5\n        /* \"#utility.yul\":19262:19273   */\n      sload\n        /* \"#utility.yul\":19234:19325   */\n      tag_240\n      jump\t// in\n    tag_449:\n        /* \"#utility.yul\":19228:19232   */\n      dup3\n        /* \"#utility.yul\":19221:19326   */\n      sstore\n        /* \"#utility.yul\":19139:19332   */\n      pop\n        /* \"#utility.yul\":19063:19332   */\n      pop\n      pop\n      pop\n      jump\t// out\n        /* \"#utility.yul\":19338:19411   */\n    tag_245:\n        /* \"#utility.yul\":19383:19386   */\n      0x00\n        /* \"#utility.yul\":19338:19411   */\n      swap1\n      jump\t// out\n        /* \"#utility.yul\":19417:19606   */\n    tag_246:\n        /* \"#utility.yul\":19494:19526   */\n      tag_453\n      tag_245\n      jump\t// in\n    tag_453:\n        /* \"#utility.yul\":19535:19600   */\n      tag_454\n        /* \"#utility.yul\":19593:19599   */\n      dup2\n        /* \"#utility.yul\":19585:19591   */\n      dup5\n        /* \"#utility.yul\":19579:19583   */\n      dup5\n        /* \"#utility.yul\":19535:19600   */\n      tag_244\n      jump\t// in\n    tag_454:\n        /* \"#utility.yul\":19470:19606   */\n      pop\n        /* \"#utility.yul\":19417:19606   */\n      pop\n      pop\n      jump\t// out\n        /* \"#utility.yul\":19612:19798   */\n    tag_247:\n        /* \"#utility.yul\":19672:19792   */\n    tag_456:\n        /* \"#utility.yul\":19689:19692   */\n      dup2\n        /* \"#utility.yul\":19682:19687   */\n      dup2\n        /* \"#utility.yul\":19679:19693   */\n      lt\n        /* \"#utility.yul\":19672:19792   */\n      iszero\n      tag_458\n      jumpi\n        /* \"#utility.yul\":19743:19782   */\n      tag_459\n        /* \"#utility.yul\":19780:19781   */\n      0x00\n        /* \"#utility.yul\":19773:19778   */\n      dup3\n        /* \"#utility.yul\":19743:19782   */\n      tag_246\n      jump\t// in\n    tag_459:\n        /* \"#utility.yul\":19716:19717   */\n      0x01\n        /* \"#utility.yul\":19709:19714   */\n      dup2\n        /* \"#utility.yul\":19705:19718   */\n      add\n        /* \"#utility.yul\":19696:19718   */\n      swap1\n      pop\n        /* \"#utility.yul\":19672:19792   */\n      jump(tag_456)\n    tag_458:\n        /* \"#utility.yul\":19612:19798   */\n      pop\n      pop\n      jump\t// out\n        /* \"#utility.yul\":19804:20347   */\n    tag_248:\n        /* \"#utility.yul\":19905:19907   */\n      0x1f\n        /* \"#utility.yul\":19900:19903   */\n      dup3\n        /* \"#utility.yul\":19897:19908   */\n      gt\n        /* \"#utility.yul\":19894:20340   */\n      iszero\n      tag_461\n      jumpi\n        /* \"#utility.yul\":19939:19977   */\n      tag_462\n        /* \"#utility.yul\":19971:19976   */\n      dup2\n        /* \"#utility.yul\":19939:19977   */\n      tag_237\n      jump\t// in\n    tag_462:\n        /* \"#utility.yul\":20023:20052   */\n      tag_463\n        /* \"#utility.yul\":20041:20051   */\n      dup5\n        /* \"#utility.yul\":20023:20052   */\n      tag_238\n      jump\t// in\n    tag_463:\n        /* \"#utility.yul\":20013:20021   */\n      dup2\n        /* \"#utility.yul\":20009:20053   */\n      add\n        /* \"#utility.yul\":20206:20208   */\n      0x20\n        /* \"#utility.yul\":20194:20204   */\n      dup6\n        /* \"#utility.yul\":20191:20209   */\n      lt\n        /* \"#utility.yul\":20188:20237   */\n      iszero\n      tag_464\n      jumpi\n        /* \"#utility.yul\":20227:20235   */\n      dup2\n        /* \"#utility.yul\":20212:20235   */\n      swap1\n      pop\n        /* \"#utility.yul\":20188:20237   */\n    tag_464:\n        /* \"#utility.yul\":20250:20330   */\n      tag_465\n        /* \"#utility.yul\":20306:20328   */\n      tag_466\n        /* \"#utility.yul\":20324:20327   */\n      dup6\n        /* \"#utility.yul\":20306:20328   */\n      tag_238\n      jump\t// in\n    tag_466:\n        /* \"#utility.yul\":20296:20304   */\n      dup4\n        /* \"#utility.yul\":20292:20329   */\n      add\n        /* \"#utility.yul\":20279:20290   */\n      dup3\n        /* \"#utility.yul\":20250:20330   */\n      tag_247\n      jump\t// in\n    tag_465:\n        /* \"#utility.yul\":19909:20340   */\n      pop\n      pop\n        /* \"#utility.yul\":19894:20340   */\n    tag_461:\n        /* \"#utility.yul\":19804:20347   */\n      pop\n      pop\n      pop\n      jump\t// out\n        /* \"#utility.yul\":20353:20470   */\n    tag_249:\n        /* \"#utility.yul\":20407:20415   */\n      0x00\n        /* \"#utility.yul\":20457:20462   */\n      dup3\n        /* \"#utility.yul\":20451:20455   */\n      dup3\n        /* \"#utility.yul\":20447:20463   */\n      shr\n        /* \"#utility.yul\":20426:20463   */\n      swap1\n      pop\n        /* \"#utility.yul\":20353:20470   */\n      swap3\n      swap2\n      pop\n      pop\n      jump\t// out\n        /* \"#utility.yul\":20476:20645   */\n    tag_250:\n        /* \"#utility.yul\":20520:20526   */\n      0x00\n        /* \"#utility.yul\":20553:20604   */\n      tag_469\n        /* \"#utility.yul\":20601:20602   */\n      0x00\n        /* \"#utility.yul\":20597:20603   */\n      not\n        /* \"#utility.yul\":20589:20594   */\n      dup5\n        /* \"#utility.yul\":20586:20587   */\n      0x08\n        /* \"#utility.yul\":20582:20595   */\n      mul\n        /* \"#utility.yul\":20553:20604   */\n      tag_249\n      jump\t// in\n    tag_469:\n        /* \"#utility.yul\":20549:20605   */\n      not\n        /* \"#utility.yul\":20634:20638   */\n      dup1\n        /* \"#utility.yul\":20628:20632   */\n      dup4\n        /* \"#utility.yul\":20624:20639   */\n      and\n        /* \"#utility.yul\":20614:20639   */\n      swap2\n      pop\n        /* \"#utility.yul\":20527:20645   */\n      pop\n        /* \"#utility.yul\":20476:20645   */\n      swap3\n      swap2\n      pop\n      pop\n      jump\t// out\n        /* \"#utility.yul\":20650:20945   */\n    tag_251:\n        /* \"#utility.yul\":20726:20730   */\n      0x00\n        /* \"#utility.yul\":20872:20901   */\n      tag_471\n        /* \"#utility.yul\":20897:20900   */\n      dup4\n        /* \"#utility.yul\":20891:20895   */\n      dup4\n        /* \"#utility.yul\":20872:20901   */\n      tag_250\n      jump\t// in\n    tag_471:\n        /* \"#utility.yul\":20864:20901   */\n      swap2\n      pop\n        /* \"#utility.yul\":20934:20937   */\n      dup3\n        /* \"#utility.yul\":20931:20932   */\n      0x02\n        /* \"#utility.yul\":20927:20938   */\n      mul\n        /* \"#utility.yul\":20921:20925   */\n      dup3\n        /* \"#utility.yul\":20918:20939   */\n      or\n        /* \"#utility.yul\":20910:20939   */\n      swap1\n      pop\n        /* \"#utility.yul\":20650:20945   */\n      swap3\n      swap2\n      pop\n      pop\n      jump\t// out\n        /* \"#utility.yul\":20950:22345   */\n    tag_86:\n        /* \"#utility.yul\":21067:21104   */\n      tag_473\n        /* \"#utility.yul\":21100:21103   */\n      dup3\n        /* \"#utility.yul\":21067:21104   */\n      tag_219\n      jump\t// in\n    tag_473:\n        /* \"#utility.yul\":21169:21187   */\n      0xffffffffffffffff\n        /* \"#utility.yul\":21161:21167   */\n      dup2\n        /* \"#utility.yul\":21158:21188   */\n      gt\n        /* \"#utility.yul\":21155:21211   */\n      iszero\n      tag_474\n      jumpi\n        /* \"#utility.yul\":21191:21209   */\n      tag_475\n      tag_93\n      jump\t// in\n    tag_475:\n        /* \"#utility.yul\":21155:21211   */\n    tag_474:\n        /* \"#utility.yul\":21235:21273   */\n      tag_476\n        /* \"#utility.yul\":21267:21271   */\n      dup3\n        /* \"#utility.yul\":21261:21272   */\n      sload\n        /* \"#utility.yul\":21235:21273   */\n      tag_114\n      jump\t// in\n    tag_476:\n        /* \"#utility.yul\":21320:21387   */\n      tag_477\n        /* \"#utility.yul\":21380:21386   */\n      dup3\n        /* \"#utility.yul\":21372:21378   */\n      dup3\n        /* \"#utility.yul\":21366:21370   */\n      dup6\n        /* \"#utility.yul\":21320:21387   */\n      tag_248\n      jump\t// in\n    tag_477:\n        /* \"#utility.yul\":21414:21415   */\n      0x00\n        /* \"#utility.yul\":21438:21442   */\n      0x20\n        /* \"#utility.yul\":21425:21442   */\n      swap1\n      pop\n        /* \"#utility.yul\":21470:21472   */\n      0x1f\n        /* \"#utility.yul\":21462:21468   */\n      dup4\n        /* \"#utility.yul\":21459:21473   */\n      gt\n        /* \"#utility.yul\":21487:21488   */\n      0x01\n        /* \"#utility.yul\":21482:22100   */\n      dup2\n      eq\n      tag_479\n      jumpi\n        /* \"#utility.yul\":22144:22145   */\n      0x00\n        /* \"#utility.yul\":22161:22167   */\n      dup5\n        /* \"#utility.yul\":22158:22235   */\n      iszero\n      tag_480\n      jumpi\n        /* \"#utility.yul\":22210:22219   */\n      dup3\n        /* \"#utility.yul\":22205:22208   */\n      dup8\n        /* \"#utility.yul\":22201:22220   */\n      add\n        /* \"#utility.yul\":22195:22221   */\n      mload\n        /* \"#utility.yul\":22186:22221   */\n      swap1\n      pop\n        /* \"#utility.yul\":22158:22235   */\n    tag_480:\n        /* \"#utility.yul\":22261:22328   */\n      tag_481\n        /* \"#utility.yul\":22321:22327   */\n      dup6\n        /* \"#utility.yul\":22314:22319   */\n      dup3\n        /* \"#utility.yul\":22261:22328   */\n      tag_251\n      jump\t// in\n    tag_481:\n        /* \"#utility.yul\":22255:22259   */\n      dup7\n        /* \"#utility.yul\":22248:22329   */\n      sstore\n        /* \"#utility.yul\":22117:22339   */\n      pop\n        /* \"#utility.yul\":21452:22339   */\n      jump(tag_478)\n        /* \"#utility.yul\":21482:22100   */\n    tag_479:\n        /* \"#utility.yul\":21534:21538   */\n      0x1f\n        /* \"#utility.yul\":21530:21539   */\n      not\n        /* \"#utility.yul\":21522:21528   */\n      dup5\n        /* \"#utility.yul\":21518:21540   */\n      and\n        /* \"#utility.yul\":21568:21605   */\n      tag_482\n        /* \"#utility.yul\":21600:21604   */\n      dup7\n        /* \"#utility.yul\":21568:21605   */\n      tag_237\n      jump\t// in\n    tag_482:\n        /* \"#utility.yul\":21627:21628   */\n      0x00\n        /* \"#utility.yul\":21641:21849   */\n    tag_483:\n        /* \"#utility.yul\":21655:21662   */\n      dup3\n        /* \"#utility.yul\":21652:21653   */\n      dup2\n        /* \"#utility.yul\":21649:21663   */\n      lt\n        /* \"#utility.yul\":21641:21849   */\n      iszero\n      tag_485\n      jumpi\n        /* \"#utility.yul\":21734:21743   */\n      dup5\n        /* \"#utility.yul\":21729:21732   */\n      dup10\n        /* \"#utility.yul\":21725:21744   */\n      add\n        /* \"#utility.yul\":21719:21745   */\n      mload\n        /* \"#utility.yul\":21711:21717   */\n      dup3\n        /* \"#utility.yul\":21704:21746   */\n      sstore\n        /* \"#utility.yul\":21785:21786   */\n      0x01\n        /* \"#utility.yul\":21777:21783   */\n      dup3\n        /* \"#utility.yul\":21773:21787   */\n      add\n        /* \"#utility.yul\":21763:21787   */\n      swap2\n      pop\n        /* \"#utility.yul\":21832:21834   */\n      0x20\n        /* \"#utility.yul\":21821:21830   */\n      dup6\n        /* \"#utility.yul\":21817:21835   */\n      add\n        /* \"#utility.yul\":21804:21835   */\n      swap5\n      pop\n        /* \"#utility.yul\":21678:21682   */\n      0x20\n        /* \"#utility.yul\":21675:21676   */\n      dup2\n        /* \"#utility.yul\":21671:21683   */\n      add\n        /* \"#utility.yul\":21666:21683   */\n      swap1\n      pop\n        /* \"#utility.yul\":21641:21849   */\n      jump(tag_483)\n    tag_485:\n        /* \"#utility.yul\":21877:21883   */\n      dup7\n        /* \"#utility.yul\":21868:21875   */\n      dup4\n        /* \"#utility.yul\":21865:21884   */\n      lt\n        /* \"#utility.yul\":21862:22041   */\n      iszero\n      tag_486\n      jumpi\n        /* \"#utility.yul\":21935:21944   */\n      dup5\n        /* \"#utility.yul\":21930:21933   */\n      dup10\n        /* \"#utility.yul\":21926:21945   */\n      add\n        /* \"#utility.yul\":21920:21946   */\n      mload\n        /* \"#utility.yul\":21978:22026   */\n      tag_487\n        /* \"#utility.yul\":22020:22024   */\n      0x1f\n        /* \"#utility.yul\":22012:22018   */\n      dup10\n        /* \"#utility.yul\":22008:22025   */\n      and\n        /* \"#utility.yul\":21997:22006   */\n      dup3\n        /* \"#utility.yul\":21978:22026   */\n      tag_250\n      jump\t// in\n    tag_487:\n        /* \"#utility.yul\":21970:21976   */\n      dup4\n        /* \"#utility.yul\":21963:22027   */\n      sstore\n        /* \"#utility.yul\":21885:22041   */\n      pop\n        /* \"#utility.yul\":21862:22041   */\n    tag_486:\n        /* \"#utility.yul\":22087:22088   */\n      0x01\n        /* \"#utility.yul\":22083:22084   */\n      0x02\n        /* \"#utility.yul\":22075:22081   */\n      dup9\n        /* \"#utility.yul\":22071:22085   */\n      mul\n        /* \"#utility.yul\":22067:22089   */\n      add\n        /* \"#utility.yul\":22061:22065   */\n      dup9\n        /* \"#utility.yul\":22054:22090   */\n      sstore\n        /* \"#utility.yul\":21489:22100   */\n      pop\n      pop\n      pop\n        /* \"#utility.yul\":21452:22339   */\n    tag_478:\n      pop\n        /* \"#utility.yul\":21042:22345   */\n      pop\n      pop\n      pop\n        /* \"#utility.yul\":20950:22345   */\n      pop\n      pop\n      jump\t// out\n        /* \"#utility.yul\":22351:22884   */\n    tag_89:\n        /* \"#utility.yul\":22520:22524   */\n      0x00\n        /* \"#utility.yul\":22558:22560   */\n      0x60\n        /* \"#utility.yul\":22547:22556   */\n      dup3\n        /* \"#utility.yul\":22543:22561   */\n      add\n        /* \"#utility.yul\":22535:22561   */\n      swap1\n      pop\n        /* \"#utility.yul\":22607:22616   */\n      dup2\n        /* \"#utility.yul\":22601:22605   */\n      dup2\n        /* \"#utility.yul\":22597:22617   */\n      sub\n        /* \"#utility.yul\":22593:22594   */\n      0x00\n        /* \"#utility.yul\":22582:22591   */\n      dup4\n        /* \"#utility.yul\":22578:22595   */\n      add\n        /* \"#utility.yul\":22571:22618   */\n      mstore\n        /* \"#utility.yul\":22635:22713   */\n      tag_489\n        /* \"#utility.yul\":22708:22712   */\n      dup2\n        /* \"#utility.yul\":22699:22705   */\n      dup7\n        /* \"#utility.yul\":22635:22713   */\n      tag_227\n      jump\t// in\n    tag_489:\n        /* \"#utility.yul\":22627:22713   */\n      swap1\n      pop\n        /* \"#utility.yul\":22723:22795   */\n      tag_490\n        /* \"#utility.yul\":22791:22793   */\n      0x20\n        /* \"#utility.yul\":22780:22789   */\n      dup4\n        /* \"#utility.yul\":22776:22794   */\n      add\n        /* \"#utility.yul\":22767:22773   */\n      dup6\n        /* \"#utility.yul\":22723:22795   */\n      tag_189\n      jump\t// in\n    tag_490:\n        /* \"#utility.yul\":22805:22877   */\n      tag_491\n        /* \"#utility.yul\":22873:22875   */\n      0x40\n        /* \"#utility.yul\":22862:22871   */\n      dup4\n        /* \"#utility.yul\":22858:22876   */\n      add\n        /* \"#utility.yul\":22849:22855   */\n      dup5\n        /* \"#utility.yul\":22805:22877   */\n      tag_197\n      jump\t// in\n    tag_491:\n        /* \"#utility.yul\":22351:22884   */\n      swap5\n      swap4\n      pop\n      pop\n      pop\n      pop\n      jump\t// out\n        /* \"#utility.yul\":22890:23070   */\n    tag_107:\n        /* \"#utility.yul\":22938:23015   */\n      0x4e487b7100000000000000000000000000000000000000000000000000000000\n        /* \"#utility.yul\":22935:22936   */\n      0x00\n        /* \"#utility.yul\":22928:23016   */\n      mstore\n        /* \"#utility.yul\":23035:23039   */\n      0x32\n        /* \"#utility.yul\":23032:23033   */\n      0x04\n        /* \"#utility.yul\":23025:23040   */\n      mstore\n        /* \"#utility.yul\":23059:23063   */\n      0x24\n        /* \"#utility.yul\":23056:23057   */\n      0x00\n        /* \"#utility.yul\":23049:23064   */\n      revert\n        /* \"#utility.yul\":23076:23257   */\n    tag_252:\n        /* \"#utility.yul\":23216:23249   */\n      0x45786368616e67652072657175657374206973206e6f742070656e64696e6700\n        /* \"#utility.yul\":23212:23213   */\n      0x00\n        /* \"#utility.yul\":23204:23210   */\n      dup3\n        /* \"#utility.yul\":23200:23214   */\n      add\n        /* \"#utility.yul\":23193:23250   */\n      mstore\n        /* \"#utility.yul\":23076:23257   */\n      pop\n      jump\t// out\n        /* \"#utility.yul\":23263:23629   */\n    tag_253:\n        /* \"#utility.yul\":23405:23408   */\n      0x00\n        /* \"#utility.yul\":23426:23493   */\n      tag_495\n        /* \"#utility.yul\":23490:23492   */\n      0x1f\n        /* \"#utility.yul\":23485:23488   */\n      dup4\n        /* \"#utility.yul\":23426:23493   */\n      tag_226\n      jump\t// in\n    tag_495:\n        /* \"#utility.yul\":23419:23493   */\n      swap2\n      pop\n        /* \"#utility.yul\":23502:23595   */\n      tag_496\n        /* \"#utility.yul\":23591:23594   */\n      dup3\n        /* \"#utility.yul\":23502:23595   */\n      tag_252\n      jump\t// in\n    tag_496:\n        /* \"#utility.yul\":23620:23622   */\n      0x20\n        /* \"#utility.yul\":23615:23618   */\n      dup3\n        /* \"#utility.yul\":23611:23623   */\n      add\n        /* \"#utility.yul\":23604:23623   */\n      swap1\n      pop\n        /* \"#utility.yul\":23263:23629   */\n      swap2\n      swap1\n      pop\n      jump\t// out\n        /* \"#utility.yul\":23635:24054   */\n    tag_126:\n        /* \"#utility.yul\":23801:23805   */\n      0x00\n        /* \"#utility.yul\":23839:23841   */\n      0x20\n        /* \"#utility.yul\":23828:23837   */\n      dup3\n        /* \"#utility.yul\":23824:23842   */\n      add\n        /* \"#utility.yul\":23816:23842   */\n      swap1\n      pop\n        /* \"#utility.yul\":23888:23897   */\n      dup2\n        /* \"#utility.yul\":23882:23886   */\n      dup2\n        /* \"#utility.yul\":23878:23898   */\n      sub\n        /* \"#utility.yul\":23874:23875   */\n      0x00\n        /* \"#utility.yul\":23863:23872   */\n      dup4\n        /* \"#utility.yul\":23859:23876   */\n      add\n        /* \"#utility.yul\":23852:23899   */\n      mstore\n        /* \"#utility.yul\":23916:24047   */\n      tag_498\n        /* \"#utility.yul\":24042:24046   */\n      dup2\n        /* \"#utility.yul\":23916:24047   */\n      tag_253\n      jump\t// in\n    tag_498:\n        /* \"#utility.yul\":23908:24047   */\n      swap1\n      pop\n        /* \"#utility.yul\":23635:24054   */\n      swap2\n      swap1\n      pop\n      jump\t// out\n        /* \"#utility.yul\":24060:24234   */\n    tag_254:\n        /* \"#utility.yul\":24200:24226   */\n      0x4f6e6c792072656365697665722063616e2072656a6563740000000000000000\n        /* \"#utility.yul\":24196:24197   */\n      0x00\n        /* \"#utility.yul\":24188:24194   */\n      dup3\n        /* \"#utility.yul\":24184:24198   */\n      add\n        /* \"#utility.yul\":24177:24227   */\n      mstore\n        /* \"#utility.yul\":24060:24234   */\n      pop\n      jump\t// out\n        /* \"#utility.yul\":24240:24606   */\n    tag_255:\n        /* \"#utility.yul\":24382:24385   */\n      0x00\n        /* \"#utility.yul\":24403:24470   */\n      tag_501\n        /* \"#utility.yul\":24467:24469   */\n      0x18\n        /* \"#utility.yul\":24462:24465   */\n      dup4\n        /* \"#utility.yul\":24403:24470   */\n      tag_226\n      jump\t// in\n    tag_501:\n        /* \"#utility.yul\":24396:24470   */\n      swap2\n      pop\n        /* \"#utility.yul\":24479:24572   */\n      tag_502\n        /* \"#utility.yul\":24568:24571   */\n      dup3\n        /* \"#utility.yul\":24479:24572   */\n      tag_254\n      jump\t// in\n    tag_502:\n        /* \"#utility.yul\":24597:24599   */\n      0x20\n        /* \"#utility.yul\":24592:24595   */\n      dup3\n        /* \"#utility.yul\":24588:24600   */\n      add\n        /* \"#utility.yul\":24581:24600   */\n      swap1\n      pop\n        /* \"#utility.yul\":24240:24606   */\n      swap2\n      swap1\n      pop\n      jump\t// out\n        /* \"#utility.yul\":24612:25031   */\n    tag_129:\n        /* \"#utility.yul\":24778:24782   */\n      0x00\n        /* \"#utility.yul\":24816:24818   */\n      0x20\n        /* \"#utility.yul\":24805:24814   */\n      dup3\n        /* \"#utility.yul\":24801:24819   */\n      add\n        /* \"#utility.yul\":24793:24819   */\n      swap1\n      pop\n        /* \"#utility.yul\":24865:24874   */\n      dup2\n        /* \"#utility.yul\":24859:24863   */\n      dup2\n        /* \"#utility.yul\":24855:24875   */\n      sub\n        /* \"#utility.yul\":24851:24852   */\n      0x00\n        /* \"#utility.yul\":24840:24849   */\n      dup4\n        /* \"#utility.yul\":24836:24853   */\n      add\n        /* \"#utility.yul\":24829:24876   */\n      mstore\n        /* \"#utility.yul\":24893:25024   */\n      tag_504\n        /* \"#utility.yul\":25019:25023   */\n      dup2\n        /* \"#utility.yul\":24893:25024   */\n      tag_255\n      jump\t// in\n    tag_504:\n        /* \"#utility.yul\":24885:25024   */\n      swap1\n      pop\n        /* \"#utility.yul\":24612:25031   */\n      swap2\n      swap1\n      pop\n      jump\t// out\n        /* \"#utility.yul\":25037:25212   */\n    tag_256:\n        /* \"#utility.yul\":25177:25204   */\n      0x4f6e6c792072656365697665722063616e20617070726f766500000000000000\n        /* \"#utility.yul\":25173:25174   */\n      0x00\n        /* \"#utility.yul\":25165:25171   */\n      dup3\n        /* \"#utility.yul\":25161:25175   */\n      add\n        /* \"#utility.yul\":25154:25205   */\n      mstore\n        /* \"#utility.yul\":25037:25212   */\n      pop\n      jump\t// out\n        /* \"#utility.yul\":25218:25584   */\n    tag_257:\n        /* \"#utility.yul\":25360:25363   */\n      0x00\n        /* \"#utility.yul\":25381:25448   */\n      tag_507\n        /* \"#utility.yul\":25445:25447   */\n      0x19\n        /* \"#utility.yul\":25440:25443   */\n      dup4\n        /* \"#utility.yul\":25381:25448   */\n      tag_226\n      jump\t// in\n    tag_507:\n        /* \"#utility.yul\":25374:25448   */\n      swap2\n      pop\n        /* \"#utility.yul\":25457:25550   */\n      tag_508\n        /* \"#utility.yul\":25546:25549   */\n      dup3\n        /* \"#utility.yul\":25457:25550   */\n      tag_256\n      jump\t// in\n    tag_508:\n        /* \"#utility.yul\":25575:25577   */\n      0x20\n        /* \"#utility.yul\":25570:25573   */\n      dup3\n        /* \"#utility.yul\":25566:25578   */\n      add\n        /* \"#utility.yul\":25559:25578   */\n      swap1\n      pop\n        /* \"#utility.yul\":25218:25584   */\n      swap2\n      swap1\n      pop\n      jump\t// out\n        /* \"#utility.yul\":25590:26009   */\n    tag_135:\n        /* \"#utility.yul\":25756:25760   */\n      0x00\n        /* \"#utility.yul\":25794:25796   */\n      0x20\n        /* \"#utility.yul\":25783:25792   */\n      dup3\n        /* \"#utility.yul\":25779:25797   */\n      add\n        /* \"#utility.yul\":25771:25797   */\n      swap1\n      pop\n        /* \"#utility.yul\":25843:25852   */\n      dup2\n        /* \"#utility.yul\":25837:25841   */\n      dup2\n        /* \"#utility.yul\":25833:25853   */\n      sub\n        /* \"#utility.yul\":25829:25830   */\n      0x00\n        /* \"#utility.yul\":25818:25827   */\n      dup4\n        /* \"#utility.yul\":25814:25831   */\n      add\n        /* \"#utility.yul\":25807:25854   */\n      mstore\n        /* \"#utility.yul\":25871:26002   */\n      tag_510\n        /* \"#utility.yul\":25997:26001   */\n      dup2\n        /* \"#utility.yul\":25871:26002   */\n      tag_257\n      jump\t// in\n    tag_510:\n        /* \"#utility.yul\":25863:26002   */\n      swap1\n      pop\n        /* \"#utility.yul\":25590:26009   */\n      swap2\n      swap1\n      pop\n      jump\t// out\n        /* \"#utility.yul\":26015:26237   */\n    tag_258:\n        /* \"#utility.yul\":26155:26189   */\n      0x596f75206d757374206f776e2074686520726571756573746564207365637572\n        /* \"#utility.yul\":26151:26152   */\n      0x00\n        /* \"#utility.yul\":26143:26149   */\n      dup3\n        /* \"#utility.yul\":26139:26153   */\n      add\n        /* \"#utility.yul\":26132:26190   */\n      mstore\n        /* \"#utility.yul\":26224:26229   */\n      0x6974790000000000000000000000000000000000000000000000000000000000\n        /* \"#utility.yul\":26219:26221   */\n      0x20\n        /* \"#utility.yul\":26211:26217   */\n      dup3\n        /* \"#utility.yul\":26207:26222   */\n      add\n        /* \"#utility.yul\":26200:26230   */\n      mstore\n        /* \"#utility.yul\":26015:26237   */\n      pop\n      jump\t// out\n        /* \"#utility.yul\":26243:26609   */\n    tag_259:\n        /* \"#utility.yul\":26385:26388   */\n      0x00\n        /* \"#utility.yul\":26406:26473   */\n      tag_513\n        /* \"#utility.yul\":26470:26472   */\n      0x23\n        /* \"#utility.yul\":26465:26468   */\n      dup4\n        /* \"#utility.yul\":26406:26473   */\n      tag_226\n      jump\t// in\n    tag_513:\n        /* \"#utility.yul\":26399:26473   */\n      swap2\n      pop\n        /* \"#utility.yul\":26482:26575   */\n      tag_514\n        /* \"#utility.yul\":26571:26574   */\n      dup3\n        /* \"#utility.yul\":26482:26575   */\n      tag_258\n      jump\t// in\n    tag_514:\n        /* \"#utility.yul\":26600:26602   */\n      0x40\n        /* \"#utility.yul\":26595:26598   */\n      dup3\n        /* \"#utility.yul\":26591:26603   */\n      add\n        /* \"#utility.yul\":26584:26603   */\n      swap1\n      pop\n        /* \"#utility.yul\":26243:26609   */\n      swap2\n      swap1\n      pop\n      jump\t// out\n        /* \"#utility.yul\":26615:27034   */\n    tag_138:\n        /* \"#utility.yul\":26781:26785   */\n      0x00\n        /* \"#utility.yul\":26819:26821   */\n      0x20\n        /* \"#utility.yul\":26808:26817   */\n      dup3\n        /* \"#utility.yul\":26804:26822   */\n      add\n        /* \"#utility.yul\":26796:26822   */\n      swap1\n      pop\n        /* \"#utility.yul\":26868:26877   */\n      dup2\n        /* \"#utility.yul\":26862:26866   */\n      dup2\n        /* \"#utility.yul\":26858:26878   */\n      sub\n        /* \"#utility.yul\":26854:26855   */\n      0x00\n        /* \"#utility.yul\":26843:26852   */\n      dup4\n        /* \"#utility.yul\":26839:26856   */\n      add\n        /* \"#utility.yul\":26832:26879   */\n      mstore\n        /* \"#utility.yul\":26896:27027   */\n      tag_516\n        /* \"#utility.yul\":27022:27026   */\n      dup2\n        /* \"#utility.yul\":26896:27027   */\n      tag_259\n      jump\t// in\n    tag_516:\n        /* \"#utility.yul\":26888:27027   */\n      swap1\n      pop\n        /* \"#utility.yul\":26615:27034   */\n      swap2\n      swap1\n      pop\n      jump\t// out\n        /* \"#utility.yul\":27040:27212   */\n    tag_260:\n        /* \"#utility.yul\":27180:27204   */\n      0x5365637572697479206973206e6f74206c697374656400000000000000000000\n        /* \"#utility.yul\":27176:27177   */\n      0x00\n        /* \"#utility.yul\":27168:27174   */\n      dup3\n        /* \"#utility.yul\":27164:27178   */\n      add\n        /* \"#utility.yul\":27157:27205   */\n      mstore\n        /* \"#utility.yul\":27040:27212   */\n      pop\n      jump\t// out\n        /* \"#utility.yul\":27218:27584   */\n    tag_261:\n        /* \"#utility.yul\":27360:27363   */\n      0x00\n        /* \"#utility.yul\":27381:27448   */\n      tag_519\n        /* \"#utility.yul\":27445:27447   */\n      0x16\n        /* \"#utility.yul\":27440:27443   */\n      dup4\n        /* \"#utility.yul\":27381:27448   */\n      tag_226\n      jump\t// in\n    tag_519:\n        /* \"#utility.yul\":27374:27448   */\n      swap2\n      pop\n        /* \"#utility.yul\":27457:27550   */\n      tag_520\n        /* \"#utility.yul\":27546:27549   */\n      dup3\n        /* \"#utility.yul\":27457:27550   */\n      tag_260\n      jump\t// in\n    tag_520:\n        /* \"#utility.yul\":27575:27577   */\n      0x20\n        /* \"#utility.yul\":27570:27573   */\n      dup3\n        /* \"#utility.yul\":27566:27578   */\n      add\n        /* \"#utility.yul\":27559:27578   */\n      swap1\n      pop\n        /* \"#utility.yul\":27218:27584   */\n      swap2\n      swap1\n      pop\n      jump\t// out\n        /* \"#utility.yul\":27590:28009   */\n    tag_153:\n        /* \"#utility.yul\":27756:27760   */\n      0x00\n        /* \"#utility.yul\":27794:27796   */\n      0x20\n        /* \"#utility.yul\":27783:27792   */\n      dup3\n        /* \"#utility.yul\":27779:27797   */\n      add\n        /* \"#utility.yul\":27771:27797   */\n      swap1\n      pop\n        /* \"#utility.yul\":27843:27852   */\n      dup2\n        /* \"#utility.yul\":27837:27841   */\n      dup2\n        /* \"#utility.yul\":27833:27853   */\n      sub\n        /* \"#utility.yul\":27829:27830   */\n      0x00\n        /* \"#utility.yul\":27818:27827   */\n      dup4\n        /* \"#utility.yul\":27814:27831   */\n      add\n        /* \"#utility.yul\":27807:27854   */\n      mstore\n        /* \"#utility.yul\":27871:28002   */\n      tag_522\n        /* \"#utility.yul\":27997:28001   */\n      dup2\n        /* \"#utility.yul\":27871:28002   */\n      tag_261\n      jump\t// in\n    tag_522:\n        /* \"#utility.yul\":27863:28002   */\n      swap1\n      pop\n        /* \"#utility.yul\":27590:28009   */\n      swap2\n      swap1\n      pop\n      jump\t// out\n        /* \"#utility.yul\":28015:28185   */\n    tag_262:\n        /* \"#utility.yul\":28155:28177   */\n      0x496e73756666696369656e74207061796d656e74000000000000000000000000\n        /* \"#utility.yul\":28151:28152   */\n      0x00\n        /* \"#utility.yul\":28143:28149   */\n      dup3\n        /* \"#utility.yul\":28139:28153   */\n      add\n        /* \"#utility.yul\":28132:28178   */\n      mstore\n        /* \"#utility.yul\":28015:28185   */\n      pop\n      jump\t// out\n        /* \"#utility.yul\":28191:28557   */\n    tag_263:\n        /* \"#utility.yul\":28333:28336   */\n      0x00\n        /* \"#utility.yul\":28354:28421   */\n      tag_525\n        /* \"#utility.yul\":28418:28420   */\n      0x14\n        /* \"#utility.yul\":28413:28416   */\n      dup4\n        /* \"#utility.yul\":28354:28421   */\n      tag_226\n      jump\t// in\n    tag_525:\n        /* \"#utility.yul\":28347:28421   */\n      swap2\n      pop\n        /* \"#utility.yul\":28430:28523   */\n      tag_526\n        /* \"#utility.yul\":28519:28522   */\n      dup3\n        /* \"#utility.yul\":28430:28523   */\n      tag_262\n      jump\t// in\n    tag_526:\n        /* \"#utility.yul\":28548:28550   */\n      0x20\n        /* \"#utility.yul\":28543:28546   */\n      dup3\n        /* \"#utility.yul\":28539:28551   */\n      add\n        /* \"#utility.yul\":28532:28551   */\n      swap1\n      pop\n        /* \"#utility.yul\":28191:28557   */\n      swap2\n      swap1\n      pop\n      jump\t// out\n        /* \"#utility.yul\":28563:28982   */\n    tag_156:\n        /* \"#utility.yul\":28729:28733   */\n      0x00\n        /* \"#utility.yul\":28767:28769   */\n      0x20\n        /* \"#utility.yul\":28756:28765   */\n      dup3\n        /* \"#utility.yul\":28752:28770   */\n      add\n        /* \"#utility.yul\":28744:28770   */\n      swap1\n      pop\n        /* \"#utility.yul\":28816:28825   */\n      dup2\n        /* \"#utility.yul\":28810:28814   */\n      dup2\n        /* \"#utility.yul\":28806:28826   */\n      sub\n        /* \"#utility.yul\":28802:28803   */\n      0x00\n        /* \"#utility.yul\":28791:28800   */\n      dup4\n        /* \"#utility.yul\":28787:28804   */\n      add\n        /* \"#utility.yul\":28780:28827   */\n      mstore\n        /* \"#utility.yul\":28844:28975   */\n      tag_528\n        /* \"#utility.yul\":28970:28974   */\n      dup2\n        /* \"#utility.yul\":28844:28975   */\n      tag_263\n      jump\t// in\n    tag_528:\n        /* \"#utility.yul\":28836:28975   */\n      swap1\n      pop\n        /* \"#utility.yul\":28563:28982   */\n      swap2\n      swap1\n      pop\n      jump\t// out\n        /* \"#utility.yul\":28988:29166   */\n    tag_264:\n        /* \"#utility.yul\":29128:29158   */\n      0x43616e6e6f742062757920796f7572206f776e20736563757269747900000000\n        /* \"#utility.yul\":29124:29125   */\n      0x00\n        /* \"#utility.yul\":29116:29122   */\n      dup3\n        /* \"#utility.yul\":29112:29126   */\n      add\n        /* \"#utility.yul\":29105:29159   */\n      mstore\n        /* \"#utility.yul\":28988:29166   */\n      pop\n      jump\t// out\n        /* \"#utility.yul\":29172:29538   */\n    tag_265:\n        /* \"#utility.yul\":29314:29317   */\n      0x00\n        /* \"#utility.yul\":29335:29402   */\n      tag_531\n        /* \"#utility.yul\":29399:29401   */\n      0x1c\n        /* \"#utility.yul\":29394:29397   */\n      dup4\n        /* \"#utility.yul\":29335:29402   */\n      tag_226\n      jump\t// in\n    tag_531:\n        /* \"#utility.yul\":29328:29402   */\n      swap2\n      pop\n        /* \"#utility.yul\":29411:29504   */\n      tag_532\n        /* \"#utility.yul\":29500:29503   */\n      dup3\n        /* \"#utility.yul\":29411:29504   */\n      tag_264\n      jump\t// in\n    tag_532:\n        /* \"#utility.yul\":29529:29531   */\n      0x20\n        /* \"#utility.yul\":29524:29527   */\n      dup3\n        /* \"#utility.yul\":29520:29532   */\n      add\n        /* \"#utility.yul\":29513:29532   */\n      swap1\n      pop\n        /* \"#utility.yul\":29172:29538   */\n      swap2\n      swap1\n      pop\n      jump\t// out\n        /* \"#utility.yul\":29544:29963   */\n    tag_159:\n        /* \"#utility.yul\":29710:29714   */\n      0x00\n        /* \"#utility.yul\":29748:29750   */\n      0x20\n        /* \"#utility.yul\":29737:29746   */\n      dup3\n        /* \"#utility.yul\":29733:29751   */\n      add\n        /* \"#utility.yul\":29725:29751   */\n      swap1\n      pop\n        /* \"#utility.yul\":29797:29806   */\n      dup2\n        /* \"#utility.yul\":29791:29795   */\n      dup2\n        /* \"#utility.yul\":29787:29807   */\n      sub\n        /* \"#utility.yul\":29783:29784   */\n      0x00\n        /* \"#utility.yul\":29772:29781   */\n      dup4\n        /* \"#utility.yul\":29768:29785   */\n      add\n        /* \"#utility.yul\":29761:29808   */\n      mstore\n        /* \"#utility.yul\":29825:29956   */\n      tag_534\n        /* \"#utility.yul\":29951:29955   */\n      dup2\n        /* \"#utility.yul\":29825:29956   */\n      tag_265\n      jump\t// in\n    tag_534:\n        /* \"#utility.yul\":29817:29956   */\n      swap1\n      pop\n        /* \"#utility.yul\":29544:29963   */\n      swap2\n      swap1\n      pop\n      jump\t// out\n        /* \"#utility.yul\":29969:30411   */\n    tag_166:\n        /* \"#utility.yul\":30118:30122   */\n      0x00\n        /* \"#utility.yul\":30156:30158   */\n      0x60\n        /* \"#utility.yul\":30145:30154   */\n      dup3\n        /* \"#utility.yul\":30141:30159   */\n      add\n        /* \"#utility.yul\":30133:30159   */\n      swap1\n      pop\n        /* \"#utility.yul\":30169:30240   */\n      tag_536\n        /* \"#utility.yul\":30237:30238   */\n      0x00\n        /* \"#utility.yul\":30226:30235   */\n      dup4\n        /* \"#utility.yul\":30222:30239   */\n      add\n        /* \"#utility.yul\":30213:30219   */\n      dup7\n        /* \"#utility.yul\":30169:30240   */\n      tag_197\n      jump\t// in\n    tag_536:\n        /* \"#utility.yul\":30250:30322   */\n      tag_537\n        /* \"#utility.yul\":30318:30320   */\n      0x20\n        /* \"#utility.yul\":30307:30316   */\n      dup4\n        /* \"#utility.yul\":30303:30321   */\n      add\n        /* \"#utility.yul\":30294:30300   */\n      dup6\n        /* \"#utility.yul\":30250:30322   */\n      tag_197\n      jump\t// in\n    tag_537:\n        /* \"#utility.yul\":30332:30404   */\n      tag_538\n        /* \"#utility.yul\":30400:30402   */\n      0x40\n        /* \"#utility.yul\":30389:30398   */\n      dup4\n        /* \"#utility.yul\":30385:30403   */\n      add\n        /* \"#utility.yul\":30376:30382   */\n      dup5\n        /* \"#utility.yul\":30332:30404   */\n      tag_189\n      jump\t// in\n    tag_538:\n        /* \"#utility.yul\":29969:30411   */\n      swap5\n      swap4\n      pop\n      pop\n      pop\n      pop\n      jump\t// out\n        /* \"#utility.yul\":30417:30611   */\n    tag_176:\n        /* \"#utility.yul\":30457:30461   */\n      0x00\n        /* \"#utility.yul\":30477:30497   */\n      tag_540\n        /* \"#utility.yul\":30495:30496   */\n      dup3\n        /* \"#utility.yul\":30477:30497   */\n      tag_187\n      jump\t// in\n    tag_540:\n        /* \"#utility.yul\":30472:30497   */\n      swap2\n      pop\n        /* \"#utility.yul\":30511:30531   */\n      tag_541\n        /* \"#utility.yul\":30529:30530   */\n      dup4\n        /* \"#utility.yul\":30511:30531   */\n      tag_187\n      jump\t// in\n    tag_541:\n        /* \"#utility.yul\":30506:30531   */\n      swap3\n      pop\n        /* \"#utility.yul\":30555:30556   */\n      dup3\n        /* \"#utility.yul\":30552:30553   */\n      dup3\n        /* \"#utility.yul\":30548:30557   */\n      sub\n        /* \"#utility.yul\":30540:30557   */\n      swap1\n      pop\n        /* \"#utility.yul\":30579:30580   */\n      dup2\n        /* \"#utility.yul\":30573:30577   */\n      dup2\n        /* \"#utility.yul\":30570:30581   */\n      gt\n        /* \"#utility.yul\":30567:30604   */\n      iszero\n      tag_542\n      jumpi\n        /* \"#utility.yul\":30584:30602   */\n      tag_543\n      tag_188\n      jump\t// in\n    tag_543:\n        /* \"#utility.yul\":30567:30604   */\n    tag_542:\n        /* \"#utility.yul\":30417:30611   */\n      swap3\n      swap2\n      pop\n      pop\n      jump\t// out\n        /* \"#utility.yul\":30617:30797   */\n    tag_185:\n        /* \"#utility.yul\":30665:30742   */\n      0x4e487b7100000000000000000000000000000000000000000000000000000000\n        /* \"#utility.yul\":30662:30663   */\n      0x00\n        /* \"#utility.yul\":30655:30743   */\n      mstore\n        /* \"#utility.yul\":30762:30766   */\n      0x31\n        /* \"#utility.yul\":30759:30760   */\n      0x04\n        /* \"#utility.yul\":30752:30767   */\n      mstore\n        /* \"#utility.yul\":30786:30790   */\n      0x24\n        /* \"#utility.yul\":30783:30784   */\n      0x00\n        /* \"#utility.yul\":30776:30791   */\n      revert\n\n    auxdata: 0xa2646970667358221220b3794f37be427c6a9fce31a8631cc0609b3db73df334f3e63424287572ce17e264736f6c634300081a0033\n}\n",
				"bytecode": {
					"linkReferences": {},
					"object": "6080604052600160045560016005553480156018575f80fd5b506125f9806100265f395ff3fe608060405260043610610089575f3560e01c80638a2355bb116100585780638a2355bb146102175780638ca305a0146102435780639e15438a1461026b578063c6f6298c14610293578063fcd68fb8146102d257610131565b806312065fe014610135578063204e73a01461015f5780633bf13b441461019b578063646f9004146101db57610131565b36610131573460035f3373ffffffffffffffffffffffffffffffffffffffff1673ffffffffffffffffffffffffffffffffffffffff1681526020019081526020015f205f8282546100da91906116c1565b925050819055503373ffffffffffffffffffffffffffffffffffffffff167fe96dd7a15a3974e8e7d5eb80de2cb6fd69907a1ee089170cd976cfffaedfa8ac346040516101279190611703565b60405180910390a2005b5f80fd5b348015610140575f80fd5b506101496102ee565b6040516101569190611703565b60405180910390f35b34801561016a575f80fd5b5061018560048036038101906101809190611757565b610332565b6040516101929190611703565b60405180910390f35b3480156101a6575f80fd5b506101c160048036038101906101bc9190611795565b6106b7565b6040516101d2959493929190611819565b60405180910390f35b3480156101e6575f80fd5b5061020160048036038101906101fc91906119a6565b610734565b60405161020e9190611703565b60405180910390f35b348015610222575f80fd5b5061022b610908565b60405161023a93929190611bd2565b60405180910390f35b34801561024e575f80fd5b5061026960048036038101906102649190611795565b610bec565b005b348015610276575f80fd5b50610291600480360381019061028c9190611795565b610d2f565b005b34801561029e575f80fd5b506102b960048036038101906102b49190611795565b6111cf565b6040516102c99493929190611c64565b60405180910390f35b6102ec60048036038101906102e79190611795565b6112ac565b005b5f60035f3373ffffffffffffffffffffffffffffffffffffffff1673ffffffffffffffffffffffffffffffffffffffff1681526020019081526020015f2054905090565b5f805f808581526020019081526020015f2090505f805f8581526020019081526020015f2090508160020160149054906101000a900460ff16801561038557508060020160149054906101000a900460ff165b6103c4576040517f08c379a00000000000000000000000000000000000000000000000000000000081526004016103bb90611cf8565b60405180910390fd5b3373ffffffffffffffffffffffffffffffffffffffff16826002015f9054906101000a900473ffffffffffffffffffffffffffffffffffffffff1673ffffffffffffffffffffffffffffffffffffffff1614610455576040517f08c379a000000000000000000000000000000000000000000000000000000000815260040161044c90611d86565b60405180910390fd5b3373ffffffffffffffffffffffffffffffffffffffff16816002015f9054906101000a900473ffffffffffffffffffffffffffffffffffffffff1673ffffffffffffffffffffffffffffffffffffffff16036104e6576040517f08c379a00000000000000000000000000000000000000000000000000000000081526004016104dd90611dee565b60405180910390fd5b5f60055f8154809291906104f990611e0c565b9190505590506040518060a001604052808781526020018681526020013373ffffffffffffffffffffffffffffffffffffffff168152602001836002015f9054906101000a900473ffffffffffffffffffffffffffffffffffffffff1673ffffffffffffffffffffffffffffffffffffffff1681526020016001151581525060015f8381526020019081526020015f205f820151815f0155602082015181600101556040820151816002015f6101000a81548173ffffffffffffffffffffffffffffffffffffffff021916908373ffffffffffffffffffffffffffffffffffffffff1602179055506060820151816003015f6101000a81548173ffffffffffffffffffffffffffffffffffffffff021916908373ffffffffffffffffffffffffffffffffffffffff16021790555060808201518160030160146101000a81548160ff021916908315150217905550905050807f6edfdc9b701a7247ac2f7823b864e96becb1b22964c1eb1c1f9af42f4ce10f5d878733866002015f9054906101000a900473ffffffffffffffffffffffffffffffffffffffff166040516106a39493929190611e53565b60405180910390a280935050505092915050565b6001602052805f5260405f205f91509050805f015490806001015490806002015f9054906101000a900473ffffffffffffffffffffffffffffffffffffffff1690806003015f9054906101000a900473ffffffffffffffffffffffffffffffffffffffff16908060030160149054906101000a900460ff16905085565b5f808211610777576040517f08c379a000000000000000000000000000000000000000000000000000000000815260040161076e90611ee0565b60405180910390fd5b5f60045f81548092919061078a90611e0c565b91905055905060405180608001604052808581526020018481526020013373ffffffffffffffffffffffffffffffffffffffff168152602001600115158152505f808381526020019081526020015f205f820151815f0190816107ed91906120f8565b50602082015181600101556040820151816002015f6101000a81548173ffffffffffffffffffffffffffffffffffffffff021916908373ffffffffffffffffffffffffffffffffffffffff16021790555060608201518160020160146101000a81548160ff02191690831515021790555090505060025f3373ffffffffffffffffffffffffffffffffffffffff1673ffffffffffffffffffffffffffffffffffffffff1681526020019081526020015f2081908060018154018082558091505060019003905f5260205f20015f9091909190915055807fceb0bf651dfcd2820b323207631d6ba7c71c145c326d630f7d9ca846aeaf25b08585336040516108f6939291906121c7565b60405180910390a28091505092915050565b60608060605f60025f3373ffffffffffffffffffffffffffffffffffffffff1673ffffffffffffffffffffffffffffffffffffffff1681526020019081526020015f2090505f818054905090508067ffffffffffffffff81111561096f5761096e611882565b5b6040519080825280602002602001820160405280156109a257816020015b606081526020019060019003908161098d5790505b5093508067ffffffffffffffff8111156109bf576109be611882565b5b6040519080825280602002602001820160405280156109ed5781602001602082028036833780820191505090505b5092508067ffffffffffffffff811115610a0a57610a09611882565b5b604051908082528060200260200182016040528015610a385781602001602082028036833780820191505090505b5094505f5b81811015610be4575f838281548110610a5957610a58612203565b5b905f5260205f20015490505f805f8381526020019081526020015f2090503373ffffffffffffffffffffffffffffffffffffffff16816002015f9054906101000a900473ffffffffffffffffffffffffffffffffffffffff1673ffffffffffffffffffffffffffffffffffffffff16148015610ae357508060020160149054906101000a900460ff165b15610bd55781888481518110610afc57610afb612203565b5b602002602001018181525050805f018054610b1690611f2b565b80601f0160208091040260200160405190810160405280929190818152602001828054610b4290611f2b565b8015610b8d5780601f10610b6457610100808354040283529160200191610b8d565b820191905f5260205f20905b815481529060010190602001808311610b7057829003601f168201915b5050505050878481518110610ba557610ba4612203565b5b60200260200101819052508060010154868481518110610bc857610bc7612203565b5b6020026020010181815250505b50508080600101915050610a3d565b505050909192565b5f60015f8381526020019081526020015f2090508060030160149054906101000a900460ff16610c51576040517f08c379a0000000000000000000000000000000000000000000000000000000008152600401610c489061227a565b60405180910390fd5b806003015f9054906101000a900473ffffffffffffffffffffffffffffffffffffffff1673ffffffffffffffffffffffffffffffffffffffff163373ffffffffffffffffffffffffffffffffffffffff1614610ce2576040517f08c379a0000000000000000000000000000000000000000000000000000000008152600401610cd9906122e2565b60405180910390fd5b5f8160030160146101000a81548160ff021916908315150217905550817fa1c9c2960de4cf480352c598967a5bc05fdf3ebff2da8172b62187afa5dc034360405160405180910390a25050565b5f60015f8381526020019081526020015f2090505f805f835f015481526020019081526020015f2090505f805f846001015481526020019081526020015f2090508260030160149054906101000a900460ff16610dc1576040517f08c379a0000000000000000000000000000000000000000000000000000000008152600401610db89061227a565b60405180910390fd5b826003015f9054906101000a900473ffffffffffffffffffffffffffffffffffffffff1673ffffffffffffffffffffffffffffffffffffffff163373ffffffffffffffffffffffffffffffffffffffff1614610e52576040517f08c379a0000000000000000000000000000000000000000000000000000000008152600401610e499061234a565b60405180910390fd5b3373ffffffffffffffffffffffffffffffffffffffff16816002015f9054906101000a900473ffffffffffffffffffffffffffffffffffffffff1673ffffffffffffffffffffffffffffffffffffffff1614610ee3576040517f08c379a0000000000000000000000000000000000000000000000000000000008152600401610eda906123d8565b60405180910390fd5b610f13836002015f9054906101000a900473ffffffffffffffffffffffffffffffffffffffff16845f0154611594565b610f44836003015f9054906101000a900473ffffffffffffffffffffffffffffffffffffffff168460010154611594565b5f826002015f9054906101000a900473ffffffffffffffffffffffffffffffffffffffff169050816002015f9054906101000a900473ffffffffffffffffffffffffffffffffffffffff16836002015f6101000a81548173ffffffffffffffffffffffffffffffffffffffff021916908373ffffffffffffffffffffffffffffffffffffffff16021790555080826002015f6101000a81548173ffffffffffffffffffffffffffffffffffffffff021916908373ffffffffffffffffffffffffffffffffffffffff16021790555060025f846002015f9054906101000a900473ffffffffffffffffffffffffffffffffffffffff1673ffffffffffffffffffffffffffffffffffffffff1673ffffffffffffffffffffffffffffffffffffffff1681526020019081526020015f20845f0154908060018154018082558091505060019003905f5260205f20015f909190919091505560025f836002015f9054906101000a900473ffffffffffffffffffffffffffffffffffffffff1673ffffffffffffffffffffffffffffffffffffffff1673ffffffffffffffffffffffffffffffffffffffff1681526020019081526020015f208460010154908060018154018082558091505060019003905f5260205f20015f90919091909150555f8460030160146101000a81548160ff021916908315150217905550847f4cce1d3129dd8e1d74219f4329d186f2910a4806ab09294065620e13e099ba7f855f01548660010154866002015f9054906101000a900473ffffffffffffffffffffffffffffffffffffffff16866002015f9054906101000a900473ffffffffffffffffffffffffffffffffffffffff166040516111c09493929190611e53565b60405180910390a25050505050565b5f602052805f5260405f205f91509050805f0180546111ed90611f2b565b80601f016020809104026020016040519081016040528092919081815260200182805461121990611f2b565b80156112645780601f1061123b57610100808354040283529160200191611264565b820191905f5260205f20905b81548152906001019060200180831161124757829003601f168201915b505050505090806001015490806002015f9054906101000a900473ffffffffffffffffffffffffffffffffffffffff16908060020160149054906101000a900460ff16905084565b5f805f8381526020019081526020015f2090508060020160149054906101000a900460ff16611310576040517f08c379a000000000000000000000000000000000000000000000000000000000815260040161130790612440565b60405180910390fd5b8060010154341015611357576040517f08c379a000000000000000000000000000000000000000000000000000000000815260040161134e906124a8565b60405180910390fd5b3373ffffffffffffffffffffffffffffffffffffffff16816002015f9054906101000a900473ffffffffffffffffffffffffffffffffffffffff1673ffffffffffffffffffffffffffffffffffffffff16036113e8576040517f08c379a00000000000000000000000000000000000000000000000000000000081526004016113df90612510565b60405180910390fd5b5f816002015f9054906101000a900473ffffffffffffffffffffffffffffffffffffffff1690506114198184611594565b60025f3373ffffffffffffffffffffffffffffffffffffffff1673ffffffffffffffffffffffffffffffffffffffff1681526020019081526020015f2083908060018154018082558091505060019003905f5260205f20015f909190919091505533826002015f6101000a81548173ffffffffffffffffffffffffffffffffffffffff021916908373ffffffffffffffffffffffffffffffffffffffff1602179055503460035f8373ffffffffffffffffffffffffffffffffffffffff1673ffffffffffffffffffffffffffffffffffffffff1681526020019081526020015f205f82825461150891906116c1565b925050819055508073ffffffffffffffffffffffffffffffffffffffff166108fc3490811502906040515f60405180830381858888f19350505050158015611552573d5f803e3d5ffd5b50827f0fc401afd9f3c929a6eda9e334bf948aa13a3a1de1a30bbe5985780a7bd5040f8233346040516115879392919061252e565b60405180910390a2505050565b5f60025f8473ffffffffffffffffffffffffffffffffffffffff1673ffffffffffffffffffffffffffffffffffffffff1681526020019081526020015f2090505f5b818054905081101561168557828282815481106115f6576115f5612203565b5b905f5260205f200154036116785781600183805490506116169190612563565b8154811061162757611626612203565b5b905f5260205f20015482828154811061164357611642612203565b5b905f5260205f200181905550818054806116605761165f612596565b5b600190038181905f5260205f20015f90559055611685565b80806001019150506115d6565b50505050565b5f819050919050565b7f4e487b71000000000000000000000000000000000000000000000000000000005f52601160045260245ffd5b5f6116cb8261168b565b91506116d68361168b565b92508282019050808211156116ee576116ed611694565b5b92915050565b6116fd8161168b565b82525050565b5f6020820190506117165f8301846116f4565b92915050565b5f604051905090565b5f80fd5b5f80fd5b6117368161168b565b8114611740575f80fd5b50565b5f813590506117518161172d565b92915050565b5f806040838503121561176d5761176c611725565b5b5f61177a85828601611743565b925050602061178b85828601611743565b9150509250929050565b5f602082840312156117aa576117a9611725565b5b5f6117b784828501611743565b91505092915050565b5f73ffffffffffffffffffffffffffffffffffffffff82169050919050565b5f6117e9826117c0565b9050919050565b6117f9816117df565b82525050565b5f8115159050919050565b611813816117ff565b82525050565b5f60a08201905061182c5f8301886116f4565b61183960208301876116f4565b61184660408301866117f0565b61185360608301856117f0565b611860608083018461180a565b9695505050505050565b5f80fd5b5f80fd5b5f601f19601f8301169050919050565b7f4e487b71000000000000000000000000000000000000000000000000000000005f52604160045260245ffd5b6118b882611872565b810181811067ffffffffffffffff821117156118d7576118d6611882565b5b80604052505050565b5f6118e961171c565b90506118f582826118af565b919050565b5f67ffffffffffffffff82111561191457611913611882565b5b61191d82611872565b9050602081019050919050565b828183375f83830152505050565b5f61194a611945846118fa565b6118e0565b9050828152602081018484840111156119665761196561186e565b5b61197184828561192a565b509392505050565b5f82601f83011261198d5761198c61186a565b5b813561199d848260208601611938565b91505092915050565b5f80604083850312156119bc576119bb611725565b5b5f83013567ffffffffffffffff8111156119d9576119d8611729565b5b6119e585828601611979565b92505060206119f685828601611743565b9150509250929050565b5f81519050919050565b5f82825260208201905092915050565b5f819050602082019050919050565b611a328161168b565b82525050565b5f611a438383611a29565b60208301905092915050565b5f602082019050919050565b5f611a6582611a00565b611a6f8185611a0a565b9350611a7a83611a1a565b805f5b83811015611aaa578151611a918882611a38565b9750611a9c83611a4f565b925050600181019050611a7d565b5085935050505092915050565b5f81519050919050565b5f82825260208201905092915050565b5f819050602082019050919050565b5f81519050919050565b5f82825260208201905092915050565b8281835e5f83830152505050565b5f611b1282611ae0565b611b1c8185611aea565b9350611b2c818560208601611afa565b611b3581611872565b840191505092915050565b5f611b4b8383611b08565b905092915050565b5f602082019050919050565b5f611b6982611ab7565b611b738185611ac1565b935083602082028501611b8585611ad1565b805f5b85811015611bc05784840389528151611ba18582611b40565b9450611bac83611b53565b925060208a01995050600181019050611b88565b50829750879550505050505092915050565b5f6060820190508181035f830152611bea8186611a5b565b90508181036020830152611bfe8185611b5f565b90508181036040830152611c128184611a5b565b9050949350505050565b5f82825260208201905092915050565b5f611c3682611ae0565b611c408185611c1c565b9350611c50818560208601611afa565b611c5981611872565b840191505092915050565b5f6080820190508181035f830152611c7c8187611c2c565b9050611c8b60208301866116f4565b611c9860408301856117f0565b611ca5606083018461180a565b95945050505050565b7f426f74682073656375726974696573206d757374206265206c697374656400005f82015250565b5f611ce2601e83611c1c565b9150611ced82611cae565b602082019050919050565b5f6020820190508181035f830152611d0f81611cd6565b9050919050565b7f596f75206d757374206f776e20746865206f66666572656420736563757269745f8201527f7900000000000000000000000000000000000000000000000000000000000000602082015250565b5f611d70602183611c1c565b9150611d7b82611d16565b604082019050919050565b5f6020820190508181035f830152611d9d81611d64565b9050919050565b7f43616e6e6f742065786368616e6765207769746820796f757273656c660000005f82015250565b5f611dd8601d83611c1c565b9150611de382611da4565b602082019050919050565b5f6020820190508181035f830152611e0581611dcc565b9050919050565b5f611e168261168b565b91507fffffffffffffffffffffffffffffffffffffffffffffffffffffffffffffffff8203611e4857611e47611694565b5b600182019050919050565b5f608082019050611e665f8301876116f4565b611e7360208301866116f4565b611e8060408301856117f0565b611e8d60608301846117f0565b95945050505050565b7f5072696365206d7573742062652067726561746572207468616e2030000000005f82015250565b5f611eca601c83611c1c565b9150611ed582611e96565b602082019050919050565b5f6020820190508181035f830152611ef781611ebe565b9050919050565b7f4e487b71000000000000000000000000000000000000000000000000000000005f52602260045260245ffd5b5f6002820490506001821680611f4257607f821691505b602082108103611f5557611f54611efe565b5b50919050565b5f819050815f5260205f209050919050565b5f6020601f8301049050919050565b5f82821b905092915050565b5f60088302611fb77fffffffffffffffffffffffffffffffffffffffffffffffffffffffffffffffff82611f7c565b611fc18683611f7c565b95508019841693508086168417925050509392505050565b5f819050919050565b5f611ffc611ff7611ff28461168b565b611fd9565b61168b565b9050919050565b5f819050919050565b61201583611fe2565b61202961202182612003565b848454611f88565b825550505050565b5f90565b61203d612031565b61204881848461200c565b505050565b5b8181101561206b576120605f82612035565b60018101905061204e565b5050565b601f8211156120b05761208181611f5b565b61208a84611f6d565b81016020851015612099578190505b6120ad6120a585611f6d565b83018261204d565b50505b505050565b5f82821c905092915050565b5f6120d05f19846008026120b5565b1980831691505092915050565b5f6120e883836120c1565b9150826002028217905092915050565b61210182611ae0565b67ffffffffffffffff81111561211a57612119611882565b5b6121248254611f2b565b61212f82828561206f565b5f60209050601f831160018114612160575f841561214e578287015190505b61215885826120dd565b8655506121bf565b601f19841661216e86611f5b565b5f5b8281101561219557848901518255600182019150602085019450602081019050612170565b868310156121b257848901516121ae601f8916826120c1565b8355505b6001600288020188555050505b505050505050565b5f6060820190508181035f8301526121df8186611c2c565b90506121ee60208301856116f4565b6121fb60408301846117f0565b949350505050565b7f4e487b71000000000000000000000000000000000000000000000000000000005f52603260045260245ffd5b7f45786368616e67652072657175657374206973206e6f742070656e64696e67005f82015250565b5f612264601f83611c1c565b915061226f82612230565b602082019050919050565b5f6020820190508181035f83015261229181612258565b9050919050565b7f4f6e6c792072656365697665722063616e2072656a65637400000000000000005f82015250565b5f6122cc601883611c1c565b91506122d782612298565b602082019050919050565b5f6020820190508181035f8301526122f9816122c0565b9050919050565b7f4f6e6c792072656365697665722063616e20617070726f7665000000000000005f82015250565b5f612334601983611c1c565b915061233f82612300565b602082019050919050565b5f6020820190508181035f83015261236181612328565b9050919050565b7f596f75206d757374206f776e20746865207265717565737465642073656375725f8201527f6974790000000000000000000000000000000000000000000000000000000000602082015250565b5f6123c2602383611c1c565b91506123cd82612368565b604082019050919050565b5f6020820190508181035f8301526123ef816123b6565b9050919050565b7f5365637572697479206973206e6f74206c6973746564000000000000000000005f82015250565b5f61242a601683611c1c565b9150612435826123f6565b602082019050919050565b5f6020820190508181035f8301526124578161241e565b9050919050565b7f496e73756666696369656e74207061796d656e740000000000000000000000005f82015250565b5f612492601483611c1c565b915061249d8261245e565b602082019050919050565b5f6020820190508181035f8301526124bf81612486565b9050919050565b7f43616e6e6f742062757920796f7572206f776e207365637572697479000000005f82015250565b5f6124fa601c83611c1c565b9150612505826124c6565b602082019050919050565b5f6020820190508181035f830152612527816124ee565b9050919050565b5f6060820190506125415f8301866117f0565b61254e60208301856117f0565b61255b60408301846116f4565b949350505050565b5f61256d8261168b565b91506125788361168b565b92508282039050818111156125905761258f611694565b5b92915050565b7f4e487b71000000000000000000000000000000000000000000000000000000005f52603160045260245ffdfea2646970667358221220b3794f37be427c6a9fce31a8631cc0609b3db73df334f3e63424287572ce17e264736f6c634300081a0033",
					"opcodes": "PUSH1 0x80 PUSH1 0x40 MSTORE PUSH1 0x1 PUSH1 0x4 SSTORE PUSH1 0x1 PUSH1 0x5 SSTORE CALLVALUE DUP1 ISZERO PUSH1 0x18 JUMPI PUSH0 DUP1 REVERT JUMPDEST POP PUSH2 0x25F9 DUP1 PUSH2 0x26 PUSH0 CODECOPY PUSH0 RETURN INVALID PUSH1 0x80 PUSH1 0x40 MSTORE PUSH1 0x4 CALLDATASIZE LT PUSH2 0x89 JUMPI PUSH0 CALLDATALOAD PUSH1 0xE0 SHR DUP1 PUSH4 0x8A2355BB GT PUSH2 0x58 JUMPI DUP1 PUSH4 0x8A2355BB EQ PUSH2 0x217 JUMPI DUP1 PUSH4 0x8CA305A0 EQ PUSH2 0x243 JUMPI DUP1 PUSH4 0x9E15438A EQ PUSH2 0x26B JUMPI DUP1 PUSH4 0xC6F6298C EQ PUSH2 0x293 JUMPI DUP1 PUSH4 0xFCD68FB8 EQ PUSH2 0x2D2 JUMPI PUSH2 0x131 JUMP JUMPDEST DUP1 PUSH4 0x12065FE0 EQ PUSH2 0x135 JUMPI DUP1 PUSH4 0x204E73A0 EQ PUSH2 0x15F JUMPI DUP1 PUSH4 0x3BF13B44 EQ PUSH2 0x19B JUMPI DUP1 PUSH4 0x646F9004 EQ PUSH2 0x1DB JUMPI PUSH2 0x131 JUMP JUMPDEST CALLDATASIZE PUSH2 0x131 JUMPI CALLVALUE PUSH1 0x3 PUSH0 CALLER PUSH20 0xFFFFFFFFFFFFFFFFFFFFFFFFFFFFFFFFFFFFFFFF AND PUSH20 0xFFFFFFFFFFFFFFFFFFFFFFFFFFFFFFFFFFFFFFFF AND DUP2 MSTORE PUSH1 0x20 ADD SWAP1 DUP2 MSTORE PUSH1 0x20 ADD PUSH0 KECCAK256 PUSH0 DUP3 DUP3 SLOAD PUSH2 0xDA SWAP2 SWAP1 PUSH2 0x16C1 JUMP JUMPDEST SWAP3 POP POP DUP2 SWAP1 SSTORE POP CALLER PUSH20 0xFFFFFFFFFFFFFFFFFFFFFFFFFFFFFFFFFFFFFFFF AND PUSH32 0xE96DD7A15A3974E8E7D5EB80DE2CB6FD69907A1EE089170CD976CFFFAEDFA8AC CALLVALUE PUSH1 0x40 MLOAD PUSH2 0x127 SWAP2 SWAP1 PUSH2 0x1703 JUMP JUMPDEST PUSH1 0x40 MLOAD DUP1 SWAP2 SUB SWAP1 LOG2 STOP JUMPDEST PUSH0 DUP1 REVERT JUMPDEST CALLVALUE DUP1 ISZERO PUSH2 0x140 JUMPI PUSH0 DUP1 REVERT JUMPDEST POP PUSH2 0x149 PUSH2 0x2EE JUMP JUMPDEST PUSH1 0x40 MLOAD PUSH2 0x156 SWAP2 SWAP1 PUSH2 0x1703 JUMP JUMPDEST PUSH1 0x40 MLOAD DUP1 SWAP2 SUB SWAP1 RETURN JUMPDEST CALLVALUE DUP1 ISZERO PUSH2 0x16A JUMPI PUSH0 DUP1 REVERT JUMPDEST POP PUSH2 0x185 PUSH1 0x4 DUP1 CALLDATASIZE SUB DUP2 ADD SWAP1 PUSH2 0x180 SWAP2 SWAP1 PUSH2 0x1757 JUMP JUMPDEST PUSH2 0x332 JUMP JUMPDEST PUSH1 0x40 MLOAD PUSH2 0x192 SWAP2 SWAP1 PUSH2 0x1703 JUMP JUMPDEST PUSH1 0x40 MLOAD DUP1 SWAP2 SUB SWAP1 RETURN JUMPDEST CALLVALUE DUP1 ISZERO PUSH2 0x1A6 JUMPI PUSH0 DUP1 REVERT JUMPDEST POP PUSH2 0x1C1 PUSH1 0x4 DUP1 CALLDATASIZE SUB DUP2 ADD SWAP1 PUSH2 0x1BC SWAP2 SWAP1 PUSH2 0x1795 JUMP JUMPDEST PUSH2 0x6B7 JUMP JUMPDEST PUSH1 0x40 MLOAD PUSH2 0x1D2 SWAP6 SWAP5 SWAP4 SWAP3 SWAP2 SWAP1 PUSH2 0x1819 JUMP JUMPDEST PUSH1 0x40 MLOAD DUP1 SWAP2 SUB SWAP1 RETURN JUMPDEST CALLVALUE DUP1 ISZERO PUSH2 0x1E6 JUMPI PUSH0 DUP1 REVERT JUMPDEST POP PUSH2 0x201 PUSH1 0x4 DUP1 CALLDATASIZE SUB DUP2 ADD SWAP1 PUSH2 0x1FC SWAP2 SWAP1 PUSH2 0x19A6 JUMP JUMPDEST PUSH2 0x734 JUMP JUMPDEST PUSH1 0x40 MLOAD PUSH2 0x20E SWAP2 SWAP1 PUSH2 0x1703 JUMP JUMPDEST PUSH1 0x40 MLOAD DUP1 SWAP2 SUB SWAP1 RETURN JUMPDEST CALLVALUE DUP1 ISZERO PUSH2 0x222 JUMPI PUSH0 DUP1 REVERT JUMPDEST POP PUSH2 0x22B PUSH2 0x908 JUMP JUMPDEST PUSH1 0x40 MLOAD PUSH2 0x23A SWAP4 SWAP3 SWAP2 SWAP1 PUSH2 0x1BD2 JUMP JUMPDEST PUSH1 0x40 MLOAD DUP1 SWAP2 SUB SWAP1 RETURN JUMPDEST CALLVALUE DUP1 ISZERO PUSH2 0x24E JUMPI PUSH0 DUP1 REVERT JUMPDEST POP PUSH2 0x269 PUSH1 0x4 DUP1 CALLDATASIZE SUB DUP2 ADD SWAP1 PUSH2 0x264 SWAP2 SWAP1 PUSH2 0x1795 JUMP JUMPDEST PUSH2 0xBEC JUMP JUMPDEST STOP JUMPDEST CALLVALUE DUP1 ISZERO PUSH2 0x276 JUMPI PUSH0 DUP1 REVERT JUMPDEST POP PUSH2 0x291 PUSH1 0x4 DUP1 CALLDATASIZE SUB DUP2 ADD SWAP1 PUSH2 0x28C SWAP2 SWAP1 PUSH2 0x1795 JUMP JUMPDEST PUSH2 0xD2F JUMP JUMPDEST STOP JUMPDEST CALLVALUE DUP1 ISZERO PUSH2 0x29E JUMPI PUSH0 DUP1 REVERT JUMPDEST POP PUSH2 0x2B9 PUSH1 0x4 DUP1 CALLDATASIZE SUB DUP2 ADD SWAP1 PUSH2 0x2B4 SWAP2 SWAP1 PUSH2 0x1795 JUMP JUMPDEST PUSH2 0x11CF JUMP JUMPDEST PUSH1 0x40 MLOAD PUSH2 0x2C9 SWAP5 SWAP4 SWAP3 SWAP2 SWAP1 PUSH2 0x1C64 JUMP JUMPDEST PUSH1 0x40 MLOAD DUP1 SWAP2 SUB SWAP1 RETURN JUMPDEST PUSH2 0x2EC PUSH1 0x4 DUP1 CALLDATASIZE SUB DUP2 ADD SWAP1 PUSH2 0x2E7 SWAP2 SWAP1 PUSH2 0x1795 JUMP JUMPDEST PUSH2 0x12AC JUMP JUMPDEST STOP JUMPDEST PUSH0 PUSH1 0x3 PUSH0 CALLER PUSH20 0xFFFFFFFFFFFFFFFFFFFFFFFFFFFFFFFFFFFFFFFF AND PUSH20 0xFFFFFFFFFFFFFFFFFFFFFFFFFFFFFFFFFFFFFFFF AND DUP2 MSTORE PUSH1 0x20 ADD SWAP1 DUP2 MSTORE PUSH1 0x20 ADD PUSH0 KECCAK256 SLOAD SWAP1 POP SWAP1 JUMP JUMPDEST PUSH0 DUP1 PUSH0 DUP1 DUP6 DUP2 MSTORE PUSH1 0x20 ADD SWAP1 DUP2 MSTORE PUSH1 0x20 ADD PUSH0 KECCAK256 SWAP1 POP PUSH0 DUP1 PUSH0 DUP6 DUP2 MSTORE PUSH1 0x20 ADD SWAP1 DUP2 MSTORE PUSH1 0x20 ADD PUSH0 KECCAK256 SWAP1 POP DUP2 PUSH1 0x2 ADD PUSH1 0x14 SWAP1 SLOAD SWAP1 PUSH2 0x100 EXP SWAP1 DIV PUSH1 0xFF AND DUP1 ISZERO PUSH2 0x385 JUMPI POP DUP1 PUSH1 0x2 ADD PUSH1 0x14 SWAP1 SLOAD SWAP1 PUSH2 0x100 EXP SWAP1 DIV PUSH1 0xFF AND JUMPDEST PUSH2 0x3C4 JUMPI PUSH1 0x40 MLOAD PUSH32 0x8C379A000000000000000000000000000000000000000000000000000000000 DUP2 MSTORE PUSH1 0x4 ADD PUSH2 0x3BB SWAP1 PUSH2 0x1CF8 JUMP JUMPDEST PUSH1 0x40 MLOAD DUP1 SWAP2 SUB SWAP1 REVERT JUMPDEST CALLER PUSH20 0xFFFFFFFFFFFFFFFFFFFFFFFFFFFFFFFFFFFFFFFF AND DUP3 PUSH1 0x2 ADD PUSH0 SWAP1 SLOAD SWAP1 PUSH2 0x100 EXP SWAP1 DIV PUSH20 0xFFFFFFFFFFFFFFFFFFFFFFFFFFFFFFFFFFFFFFFF AND PUSH20 0xFFFFFFFFFFFFFFFFFFFFFFFFFFFFFFFFFFFFFFFF AND EQ PUSH2 0x455 JUMPI PUSH1 0x40 MLOAD PUSH32 0x8C379A000000000000000000000000000000000000000000000000000000000 DUP2 MSTORE PUSH1 0x4 ADD PUSH2 0x44C SWAP1 PUSH2 0x1D86 JUMP JUMPDEST PUSH1 0x40 MLOAD DUP1 SWAP2 SUB SWAP1 REVERT JUMPDEST CALLER PUSH20 0xFFFFFFFFFFFFFFFFFFFFFFFFFFFFFFFFFFFFFFFF AND DUP2 PUSH1 0x2 ADD PUSH0 SWAP1 SLOAD SWAP1 PUSH2 0x100 EXP SWAP1 DIV PUSH20 0xFFFFFFFFFFFFFFFFFFFFFFFFFFFFFFFFFFFFFFFF AND PUSH20 0xFFFFFFFFFFFFFFFFFFFFFFFFFFFFFFFFFFFFFFFF AND SUB PUSH2 0x4E6 JUMPI PUSH1 0x40 MLOAD PUSH32 0x8C379A000000000000000000000000000000000000000000000000000000000 DUP2 MSTORE PUSH1 0x4 ADD PUSH2 0x4DD SWAP1 PUSH2 0x1DEE JUMP JUMPDEST PUSH1 0x40 MLOAD DUP1 SWAP2 SUB SWAP1 REVERT JUMPDEST PUSH0 PUSH1 0x5 PUSH0 DUP2 SLOAD DUP1 SWAP3 SWAP2 SWAP1 PUSH2 0x4F9 SWAP1 PUSH2 0x1E0C JUMP JUMPDEST SWAP2 SWAP1 POP SSTORE SWAP1 POP PUSH1 0x40 MLOAD DUP1 PUSH1 0xA0 ADD PUSH1 0x40 MSTORE DUP1 DUP8 DUP2 MSTORE PUSH1 0x20 ADD DUP7 DUP2 MSTORE PUSH1 0x20 ADD CALLER PUSH20 0xFFFFFFFFFFFFFFFFFFFFFFFFFFFFFFFFFFFFFFFF AND DUP2 MSTORE PUSH1 0x20 ADD DUP4 PUSH1 0x2 ADD PUSH0 SWAP1 SLOAD SWAP1 PUSH2 0x100 EXP SWAP1 DIV PUSH20 0xFFFFFFFFFFFFFFFFFFFFFFFFFFFFFFFFFFFFFFFF AND PUSH20 0xFFFFFFFFFFFFFFFFFFFFFFFFFFFFFFFFFFFFFFFF AND DUP2 MSTORE PUSH1 0x20 ADD PUSH1 0x1 ISZERO ISZERO DUP2 MSTORE POP PUSH1 0x1 PUSH0 DUP4 DUP2 MSTORE PUSH1 0x20 ADD SWAP1 DUP2 MSTORE PUSH1 0x20 ADD PUSH0 KECCAK256 PUSH0 DUP3 ADD MLOAD DUP2 PUSH0 ADD SSTORE PUSH1 0x20 DUP3 ADD MLOAD DUP2 PUSH1 0x1 ADD SSTORE PUSH1 0x40 DUP3 ADD MLOAD DUP2 PUSH1 0x2 ADD PUSH0 PUSH2 0x100 EXP DUP2 SLOAD DUP2 PUSH20 0xFFFFFFFFFFFFFFFFFFFFFFFFFFFFFFFFFFFFFFFF MUL NOT AND SWAP1 DUP4 PUSH20 0xFFFFFFFFFFFFFFFFFFFFFFFFFFFFFFFFFFFFFFFF AND MUL OR SWAP1 SSTORE POP PUSH1 0x60 DUP3 ADD MLOAD DUP2 PUSH1 0x3 ADD PUSH0 PUSH2 0x100 EXP DUP2 SLOAD DUP2 PUSH20 0xFFFFFFFFFFFFFFFFFFFFFFFFFFFFFFFFFFFFFFFF MUL NOT AND SWAP1 DUP4 PUSH20 0xFFFFFFFFFFFFFFFFFFFFFFFFFFFFFFFFFFFFFFFF AND MUL OR SWAP1 SSTORE POP PUSH1 0x80 DUP3 ADD MLOAD DUP2 PUSH1 0x3 ADD PUSH1 0x14 PUSH2 0x100 EXP DUP2 SLOAD DUP2 PUSH1 0xFF MUL NOT AND SWAP1 DUP4 ISZERO ISZERO MUL OR SWAP1 SSTORE POP SWAP1 POP POP DUP1 PUSH32 0x6EDFDC9B701A7247AC2F7823B864E96BECB1B22964C1EB1C1F9AF42F4CE10F5D DUP8 DUP8 CALLER DUP7 PUSH1 0x2 ADD PUSH0 SWAP1 SLOAD SWAP1 PUSH2 0x100 EXP SWAP1 DIV PUSH20 0xFFFFFFFFFFFFFFFFFFFFFFFFFFFFFFFFFFFFFFFF AND PUSH1 0x40 MLOAD PUSH2 0x6A3 SWAP5 SWAP4 SWAP3 SWAP2 SWAP1 PUSH2 0x1E53 JUMP JUMPDEST PUSH1 0x40 MLOAD DUP1 SWAP2 SUB SWAP1 LOG2 DUP1 SWAP4 POP POP POP POP SWAP3 SWAP2 POP POP JUMP JUMPDEST PUSH1 0x1 PUSH1 0x20 MSTORE DUP1 PUSH0 MSTORE PUSH1 0x40 PUSH0 KECCAK256 PUSH0 SWAP2 POP SWAP1 POP DUP1 PUSH0 ADD SLOAD SWAP1 DUP1 PUSH1 0x1 ADD SLOAD SWAP1 DUP1 PUSH1 0x2 ADD PUSH0 SWAP1 SLOAD SWAP1 PUSH2 0x100 EXP SWAP1 DIV PUSH20 0xFFFFFFFFFFFFFFFFFFFFFFFFFFFFFFFFFFFFFFFF AND SWAP1 DUP1 PUSH1 0x3 ADD PUSH0 SWAP1 SLOAD SWAP1 PUSH2 0x100 EXP SWAP1 DIV PUSH20 0xFFFFFFFFFFFFFFFFFFFFFFFFFFFFFFFFFFFFFFFF AND SWAP1 DUP1 PUSH1 0x3 ADD PUSH1 0x14 SWAP1 SLOAD SWAP1 PUSH2 0x100 EXP SWAP1 DIV PUSH1 0xFF AND SWAP1 POP DUP6 JUMP JUMPDEST PUSH0 DUP1 DUP3 GT PUSH2 0x777 JUMPI PUSH1 0x40 MLOAD PUSH32 0x8C379A000000000000000000000000000000000000000000000000000000000 DUP2 MSTORE PUSH1 0x4 ADD PUSH2 0x76E SWAP1 PUSH2 0x1EE0 JUMP JUMPDEST PUSH1 0x40 MLOAD DUP1 SWAP2 SUB SWAP1 REVERT JUMPDEST PUSH0 PUSH1 0x4 PUSH0 DUP2 SLOAD DUP1 SWAP3 SWAP2 SWAP1 PUSH2 0x78A SWAP1 PUSH2 0x1E0C JUMP JUMPDEST SWAP2 SWAP1 POP SSTORE SWAP1 POP PUSH1 0x40 MLOAD DUP1 PUSH1 0x80 ADD PUSH1 0x40 MSTORE DUP1 DUP6 DUP2 MSTORE PUSH1 0x20 ADD DUP5 DUP2 MSTORE PUSH1 0x20 ADD CALLER PUSH20 0xFFFFFFFFFFFFFFFFFFFFFFFFFFFFFFFFFFFFFFFF AND DUP2 MSTORE PUSH1 0x20 ADD PUSH1 0x1 ISZERO ISZERO DUP2 MSTORE POP PUSH0 DUP1 DUP4 DUP2 MSTORE PUSH1 0x20 ADD SWAP1 DUP2 MSTORE PUSH1 0x20 ADD PUSH0 KECCAK256 PUSH0 DUP3 ADD MLOAD DUP2 PUSH0 ADD SWAP1 DUP2 PUSH2 0x7ED SWAP2 SWAP1 PUSH2 0x20F8 JUMP JUMPDEST POP PUSH1 0x20 DUP3 ADD MLOAD DUP2 PUSH1 0x1 ADD SSTORE PUSH1 0x40 DUP3 ADD MLOAD DUP2 PUSH1 0x2 ADD PUSH0 PUSH2 0x100 EXP DUP2 SLOAD DUP2 PUSH20 0xFFFFFFFFFFFFFFFFFFFFFFFFFFFFFFFFFFFFFFFF MUL NOT AND SWAP1 DUP4 PUSH20 0xFFFFFFFFFFFFFFFFFFFFFFFFFFFFFFFFFFFFFFFF AND MUL OR SWAP1 SSTORE POP PUSH1 0x60 DUP3 ADD MLOAD DUP2 PUSH1 0x2 ADD PUSH1 0x14 PUSH2 0x100 EXP DUP2 SLOAD DUP2 PUSH1 0xFF MUL NOT AND SWAP1 DUP4 ISZERO ISZERO MUL OR SWAP1 SSTORE POP SWAP1 POP POP PUSH1 0x2 PUSH0 CALLER PUSH20 0xFFFFFFFFFFFFFFFFFFFFFFFFFFFFFFFFFFFFFFFF AND PUSH20 0xFFFFFFFFFFFFFFFFFFFFFFFFFFFFFFFFFFFFFFFF AND DUP2 MSTORE PUSH1 0x20 ADD SWAP1 DUP2 MSTORE PUSH1 0x20 ADD PUSH0 KECCAK256 DUP2 SWAP1 DUP1 PUSH1 0x1 DUP2 SLOAD ADD DUP1 DUP3 SSTORE DUP1 SWAP2 POP POP PUSH1 0x1 SWAP1 SUB SWAP1 PUSH0 MSTORE PUSH1 0x20 PUSH0 KECCAK256 ADD PUSH0 SWAP1 SWAP2 SWAP1 SWAP2 SWAP1 SWAP2 POP SSTORE DUP1 PUSH32 0xCEB0BF651DFCD2820B323207631D6BA7C71C145C326D630F7D9CA846AEAF25B0 DUP6 DUP6 CALLER PUSH1 0x40 MLOAD PUSH2 0x8F6 SWAP4 SWAP3 SWAP2 SWAP1 PUSH2 0x21C7 JUMP JUMPDEST PUSH1 0x40 MLOAD DUP1 SWAP2 SUB SWAP1 LOG2 DUP1 SWAP2 POP POP SWAP3 SWAP2 POP POP JUMP JUMPDEST PUSH1 0x60 DUP1 PUSH1 0x60 PUSH0 PUSH1 0x2 PUSH0 CALLER PUSH20 0xFFFFFFFFFFFFFFFFFFFFFFFFFFFFFFFFFFFFFFFF AND PUSH20 0xFFFFFFFFFFFFFFFFFFFFFFFFFFFFFFFFFFFFFFFF AND DUP2 MSTORE PUSH1 0x20 ADD SWAP1 DUP2 MSTORE PUSH1 0x20 ADD PUSH0 KECCAK256 SWAP1 POP PUSH0 DUP2 DUP1 SLOAD SWAP1 POP SWAP1 POP DUP1 PUSH8 0xFFFFFFFFFFFFFFFF DUP2 GT ISZERO PUSH2 0x96F JUMPI PUSH2 0x96E PUSH2 0x1882 JUMP JUMPDEST JUMPDEST PUSH1 0x40 MLOAD SWAP1 DUP1 DUP3 MSTORE DUP1 PUSH1 0x20 MUL PUSH1 0x20 ADD DUP3 ADD PUSH1 0x40 MSTORE DUP1 ISZERO PUSH2 0x9A2 JUMPI DUP2 PUSH1 0x20 ADD JUMPDEST PUSH1 0x60 DUP2 MSTORE PUSH1 0x20 ADD SWAP1 PUSH1 0x1 SWAP1 SUB SWAP1 DUP2 PUSH2 0x98D JUMPI SWAP1 POP JUMPDEST POP SWAP4 POP DUP1 PUSH8 0xFFFFFFFFFFFFFFFF DUP2 GT ISZERO PUSH2 0x9BF JUMPI PUSH2 0x9BE PUSH2 0x1882 JUMP JUMPDEST JUMPDEST PUSH1 0x40 MLOAD SWAP1 DUP1 DUP3 MSTORE DUP1 PUSH1 0x20 MUL PUSH1 0x20 ADD DUP3 ADD PUSH1 0x40 MSTORE DUP1 ISZERO PUSH2 0x9ED JUMPI DUP2 PUSH1 0x20 ADD PUSH1 0x20 DUP3 MUL DUP1 CALLDATASIZE DUP4 CALLDATACOPY DUP1 DUP3 ADD SWAP2 POP POP SWAP1 POP JUMPDEST POP SWAP3 POP DUP1 PUSH8 0xFFFFFFFFFFFFFFFF DUP2 GT ISZERO PUSH2 0xA0A JUMPI PUSH2 0xA09 PUSH2 0x1882 JUMP JUMPDEST JUMPDEST PUSH1 0x40 MLOAD SWAP1 DUP1 DUP3 MSTORE DUP1 PUSH1 0x20 MUL PUSH1 0x20 ADD DUP3 ADD PUSH1 0x40 MSTORE DUP1 ISZERO PUSH2 0xA38 JUMPI DUP2 PUSH1 0x20 ADD PUSH1 0x20 DUP3 MUL DUP1 CALLDATASIZE DUP4 CALLDATACOPY DUP1 DUP3 ADD SWAP2 POP POP SWAP1 POP JUMPDEST POP SWAP5 POP PUSH0 JUMPDEST DUP2 DUP2 LT ISZERO PUSH2 0xBE4 JUMPI PUSH0 DUP4 DUP3 DUP2 SLOAD DUP2 LT PUSH2 0xA59 JUMPI PUSH2 0xA58 PUSH2 0x2203 JUMP JUMPDEST JUMPDEST SWAP1 PUSH0 MSTORE PUSH1 0x20 PUSH0 KECCAK256 ADD SLOAD SWAP1 POP PUSH0 DUP1 PUSH0 DUP4 DUP2 MSTORE PUSH1 0x20 ADD SWAP1 DUP2 MSTORE PUSH1 0x20 ADD PUSH0 KECCAK256 SWAP1 POP CALLER PUSH20 0xFFFFFFFFFFFFFFFFFFFFFFFFFFFFFFFFFFFFFFFF AND DUP2 PUSH1 0x2 ADD PUSH0 SWAP1 SLOAD SWAP1 PUSH2 0x100 EXP SWAP1 DIV PUSH20 0xFFFFFFFFFFFFFFFFFFFFFFFFFFFFFFFFFFFFFFFF AND PUSH20 0xFFFFFFFFFFFFFFFFFFFFFFFFFFFFFFFFFFFFFFFF AND EQ DUP1 ISZERO PUSH2 0xAE3 JUMPI POP DUP1 PUSH1 0x2 ADD PUSH1 0x14 SWAP1 SLOAD SWAP1 PUSH2 0x100 EXP SWAP1 DIV PUSH1 0xFF AND JUMPDEST ISZERO PUSH2 0xBD5 JUMPI DUP2 DUP9 DUP5 DUP2 MLOAD DUP2 LT PUSH2 0xAFC JUMPI PUSH2 0xAFB PUSH2 0x2203 JUMP JUMPDEST JUMPDEST PUSH1 0x20 MUL PUSH1 0x20 ADD ADD DUP2 DUP2 MSTORE POP POP DUP1 PUSH0 ADD DUP1 SLOAD PUSH2 0xB16 SWAP1 PUSH2 0x1F2B JUMP JUMPDEST DUP1 PUSH1 0x1F ADD PUSH1 0x20 DUP1 SWAP2 DIV MUL PUSH1 0x20 ADD PUSH1 0x40 MLOAD SWAP1 DUP2 ADD PUSH1 0x40 MSTORE DUP1 SWAP3 SWAP2 SWAP1 DUP2 DUP2 MSTORE PUSH1 0x20 ADD DUP3 DUP1 SLOAD PUSH2 0xB42 SWAP1 PUSH2 0x1F2B JUMP JUMPDEST DUP1 ISZERO PUSH2 0xB8D JUMPI DUP1 PUSH1 0x1F LT PUSH2 0xB64 JUMPI PUSH2 0x100 DUP1 DUP4 SLOAD DIV MUL DUP4 MSTORE SWAP2 PUSH1 0x20 ADD SWAP2 PUSH2 0xB8D JUMP JUMPDEST DUP3 ADD SWAP2 SWAP1 PUSH0 MSTORE PUSH1 0x20 PUSH0 KECCAK256 SWAP1 JUMPDEST DUP2 SLOAD DUP2 MSTORE SWAP1 PUSH1 0x1 ADD SWAP1 PUSH1 0x20 ADD DUP1 DUP4 GT PUSH2 0xB70 JUMPI DUP3 SWAP1 SUB PUSH1 0x1F AND DUP3 ADD SWAP2 JUMPDEST POP POP POP POP POP DUP8 DUP5 DUP2 MLOAD DUP2 LT PUSH2 0xBA5 JUMPI PUSH2 0xBA4 PUSH2 0x2203 JUMP JUMPDEST JUMPDEST PUSH1 0x20 MUL PUSH1 0x20 ADD ADD DUP2 SWAP1 MSTORE POP DUP1 PUSH1 0x1 ADD SLOAD DUP7 DUP5 DUP2 MLOAD DUP2 LT PUSH2 0xBC8 JUMPI PUSH2 0xBC7 PUSH2 0x2203 JUMP JUMPDEST JUMPDEST PUSH1 0x20 MUL PUSH1 0x20 ADD ADD DUP2 DUP2 MSTORE POP POP JUMPDEST POP POP DUP1 DUP1 PUSH1 0x1 ADD SWAP2 POP POP PUSH2 0xA3D JUMP JUMPDEST POP POP POP SWAP1 SWAP2 SWAP3 JUMP JUMPDEST PUSH0 PUSH1 0x1 PUSH0 DUP4 DUP2 MSTORE PUSH1 0x20 ADD SWAP1 DUP2 MSTORE PUSH1 0x20 ADD PUSH0 KECCAK256 SWAP1 POP DUP1 PUSH1 0x3 ADD PUSH1 0x14 SWAP1 SLOAD SWAP1 PUSH2 0x100 EXP SWAP1 DIV PUSH1 0xFF AND PUSH2 0xC51 JUMPI PUSH1 0x40 MLOAD PUSH32 0x8C379A000000000000000000000000000000000000000000000000000000000 DUP2 MSTORE PUSH1 0x4 ADD PUSH2 0xC48 SWAP1 PUSH2 0x227A JUMP JUMPDEST PUSH1 0x40 MLOAD DUP1 SWAP2 SUB SWAP1 REVERT JUMPDEST DUP1 PUSH1 0x3 ADD PUSH0 SWAP1 SLOAD SWAP1 PUSH2 0x100 EXP SWAP1 DIV PUSH20 0xFFFFFFFFFFFFFFFFFFFFFFFFFFFFFFFFFFFFFFFF AND PUSH20 0xFFFFFFFFFFFFFFFFFFFFFFFFFFFFFFFFFFFFFFFF AND CALLER PUSH20 0xFFFFFFFFFFFFFFFFFFFFFFFFFFFFFFFFFFFFFFFF AND EQ PUSH2 0xCE2 JUMPI PUSH1 0x40 MLOAD PUSH32 0x8C379A000000000000000000000000000000000000000000000000000000000 DUP2 MSTORE PUSH1 0x4 ADD PUSH2 0xCD9 SWAP1 PUSH2 0x22E2 JUMP JUMPDEST PUSH1 0x40 MLOAD DUP1 SWAP2 SUB SWAP1 REVERT JUMPDEST PUSH0 DUP2 PUSH1 0x3 ADD PUSH1 0x14 PUSH2 0x100 EXP DUP2 SLOAD DUP2 PUSH1 0xFF MUL NOT AND SWAP1 DUP4 ISZERO ISZERO MUL OR SWAP1 SSTORE POP DUP2 PUSH32 0xA1C9C2960DE4CF480352C598967A5BC05FDF3EBFF2DA8172B62187AFA5DC0343 PUSH1 0x40 MLOAD PUSH1 0x40 MLOAD DUP1 SWAP2 SUB SWAP1 LOG2 POP POP JUMP JUMPDEST PUSH0 PUSH1 0x1 PUSH0 DUP4 DUP2 MSTORE PUSH1 0x20 ADD SWAP1 DUP2 MSTORE PUSH1 0x20 ADD PUSH0 KECCAK256 SWAP1 POP PUSH0 DUP1 PUSH0 DUP4 PUSH0 ADD SLOAD DUP2 MSTORE PUSH1 0x20 ADD SWAP1 DUP2 MSTORE PUSH1 0x20 ADD PUSH0 KECCAK256 SWAP1 POP PUSH0 DUP1 PUSH0 DUP5 PUSH1 0x1 ADD SLOAD DUP2 MSTORE PUSH1 0x20 ADD SWAP1 DUP2 MSTORE PUSH1 0x20 ADD PUSH0 KECCAK256 SWAP1 POP DUP3 PUSH1 0x3 ADD PUSH1 0x14 SWAP1 SLOAD SWAP1 PUSH2 0x100 EXP SWAP1 DIV PUSH1 0xFF AND PUSH2 0xDC1 JUMPI PUSH1 0x40 MLOAD PUSH32 0x8C379A000000000000000000000000000000000000000000000000000000000 DUP2 MSTORE PUSH1 0x4 ADD PUSH2 0xDB8 SWAP1 PUSH2 0x227A JUMP JUMPDEST PUSH1 0x40 MLOAD DUP1 SWAP2 SUB SWAP1 REVERT JUMPDEST DUP3 PUSH1 0x3 ADD PUSH0 SWAP1 SLOAD SWAP1 PUSH2 0x100 EXP SWAP1 DIV PUSH20 0xFFFFFFFFFFFFFFFFFFFFFFFFFFFFFFFFFFFFFFFF AND PUSH20 0xFFFFFFFFFFFFFFFFFFFFFFFFFFFFFFFFFFFFFFFF AND CALLER PUSH20 0xFFFFFFFFFFFFFFFFFFFFFFFFFFFFFFFFFFFFFFFF AND EQ PUSH2 0xE52 JUMPI PUSH1 0x40 MLOAD PUSH32 0x8C379A000000000000000000000000000000000000000000000000000000000 DUP2 MSTORE PUSH1 0x4 ADD PUSH2 0xE49 SWAP1 PUSH2 0x234A JUMP JUMPDEST PUSH1 0x40 MLOAD DUP1 SWAP2 SUB SWAP1 REVERT JUMPDEST CALLER PUSH20 0xFFFFFFFFFFFFFFFFFFFFFFFFFFFFFFFFFFFFFFFF AND DUP2 PUSH1 0x2 ADD PUSH0 SWAP1 SLOAD SWAP1 PUSH2 0x100 EXP SWAP1 DIV PUSH20 0xFFFFFFFFFFFFFFFFFFFFFFFFFFFFFFFFFFFFFFFF AND PUSH20 0xFFFFFFFFFFFFFFFFFFFFFFFFFFFFFFFFFFFFFFFF AND EQ PUSH2 0xEE3 JUMPI PUSH1 0x40 MLOAD PUSH32 0x8C379A000000000000000000000000000000000000000000000000000000000 DUP2 MSTORE PUSH1 0x4 ADD PUSH2 0xEDA SWAP1 PUSH2 0x23D8 JUMP JUMPDEST PUSH1 0x40 MLOAD DUP1 SWAP2 SUB SWAP1 REVERT JUMPDEST PUSH2 0xF13 DUP4 PUSH1 0x2 ADD PUSH0 SWAP1 SLOAD SWAP1 PUSH2 0x100 EXP SWAP1 DIV PUSH20 0xFFFFFFFFFFFFFFFFFFFFFFFFFFFFFFFFFFFFFFFF AND DUP5 PUSH0 ADD SLOAD PUSH2 0x1594 JUMP JUMPDEST PUSH2 0xF44 DUP4 PUSH1 0x3 ADD PUSH0 SWAP1 SLOAD SWAP1 PUSH2 0x100 EXP SWAP1 DIV PUSH20 0xFFFFFFFFFFFFFFFFFFFFFFFFFFFFFFFFFFFFFFFF AND DUP5 PUSH1 0x1 ADD SLOAD PUSH2 0x1594 JUMP JUMPDEST PUSH0 DUP3 PUSH1 0x2 ADD PUSH0 SWAP1 SLOAD SWAP1 PUSH2 0x100 EXP SWAP1 DIV PUSH20 0xFFFFFFFFFFFFFFFFFFFFFFFFFFFFFFFFFFFFFFFF AND SWAP1 POP DUP2 PUSH1 0x2 ADD PUSH0 SWAP1 SLOAD SWAP1 PUSH2 0x100 EXP SWAP1 DIV PUSH20 0xFFFFFFFFFFFFFFFFFFFFFFFFFFFFFFFFFFFFFFFF AND DUP4 PUSH1 0x2 ADD PUSH0 PUSH2 0x100 EXP DUP2 SLOAD DUP2 PUSH20 0xFFFFFFFFFFFFFFFFFFFFFFFFFFFFFFFFFFFFFFFF MUL NOT AND SWAP1 DUP4 PUSH20 0xFFFFFFFFFFFFFFFFFFFFFFFFFFFFFFFFFFFFFFFF AND MUL OR SWAP1 SSTORE POP DUP1 DUP3 PUSH1 0x2 ADD PUSH0 PUSH2 0x100 EXP DUP2 SLOAD DUP2 PUSH20 0xFFFFFFFFFFFFFFFFFFFFFFFFFFFFFFFFFFFFFFFF MUL NOT AND SWAP1 DUP4 PUSH20 0xFFFFFFFFFFFFFFFFFFFFFFFFFFFFFFFFFFFFFFFF AND MUL OR SWAP1 SSTORE POP PUSH1 0x2 PUSH0 DUP5 PUSH1 0x2 ADD PUSH0 SWAP1 SLOAD SWAP1 PUSH2 0x100 EXP SWAP1 DIV PUSH20 0xFFFFFFFFFFFFFFFFFFFFFFFFFFFFFFFFFFFFFFFF AND PUSH20 0xFFFFFFFFFFFFFFFFFFFFFFFFFFFFFFFFFFFFFFFF AND PUSH20 0xFFFFFFFFFFFFFFFFFFFFFFFFFFFFFFFFFFFFFFFF AND DUP2 MSTORE PUSH1 0x20 ADD SWAP1 DUP2 MSTORE PUSH1 0x20 ADD PUSH0 KECCAK256 DUP5 PUSH0 ADD SLOAD SWAP1 DUP1 PUSH1 0x1 DUP2 SLOAD ADD DUP1 DUP3 SSTORE DUP1 SWAP2 POP POP PUSH1 0x1 SWAP1 SUB SWAP1 PUSH0 MSTORE PUSH1 0x20 PUSH0 KECCAK256 ADD PUSH0 SWAP1 SWAP2 SWAP1 SWAP2 SWAP1 SWAP2 POP SSTORE PUSH1 0x2 PUSH0 DUP4 PUSH1 0x2 ADD PUSH0 SWAP1 SLOAD SWAP1 PUSH2 0x100 EXP SWAP1 DIV PUSH20 0xFFFFFFFFFFFFFFFFFFFFFFFFFFFFFFFFFFFFFFFF AND PUSH20 0xFFFFFFFFFFFFFFFFFFFFFFFFFFFFFFFFFFFFFFFF AND PUSH20 0xFFFFFFFFFFFFFFFFFFFFFFFFFFFFFFFFFFFFFFFF AND DUP2 MSTORE PUSH1 0x20 ADD SWAP1 DUP2 MSTORE PUSH1 0x20 ADD PUSH0 KECCAK256 DUP5 PUSH1 0x1 ADD SLOAD SWAP1 DUP1 PUSH1 0x1 DUP2 SLOAD ADD DUP1 DUP3 SSTORE DUP1 SWAP2 POP POP PUSH1 0x1 SWAP1 SUB SWAP1 PUSH0 MSTORE PUSH1 0x20 PUSH0 KECCAK256 ADD PUSH0 SWAP1 SWAP2 SWAP1 SWAP2 SWAP1 SWAP2 POP SSTORE PUSH0 DUP5 PUSH1 0x3 ADD PUSH1 0x14 PUSH2 0x100 EXP DUP2 SLOAD DUP2 PUSH1 0xFF MUL NOT AND SWAP1 DUP4 ISZERO ISZERO MUL OR SWAP1 SSTORE POP DUP5 PUSH32 0x4CCE1D3129DD8E1D74219F4329D186F2910A4806AB09294065620E13E099BA7F DUP6 PUSH0 ADD SLOAD DUP7 PUSH1 0x1 ADD SLOAD DUP7 PUSH1 0x2 ADD PUSH0 SWAP1 SLOAD SWAP1 PUSH2 0x100 EXP SWAP1 DIV PUSH20 0xFFFFFFFFFFFFFFFFFFFFFFFFFFFFFFFFFFFFFFFF AND DUP7 PUSH1 0x2 ADD PUSH0 SWAP1 SLOAD SWAP1 PUSH2 0x100 EXP SWAP1 DIV PUSH20 0xFFFFFFFFFFFFFFFFFFFFFFFFFFFFFFFFFFFFFFFF AND PUSH1 0x40 MLOAD PUSH2 0x11C0 SWAP5 SWAP4 SWAP3 SWAP2 SWAP1 PUSH2 0x1E53 JUMP JUMPDEST PUSH1 0x40 MLOAD DUP1 SWAP2 SUB SWAP1 LOG2 POP POP POP POP POP JUMP JUMPDEST PUSH0 PUSH1 0x20 MSTORE DUP1 PUSH0 MSTORE PUSH1 0x40 PUSH0 KECCAK256 PUSH0 SWAP2 POP SWAP1 POP DUP1 PUSH0 ADD DUP1 SLOAD PUSH2 0x11ED SWAP1 PUSH2 0x1F2B JUMP JUMPDEST DUP1 PUSH1 0x1F ADD PUSH1 0x20 DUP1 SWAP2 DIV MUL PUSH1 0x20 ADD PUSH1 0x40 MLOAD SWAP1 DUP2 ADD PUSH1 0x40 MSTORE DUP1 SWAP3 SWAP2 SWAP1 DUP2 DUP2 MSTORE PUSH1 0x20 ADD DUP3 DUP1 SLOAD PUSH2 0x1219 SWAP1 PUSH2 0x1F2B JUMP JUMPDEST DUP1 ISZERO PUSH2 0x1264 JUMPI DUP1 PUSH1 0x1F LT PUSH2 0x123B JUMPI PUSH2 0x100 DUP1 DUP4 SLOAD DIV MUL DUP4 MSTORE SWAP2 PUSH1 0x20 ADD SWAP2 PUSH2 0x1264 JUMP JUMPDEST DUP3 ADD SWAP2 SWAP1 PUSH0 MSTORE PUSH1 0x20 PUSH0 KECCAK256 SWAP1 JUMPDEST DUP2 SLOAD DUP2 MSTORE SWAP1 PUSH1 0x1 ADD SWAP1 PUSH1 0x20 ADD DUP1 DUP4 GT PUSH2 0x1247 JUMPI DUP3 SWAP1 SUB PUSH1 0x1F AND DUP3 ADD SWAP2 JUMPDEST POP POP POP POP POP SWAP1 DUP1 PUSH1 0x1 ADD SLOAD SWAP1 DUP1 PUSH1 0x2 ADD PUSH0 SWAP1 SLOAD SWAP1 PUSH2 0x100 EXP SWAP1 DIV PUSH20 0xFFFFFFFFFFFFFFFFFFFFFFFFFFFFFFFFFFFFFFFF AND SWAP1 DUP1 PUSH1 0x2 ADD PUSH1 0x14 SWAP1 SLOAD SWAP1 PUSH2 0x100 EXP SWAP1 DIV PUSH1 0xFF AND SWAP1 POP DUP5 JUMP JUMPDEST PUSH0 DUP1 PUSH0 DUP4 DUP2 MSTORE PUSH1 0x20 ADD SWAP1 DUP2 MSTORE PUSH1 0x20 ADD PUSH0 KECCAK256 SWAP1 POP DUP1 PUSH1 0x2 ADD PUSH1 0x14 SWAP1 SLOAD SWAP1 PUSH2 0x100 EXP SWAP1 DIV PUSH1 0xFF AND PUSH2 0x1310 JUMPI PUSH1 0x40 MLOAD PUSH32 0x8C379A000000000000000000000000000000000000000000000000000000000 DUP2 MSTORE PUSH1 0x4 ADD PUSH2 0x1307 SWAP1 PUSH2 0x2440 JUMP JUMPDEST PUSH1 0x40 MLOAD DUP1 SWAP2 SUB SWAP1 REVERT JUMPDEST DUP1 PUSH1 0x1 ADD SLOAD CALLVALUE LT ISZERO PUSH2 0x1357 JUMPI PUSH1 0x40 MLOAD PUSH32 0x8C379A000000000000000000000000000000000000000000000000000000000 DUP2 MSTORE PUSH1 0x4 ADD PUSH2 0x134E SWAP1 PUSH2 0x24A8 JUMP JUMPDEST PUSH1 0x40 MLOAD DUP1 SWAP2 SUB SWAP1 REVERT JUMPDEST CALLER PUSH20 0xFFFFFFFFFFFFFFFFFFFFFFFFFFFFFFFFFFFFFFFF AND DUP2 PUSH1 0x2 ADD PUSH0 SWAP1 SLOAD SWAP1 PUSH2 0x100 EXP SWAP1 DIV PUSH20 0xFFFFFFFFFFFFFFFFFFFFFFFFFFFFFFFFFFFFFFFF AND PUSH20 0xFFFFFFFFFFFFFFFFFFFFFFFFFFFFFFFFFFFFFFFF AND SUB PUSH2 0x13E8 JUMPI PUSH1 0x40 MLOAD PUSH32 0x8C379A000000000000000000000000000000000000000000000000000000000 DUP2 MSTORE PUSH1 0x4 ADD PUSH2 0x13DF SWAP1 PUSH2 0x2510 JUMP JUMPDEST PUSH1 0x40 MLOAD DUP1 SWAP2 SUB SWAP1 REVERT JUMPDEST PUSH0 DUP2 PUSH1 0x2 ADD PUSH0 SWAP1 SLOAD SWAP1 PUSH2 0x100 EXP SWAP1 DIV PUSH20 0xFFFFFFFFFFFFFFFFFFFFFFFFFFFFFFFFFFFFFFFF AND SWAP1 POP PUSH2 0x1419 DUP2 DUP5 PUSH2 0x1594 JUMP JUMPDEST PUSH1 0x2 PUSH0 CALLER PUSH20 0xFFFFFFFFFFFFFFFFFFFFFFFFFFFFFFFFFFFFFFFF AND PUSH20 0xFFFFFFFFFFFFFFFFFFFFFFFFFFFFFFFFFFFFFFFF AND DUP2 MSTORE PUSH1 0x20 ADD SWAP1 DUP2 MSTORE PUSH1 0x20 ADD PUSH0 KECCAK256 DUP4 SWAP1 DUP1 PUSH1 0x1 DUP2 SLOAD ADD DUP1 DUP3 SSTORE DUP1 SWAP2 POP POP PUSH1 0x1 SWAP1 SUB SWAP1 PUSH0 MSTORE PUSH1 0x20 PUSH0 KECCAK256 ADD PUSH0 SWAP1 SWAP2 SWAP1 SWAP2 SWAP1 SWAP2 POP SSTORE CALLER DUP3 PUSH1 0x2 ADD PUSH0 PUSH2 0x100 EXP DUP2 SLOAD DUP2 PUSH20 0xFFFFFFFFFFFFFFFFFFFFFFFFFFFFFFFFFFFFFFFF MUL NOT AND SWAP1 DUP4 PUSH20 0xFFFFFFFFFFFFFFFFFFFFFFFFFFFFFFFFFFFFFFFF AND MUL OR SWAP1 SSTORE POP CALLVALUE PUSH1 0x3 PUSH0 DUP4 PUSH20 0xFFFFFFFFFFFFFFFFFFFFFFFFFFFFFFFFFFFFFFFF AND PUSH20 0xFFFFFFFFFFFFFFFFFFFFFFFFFFFFFFFFFFFFFFFF AND DUP2 MSTORE PUSH1 0x20 ADD SWAP1 DUP2 MSTORE PUSH1 0x20 ADD PUSH0 KECCAK256 PUSH0 DUP3 DUP3 SLOAD PUSH2 0x1508 SWAP2 SWAP1 PUSH2 0x16C1 JUMP JUMPDEST SWAP3 POP POP DUP2 SWAP1 SSTORE POP DUP1 PUSH20 0xFFFFFFFFFFFFFFFFFFFFFFFFFFFFFFFFFFFFFFFF AND PUSH2 0x8FC CALLVALUE SWAP1 DUP2 ISZERO MUL SWAP1 PUSH1 0x40 MLOAD PUSH0 PUSH1 0x40 MLOAD DUP1 DUP4 SUB DUP2 DUP6 DUP9 DUP9 CALL SWAP4 POP POP POP POP ISZERO DUP1 ISZERO PUSH2 0x1552 JUMPI RETURNDATASIZE PUSH0 DUP1 RETURNDATACOPY RETURNDATASIZE PUSH0 REVERT JUMPDEST POP DUP3 PUSH32 0xFC401AFD9F3C929A6EDA9E334BF948AA13A3A1DE1A30BBE5985780A7BD5040F DUP3 CALLER CALLVALUE PUSH1 0x40 MLOAD PUSH2 0x1587 SWAP4 SWAP3 SWAP2 SWAP1 PUSH2 0x252E JUMP JUMPDEST PUSH1 0x40 MLOAD DUP1 SWAP2 SUB SWAP1 LOG2 POP POP POP JUMP JUMPDEST PUSH0 PUSH1 0x2 PUSH0 DUP5 PUSH20 0xFFFFFFFFFFFFFFFFFFFFFFFFFFFFFFFFFFFFFFFF AND PUSH20 0xFFFFFFFFFFFFFFFFFFFFFFFFFFFFFFFFFFFFFFFF AND DUP2 MSTORE PUSH1 0x20 ADD SWAP1 DUP2 MSTORE PUSH1 0x20 ADD PUSH0 KECCAK256 SWAP1 POP PUSH0 JUMPDEST DUP2 DUP1 SLOAD SWAP1 POP DUP2 LT ISZERO PUSH2 0x1685 JUMPI DUP3 DUP3 DUP3 DUP2 SLOAD DUP2 LT PUSH2 0x15F6 JUMPI PUSH2 0x15F5 PUSH2 0x2203 JUMP JUMPDEST JUMPDEST SWAP1 PUSH0 MSTORE PUSH1 0x20 PUSH0 KECCAK256 ADD SLOAD SUB PUSH2 0x1678 JUMPI DUP2 PUSH1 0x1 DUP4 DUP1 SLOAD SWAP1 POP PUSH2 0x1616 SWAP2 SWAP1 PUSH2 0x2563 JUMP JUMPDEST DUP2 SLOAD DUP2 LT PUSH2 0x1627 JUMPI PUSH2 0x1626 PUSH2 0x2203 JUMP JUMPDEST JUMPDEST SWAP1 PUSH0 MSTORE PUSH1 0x20 PUSH0 KECCAK256 ADD SLOAD DUP3 DUP3 DUP2 SLOAD DUP2 LT PUSH2 0x1643 JUMPI PUSH2 0x1642 PUSH2 0x2203 JUMP JUMPDEST JUMPDEST SWAP1 PUSH0 MSTORE PUSH1 0x20 PUSH0 KECCAK256 ADD DUP2 SWAP1 SSTORE POP DUP2 DUP1 SLOAD DUP1 PUSH2 0x1660 JUMPI PUSH2 0x165F PUSH2 0x2596 JUMP JUMPDEST JUMPDEST PUSH1 0x1 SWAP1 SUB DUP2 DUP2 SWAP1 PUSH0 MSTORE PUSH1 0x20 PUSH0 KECCAK256 ADD PUSH0 SWAP1 SSTORE SWAP1 SSTORE PUSH2 0x1685 JUMP JUMPDEST DUP1 DUP1 PUSH1 0x1 ADD SWAP2 POP POP PUSH2 0x15D6 JUMP JUMPDEST POP POP POP POP JUMP JUMPDEST PUSH0 DUP2 SWAP1 POP SWAP2 SWAP1 POP JUMP JUMPDEST PUSH32 0x4E487B7100000000000000000000000000000000000000000000000000000000 PUSH0 MSTORE PUSH1 0x11 PUSH1 0x4 MSTORE PUSH1 0x24 PUSH0 REVERT JUMPDEST PUSH0 PUSH2 0x16CB DUP3 PUSH2 0x168B JUMP JUMPDEST SWAP2 POP PUSH2 0x16D6 DUP4 PUSH2 0x168B JUMP JUMPDEST SWAP3 POP DUP3 DUP3 ADD SWAP1 POP DUP1 DUP3 GT ISZERO PUSH2 0x16EE JUMPI PUSH2 0x16ED PUSH2 0x1694 JUMP JUMPDEST JUMPDEST SWAP3 SWAP2 POP POP JUMP JUMPDEST PUSH2 0x16FD DUP2 PUSH2 0x168B JUMP JUMPDEST DUP3 MSTORE POP POP JUMP JUMPDEST PUSH0 PUSH1 0x20 DUP3 ADD SWAP1 POP PUSH2 0x1716 PUSH0 DUP4 ADD DUP5 PUSH2 0x16F4 JUMP JUMPDEST SWAP3 SWAP2 POP POP JUMP JUMPDEST PUSH0 PUSH1 0x40 MLOAD SWAP1 POP SWAP1 JUMP JUMPDEST PUSH0 DUP1 REVERT JUMPDEST PUSH0 DUP1 REVERT JUMPDEST PUSH2 0x1736 DUP2 PUSH2 0x168B JUMP JUMPDEST DUP2 EQ PUSH2 0x1740 JUMPI PUSH0 DUP1 REVERT JUMPDEST POP JUMP JUMPDEST PUSH0 DUP2 CALLDATALOAD SWAP1 POP PUSH2 0x1751 DUP2 PUSH2 0x172D JUMP JUMPDEST SWAP3 SWAP2 POP POP JUMP JUMPDEST PUSH0 DUP1 PUSH1 0x40 DUP4 DUP6 SUB SLT ISZERO PUSH2 0x176D JUMPI PUSH2 0x176C PUSH2 0x1725 JUMP JUMPDEST JUMPDEST PUSH0 PUSH2 0x177A DUP6 DUP3 DUP7 ADD PUSH2 0x1743 JUMP JUMPDEST SWAP3 POP POP PUSH1 0x20 PUSH2 0x178B DUP6 DUP3 DUP7 ADD PUSH2 0x1743 JUMP JUMPDEST SWAP2 POP POP SWAP3 POP SWAP3 SWAP1 POP JUMP JUMPDEST PUSH0 PUSH1 0x20 DUP3 DUP5 SUB SLT ISZERO PUSH2 0x17AA JUMPI PUSH2 0x17A9 PUSH2 0x1725 JUMP JUMPDEST JUMPDEST PUSH0 PUSH2 0x17B7 DUP5 DUP3 DUP6 ADD PUSH2 0x1743 JUMP JUMPDEST SWAP2 POP POP SWAP3 SWAP2 POP POP JUMP JUMPDEST PUSH0 PUSH20 0xFFFFFFFFFFFFFFFFFFFFFFFFFFFFFFFFFFFFFFFF DUP3 AND SWAP1 POP SWAP2 SWAP1 POP JUMP JUMPDEST PUSH0 PUSH2 0x17E9 DUP3 PUSH2 0x17C0 JUMP JUMPDEST SWAP1 POP SWAP2 SWAP1 POP JUMP JUMPDEST PUSH2 0x17F9 DUP2 PUSH2 0x17DF JUMP JUMPDEST DUP3 MSTORE POP POP JUMP JUMPDEST PUSH0 DUP2 ISZERO ISZERO SWAP1 POP SWAP2 SWAP1 POP JUMP JUMPDEST PUSH2 0x1813 DUP2 PUSH2 0x17FF JUMP JUMPDEST DUP3 MSTORE POP POP JUMP JUMPDEST PUSH0 PUSH1 0xA0 DUP3 ADD SWAP1 POP PUSH2 0x182C PUSH0 DUP4 ADD DUP9 PUSH2 0x16F4 JUMP JUMPDEST PUSH2 0x1839 PUSH1 0x20 DUP4 ADD DUP8 PUSH2 0x16F4 JUMP JUMPDEST PUSH2 0x1846 PUSH1 0x40 DUP4 ADD DUP7 PUSH2 0x17F0 JUMP JUMPDEST PUSH2 0x1853 PUSH1 0x60 DUP4 ADD DUP6 PUSH2 0x17F0 JUMP JUMPDEST PUSH2 0x1860 PUSH1 0x80 DUP4 ADD DUP5 PUSH2 0x180A JUMP JUMPDEST SWAP7 SWAP6 POP POP POP POP POP POP JUMP JUMPDEST PUSH0 DUP1 REVERT JUMPDEST PUSH0 DUP1 REVERT JUMPDEST PUSH0 PUSH1 0x1F NOT PUSH1 0x1F DUP4 ADD AND SWAP1 POP SWAP2 SWAP1 POP JUMP JUMPDEST PUSH32 0x4E487B7100000000000000000000000000000000000000000000000000000000 PUSH0 MSTORE PUSH1 0x41 PUSH1 0x4 MSTORE PUSH1 0x24 PUSH0 REVERT JUMPDEST PUSH2 0x18B8 DUP3 PUSH2 0x1872 JUMP JUMPDEST DUP2 ADD DUP2 DUP2 LT PUSH8 0xFFFFFFFFFFFFFFFF DUP3 GT OR ISZERO PUSH2 0x18D7 JUMPI PUSH2 0x18D6 PUSH2 0x1882 JUMP JUMPDEST JUMPDEST DUP1 PUSH1 0x40 MSTORE POP POP POP JUMP JUMPDEST PUSH0 PUSH2 0x18E9 PUSH2 0x171C JUMP JUMPDEST SWAP1 POP PUSH2 0x18F5 DUP3 DUP3 PUSH2 0x18AF JUMP JUMPDEST SWAP2 SWAP1 POP JUMP JUMPDEST PUSH0 PUSH8 0xFFFFFFFFFFFFFFFF DUP3 GT ISZERO PUSH2 0x1914 JUMPI PUSH2 0x1913 PUSH2 0x1882 JUMP JUMPDEST JUMPDEST PUSH2 0x191D DUP3 PUSH2 0x1872 JUMP JUMPDEST SWAP1 POP PUSH1 0x20 DUP2 ADD SWAP1 POP SWAP2 SWAP1 POP JUMP JUMPDEST DUP3 DUP2 DUP4 CALLDATACOPY PUSH0 DUP4 DUP4 ADD MSTORE POP POP POP JUMP JUMPDEST PUSH0 PUSH2 0x194A PUSH2 0x1945 DUP5 PUSH2 0x18FA JUMP JUMPDEST PUSH2 0x18E0 JUMP JUMPDEST SWAP1 POP DUP3 DUP2 MSTORE PUSH1 0x20 DUP2 ADD DUP5 DUP5 DUP5 ADD GT ISZERO PUSH2 0x1966 JUMPI PUSH2 0x1965 PUSH2 0x186E JUMP JUMPDEST JUMPDEST PUSH2 0x1971 DUP5 DUP3 DUP6 PUSH2 0x192A JUMP JUMPDEST POP SWAP4 SWAP3 POP POP POP JUMP JUMPDEST PUSH0 DUP3 PUSH1 0x1F DUP4 ADD SLT PUSH2 0x198D JUMPI PUSH2 0x198C PUSH2 0x186A JUMP JUMPDEST JUMPDEST DUP2 CALLDATALOAD PUSH2 0x199D DUP5 DUP3 PUSH1 0x20 DUP7 ADD PUSH2 0x1938 JUMP JUMPDEST SWAP2 POP POP SWAP3 SWAP2 POP POP JUMP JUMPDEST PUSH0 DUP1 PUSH1 0x40 DUP4 DUP6 SUB SLT ISZERO PUSH2 0x19BC JUMPI PUSH2 0x19BB PUSH2 0x1725 JUMP JUMPDEST JUMPDEST PUSH0 DUP4 ADD CALLDATALOAD PUSH8 0xFFFFFFFFFFFFFFFF DUP2 GT ISZERO PUSH2 0x19D9 JUMPI PUSH2 0x19D8 PUSH2 0x1729 JUMP JUMPDEST JUMPDEST PUSH2 0x19E5 DUP6 DUP3 DUP7 ADD PUSH2 0x1979 JUMP JUMPDEST SWAP3 POP POP PUSH1 0x20 PUSH2 0x19F6 DUP6 DUP3 DUP7 ADD PUSH2 0x1743 JUMP JUMPDEST SWAP2 POP POP SWAP3 POP SWAP3 SWAP1 POP JUMP JUMPDEST PUSH0 DUP2 MLOAD SWAP1 POP SWAP2 SWAP1 POP JUMP JUMPDEST PUSH0 DUP3 DUP3 MSTORE PUSH1 0x20 DUP3 ADD SWAP1 POP SWAP3 SWAP2 POP POP JUMP JUMPDEST PUSH0 DUP2 SWAP1 POP PUSH1 0x20 DUP3 ADD SWAP1 POP SWAP2 SWAP1 POP JUMP JUMPDEST PUSH2 0x1A32 DUP2 PUSH2 0x168B JUMP JUMPDEST DUP3 MSTORE POP POP JUMP JUMPDEST PUSH0 PUSH2 0x1A43 DUP4 DUP4 PUSH2 0x1A29 JUMP JUMPDEST PUSH1 0x20 DUP4 ADD SWAP1 POP SWAP3 SWAP2 POP POP JUMP JUMPDEST PUSH0 PUSH1 0x20 DUP3 ADD SWAP1 POP SWAP2 SWAP1 POP JUMP JUMPDEST PUSH0 PUSH2 0x1A65 DUP3 PUSH2 0x1A00 JUMP JUMPDEST PUSH2 0x1A6F DUP2 DUP6 PUSH2 0x1A0A JUMP JUMPDEST SWAP4 POP PUSH2 0x1A7A DUP4 PUSH2 0x1A1A JUMP JUMPDEST DUP1 PUSH0 JUMPDEST DUP4 DUP2 LT ISZERO PUSH2 0x1AAA JUMPI DUP2 MLOAD PUSH2 0x1A91 DUP9 DUP3 PUSH2 0x1A38 JUMP JUMPDEST SWAP8 POP PUSH2 0x1A9C DUP4 PUSH2 0x1A4F JUMP JUMPDEST SWAP3 POP POP PUSH1 0x1 DUP2 ADD SWAP1 POP PUSH2 0x1A7D JUMP JUMPDEST POP DUP6 SWAP4 POP POP POP POP SWAP3 SWAP2 POP POP JUMP JUMPDEST PUSH0 DUP2 MLOAD SWAP1 POP SWAP2 SWAP1 POP JUMP JUMPDEST PUSH0 DUP3 DUP3 MSTORE PUSH1 0x20 DUP3 ADD SWAP1 POP SWAP3 SWAP2 POP POP JUMP JUMPDEST PUSH0 DUP2 SWAP1 POP PUSH1 0x20 DUP3 ADD SWAP1 POP SWAP2 SWAP1 POP JUMP JUMPDEST PUSH0 DUP2 MLOAD SWAP1 POP SWAP2 SWAP1 POP JUMP JUMPDEST PUSH0 DUP3 DUP3 MSTORE PUSH1 0x20 DUP3 ADD SWAP1 POP SWAP3 SWAP2 POP POP JUMP JUMPDEST DUP3 DUP2 DUP4 MCOPY PUSH0 DUP4 DUP4 ADD MSTORE POP POP POP JUMP JUMPDEST PUSH0 PUSH2 0x1B12 DUP3 PUSH2 0x1AE0 JUMP JUMPDEST PUSH2 0x1B1C DUP2 DUP6 PUSH2 0x1AEA JUMP JUMPDEST SWAP4 POP PUSH2 0x1B2C DUP2 DUP6 PUSH1 0x20 DUP7 ADD PUSH2 0x1AFA JUMP JUMPDEST PUSH2 0x1B35 DUP2 PUSH2 0x1872 JUMP JUMPDEST DUP5 ADD SWAP2 POP POP SWAP3 SWAP2 POP POP JUMP JUMPDEST PUSH0 PUSH2 0x1B4B DUP4 DUP4 PUSH2 0x1B08 JUMP JUMPDEST SWAP1 POP SWAP3 SWAP2 POP POP JUMP JUMPDEST PUSH0 PUSH1 0x20 DUP3 ADD SWAP1 POP SWAP2 SWAP1 POP JUMP JUMPDEST PUSH0 PUSH2 0x1B69 DUP3 PUSH2 0x1AB7 JUMP JUMPDEST PUSH2 0x1B73 DUP2 DUP6 PUSH2 0x1AC1 JUMP JUMPDEST SWAP4 POP DUP4 PUSH1 0x20 DUP3 MUL DUP6 ADD PUSH2 0x1B85 DUP6 PUSH2 0x1AD1 JUMP JUMPDEST DUP1 PUSH0 JUMPDEST DUP6 DUP2 LT ISZERO PUSH2 0x1BC0 JUMPI DUP5 DUP5 SUB DUP10 MSTORE DUP2 MLOAD PUSH2 0x1BA1 DUP6 DUP3 PUSH2 0x1B40 JUMP JUMPDEST SWAP5 POP PUSH2 0x1BAC DUP4 PUSH2 0x1B53 JUMP JUMPDEST SWAP3 POP PUSH1 0x20 DUP11 ADD SWAP10 POP POP PUSH1 0x1 DUP2 ADD SWAP1 POP PUSH2 0x1B88 JUMP JUMPDEST POP DUP3 SWAP8 POP DUP8 SWAP6 POP POP POP POP POP POP SWAP3 SWAP2 POP POP JUMP JUMPDEST PUSH0 PUSH1 0x60 DUP3 ADD SWAP1 POP DUP2 DUP2 SUB PUSH0 DUP4 ADD MSTORE PUSH2 0x1BEA DUP2 DUP7 PUSH2 0x1A5B JUMP JUMPDEST SWAP1 POP DUP2 DUP2 SUB PUSH1 0x20 DUP4 ADD MSTORE PUSH2 0x1BFE DUP2 DUP6 PUSH2 0x1B5F JUMP JUMPDEST SWAP1 POP DUP2 DUP2 SUB PUSH1 0x40 DUP4 ADD MSTORE PUSH2 0x1C12 DUP2 DUP5 PUSH2 0x1A5B JUMP JUMPDEST SWAP1 POP SWAP5 SWAP4 POP POP POP POP JUMP JUMPDEST PUSH0 DUP3 DUP3 MSTORE PUSH1 0x20 DUP3 ADD SWAP1 POP SWAP3 SWAP2 POP POP JUMP JUMPDEST PUSH0 PUSH2 0x1C36 DUP3 PUSH2 0x1AE0 JUMP JUMPDEST PUSH2 0x1C40 DUP2 DUP6 PUSH2 0x1C1C JUMP JUMPDEST SWAP4 POP PUSH2 0x1C50 DUP2 DUP6 PUSH1 0x20 DUP7 ADD PUSH2 0x1AFA JUMP JUMPDEST PUSH2 0x1C59 DUP2 PUSH2 0x1872 JUMP JUMPDEST DUP5 ADD SWAP2 POP POP SWAP3 SWAP2 POP POP JUMP JUMPDEST PUSH0 PUSH1 0x80 DUP3 ADD SWAP1 POP DUP2 DUP2 SUB PUSH0 DUP4 ADD MSTORE PUSH2 0x1C7C DUP2 DUP8 PUSH2 0x1C2C JUMP JUMPDEST SWAP1 POP PUSH2 0x1C8B PUSH1 0x20 DUP4 ADD DUP7 PUSH2 0x16F4 JUMP JUMPDEST PUSH2 0x1C98 PUSH1 0x40 DUP4 ADD DUP6 PUSH2 0x17F0 JUMP JUMPDEST PUSH2 0x1CA5 PUSH1 0x60 DUP4 ADD DUP5 PUSH2 0x180A JUMP JUMPDEST SWAP6 SWAP5 POP POP POP POP POP JUMP JUMPDEST PUSH32 0x426F74682073656375726974696573206D757374206265206C69737465640000 PUSH0 DUP3 ADD MSTORE POP JUMP JUMPDEST PUSH0 PUSH2 0x1CE2 PUSH1 0x1E DUP4 PUSH2 0x1C1C JUMP JUMPDEST SWAP2 POP PUSH2 0x1CED DUP3 PUSH2 0x1CAE JUMP JUMPDEST PUSH1 0x20 DUP3 ADD SWAP1 POP SWAP2 SWAP1 POP JUMP JUMPDEST PUSH0 PUSH1 0x20 DUP3 ADD SWAP1 POP DUP2 DUP2 SUB PUSH0 DUP4 ADD MSTORE PUSH2 0x1D0F DUP2 PUSH2 0x1CD6 JUMP JUMPDEST SWAP1 POP SWAP2 SWAP1 POP JUMP JUMPDEST PUSH32 0x596F75206D757374206F776E20746865206F6666657265642073656375726974 PUSH0 DUP3 ADD MSTORE PUSH32 0x7900000000000000000000000000000000000000000000000000000000000000 PUSH1 0x20 DUP3 ADD MSTORE POP JUMP JUMPDEST PUSH0 PUSH2 0x1D70 PUSH1 0x21 DUP4 PUSH2 0x1C1C JUMP JUMPDEST SWAP2 POP PUSH2 0x1D7B DUP3 PUSH2 0x1D16 JUMP JUMPDEST PUSH1 0x40 DUP3 ADD SWAP1 POP SWAP2 SWAP1 POP JUMP JUMPDEST PUSH0 PUSH1 0x20 DUP3 ADD SWAP1 POP DUP2 DUP2 SUB PUSH0 DUP4 ADD MSTORE PUSH2 0x1D9D DUP2 PUSH2 0x1D64 JUMP JUMPDEST SWAP1 POP SWAP2 SWAP1 POP JUMP JUMPDEST PUSH32 0x43616E6E6F742065786368616E6765207769746820796F757273656C66000000 PUSH0 DUP3 ADD MSTORE POP JUMP JUMPDEST PUSH0 PUSH2 0x1DD8 PUSH1 0x1D DUP4 PUSH2 0x1C1C JUMP JUMPDEST SWAP2 POP PUSH2 0x1DE3 DUP3 PUSH2 0x1DA4 JUMP JUMPDEST PUSH1 0x20 DUP3 ADD SWAP1 POP SWAP2 SWAP1 POP JUMP JUMPDEST PUSH0 PUSH1 0x20 DUP3 ADD SWAP1 POP DUP2 DUP2 SUB PUSH0 DUP4 ADD MSTORE PUSH2 0x1E05 DUP2 PUSH2 0x1DCC JUMP JUMPDEST SWAP1 POP SWAP2 SWAP1 POP JUMP JUMPDEST PUSH0 PUSH2 0x1E16 DUP3 PUSH2 0x168B JUMP JUMPDEST SWAP2 POP PUSH32 0xFFFFFFFFFFFFFFFFFFFFFFFFFFFFFFFFFFFFFFFFFFFFFFFFFFFFFFFFFFFFFFFF DUP3 SUB PUSH2 0x1E48 JUMPI PUSH2 0x1E47 PUSH2 0x1694 JUMP JUMPDEST JUMPDEST PUSH1 0x1 DUP3 ADD SWAP1 POP SWAP2 SWAP1 POP JUMP JUMPDEST PUSH0 PUSH1 0x80 DUP3 ADD SWAP1 POP PUSH2 0x1E66 PUSH0 DUP4 ADD DUP8 PUSH2 0x16F4 JUMP JUMPDEST PUSH2 0x1E73 PUSH1 0x20 DUP4 ADD DUP7 PUSH2 0x16F4 JUMP JUMPDEST PUSH2 0x1E80 PUSH1 0x40 DUP4 ADD DUP6 PUSH2 0x17F0 JUMP JUMPDEST PUSH2 0x1E8D PUSH1 0x60 DUP4 ADD DUP5 PUSH2 0x17F0 JUMP JUMPDEST SWAP6 SWAP5 POP POP POP POP POP JUMP JUMPDEST PUSH32 0x5072696365206D7573742062652067726561746572207468616E203000000000 PUSH0 DUP3 ADD MSTORE POP JUMP JUMPDEST PUSH0 PUSH2 0x1ECA PUSH1 0x1C DUP4 PUSH2 0x1C1C JUMP JUMPDEST SWAP2 POP PUSH2 0x1ED5 DUP3 PUSH2 0x1E96 JUMP JUMPDEST PUSH1 0x20 DUP3 ADD SWAP1 POP SWAP2 SWAP1 POP JUMP JUMPDEST PUSH0 PUSH1 0x20 DUP3 ADD SWAP1 POP DUP2 DUP2 SUB PUSH0 DUP4 ADD MSTORE PUSH2 0x1EF7 DUP2 PUSH2 0x1EBE JUMP JUMPDEST SWAP1 POP SWAP2 SWAP1 POP JUMP JUMPDEST PUSH32 0x4E487B7100000000000000000000000000000000000000000000000000000000 PUSH0 MSTORE PUSH1 0x22 PUSH1 0x4 MSTORE PUSH1 0x24 PUSH0 REVERT JUMPDEST PUSH0 PUSH1 0x2 DUP3 DIV SWAP1 POP PUSH1 0x1 DUP3 AND DUP1 PUSH2 0x1F42 JUMPI PUSH1 0x7F DUP3 AND SWAP2 POP JUMPDEST PUSH1 0x20 DUP3 LT DUP2 SUB PUSH2 0x1F55 JUMPI PUSH2 0x1F54 PUSH2 0x1EFE JUMP JUMPDEST JUMPDEST POP SWAP2 SWAP1 POP JUMP JUMPDEST PUSH0 DUP2 SWAP1 POP DUP2 PUSH0 MSTORE PUSH1 0x20 PUSH0 KECCAK256 SWAP1 POP SWAP2 SWAP1 POP JUMP JUMPDEST PUSH0 PUSH1 0x20 PUSH1 0x1F DUP4 ADD DIV SWAP1 POP SWAP2 SWAP1 POP JUMP JUMPDEST PUSH0 DUP3 DUP3 SHL SWAP1 POP SWAP3 SWAP2 POP POP JUMP JUMPDEST PUSH0 PUSH1 0x8 DUP4 MUL PUSH2 0x1FB7 PUSH32 0xFFFFFFFFFFFFFFFFFFFFFFFFFFFFFFFFFFFFFFFFFFFFFFFFFFFFFFFFFFFFFFFF DUP3 PUSH2 0x1F7C JUMP JUMPDEST PUSH2 0x1FC1 DUP7 DUP4 PUSH2 0x1F7C JUMP JUMPDEST SWAP6 POP DUP1 NOT DUP5 AND SWAP4 POP DUP1 DUP7 AND DUP5 OR SWAP3 POP POP POP SWAP4 SWAP3 POP POP POP JUMP JUMPDEST PUSH0 DUP2 SWAP1 POP SWAP2 SWAP1 POP JUMP JUMPDEST PUSH0 PUSH2 0x1FFC PUSH2 0x1FF7 PUSH2 0x1FF2 DUP5 PUSH2 0x168B JUMP JUMPDEST PUSH2 0x1FD9 JUMP JUMPDEST PUSH2 0x168B JUMP JUMPDEST SWAP1 POP SWAP2 SWAP1 POP JUMP JUMPDEST PUSH0 DUP2 SWAP1 POP SWAP2 SWAP1 POP JUMP JUMPDEST PUSH2 0x2015 DUP4 PUSH2 0x1FE2 JUMP JUMPDEST PUSH2 0x2029 PUSH2 0x2021 DUP3 PUSH2 0x2003 JUMP JUMPDEST DUP5 DUP5 SLOAD PUSH2 0x1F88 JUMP JUMPDEST DUP3 SSTORE POP POP POP POP JUMP JUMPDEST PUSH0 SWAP1 JUMP JUMPDEST PUSH2 0x203D PUSH2 0x2031 JUMP JUMPDEST PUSH2 0x2048 DUP2 DUP5 DUP5 PUSH2 0x200C JUMP JUMPDEST POP POP POP JUMP JUMPDEST JUMPDEST DUP2 DUP2 LT ISZERO PUSH2 0x206B JUMPI PUSH2 0x2060 PUSH0 DUP3 PUSH2 0x2035 JUMP JUMPDEST PUSH1 0x1 DUP2 ADD SWAP1 POP PUSH2 0x204E JUMP JUMPDEST POP POP JUMP JUMPDEST PUSH1 0x1F DUP3 GT ISZERO PUSH2 0x20B0 JUMPI PUSH2 0x2081 DUP2 PUSH2 0x1F5B JUMP JUMPDEST PUSH2 0x208A DUP5 PUSH2 0x1F6D JUMP JUMPDEST DUP2 ADD PUSH1 0x20 DUP6 LT ISZERO PUSH2 0x2099 JUMPI DUP2 SWAP1 POP JUMPDEST PUSH2 0x20AD PUSH2 0x20A5 DUP6 PUSH2 0x1F6D JUMP JUMPDEST DUP4 ADD DUP3 PUSH2 0x204D JUMP JUMPDEST POP POP JUMPDEST POP POP POP JUMP JUMPDEST PUSH0 DUP3 DUP3 SHR SWAP1 POP SWAP3 SWAP2 POP POP JUMP JUMPDEST PUSH0 PUSH2 0x20D0 PUSH0 NOT DUP5 PUSH1 0x8 MUL PUSH2 0x20B5 JUMP JUMPDEST NOT DUP1 DUP4 AND SWAP2 POP POP SWAP3 SWAP2 POP POP JUMP JUMPDEST PUSH0 PUSH2 0x20E8 DUP4 DUP4 PUSH2 0x20C1 JUMP JUMPDEST SWAP2 POP DUP3 PUSH1 0x2 MUL DUP3 OR SWAP1 POP SWAP3 SWAP2 POP POP JUMP JUMPDEST PUSH2 0x2101 DUP3 PUSH2 0x1AE0 JUMP JUMPDEST PUSH8 0xFFFFFFFFFFFFFFFF DUP2 GT ISZERO PUSH2 0x211A JUMPI PUSH2 0x2119 PUSH2 0x1882 JUMP JUMPDEST JUMPDEST PUSH2 0x2124 DUP3 SLOAD PUSH2 0x1F2B JUMP JUMPDEST PUSH2 0x212F DUP3 DUP3 DUP6 PUSH2 0x206F JUMP JUMPDEST PUSH0 PUSH1 0x20 SWAP1 POP PUSH1 0x1F DUP4 GT PUSH1 0x1 DUP2 EQ PUSH2 0x2160 JUMPI PUSH0 DUP5 ISZERO PUSH2 0x214E JUMPI DUP3 DUP8 ADD MLOAD SWAP1 POP JUMPDEST PUSH2 0x2158 DUP6 DUP3 PUSH2 0x20DD JUMP JUMPDEST DUP7 SSTORE POP PUSH2 0x21BF JUMP JUMPDEST PUSH1 0x1F NOT DUP5 AND PUSH2 0x216E DUP7 PUSH2 0x1F5B JUMP JUMPDEST PUSH0 JUMPDEST DUP3 DUP2 LT ISZERO PUSH2 0x2195 JUMPI DUP5 DUP10 ADD MLOAD DUP3 SSTORE PUSH1 0x1 DUP3 ADD SWAP2 POP PUSH1 0x20 DUP6 ADD SWAP5 POP PUSH1 0x20 DUP2 ADD SWAP1 POP PUSH2 0x2170 JUMP JUMPDEST DUP7 DUP4 LT ISZERO PUSH2 0x21B2 JUMPI DUP5 DUP10 ADD MLOAD PUSH2 0x21AE PUSH1 0x1F DUP10 AND DUP3 PUSH2 0x20C1 JUMP JUMPDEST DUP4 SSTORE POP JUMPDEST PUSH1 0x1 PUSH1 0x2 DUP9 MUL ADD DUP9 SSTORE POP POP POP JUMPDEST POP POP POP POP POP POP JUMP JUMPDEST PUSH0 PUSH1 0x60 DUP3 ADD SWAP1 POP DUP2 DUP2 SUB PUSH0 DUP4 ADD MSTORE PUSH2 0x21DF DUP2 DUP7 PUSH2 0x1C2C JUMP JUMPDEST SWAP1 POP PUSH2 0x21EE PUSH1 0x20 DUP4 ADD DUP6 PUSH2 0x16F4 JUMP JUMPDEST PUSH2 0x21FB PUSH1 0x40 DUP4 ADD DUP5 PUSH2 0x17F0 JUMP JUMPDEST SWAP5 SWAP4 POP POP POP POP JUMP JUMPDEST PUSH32 0x4E487B7100000000000000000000000000000000000000000000000000000000 PUSH0 MSTORE PUSH1 0x32 PUSH1 0x4 MSTORE PUSH1 0x24 PUSH0 REVERT JUMPDEST PUSH32 0x45786368616E67652072657175657374206973206E6F742070656E64696E6700 PUSH0 DUP3 ADD MSTORE POP JUMP JUMPDEST PUSH0 PUSH2 0x2264 PUSH1 0x1F DUP4 PUSH2 0x1C1C JUMP JUMPDEST SWAP2 POP PUSH2 0x226F DUP3 PUSH2 0x2230 JUMP JUMPDEST PUSH1 0x20 DUP3 ADD SWAP1 POP SWAP2 SWAP1 POP JUMP JUMPDEST PUSH0 PUSH1 0x20 DUP3 ADD SWAP1 POP DUP2 DUP2 SUB PUSH0 DUP4 ADD MSTORE PUSH2 0x2291 DUP2 PUSH2 0x2258 JUMP JUMPDEST SWAP1 POP SWAP2 SWAP1 POP JUMP JUMPDEST PUSH32 0x4F6E6C792072656365697665722063616E2072656A6563740000000000000000 PUSH0 DUP3 ADD MSTORE POP JUMP JUMPDEST PUSH0 PUSH2 0x22CC PUSH1 0x18 DUP4 PUSH2 0x1C1C JUMP JUMPDEST SWAP2 POP PUSH2 0x22D7 DUP3 PUSH2 0x2298 JUMP JUMPDEST PUSH1 0x20 DUP3 ADD SWAP1 POP SWAP2 SWAP1 POP JUMP JUMPDEST PUSH0 PUSH1 0x20 DUP3 ADD SWAP1 POP DUP2 DUP2 SUB PUSH0 DUP4 ADD MSTORE PUSH2 0x22F9 DUP2 PUSH2 0x22C0 JUMP JUMPDEST SWAP1 POP SWAP2 SWAP1 POP JUMP JUMPDEST PUSH32 0x4F6E6C792072656365697665722063616E20617070726F766500000000000000 PUSH0 DUP3 ADD MSTORE POP JUMP JUMPDEST PUSH0 PUSH2 0x2334 PUSH1 0x19 DUP4 PUSH2 0x1C1C JUMP JUMPDEST SWAP2 POP PUSH2 0x233F DUP3 PUSH2 0x2300 JUMP JUMPDEST PUSH1 0x20 DUP3 ADD SWAP1 POP SWAP2 SWAP1 POP JUMP JUMPDEST PUSH0 PUSH1 0x20 DUP3 ADD SWAP1 POP DUP2 DUP2 SUB PUSH0 DUP4 ADD MSTORE PUSH2 0x2361 DUP2 PUSH2 0x2328 JUMP JUMPDEST SWAP1 POP SWAP2 SWAP1 POP JUMP JUMPDEST PUSH32 0x596F75206D757374206F776E2074686520726571756573746564207365637572 PUSH0 DUP3 ADD MSTORE PUSH32 0x6974790000000000000000000000000000000000000000000000000000000000 PUSH1 0x20 DUP3 ADD MSTORE POP JUMP JUMPDEST PUSH0 PUSH2 0x23C2 PUSH1 0x23 DUP4 PUSH2 0x1C1C JUMP JUMPDEST SWAP2 POP PUSH2 0x23CD DUP3 PUSH2 0x2368 JUMP JUMPDEST PUSH1 0x40 DUP3 ADD SWAP1 POP SWAP2 SWAP1 POP JUMP JUMPDEST PUSH0 PUSH1 0x20 DUP3 ADD SWAP1 POP DUP2 DUP2 SUB PUSH0 DUP4 ADD MSTORE PUSH2 0x23EF DUP2 PUSH2 0x23B6 JUMP JUMPDEST SWAP1 POP SWAP2 SWAP1 POP JUMP JUMPDEST PUSH32 0x5365637572697479206973206E6F74206C697374656400000000000000000000 PUSH0 DUP3 ADD MSTORE POP JUMP JUMPDEST PUSH0 PUSH2 0x242A PUSH1 0x16 DUP4 PUSH2 0x1C1C JUMP JUMPDEST SWAP2 POP PUSH2 0x2435 DUP3 PUSH2 0x23F6 JUMP JUMPDEST PUSH1 0x20 DUP3 ADD SWAP1 POP SWAP2 SWAP1 POP JUMP JUMPDEST PUSH0 PUSH1 0x20 DUP3 ADD SWAP1 POP DUP2 DUP2 SUB PUSH0 DUP4 ADD MSTORE PUSH2 0x2457 DUP2 PUSH2 0x241E JUMP JUMPDEST SWAP1 POP SWAP2 SWAP1 POP JUMP JUMPDEST PUSH32 0x496E73756666696369656E74207061796D656E74000000000000000000000000 PUSH0 DUP3 ADD MSTORE POP JUMP JUMPDEST PUSH0 PUSH2 0x2492 PUSH1 0x14 DUP4 PUSH2 0x1C1C JUMP JUMPDEST SWAP2 POP PUSH2 0x249D DUP3 PUSH2 0x245E JUMP JUMPDEST PUSH1 0x20 DUP3 ADD SWAP1 POP SWAP2 SWAP1 POP JUMP JUMPDEST PUSH0 PUSH1 0x20 DUP3 ADD SWAP1 POP DUP2 DUP2 SUB PUSH0 DUP4 ADD MSTORE PUSH2 0x24BF DUP2 PUSH2 0x2486 JUMP JUMPDEST SWAP1 POP SWAP2 SWAP1 POP JUMP JUMPDEST PUSH32 0x43616E6E6F742062757920796F7572206F776E20736563757269747900000000 PUSH0 DUP3 ADD MSTORE POP JUMP JUMPDEST PUSH0 PUSH2 0x24FA PUSH1 0x1C DUP4 PUSH2 0x1C1C JUMP JUMPDEST SWAP2 POP PUSH2 0x2505 DUP3 PUSH2 0x24C6 JUMP JUMPDEST PUSH1 0x20 DUP3 ADD SWAP1 POP SWAP2 SWAP1 POP JUMP JUMPDEST PUSH0 PUSH1 0x20 DUP3 ADD SWAP1 POP DUP2 DUP2 SUB PUSH0 DUP4 ADD MSTORE PUSH2 0x2527 DUP2 PUSH2 0x24EE JUMP JUMPDEST SWAP1 POP SWAP2 SWAP1 POP JUMP JUMPDEST PUSH0 PUSH1 0x60 DUP3 ADD SWAP1 POP PUSH2 0x2541 PUSH0 DUP4 ADD DUP7 PUSH2 0x17F0 JUMP JUMPDEST PUSH2 0x254E PUSH1 0x20 DUP4 ADD DUP6 PUSH2 0x17F0 JUMP JUMPDEST PUSH2 0x255B PUSH1 0x40 DUP4 ADD DUP5 PUSH2 0x16F4 JUMP JUMPDEST SWAP5 SWAP4 POP POP POP POP JUMP JUMPDEST PUSH0 PUSH2 0x256D DUP3 PUSH2 0x168B JUMP JUMPDEST SWAP2 POP PUSH2 0x2578 DUP4 PUSH2 0x168B JUMP JUMPDEST SWAP3 POP DUP3 DUP3 SUB SWAP1 POP DUP2 DUP2 GT ISZERO PUSH2 0x2590 JUMPI PUSH2 0x258F PUSH2 0x1694 JUMP JUMPDEST JUMPDEST SWAP3 SWAP2 POP POP JUMP JUMPDEST PUSH32 0x4E487B7100000000000000000000000000000000000000000000000000000000 PUSH0 MSTORE PUSH1 0x31 PUSH1 0x4 MSTORE PUSH1 0x24 PUSH0 REVERT INVALID LOG2 PUSH5 0x6970667358 0x22 SLT KECCAK256 0xB3 PUSH26 0x4F37BE427C6A9FCE31A8631CC0609B3DB73DF334F3E634242875 PUSH19 0xCE17E264736F6C634300081A00330000000000 "
				},
				"gasEstimates": {
					"creation": {
						"codeDepositCost": "1944200",
						"executionCost": "46265",
						"totalCost": "1990465"
					},
					"external": {
						"approveExchange(uint256)": "infinite",
						"exchangeRequests(uint256)": "infinite",
						"getBalance()": "2520",
						"getUserSecurities()": "infinite",
						"listSecurity(string,uint256)": "infinite",
						"purchaseSecurity(uint256)": "infinite",
						"rejectExchange(uint256)": "30372",
						"requestExchange(uint256,uint256)": "infinite",
						"securities(uint256)": "infinite"
					},
					"internal": {
						"_removeFromUserSecurities(address,uint256)": "infinite"
					}
				},
				"methodIdentifiers": {
					"approveExchange(uint256)": "9e15438a",
					"exchangeRequests(uint256)": "3bf13b44",
					"getBalance()": "12065fe0",
					"getUserSecurities()": "8a2355bb",
					"listSecurity(string,uint256)": "646f9004",
					"purchaseSecurity(uint256)": "fcd68fb8",
					"rejectExchange(uint256)": "8ca305a0",
					"requestExchange(uint256,uint256)": "204e73a0",
					"securities(uint256)": "c6f6298c"
				}
			},
			"storageLayout": {
				"storage": [
					{
						"astId": 26,
						"contract": "contracts/SecuritiesTrading.sol:SecuritiesTrading",
						"label": "securities",
						"offset": 0,
						"slot": "0",
						"type": "t_mapping(t_uint256,t_struct(Security)10_storage)"
					},
					{
						"astId": 31,
						"contract": "contracts/SecuritiesTrading.sol:SecuritiesTrading",
						"label": "exchangeRequests",
						"offset": 0,
						"slot": "1",
						"type": "t_mapping(t_uint256,t_struct(ExchangeRequest)21_storage)"
					},
					{
						"astId": 36,
						"contract": "contracts/SecuritiesTrading.sol:SecuritiesTrading",
						"label": "userSecurities",
						"offset": 0,
						"slot": "2",
						"type": "t_mapping(t_address,t_array(t_uint256)dyn_storage)"
					},
					{
						"astId": 40,
						"contract": "contracts/SecuritiesTrading.sol:SecuritiesTrading",
						"label": "balances",
						"offset": 0,
						"slot": "3",
						"type": "t_mapping(t_address,t_uint256)"
					},
					{
						"astId": 43,
						"contract": "contracts/SecuritiesTrading.sol:SecuritiesTrading",
						"label": "nextSecurityId",
						"offset": 0,
						"slot": "4",
						"type": "t_uint256"
					},
					{
						"astId": 46,
						"contract": "contracts/SecuritiesTrading.sol:SecuritiesTrading",
						"label": "nextRequestId",
						"offset": 0,
						"slot": "5",
						"type": "t_uint256"
					}
				],
				"types": {
					"t_address": {
						"encoding": "inplace",
						"label": "address",
						"numberOfBytes": "20"
					},
					"t_array(t_uint256)dyn_storage": {
						"base": "t_uint256",
						"encoding": "dynamic_array",
						"label": "uint256[]",
						"numberOfBytes": "32"
					},
					"t_bool": {
						"encoding": "inplace",
						"label": "bool",
						"numberOfBytes": "1"
					},
					"t_mapping(t_address,t_array(t_uint256)dyn_storage)": {
						"encoding": "mapping",
						"key": "t_address",
						"label": "mapping(address => uint256[])",
						"numberOfBytes": "32",
						"value": "t_array(t_uint256)dyn_storage"
					},
					"t_mapping(t_address,t_uint256)": {
						"encoding": "mapping",
						"key": "t_address",
						"label": "mapping(address => uint256)",
						"numberOfBytes": "32",
						"value": "t_uint256"
					},
					"t_mapping(t_uint256,t_struct(ExchangeRequest)21_storage)": {
						"encoding": "mapping",
						"key": "t_uint256",
						"label": "mapping(uint256 => struct SecuritiesTrading.ExchangeRequest)",
						"numberOfBytes": "32",
						"value": "t_struct(ExchangeRequest)21_storage"
					},
					"t_mapping(t_uint256,t_struct(Security)10_storage)": {
						"encoding": "mapping",
						"key": "t_uint256",
						"label": "mapping(uint256 => struct SecuritiesTrading.Security)",
						"numberOfBytes": "32",
						"value": "t_struct(Security)10_storage"
					},
					"t_string_storage": {
						"encoding": "bytes",
						"label": "string",
						"numberOfBytes": "32"
					},
					"t_struct(ExchangeRequest)21_storage": {
						"encoding": "inplace",
						"label": "struct SecuritiesTrading.ExchangeRequest",
						"members": [
							{
								"astId": 12,
								"contract": "contracts/SecuritiesTrading.sol:SecuritiesTrading",
								"label": "securityOffered",
								"offset": 0,
								"slot": "0",
								"type": "t_uint256"
							},
							{
								"astId": 14,
								"contract": "contracts/SecuritiesTrading.sol:SecuritiesTrading",
								"label": "securityRequested",
								"offset": 0,
								"slot": "1",
								"type": "t_uint256"
							},
							{
								"astId": 16,
								"contract": "contracts/SecuritiesTrading.sol:SecuritiesTrading",
								"label": "requester",
								"offset": 0,
								"slot": "2",
								"type": "t_address"
							},
							{
								"astId": 18,
								"contract": "contracts/SecuritiesTrading.sol:SecuritiesTrading",
								"label": "receiver",
								"offset": 0,
								"slot": "3",
								"type": "t_address"
							},
							{
								"astId": 20,
								"contract": "contracts/SecuritiesTrading.sol:SecuritiesTrading",
								"label": "isPending",
								"offset": 20,
								"slot": "3",
								"type": "t_bool"
							}
						],
						"numberOfBytes": "128"
					},
					"t_struct(Security)10_storage": {
						"encoding": "inplace",
						"label": "struct SecuritiesTrading.Security",
						"members": [
							{
								"astId": 3,
								"contract": "contracts/SecuritiesTrading.sol:SecuritiesTrading",
								"label": "name",
								"offset": 0,
								"slot": "0",
								"type": "t_string_storage"
							},
							{
								"astId": 5,
								"contract": "contracts/SecuritiesTrading.sol:SecuritiesTrading",
								"label": "price",
								"offset": 0,
								"slot": "1",
								"type": "t_uint256"
							},
							{
								"astId": 7,
								"contract": "contracts/SecuritiesTrading.sol:SecuritiesTrading",
								"label": "owner",
								"offset": 0,
								"slot": "2",
								"type": "t_address"
							},
							{
								"astId": 9,
								"contract": "contracts/SecuritiesTrading.sol:SecuritiesTrading",
								"label": "isListed",
								"offset": 20,
								"slot": "2",
								"type": "t_bool"
							}
						],
						"numberOfBytes": "96"
					},
					"t_uint256": {
						"encoding": "inplace",
						"label": "uint256",
						"numberOfBytes": "32"
					}
				}
			},
			"userdoc": {
				"kind": "user",
				"methods": {},
				"version": 1
			}
		}
	}
}