{
	"data": {
		"bytecode": {
			"linkReferences": {
				"remix_tests.sol": {
					"Assert": [
						{
							"length": 20,
							"start": 540
						},
						{
							"length": 20,
							"start": 659
						},
						{
							"length": 20,
							"start": 788
						},
						{
							"length": 20,
							"start": 909
						},
						{
							"length": 20,
							"start": 1730
						},
						{
							"length": 20,
							"start": 1853
						},
						{
							"length": 20,
							"start": 1976
						},
						{
							"length": 20,
							"start": 2362
						}
					]
				}
			},
			"object": "6080604052348015600e575f80fd5b50613eca8061001c5f395ff3fe608060405234801561000f575f80fd5b506004361061004a575f3560e01c80635fd1afd11461004e5780637fea0d4b146100585780638513b99414610062578063c71daccb1461006c575b5f80fd5b610056610076565b005b610060610425565b005b61006a61048b565b005b61007461084e565b005b6100b46040518060400160405280601c81526020017f52756e6e696e6720636865636b53656375726974794c697374696e67000000008152506109cd565b5f805f9054906101000a900473ffffffffffffffffffffffffffffffffffffffff1673ffffffffffffffffffffffffffffffffffffffff1663646f9004670de0b6b3a76400006040518263ffffffff1660e01b81526004016101169190610b66565b6020604051808303815f875af1158015610132573d5f803e3d5ffd5b505050506040513d601f19601f820116820180604052508101906101569190610bcd565b90505f805f805f8054906101000a900473ffffffffffffffffffffffffffffffffffffffff1673ffffffffffffffffffffffffffffffffffffffff1663c6f6298c866040518263ffffffff1660e01b81526004016101b49190610c07565b5f60405180830381865afa1580156101ce573d5f803e3d5ffd5b505050506040513d5f823e3d601f19601f820116820180604052508101906101f69190610deb565b935093509350935073__$acbfb1c35000d78352310b16a054a6b106$__63e8c2cb16856040518263ffffffff1660e01b81526004016102359190610f29565b602060405180830381865af4158015610250573d5f803e3d5ffd5b505050506040513d601f19601f820116820180604052508101906102749190610f6f565b5073__$acbfb1c35000d78352310b16a054a6b106$__63abcd796084670de0b6b3a76400006040518363ffffffff1660e01b81526004016102b6929190611002565b602060405180830381865af41580156102d1573d5f803e3d5ffd5b505050506040513d601f19601f820116820180604052508101906102f59190610f6f565b5073__$acbfb1c35000d78352310b16a054a6b106$__63bfba5dd683306040518363ffffffff1660e01b815260040161032f9291906110bb565b602060405180830381865af415801561034a573d5f803e3d5ffd5b505050506040513d601f19601f8201168201806040525081019061036e9190610f6f565b5073__$acbfb1c35000d78352310b16a054a6b106$__63767392b38260016040518363ffffffff1660e01b81526004016103a992919061114e565b602060405180830381865af41580156103c4573d5f803e3d5ffd5b505050506040513d601f19601f820116820180604052508101906103e89190610f6f565b507fe75028ff36bb6473da3731a30e1aeeae9988e2415dba2c4e91e0357955065fba604051610416906111d2565b60405180910390a15050505050565b60405161043190610aaa565b604051809103905ff08015801561044a573d5f803e3d5ffd5b505f806101000a81548173ffffffffffffffffffffffffffffffffffffffff021916908373ffffffffffffffffffffffffffffffffffffffff160217905550565b6104c96040518060400160405280601e81526020017f52756e6e696e6720636865636b476574557365725365637572697469657300008152506109cd565b5f8054906101000a900473ffffffffffffffffffffffffffffffffffffffff1673ffffffffffffffffffffffffffffffffffffffff1663646f9004670de0b6b3a76400006040518263ffffffff1660e01b8152600401610529919061123a565b6020604051808303815f875af1158015610545573d5f803e3d5ffd5b505050506040513d601f19601f820116820180604052508101906105699190610bcd565b505f8054906101000a900473ffffffffffffffffffffffffffffffffffffffff1673ffffffffffffffffffffffffffffffffffffffff1663646f9004671bc16d674ec800006040518263ffffffff1660e01b81526004016105ca91906112e9565b6020604051808303815f875af11580156105e6573d5f803e3d5ffd5b505050506040513d601f19601f8201168201806040525081019061060a9190610bcd565b505f805f805f9054906101000a900473ffffffffffffffffffffffffffffffffffffffff1673ffffffffffffffffffffffffffffffffffffffff16638a2355bb6040518163ffffffff1660e01b81526004015f60405180830381865afa158015610676573d5f803e3d5ffd5b505050506040513d5f823e3d601f19601f8201168201806040525081019061069e91906114b7565b92509250925073__$acbfb1c35000d78352310b16a054a6b106$__63abcd7960845184516040518363ffffffff1660e01b81526004016106df9291906115a5565b602060405180830381865af41580156106fa573d5f803e3d5ffd5b505050506040513d601f19601f8201168201806040525081019061071e9190610f6f565b5073__$acbfb1c35000d78352310b16a054a6b106$__63abcd7960835183516040518363ffffffff1660e01b815260040161075a9291906115a5565b602060405180830381865af4158015610775573d5f803e3d5ffd5b505050506040513d601f19601f820116820180604052508101906107999190610f6f565b5073__$acbfb1c35000d78352310b16a054a6b106$__63561015e284515f6040518363ffffffff1660e01b81526004016107d4929190611662565b602060405180830381865af41580156107ef573d5f803e3d5ffd5b505050506040513d601f19601f820116820180604052508101906108139190610f6f565b507fe75028ff36bb6473da3731a30e1aeeae9988e2415dba2c4e91e0357955065fba604051610841906116e6565b60405180910390a1505050565b61088c6040518060400160405280601481526020017f52756e6e696e6720636865636b42616c616e63650000000000000000000000008152506109cd565b5f805f9054906101000a900473ffffffffffffffffffffffffffffffffffffffff1673ffffffffffffffffffffffffffffffffffffffff166312065fe06040518163ffffffff1660e01b8152600401602060405180830381865afa1580156108f6573d5f803e3d5ffd5b505050506040513d601f19601f8201168201806040525081019061091a9190610bcd565b905073__$acbfb1c35000d78352310b16a054a6b106$__63abcd7960825f6040518363ffffffff1660e01b815260040161095592919061174e565b602060405180830381865af4158015610970573d5f803e3d5ffd5b505050506040513d601f19601f820116820180604052508101906109949190610f6f565b507fe75028ff36bb6473da3731a30e1aeeae9988e2415dba2c4e91e0357955065fba6040516109c2906117d2565b60405180910390a150565b610a63816040516024016109e19190611828565b6040516020818303038152906040527f41304fac000000000000000000000000000000000000000000000000000000007bffffffffffffffffffffffffffffffffffffffffffffffffffffffff19166020820180517bffffffffffffffffffffffffffffffffffffffffffffffffffffffff8381831617835250505050610a66565b50565b610a7d81610a75610a80610a9f565b63ffffffff16565b50565b5f6a636f6e736f6c652e6c6f6790505f80835160208501845afa505050565b610ab7819050919050565b61261f8061187683390190565b610abf611848565b565b5f82825260208201905092915050565b7f54657374205365637572697479000000000000000000000000000000000000005f82015250565b5f610b05600d83610ac1565b9150610b1082610ad1565b602082019050919050565b5f819050919050565b5f819050919050565b5f819050919050565b5f610b50610b4b610b4684610b1b565b610b2d565b610b24565b9050919050565b610b6081610b36565b82525050565b5f6040820190508181035f830152610b7d81610af9565b9050610b8c6020830184610b57565b92915050565b5f604051905090565b5f80fd5b5f80fd5b610bac81610b24565b8114610bb6575f80fd5b50565b5f81519050610bc781610ba3565b92915050565b5f60208284031215610be257610be1610b9b565b5b5f610bef84828501610bb9565b91505092915050565b610c0181610b24565b82525050565b5f602082019050610c1a5f830184610bf8565b92915050565b5f80fd5b5f80fd5b5f601f19601f8301169050919050565b7f4e487b71000000000000000000000000000000000000000000000000000000005f52604160045260245ffd5b610c6e82610c28565b810181811067ffffffffffffffff82111715610c8d57610c8c610c38565b5b80604052505050565b5f610c9f610b92565b9050610cab8282610c65565b919050565b5f67ffffffffffffffff821115610cca57610cc9610c38565b5b610cd382610c28565b9050602081019050919050565b8281835e5f83830152505050565b5f610d00610cfb84610cb0565b610c96565b905082815260208101848484011115610d1c57610d1b610c24565b5b610d27848285610ce0565b509392505050565b5f82601f830112610d4357610d42610c20565b5b8151610d53848260208601610cee565b91505092915050565b5f73ffffffffffffffffffffffffffffffffffffffff82169050919050565b5f610d8582610d5c565b9050919050565b610d9581610d7b565b8114610d9f575f80fd5b50565b5f81519050610db081610d8c565b92915050565b5f8115159050919050565b610dca81610db6565b8114610dd4575f80fd5b50565b5f81519050610de581610dc1565b92915050565b5f805f8060808587031215610e0357610e02610b9b565b5b5f85015167ffffffffffffffff811115610e2057610e1f610b9f565b5b610e2c87828801610d2f565b9450506020610e3d87828801610bb9565b9350506040610e4e87828801610da2565b9250506060610e5f87828801610dd7565b91505092959194509250565b5f81519050919050565b5f82825260208201905092915050565b5f610e8f82610e6b565b610e998185610e75565b9350610ea9818560208601610ce0565b610eb281610c28565b840191505092915050565b5f610ec9600d83610e75565b9150610ed482610ad1565b602082019050919050565b7f5365637572697479206e616d652073686f756c64206d617463680000000000005f82015250565b5f610f13601a83610e75565b9150610f1e82610edf565b602082019050919050565b5f6060820190508181035f830152610f418184610e85565b90508181036020830152610f5481610ebd565b90508181036040830152610f6781610f07565b905092915050565b5f60208284031215610f8457610f83610b9b565b5b5f610f9184828501610dd7565b91505092915050565b610fa381610b24565b82525050565b610fb281610b36565b82525050565b7f53656375726974792070726963652073686f756c64206d6174636800000000005f82015250565b5f610fec601b83610e75565b9150610ff782610fb8565b602082019050919050565b5f6060820190506110155f830185610f9a565b6110226020830184610fa9565b818103604083015261103381610fe0565b90509392505050565b61104581610d7b565b82525050565b7f5365637572697479206f776e65722073686f756c64206265207465737420636f5f8201527f6e74726163740000000000000000000000000000000000000000000000000000602082015250565b5f6110a5602683610e75565b91506110b08261104b565b604082019050919050565b5f6060820190506110ce5f83018561103c565b6110db602083018461103c565b81810360408301526110ec81611099565b90509392505050565b6110fe81610db6565b82525050565b7f53656375726974792073686f756c64206265206c6973746564000000000000005f82015250565b5f611138601983610e75565b915061114382611104565b602082019050919050565b5f6060820190506111615f8301856110f5565b61116e60208301846110f5565b818103604083015261117f8161112c565b90509392505050565b7f5365637572697479206c697374696e67207465737420706173736564000000005f82015250565b5f6111bc601c83610ac1565b91506111c782611188565b602082019050919050565b5f6020820190508181035f8301526111e9816111b0565b9050919050565b7f53656375726974792031000000000000000000000000000000000000000000005f82015250565b5f611224600a83610ac1565b915061122f826111f0565b602082019050919050565b5f6040820190508181035f83015261125181611218565b90506112606020830184610b57565b92915050565b7f53656375726974792032000000000000000000000000000000000000000000005f82015250565b5f61129a600a83610ac1565b91506112a582611266565b602082019050919050565b5f819050919050565b5f6112d36112ce6112c9846112b0565b610b2d565b610b24565b9050919050565b6112e3816112b9565b82525050565b5f6040820190508181035f8301526113008161128e565b905061130f60208301846112da565b92915050565b5f67ffffffffffffffff82111561132f5761132e610c38565b5b602082029050602081019050919050565b5f80fd5b5f61135661135184611315565b610c96565b9050808382526020820190506020840283018581111561137957611378611340565b5b835b818110156113a2578061138e8882610bb9565b84526020840193505060208101905061137b565b5050509392505050565b5f82601f8301126113c0576113bf610c20565b5b81516113d0848260208601611344565b91505092915050565b5f67ffffffffffffffff8211156113f3576113f2610c38565b5b602082029050602081019050919050565b5f611416611411846113d9565b610c96565b9050808382526020820190506020840283018581111561143957611438611340565b5b835b8181101561148057805167ffffffffffffffff81111561145e5761145d610c20565b5b80860161146b8982610d2f565b8552602085019450505060208101905061143b565b5050509392505050565b5f82601f83011261149e5761149d610c20565b5b81516114ae848260208601611404565b91505092915050565b5f805f606084860312156114ce576114cd610b9b565b5b5f84015167ffffffffffffffff8111156114eb576114ea610b9f565b5b6114f7868287016113ac565b935050602084015167ffffffffffffffff81111561151857611517610b9f565b5b6115248682870161148a565b925050604084015167ffffffffffffffff81111561154557611544610b9f565b5b611551868287016113ac565b9150509250925092565b7f417272617973206c656e6774682073686f756c64206d617463680000000000005f82015250565b5f61158f601a83610e75565b915061159a8261155b565b602082019050919050565b5f6060820190506115b85f830185610f9a565b6115c56020830184610f9a565b81810360408301526115d681611583565b90509392505050565b5f819050919050565b5f6116026115fd6115f8846115df565b610b2d565b610b24565b9050919050565b611612816115e8565b82525050565b7f53686f756c6420686176652073656375726974696573000000000000000000005f82015250565b5f61164c601683610e75565b915061165782611618565b602082019050919050565b5f6060820190506116755f830185610f9a565b6116826020830184611609565b818103604083015261169381611640565b90509392505050565b7f47657420757365722073656375726974696573207465737420706173736564005f82015250565b5f6116d0601f83610ac1565b91506116db8261169c565b602082019050919050565b5f6020820190508181035f8301526116fd816116c4565b9050919050565b7f496e697469616c2062616c616e63652073686f756c64206265203000000000005f82015250565b5f611738601b83610e75565b915061174382611704565b602082019050919050565b5f6060820190506117615f830185610f9a565b61176e6020830184611609565b818103604083015261177f8161172c565b90509392505050565b7f42616c616e636520636865636b207465737420706173736564000000000000005f82015250565b5f6117bc601983610ac1565b91506117c782611788565b602082019050919050565b5f6020820190508181035f8301526117e9816117b0565b9050919050565b5f6117fa82610e6b565b6118048185610ac1565b9350611814818560208601610ce0565b61181d81610c28565b840191505092915050565b5f6020820190508181035f83015261184081846117f0565b905092915050565b7f4e487b71000000000000000000000000000000000000000000000000000000005f52605160045260245ffdfe6080604052600160045560016005553480156018575f80fd5b506125f9806100265f395ff3fe608060405260043610610089575f3560e01c80638a2355bb116100585780638a2355bb146102175780638ca305a0146102435780639e15438a1461026b578063c6f6298c14610293578063fcd68fb8146102d257610131565b806312065fe014610135578063204e73a01461015f5780633bf13b441461019b578063646f9004146101db57610131565b36610131573460035f3373ffffffffffffffffffffffffffffffffffffffff1673ffffffffffffffffffffffffffffffffffffffff1681526020019081526020015f205f8282546100da91906116c1565b925050819055503373ffffffffffffffffffffffffffffffffffffffff167fe96dd7a15a3974e8e7d5eb80de2cb6fd69907a1ee089170cd976cfffaedfa8ac346040516101279190611703565b60405180910390a2005b5f80fd5b348015610140575f80fd5b506101496102ee565b6040516101569190611703565b60405180910390f35b34801561016a575f80fd5b5061018560048036038101906101809190611757565b610332565b6040516101929190611703565b60405180910390f35b3480156101a6575f80fd5b506101c160048036038101906101bc9190611795565b6106b7565b6040516101d2959493929190611819565b60405180910390f35b3480156101e6575f80fd5b5061020160048036038101906101fc91906119a6565b610734565b60405161020e9190611703565b60405180910390f35b348015610222575f80fd5b5061022b610908565b60405161023a93929190611bd2565b60405180910390f35b34801561024e575f80fd5b5061026960048036038101906102649190611795565b610bec565b005b348015610276575f80fd5b50610291600480360381019061028c9190611795565b610d2f565b005b34801561029e575f80fd5b506102b960048036038101906102b49190611795565b6111cf565b6040516102c99493929190611c64565b60405180910390f35b6102ec60048036038101906102e79190611795565b6112ac565b005b5f60035f3373ffffffffffffffffffffffffffffffffffffffff1673ffffffffffffffffffffffffffffffffffffffff1681526020019081526020015f2054905090565b5f805f808581526020019081526020015f2090505f805f8581526020019081526020015f2090508160020160149054906101000a900460ff16801561038557508060020160149054906101000a900460ff165b6103c4576040517f08c379a00000000000000000000000000000000000000000000000000000000081526004016103bb90611cf8565b60405180910390fd5b3373ffffffffffffffffffffffffffffffffffffffff16826002015f9054906101000a900473ffffffffffffffffffffffffffffffffffffffff1673ffffffffffffffffffffffffffffffffffffffff1614610455576040517f08c379a000000000000000000000000000000000000000000000000000000000815260040161044c90611d86565b60405180910390fd5b3373ffffffffffffffffffffffffffffffffffffffff16816002015f9054906101000a900473ffffffffffffffffffffffffffffffffffffffff1673ffffffffffffffffffffffffffffffffffffffff16036104e6576040517f08c379a00000000000000000000000000000000000000000000000000000000081526004016104dd90611dee565b60405180910390fd5b5f60055f8154809291906104f990611e0c565b9190505590506040518060a001604052808781526020018681526020013373ffffffffffffffffffffffffffffffffffffffff168152602001836002015f9054906101000a900473ffffffffffffffffffffffffffffffffffffffff1673ffffffffffffffffffffffffffffffffffffffff1681526020016001151581525060015f8381526020019081526020015f205f820151815f0155602082015181600101556040820151816002015f6101000a81548173ffffffffffffffffffffffffffffffffffffffff021916908373ffffffffffffffffffffffffffffffffffffffff1602179055506060820151816003015f6101000a81548173ffffffffffffffffffffffffffffffffffffffff021916908373ffffffffffffffffffffffffffffffffffffffff16021790555060808201518160030160146101000a81548160ff021916908315150217905550905050807f6edfdc9b701a7247ac2f7823b864e96becb1b22964c1eb1c1f9af42f4ce10f5d878733866002015f9054906101000a900473ffffffffffffffffffffffffffffffffffffffff166040516106a39493929190611e53565b60405180910390a280935050505092915050565b6001602052805f5260405f205f91509050805f015490806001015490806002015f9054906101000a900473ffffffffffffffffffffffffffffffffffffffff1690806003015f9054906101000a900473ffffffffffffffffffffffffffffffffffffffff16908060030160149054906101000a900460ff16905085565b5f808211610777576040517f08c379a000000000000000000000000000000000000000000000000000000000815260040161076e90611ee0565b60405180910390fd5b5f60045f81548092919061078a90611e0c565b91905055905060405180608001604052808581526020018481526020013373ffffffffffffffffffffffffffffffffffffffff168152602001600115158152505f808381526020019081526020015f205f820151815f0190816107ed91906120f8565b50602082015181600101556040820151816002015f6101000a81548173ffffffffffffffffffffffffffffffffffffffff021916908373ffffffffffffffffffffffffffffffffffffffff16021790555060608201518160020160146101000a81548160ff02191690831515021790555090505060025f3373ffffffffffffffffffffffffffffffffffffffff1673ffffffffffffffffffffffffffffffffffffffff1681526020019081526020015f2081908060018154018082558091505060019003905f5260205f20015f9091909190915055807fceb0bf651dfcd2820b323207631d6ba7c71c145c326d630f7d9ca846aeaf25b08585336040516108f6939291906121c7565b60405180910390a28091505092915050565b60608060605f60025f3373ffffffffffffffffffffffffffffffffffffffff1673ffffffffffffffffffffffffffffffffffffffff1681526020019081526020015f2090505f818054905090508067ffffffffffffffff81111561096f5761096e611882565b5b6040519080825280602002602001820160405280156109a257816020015b606081526020019060019003908161098d5790505b5093508067ffffffffffffffff8111156109bf576109be611882565b5b6040519080825280602002602001820160405280156109ed5781602001602082028036833780820191505090505b5092508067ffffffffffffffff811115610a0a57610a09611882565b5b604051908082528060200260200182016040528015610a385781602001602082028036833780820191505090505b5094505f5b81811015610be4575f838281548110610a5957610a58612203565b5b905f5260205f20015490505f805f8381526020019081526020015f2090503373ffffffffffffffffffffffffffffffffffffffff16816002015f9054906101000a900473ffffffffffffffffffffffffffffffffffffffff1673ffffffffffffffffffffffffffffffffffffffff16148015610ae357508060020160149054906101000a900460ff165b15610bd55781888481518110610afc57610afb612203565b5b602002602001018181525050805f018054610b1690611f2b565b80601f0160208091040260200160405190810160405280929190818152602001828054610b4290611f2b565b8015610b8d5780601f10610b6457610100808354040283529160200191610b8d565b820191905f5260205f20905b815481529060010190602001808311610b7057829003601f168201915b5050505050878481518110610ba557610ba4612203565b5b60200260200101819052508060010154868481518110610bc857610bc7612203565b5b6020026020010181815250505b50508080600101915050610a3d565b505050909192565b5f60015f8381526020019081526020015f2090508060030160149054906101000a900460ff16610c51576040517f08c379a0000000000000000000000000000000000000000000000000000000008152600401610c489061227a565b60405180910390fd5b806003015f9054906101000a900473ffffffffffffffffffffffffffffffffffffffff1673ffffffffffffffffffffffffffffffffffffffff163373ffffffffffffffffffffffffffffffffffffffff1614610ce2576040517f08c379a0000000000000000000000000000000000000000000000000000000008152600401610cd9906122e2565b60405180910390fd5b5f8160030160146101000a81548160ff021916908315150217905550817fa1c9c2960de4cf480352c598967a5bc05fdf3ebff2da8172b62187afa5dc034360405160405180910390a25050565b5f60015f8381526020019081526020015f2090505f805f835f015481526020019081526020015f2090505f805f846001015481526020019081526020015f2090508260030160149054906101000a900460ff16610dc1576040517f08c379a0000000000000000000000000000000000000000000000000000000008152600401610db89061227a565b60405180910390fd5b826003015f9054906101000a900473ffffffffffffffffffffffffffffffffffffffff1673ffffffffffffffffffffffffffffffffffffffff163373ffffffffffffffffffffffffffffffffffffffff1614610e52576040517f08c379a0000000000000000000000000000000000000000000000000000000008152600401610e499061234a565b60405180910390fd5b3373ffffffffffffffffffffffffffffffffffffffff16816002015f9054906101000a900473ffffffffffffffffffffffffffffffffffffffff1673ffffffffffffffffffffffffffffffffffffffff1614610ee3576040517f08c379a0000000000000000000000000000000000000000000000000000000008152600401610eda906123d8565b60405180910390fd5b610f13836002015f9054906101000a900473ffffffffffffffffffffffffffffffffffffffff16845f0154611594565b610f44836003015f9054906101000a900473ffffffffffffffffffffffffffffffffffffffff168460010154611594565b5f826002015f9054906101000a900473ffffffffffffffffffffffffffffffffffffffff169050816002015f9054906101000a900473ffffffffffffffffffffffffffffffffffffffff16836002015f6101000a81548173ffffffffffffffffffffffffffffffffffffffff021916908373ffffffffffffffffffffffffffffffffffffffff16021790555080826002015f6101000a81548173ffffffffffffffffffffffffffffffffffffffff021916908373ffffffffffffffffffffffffffffffffffffffff16021790555060025f846002015f9054906101000a900473ffffffffffffffffffffffffffffffffffffffff1673ffffffffffffffffffffffffffffffffffffffff1673ffffffffffffffffffffffffffffffffffffffff1681526020019081526020015f20845f0154908060018154018082558091505060019003905f5260205f20015f909190919091505560025f836002015f9054906101000a900473ffffffffffffffffffffffffffffffffffffffff1673ffffffffffffffffffffffffffffffffffffffff1673ffffffffffffffffffffffffffffffffffffffff1681526020019081526020015f208460010154908060018154018082558091505060019003905f5260205f20015f90919091909150555f8460030160146101000a81548160ff021916908315150217905550847f4cce1d3129dd8e1d74219f4329d186f2910a4806ab09294065620e13e099ba7f855f01548660010154866002015f9054906101000a900473ffffffffffffffffffffffffffffffffffffffff16866002015f9054906101000a900473ffffffffffffffffffffffffffffffffffffffff166040516111c09493929190611e53565b60405180910390a25050505050565b5f602052805f5260405f205f91509050805f0180546111ed90611f2b565b80601f016020809104026020016040519081016040528092919081815260200182805461121990611f2b565b80156112645780601f1061123b57610100808354040283529160200191611264565b820191905f5260205f20905b81548152906001019060200180831161124757829003601f168201915b505050505090806001015490806002015f9054906101000a900473ffffffffffffffffffffffffffffffffffffffff16908060020160149054906101000a900460ff16905084565b5f805f8381526020019081526020015f2090508060020160149054906101000a900460ff16611310576040517f08c379a000000000000000000000000000000000000000000000000000000000815260040161130790612440565b60405180910390fd5b8060010154341015611357576040517f08c379a000000000000000000000000000000000000000000000000000000000815260040161134e906124a8565b60405180910390fd5b3373ffffffffffffffffffffffffffffffffffffffff16816002015f9054906101000a900473ffffffffffffffffffffffffffffffffffffffff1673ffffffffffffffffffffffffffffffffffffffff16036113e8576040517f08c379a00000000000000000000000000000000000000000000000000000000081526004016113df90612510565b60405180910390fd5b5f816002015f9054906101000a900473ffffffffffffffffffffffffffffffffffffffff1690506114198184611594565b60025f3373ffffffffffffffffffffffffffffffffffffffff1673ffffffffffffffffffffffffffffffffffffffff1681526020019081526020015f2083908060018154018082558091505060019003905f5260205f20015f909190919091505533826002015f6101000a81548173ffffffffffffffffffffffffffffffffffffffff021916908373ffffffffffffffffffffffffffffffffffffffff1602179055503460035f8373ffffffffffffffffffffffffffffffffffffffff1673ffffffffffffffffffffffffffffffffffffffff1681526020019081526020015f205f82825461150891906116c1565b925050819055508073ffffffffffffffffffffffffffffffffffffffff166108fc3490811502906040515f60405180830381858888f19350505050158015611552573d5f803e3d5ffd5b50827f0fc401afd9f3c929a6eda9e334bf948aa13a3a1de1a30bbe5985780a7bd5040f8233346040516115879392919061252e565b60405180910390a2505050565b5f60025f8473ffffffffffffffffffffffffffffffffffffffff1673ffffffffffffffffffffffffffffffffffffffff1681526020019081526020015f2090505f5b818054905081101561168557828282815481106115f6576115f5612203565b5b905f5260205f200154036116785781600183805490506116169190612563565b8154811061162757611626612203565b5b905f5260205f20015482828154811061164357611642612203565b5b905f5260205f200181905550818054806116605761165f612596565b5b600190038181905f5260205f20015f90559055611685565b80806001019150506115d6565b50505050565b5f819050919050565b7f4e487b71000000000000000000000000000000000000000000000000000000005f52601160045260245ffd5b5f6116cb8261168b565b91506116d68361168b565b92508282019050808211156116ee576116ed611694565b5b92915050565b6116fd8161168b565b82525050565b5f6020820190506117165f8301846116f4565b92915050565b5f604051905090565b5f80fd5b5f80fd5b6117368161168b565b8114611740575f80fd5b50565b5f813590506117518161172d565b92915050565b5f806040838503121561176d5761176c611725565b5b5f61177a85828601611743565b925050602061178b85828601611743565b9150509250929050565b5f602082840312156117aa576117a9611725565b5b5f6117b784828501611743565b91505092915050565b5f73ffffffffffffffffffffffffffffffffffffffff82169050919050565b5f6117e9826117c0565b9050919050565b6117f9816117df565b82525050565b5f8115159050919050565b611813816117ff565b82525050565b5f60a08201905061182c5f8301886116f4565b61183960208301876116f4565b61184660408301866117f0565b61185360608301856117f0565b611860608083018461180a565b9695505050505050565b5f80fd5b5f80fd5b5f601f19601f8301169050919050565b7f4e487b71000000000000000000000000000000000000000000000000000000005f52604160045260245ffd5b6118b882611872565b810181811067ffffffffffffffff821117156118d7576118d6611882565b5b80604052505050565b5f6118e961171c565b90506118f582826118af565b919050565b5f67ffffffffffffffff82111561191457611913611882565b5b61191d82611872565b9050602081019050919050565b828183375f83830152505050565b5f61194a611945846118fa565b6118e0565b9050828152602081018484840111156119665761196561186e565b5b61197184828561192a565b509392505050565b5f82601f83011261198d5761198c61186a565b5b813561199d848260208601611938565b91505092915050565b5f80604083850312156119bc576119bb611725565b5b5f83013567ffffffffffffffff8111156119d9576119d8611729565b5b6119e585828601611979565b92505060206119f685828601611743565b9150509250929050565b5f81519050919050565b5f82825260208201905092915050565b5f819050602082019050919050565b611a328161168b565b82525050565b5f611a438383611a29565b60208301905092915050565b5f602082019050919050565b5f611a6582611a00565b611a6f8185611a0a565b9350611a7a83611a1a565b805f5b83811015611aaa578151611a918882611a38565b9750611a9c83611a4f565b925050600181019050611a7d565b5085935050505092915050565b5f81519050919050565b5f82825260208201905092915050565b5f819050602082019050919050565b5f81519050919050565b5f82825260208201905092915050565b8281835e5f83830152505050565b5f611b1282611ae0565b611b1c8185611aea565b9350611b2c818560208601611afa565b611b3581611872565b840191505092915050565b5f611b4b8383611b08565b905092915050565b5f602082019050919050565b5f611b6982611ab7565b611b738185611ac1565b935083602082028501611b8585611ad1565b805f5b85811015611bc05784840389528151611ba18582611b40565b9450611bac83611b53565b925060208a01995050600181019050611b88565b50829750879550505050505092915050565b5f6060820190508181035f830152611bea8186611a5b565b90508181036020830152611bfe8185611b5f565b90508181036040830152611c128184611a5b565b9050949350505050565b5f82825260208201905092915050565b5f611c3682611ae0565b611c408185611c1c565b9350611c50818560208601611afa565b611c5981611872565b840191505092915050565b5f6080820190508181035f830152611c7c8187611c2c565b9050611c8b60208301866116f4565b611c9860408301856117f0565b611ca5606083018461180a565b95945050505050565b7f426f74682073656375726974696573206d757374206265206c697374656400005f82015250565b5f611ce2601e83611c1c565b9150611ced82611cae565b602082019050919050565b5f6020820190508181035f830152611d0f81611cd6565b9050919050565b7f596f75206d757374206f776e20746865206f66666572656420736563757269745f8201527f7900000000000000000000000000000000000000000000000000000000000000602082015250565b5f611d70602183611c1c565b9150611d7b82611d16565b604082019050919050565b5f6020820190508181035f830152611d9d81611d64565b9050919050565b7f43616e6e6f742065786368616e6765207769746820796f757273656c660000005f82015250565b5f611dd8601d83611c1c565b9150611de382611da4565b602082019050919050565b5f6020820190508181035f830152611e0581611dcc565b9050919050565b5f611e168261168b565b91507fffffffffffffffffffffffffffffffffffffffffffffffffffffffffffffffff8203611e4857611e47611694565b5b600182019050919050565b5f608082019050611e665f8301876116f4565b611e7360208301866116f4565b611e8060408301856117f0565b611e8d60608301846117f0565b95945050505050565b7f5072696365206d7573742062652067726561746572207468616e2030000000005f82015250565b5f611eca601c83611c1c565b9150611ed582611e96565b602082019050919050565b5f6020820190508181035f830152611ef781611ebe565b9050919050565b7f4e487b71000000000000000000000000000000000000000000000000000000005f52602260045260245ffd5b5f6002820490506001821680611f4257607f821691505b602082108103611f5557611f54611efe565b5b50919050565b5f819050815f5260205f209050919050565b5f6020601f8301049050919050565b5f82821b905092915050565b5f60088302611fb77fffffffffffffffffffffffffffffffffffffffffffffffffffffffffffffffff82611f7c565b611fc18683611f7c565b95508019841693508086168417925050509392505050565b5f819050919050565b5f611ffc611ff7611ff28461168b565b611fd9565b61168b565b9050919050565b5f819050919050565b61201583611fe2565b61202961202182612003565b848454611f88565b825550505050565b5f90565b61203d612031565b61204881848461200c565b505050565b5b8181101561206b576120605f82612035565b60018101905061204e565b5050565b601f8211156120b05761208181611f5b565b61208a84611f6d565b81016020851015612099578190505b6120ad6120a585611f6d565b83018261204d565b50505b505050565b5f82821c905092915050565b5f6120d05f19846008026120b5565b1980831691505092915050565b5f6120e883836120c1565b9150826002028217905092915050565b61210182611ae0565b67ffffffffffffffff81111561211a57612119611882565b5b6121248254611f2b565b61212f82828561206f565b5f60209050601f831160018114612160575f841561214e578287015190505b61215885826120dd565b8655506121bf565b601f19841661216e86611f5b565b5f5b8281101561219557848901518255600182019150602085019450602081019050612170565b868310156121b257848901516121ae601f8916826120c1565b8355505b6001600288020188555050505b505050505050565b5f6060820190508181035f8301526121df8186611c2c565b90506121ee60208301856116f4565b6121fb60408301846117f0565b949350505050565b7f4e487b71000000000000000000000000000000000000000000000000000000005f52603260045260245ffd5b7f45786368616e67652072657175657374206973206e6f742070656e64696e67005f82015250565b5f612264601f83611c1c565b915061226f82612230565b602082019050919050565b5f6020820190508181035f83015261229181612258565b9050919050565b7f4f6e6c792072656365697665722063616e2072656a65637400000000000000005f82015250565b5f6122cc601883611c1c565b91506122d782612298565b602082019050919050565b5f6020820190508181035f8301526122f9816122c0565b9050919050565b7f4f6e6c792072656365697665722063616e20617070726f7665000000000000005f82015250565b5f612334601983611c1c565b915061233f82612300565b602082019050919050565b5f6020820190508181035f83015261236181612328565b9050919050565b7f596f75206d757374206f776e20746865207265717565737465642073656375725f8201527f6974790000000000000000000000000000000000000000000000000000000000602082015250565b5f6123c2602383611c1c565b91506123cd82612368565b604082019050919050565b5f6020820190508181035f8301526123ef816123b6565b9050919050565b7f5365637572697479206973206e6f74206c6973746564000000000000000000005f82015250565b5f61242a601683611c1c565b9150612435826123f6565b602082019050919050565b5f6020820190508181035f8301526124578161241e565b9050919050565b7f496e73756666696369656e74207061796d656e740000000000000000000000005f82015250565b5f612492601483611c1c565b915061249d8261245e565b602082019050919050565b5f6020820190508181035f8301526124bf81612486565b9050919050565b7f43616e6e6f742062757920796f7572206f776e207365637572697479000000005f82015250565b5f6124fa601c83611c1c565b9150612505826124c6565b602082019050919050565b5f6020820190508181035f830152612527816124ee565b9050919050565b5f6060820190506125415f8301866117f0565b61254e60208301856117f0565b61255b60408301846116f4565b949350505050565b5f61256d8261168b565b91506125788361168b565b92508282039050818111156125905761258f611694565b5b92915050565b7f4e487b71000000000000000000000000000000000000000000000000000000005f52603160045260245ffdfea2646970667358221220b3794f37be427c6a9fce31a8631cc0609b3db73df334f3e63424287572ce17e264736f6c634300081a0033a26469706673582212207bc325fc59b680d38250352c8d918bd3a45d18261d43ab9988a32474a54e887064736f6c634300081a0033",
			"opcodes": "PUSH1 0x80 PUSH1 0x40 MSTORE CALLVALUE DUP1 ISZERO PUSH1 0xE JUMPI PUSH0 DUP1 REVERT JUMPDEST POP PUSH2 0x3ECA DUP1 PUSH2 0x1C PUSH0 CODECOPY PUSH0 RETURN INVALID PUSH1 0x80 PUSH1 0x40 MSTORE CALLVALUE DUP1 ISZERO PUSH2 0xF JUMPI PUSH0 DUP1 REVERT JUMPDEST POP PUSH1 0x4 CALLDATASIZE LT PUSH2 0x4A JUMPI PUSH0 CALLDATALOAD PUSH1 0xE0 SHR DUP1 PUSH4 0x5FD1AFD1 EQ PUSH2 0x4E JUMPI DUP1 PUSH4 0x7FEA0D4B EQ PUSH2 0x58 JUMPI DUP1 PUSH4 0x8513B994 EQ PUSH2 0x62 JUMPI DUP1 PUSH4 0xC71DACCB EQ PUSH2 0x6C JUMPI JUMPDEST PUSH0 DUP1 REVERT JUMPDEST PUSH2 0x56 PUSH2 0x76 JUMP JUMPDEST STOP JUMPDEST PUSH2 0x60 PUSH2 0x425 JUMP JUMPDEST STOP JUMPDEST PUSH2 0x6A PUSH2 0x48B JUMP JUMPDEST STOP JUMPDEST PUSH2 0x74 PUSH2 0x84E JUMP JUMPDEST STOP JUMPDEST PUSH2 0xB4 PUSH1 0x40 MLOAD DUP1 PUSH1 0x40 ADD PUSH1 0x40 MSTORE DUP1 PUSH1 0x1C DUP2 MSTORE PUSH1 0x20 ADD PUSH32 0x52756E6E696E6720636865636B53656375726974794C697374696E6700000000 DUP2 MSTORE POP PUSH2 0x9CD JUMP JUMPDEST PUSH0 DUP1 PUSH0 SWAP1 SLOAD SWAP1 PUSH2 0x100 EXP SWAP1 DIV PUSH20 0xFFFFFFFFFFFFFFFFFFFFFFFFFFFFFFFFFFFFFFFF AND PUSH20 0xFFFFFFFFFFFFFFFFFFFFFFFFFFFFFFFFFFFFFFFF AND PUSH4 0x646F9004 PUSH8 0xDE0B6B3A7640000 PUSH1 0x40 MLOAD DUP3 PUSH4 0xFFFFFFFF AND PUSH1 0xE0 SHL DUP2 MSTORE PUSH1 0x4 ADD PUSH2 0x116 SWAP2 SWAP1 PUSH2 0xB66 JUMP JUMPDEST PUSH1 0x20 PUSH1 0x40 MLOAD DUP1 DUP4 SUB DUP2 PUSH0 DUP8 GAS CALL ISZERO DUP1 ISZERO PUSH2 0x132 JUMPI RETURNDATASIZE PUSH0 DUP1 RETURNDATACOPY RETURNDATASIZE PUSH0 REVERT JUMPDEST POP POP POP POP PUSH1 0x40 MLOAD RETURNDATASIZE PUSH1 0x1F NOT PUSH1 0x1F DUP3 ADD AND DUP3 ADD DUP1 PUSH1 0x40 MSTORE POP DUP2 ADD SWAP1 PUSH2 0x156 SWAP2 SWAP1 PUSH2 0xBCD JUMP JUMPDEST SWAP1 POP PUSH0 DUP1 PUSH0 DUP1 PUSH0 DUP1 SLOAD SWAP1 PUSH2 0x100 EXP SWAP1 DIV PUSH20 0xFFFFFFFFFFFFFFFFFFFFFFFFFFFFFFFFFFFFFFFF AND PUSH20 0xFFFFFFFFFFFFFFFFFFFFFFFFFFFFFFFFFFFFFFFF AND PUSH4 0xC6F6298C DUP7 PUSH1 0x40 MLOAD DUP3 PUSH4 0xFFFFFFFF AND PUSH1 0xE0 SHL DUP2 MSTORE PUSH1 0x4 ADD PUSH2 0x1B4 SWAP2 SWAP1 PUSH2 0xC07 JUMP JUMPDEST PUSH0 PUSH1 0x40 MLOAD DUP1 DUP4 SUB DUP2 DUP7 GAS STATICCALL ISZERO DUP1 ISZERO PUSH2 0x1CE JUMPI RETURNDATASIZE PUSH0 DUP1 RETURNDATACOPY RETURNDATASIZE PUSH0 REVERT JUMPDEST POP POP POP POP PUSH1 0x40 MLOAD RETURNDATASIZE PUSH0 DUP3 RETURNDATACOPY RETURNDATASIZE PUSH1 0x1F NOT PUSH1 0x1F DUP3 ADD AND DUP3 ADD DUP1 PUSH1 0x40 MSTORE POP DUP2 ADD SWAP1 PUSH2 0x1F6 SWAP2 SWAP1 PUSH2 0xDEB JUMP JUMPDEST SWAP4 POP SWAP4 POP SWAP4 POP SWAP4 POP PUSH20 0x0 PUSH4 0xE8C2CB16 DUP6 PUSH1 0x40 MLOAD DUP3 PUSH4 0xFFFFFFFF AND PUSH1 0xE0 SHL DUP2 MSTORE PUSH1 0x4 ADD PUSH2 0x235 SWAP2 SWAP1 PUSH2 0xF29 JUMP JUMPDEST PUSH1 0x20 PUSH1 0x40 MLOAD DUP1 DUP4 SUB DUP2 DUP7 GAS DELEGATECALL ISZERO DUP1 ISZERO PUSH2 0x250 JUMPI RETURNDATASIZE PUSH0 DUP1 RETURNDATACOPY RETURNDATASIZE PUSH0 REVERT JUMPDEST POP POP POP POP PUSH1 0x40 MLOAD RETURNDATASIZE PUSH1 0x1F NOT PUSH1 0x1F DUP3 ADD AND DUP3 ADD DUP1 PUSH1 0x40 MSTORE POP DUP2 ADD SWAP1 PUSH2 0x274 SWAP2 SWAP1 PUSH2 0xF6F JUMP JUMPDEST POP PUSH20 0x0 PUSH4 0xABCD7960 DUP5 PUSH8 0xDE0B6B3A7640000 PUSH1 0x40 MLOAD DUP4 PUSH4 0xFFFFFFFF AND PUSH1 0xE0 SHL DUP2 MSTORE PUSH1 0x4 ADD PUSH2 0x2B6 SWAP3 SWAP2 SWAP1 PUSH2 0x1002 JUMP JUMPDEST PUSH1 0x20 PUSH1 0x40 MLOAD DUP1 DUP4 SUB DUP2 DUP7 GAS DELEGATECALL ISZERO DUP1 ISZERO PUSH2 0x2D1 JUMPI RETURNDATASIZE PUSH0 DUP1 RETURNDATACOPY RETURNDATASIZE PUSH0 REVERT JUMPDEST POP POP POP POP PUSH1 0x40 MLOAD RETURNDATASIZE PUSH1 0x1F NOT PUSH1 0x1F DUP3 ADD AND DUP3 ADD DUP1 PUSH1 0x40 MSTORE POP DUP2 ADD SWAP1 PUSH2 0x2F5 SWAP2 SWAP1 PUSH2 0xF6F JUMP JUMPDEST POP PUSH20 0x0 PUSH4 0xBFBA5DD6 DUP4 ADDRESS PUSH1 0x40 MLOAD DUP4 PUSH4 0xFFFFFFFF AND PUSH1 0xE0 SHL DUP2 MSTORE PUSH1 0x4 ADD PUSH2 0x32F SWAP3 SWAP2 SWAP1 PUSH2 0x10BB JUMP JUMPDEST PUSH1 0x20 PUSH1 0x40 MLOAD DUP1 DUP4 SUB DUP2 DUP7 GAS DELEGATECALL ISZERO DUP1 ISZERO PUSH2 0x34A JUMPI RETURNDATASIZE PUSH0 DUP1 RETURNDATACOPY RETURNDATASIZE PUSH0 REVERT JUMPDEST POP POP POP POP PUSH1 0x40 MLOAD RETURNDATASIZE PUSH1 0x1F NOT PUSH1 0x1F DUP3 ADD AND DUP3 ADD DUP1 PUSH1 0x40 MSTORE POP DUP2 ADD SWAP1 PUSH2 0x36E SWAP2 SWAP1 PUSH2 0xF6F JUMP JUMPDEST POP PUSH20 0x0 PUSH4 0x767392B3 DUP3 PUSH1 0x1 PUSH1 0x40 MLOAD DUP4 PUSH4 0xFFFFFFFF AND PUSH1 0xE0 SHL DUP2 MSTORE PUSH1 0x4 ADD PUSH2 0x3A9 SWAP3 SWAP2 SWAP1 PUSH2 0x114E JUMP JUMPDEST PUSH1 0x20 PUSH1 0x40 MLOAD DUP1 DUP4 SUB DUP2 DUP7 GAS DELEGATECALL ISZERO DUP1 ISZERO PUSH2 0x3C4 JUMPI RETURNDATASIZE PUSH0 DUP1 RETURNDATACOPY RETURNDATASIZE PUSH0 REVERT JUMPDEST POP POP POP POP PUSH1 0x40 MLOAD RETURNDATASIZE PUSH1 0x1F NOT PUSH1 0x1F DUP3 ADD AND DUP3 ADD DUP1 PUSH1 0x40 MSTORE POP DUP2 ADD SWAP1 PUSH2 0x3E8 SWAP2 SWAP1 PUSH2 0xF6F JUMP JUMPDEST POP PUSH32 0xE75028FF36BB6473DA3731A30E1AEEAE9988E2415DBA2C4E91E0357955065FBA PUSH1 0x40 MLOAD PUSH2 0x416 SWAP1 PUSH2 0x11D2 JUMP JUMPDEST PUSH1 0x40 MLOAD DUP1 SWAP2 SUB SWAP1 LOG1 POP POP POP POP POP JUMP JUMPDEST PUSH1 0x40 MLOAD PUSH2 0x431 SWAP1 PUSH2 0xAAA JUMP JUMPDEST PUSH1 0x40 MLOAD DUP1 SWAP2 SUB SWAP1 PUSH0 CREATE DUP1 ISZERO DUP1 ISZERO PUSH2 0x44A JUMPI RETURNDATASIZE PUSH0 DUP1 RETURNDATACOPY RETURNDATASIZE PUSH0 REVERT JUMPDEST POP PUSH0 DUP1 PUSH2 0x100 EXP DUP2 SLOAD DUP2 PUSH20 0xFFFFFFFFFFFFFFFFFFFFFFFFFFFFFFFFFFFFFFFF MUL NOT AND SWAP1 DUP4 PUSH20 0xFFFFFFFFFFFFFFFFFFFFFFFFFFFFFFFFFFFFFFFF AND MUL OR SWAP1 SSTORE POP JUMP JUMPDEST PUSH2 0x4C9 PUSH1 0x40 MLOAD DUP1 PUSH1 0x40 ADD PUSH1 0x40 MSTORE DUP1 PUSH1 0x1E DUP2 MSTORE PUSH1 0x20 ADD PUSH32 0x52756E6E696E6720636865636B47657455736572536563757269746965730000 DUP2 MSTORE POP PUSH2 0x9CD JUMP JUMPDEST PUSH0 DUP1 SLOAD SWAP1 PUSH2 0x100 EXP SWAP1 DIV PUSH20 0xFFFFFFFFFFFFFFFFFFFFFFFFFFFFFFFFFFFFFFFF AND PUSH20 0xFFFFFFFFFFFFFFFFFFFFFFFFFFFFFFFFFFFFFFFF AND PUSH4 0x646F9004 PUSH8 0xDE0B6B3A7640000 PUSH1 0x40 MLOAD DUP3 PUSH4 0xFFFFFFFF AND PUSH1 0xE0 SHL DUP2 MSTORE PUSH1 0x4 ADD PUSH2 0x529 SWAP2 SWAP1 PUSH2 0x123A JUMP JUMPDEST PUSH1 0x20 PUSH1 0x40 MLOAD DUP1 DUP4 SUB DUP2 PUSH0 DUP8 GAS CALL ISZERO DUP1 ISZERO PUSH2 0x545 JUMPI RETURNDATASIZE PUSH0 DUP1 RETURNDATACOPY RETURNDATASIZE PUSH0 REVERT JUMPDEST POP POP POP POP PUSH1 0x40 MLOAD RETURNDATASIZE PUSH1 0x1F NOT PUSH1 0x1F DUP3 ADD AND DUP3 ADD DUP1 PUSH1 0x40 MSTORE POP DUP2 ADD SWAP1 PUSH2 0x569 SWAP2 SWAP1 PUSH2 0xBCD JUMP JUMPDEST POP PUSH0 DUP1 SLOAD SWAP1 PUSH2 0x100 EXP SWAP1 DIV PUSH20 0xFFFFFFFFFFFFFFFFFFFFFFFFFFFFFFFFFFFFFFFF AND PUSH20 0xFFFFFFFFFFFFFFFFFFFFFFFFFFFFFFFFFFFFFFFF AND PUSH4 0x646F9004 PUSH8 0x1BC16D674EC80000 PUSH1 0x40 MLOAD DUP3 PUSH4 0xFFFFFFFF AND PUSH1 0xE0 SHL DUP2 MSTORE PUSH1 0x4 ADD PUSH2 0x5CA SWAP2 SWAP1 PUSH2 0x12E9 JUMP JUMPDEST PUSH1 0x20 PUSH1 0x40 MLOAD DUP1 DUP4 SUB DUP2 PUSH0 DUP8 GAS CALL ISZERO DUP1 ISZERO PUSH2 0x5E6 JUMPI RETURNDATASIZE PUSH0 DUP1 RETURNDATACOPY RETURNDATASIZE PUSH0 REVERT JUMPDEST POP POP POP POP PUSH1 0x40 MLOAD RETURNDATASIZE PUSH1 0x1F NOT PUSH1 0x1F DUP3 ADD AND DUP3 ADD DUP1 PUSH1 0x40 MSTORE POP DUP2 ADD SWAP1 PUSH2 0x60A SWAP2 SWAP1 PUSH2 0xBCD JUMP JUMPDEST POP PUSH0 DUP1 PUSH0 DUP1 PUSH0 SWAP1 SLOAD SWAP1 PUSH2 0x100 EXP SWAP1 DIV PUSH20 0xFFFFFFFFFFFFFFFFFFFFFFFFFFFFFFFFFFFFFFFF AND PUSH20 0xFFFFFFFFFFFFFFFFFFFFFFFFFFFFFFFFFFFFFFFF AND PUSH4 0x8A2355BB PUSH1 0x40 MLOAD DUP2 PUSH4 0xFFFFFFFF AND PUSH1 0xE0 SHL DUP2 MSTORE PUSH1 0x4 ADD PUSH0 PUSH1 0x40 MLOAD DUP1 DUP4 SUB DUP2 DUP7 GAS STATICCALL ISZERO DUP1 ISZERO PUSH2 0x676 JUMPI RETURNDATASIZE PUSH0 DUP1 RETURNDATACOPY RETURNDATASIZE PUSH0 REVERT JUMPDEST POP POP POP POP PUSH1 0x40 MLOAD RETURNDATASIZE PUSH0 DUP3 RETURNDATACOPY RETURNDATASIZE PUSH1 0x1F NOT PUSH1 0x1F DUP3 ADD AND DUP3 ADD DUP1 PUSH1 0x40 MSTORE POP DUP2 ADD SWAP1 PUSH2 0x69E SWAP2 SWAP1 PUSH2 0x14B7 JUMP JUMPDEST SWAP3 POP SWAP3 POP SWAP3 POP PUSH20 0x0 PUSH4 0xABCD7960 DUP5 MLOAD DUP5 MLOAD PUSH1 0x40 MLOAD DUP4 PUSH4 0xFFFFFFFF AND PUSH1 0xE0 SHL DUP2 MSTORE PUSH1 0x4 ADD PUSH2 0x6DF SWAP3 SWAP2 SWAP1 PUSH2 0x15A5 JUMP JUMPDEST PUSH1 0x20 PUSH1 0x40 MLOAD DUP1 DUP4 SUB DUP2 DUP7 GAS DELEGATECALL ISZERO DUP1 ISZERO PUSH2 0x6FA JUMPI RETURNDATASIZE PUSH0 DUP1 RETURNDATACOPY RETURNDATASIZE PUSH0 REVERT JUMPDEST POP POP POP POP PUSH1 0x40 MLOAD RETURNDATASIZE PUSH1 0x1F NOT PUSH1 0x1F DUP3 ADD AND DUP3 ADD DUP1 PUSH1 0x40 MSTORE POP DUP2 ADD SWAP1 PUSH2 0x71E SWAP2 SWAP1 PUSH2 0xF6F JUMP JUMPDEST POP PUSH20 0x0 PUSH4 0xABCD7960 DUP4 MLOAD DUP4 MLOAD PUSH1 0x40 MLOAD DUP4 PUSH4 0xFFFFFFFF AND PUSH1 0xE0 SHL DUP2 MSTORE PUSH1 0x4 ADD PUSH2 0x75A SWAP3 SWAP2 SWAP1 PUSH2 0x15A5 JUMP JUMPDEST PUSH1 0x20 PUSH1 0x40 MLOAD DUP1 DUP4 SUB DUP2 DUP7 GAS DELEGATECALL ISZERO DUP1 ISZERO PUSH2 0x775 JUMPI RETURNDATASIZE PUSH0 DUP1 RETURNDATACOPY RETURNDATASIZE PUSH0 REVERT JUMPDEST POP POP POP POP PUSH1 0x40 MLOAD RETURNDATASIZE PUSH1 0x1F NOT PUSH1 0x1F DUP3 ADD AND DUP3 ADD DUP1 PUSH1 0x40 MSTORE POP DUP2 ADD SWAP1 PUSH2 0x799 SWAP2 SWAP1 PUSH2 0xF6F JUMP JUMPDEST POP PUSH20 0x0 PUSH4 0x561015E2 DUP5 MLOAD PUSH0 PUSH1 0x40 MLOAD DUP4 PUSH4 0xFFFFFFFF AND PUSH1 0xE0 SHL DUP2 MSTORE PUSH1 0x4 ADD PUSH2 0x7D4 SWAP3 SWAP2 SWAP1 PUSH2 0x1662 JUMP JUMPDEST PUSH1 0x20 PUSH1 0x40 MLOAD DUP1 DUP4 SUB DUP2 DUP7 GAS DELEGATECALL ISZERO DUP1 ISZERO PUSH2 0x7EF JUMPI RETURNDATASIZE PUSH0 DUP1 RETURNDATACOPY RETURNDATASIZE PUSH0 REVERT JUMPDEST POP POP POP POP PUSH1 0x40 MLOAD RETURNDATASIZE PUSH1 0x1F NOT PUSH1 0x1F DUP3 ADD AND DUP3 ADD DUP1 PUSH1 0x40 MSTORE POP DUP2 ADD SWAP1 PUSH2 0x813 SWAP2 SWAP1 PUSH2 0xF6F JUMP JUMPDEST POP PUSH32 0xE75028FF36BB6473DA3731A30E1AEEAE9988E2415DBA2C4E91E0357955065FBA PUSH1 0x40 MLOAD PUSH2 0x841 SWAP1 PUSH2 0x16E6 JUMP JUMPDEST PUSH1 0x40 MLOAD DUP1 SWAP2 SUB SWAP1 LOG1 POP POP POP JUMP JUMPDEST PUSH2 0x88C PUSH1 0x40 MLOAD DUP1 PUSH1 0x40 ADD PUSH1 0x40 MSTORE DUP1 PUSH1 0x14 DUP2 MSTORE PUSH1 0x20 ADD PUSH32 0x52756E6E696E6720636865636B42616C616E6365000000000000000000000000 DUP2 MSTORE POP PUSH2 0x9CD JUMP JUMPDEST PUSH0 DUP1 PUSH0 SWAP1 SLOAD SWAP1 PUSH2 0x100 EXP SWAP1 DIV PUSH20 0xFFFFFFFFFFFFFFFFFFFFFFFFFFFFFFFFFFFFFFFF AND PUSH20 0xFFFFFFFFFFFFFFFFFFFFFFFFFFFFFFFFFFFFFFFF AND PUSH4 0x12065FE0 PUSH1 0x40 MLOAD DUP2 PUSH4 0xFFFFFFFF AND PUSH1 0xE0 SHL DUP2 MSTORE PUSH1 0x4 ADD PUSH1 0x20 PUSH1 0x40 MLOAD DUP1 DUP4 SUB DUP2 DUP7 GAS STATICCALL ISZERO DUP1 ISZERO PUSH2 0x8F6 JUMPI RETURNDATASIZE PUSH0 DUP1 RETURNDATACOPY RETURNDATASIZE PUSH0 REVERT JUMPDEST POP POP POP POP PUSH1 0x40 MLOAD RETURNDATASIZE PUSH1 0x1F NOT PUSH1 0x1F DUP3 ADD AND DUP3 ADD DUP1 PUSH1 0x40 MSTORE POP DUP2 ADD SWAP1 PUSH2 0x91A SWAP2 SWAP1 PUSH2 0xBCD JUMP JUMPDEST SWAP1 POP PUSH20 0x0 PUSH4 0xABCD7960 DUP3 PUSH0 PUSH1 0x40 MLOAD DUP4 PUSH4 0xFFFFFFFF AND PUSH1 0xE0 SHL DUP2 MSTORE PUSH1 0x4 ADD PUSH2 0x955 SWAP3 SWAP2 SWAP1 PUSH2 0x174E JUMP JUMPDEST PUSH1 0x20 PUSH1 0x40 MLOAD DUP1 DUP4 SUB DUP2 DUP7 GAS DELEGATECALL ISZERO DUP1 ISZERO PUSH2 0x970 JUMPI RETURNDATASIZE PUSH0 DUP1 RETURNDATACOPY RETURNDATASIZE PUSH0 REVERT JUMPDEST POP POP POP POP PUSH1 0x40 MLOAD RETURNDATASIZE PUSH1 0x1F NOT PUSH1 0x1F DUP3 ADD AND DUP3 ADD DUP1 PUSH1 0x40 MSTORE POP DUP2 ADD SWAP1 PUSH2 0x994 SWAP2 SWAP1 PUSH2 0xF6F JUMP JUMPDEST POP PUSH32 0xE75028FF36BB6473DA3731A30E1AEEAE9988E2415DBA2C4E91E0357955065FBA PUSH1 0x40 MLOAD PUSH2 0x9C2 SWAP1 PUSH2 0x17D2 JUMP JUMPDEST PUSH1 0x40 MLOAD DUP1 SWAP2 SUB SWAP1 LOG1 POP JUMP JUMPDEST PUSH2 0xA63 DUP2 PUSH1 0x40 MLOAD PUSH1 0x24 ADD PUSH2 0x9E1 SWAP2 SWAP1 PUSH2 0x1828 JUMP JUMPDEST PUSH1 0x40 MLOAD PUSH1 0x20 DUP2 DUP4 SUB SUB DUP2 MSTORE SWAP1 PUSH1 0x40 MSTORE PUSH32 0x41304FAC00000000000000000000000000000000000000000000000000000000 PUSH28 0xFFFFFFFFFFFFFFFFFFFFFFFFFFFFFFFFFFFFFFFFFFFFFFFFFFFFFFFF NOT AND PUSH1 0x20 DUP3 ADD DUP1 MLOAD PUSH28 0xFFFFFFFFFFFFFFFFFFFFFFFFFFFFFFFFFFFFFFFFFFFFFFFFFFFFFFFF DUP4 DUP2 DUP4 AND OR DUP4 MSTORE POP POP POP POP PUSH2 0xA66 JUMP JUMPDEST POP JUMP JUMPDEST PUSH2 0xA7D DUP2 PUSH2 0xA75 PUSH2 0xA80 PUSH2 0xA9F JUMP JUMPDEST PUSH4 0xFFFFFFFF AND JUMP JUMPDEST POP JUMP JUMPDEST PUSH0 PUSH11 0x636F6E736F6C652E6C6F67 SWAP1 POP PUSH0 DUP1 DUP4 MLOAD PUSH1 0x20 DUP6 ADD DUP5 GAS STATICCALL POP POP POP JUMP JUMPDEST PUSH2 0xAB7 DUP2 SWAP1 POP SWAP2 SWAP1 POP JUMP JUMPDEST PUSH2 0x261F DUP1 PUSH2 0x1876 DUP4 CODECOPY ADD SWAP1 JUMP JUMPDEST PUSH2 0xABF PUSH2 0x1848 JUMP JUMPDEST JUMP JUMPDEST PUSH0 DUP3 DUP3 MSTORE PUSH1 0x20 DUP3 ADD SWAP1 POP SWAP3 SWAP2 POP POP JUMP JUMPDEST PUSH32 0x5465737420536563757269747900000000000000000000000000000000000000 PUSH0 DUP3 ADD MSTORE POP JUMP JUMPDEST PUSH0 PUSH2 0xB05 PUSH1 0xD DUP4 PUSH2 0xAC1 JUMP JUMPDEST SWAP2 POP PUSH2 0xB10 DUP3 PUSH2 0xAD1 JUMP JUMPDEST PUSH1 0x20 DUP3 ADD SWAP1 POP SWAP2 SWAP1 POP JUMP JUMPDEST PUSH0 DUP2 SWAP1 POP SWAP2 SWAP1 POP JUMP JUMPDEST PUSH0 DUP2 SWAP1 POP SWAP2 SWAP1 POP JUMP JUMPDEST PUSH0 DUP2 SWAP1 POP SWAP2 SWAP1 POP JUMP JUMPDEST PUSH0 PUSH2 0xB50 PUSH2 0xB4B PUSH2 0xB46 DUP5 PUSH2 0xB1B JUMP JUMPDEST PUSH2 0xB2D JUMP JUMPDEST PUSH2 0xB24 JUMP JUMPDEST SWAP1 POP SWAP2 SWAP1 POP JUMP JUMPDEST PUSH2 0xB60 DUP2 PUSH2 0xB36 JUMP JUMPDEST DUP3 MSTORE POP POP JUMP JUMPDEST PUSH0 PUSH1 0x40 DUP3 ADD SWAP1 POP DUP2 DUP2 SUB PUSH0 DUP4 ADD MSTORE PUSH2 0xB7D DUP2 PUSH2 0xAF9 JUMP JUMPDEST SWAP1 POP PUSH2 0xB8C PUSH1 0x20 DUP4 ADD DUP5 PUSH2 0xB57 JUMP JUMPDEST SWAP3 SWAP2 POP POP JUMP JUMPDEST PUSH0 PUSH1 0x40 MLOAD SWAP1 POP SWAP1 JUMP JUMPDEST PUSH0 DUP1 REVERT JUMPDEST PUSH0 DUP1 REVERT JUMPDEST PUSH2 0xBAC DUP2 PUSH2 0xB24 JUMP JUMPDEST DUP2 EQ PUSH2 0xBB6 JUMPI PUSH0 DUP1 REVERT JUMPDEST POP JUMP JUMPDEST PUSH0 DUP2 MLOAD SWAP1 POP PUSH2 0xBC7 DUP2 PUSH2 0xBA3 JUMP JUMPDEST SWAP3 SWAP2 POP POP JUMP JUMPDEST PUSH0 PUSH1 0x20 DUP3 DUP5 SUB SLT ISZERO PUSH2 0xBE2 JUMPI PUSH2 0xBE1 PUSH2 0xB9B JUMP JUMPDEST JUMPDEST PUSH0 PUSH2 0xBEF DUP5 DUP3 DUP6 ADD PUSH2 0xBB9 JUMP JUMPDEST SWAP2 POP POP SWAP3 SWAP2 POP POP JUMP JUMPDEST PUSH2 0xC01 DUP2 PUSH2 0xB24 JUMP JUMPDEST DUP3 MSTORE POP POP JUMP JUMPDEST PUSH0 PUSH1 0x20 DUP3 ADD SWAP1 POP PUSH2 0xC1A PUSH0 DUP4 ADD DUP5 PUSH2 0xBF8 JUMP JUMPDEST SWAP3 SWAP2 POP POP JUMP JUMPDEST PUSH0 DUP1 REVERT JUMPDEST PUSH0 DUP1 REVERT JUMPDEST PUSH0 PUSH1 0x1F NOT PUSH1 0x1F DUP4 ADD AND SWAP1 POP SWAP2 SWAP1 POP JUMP JUMPDEST PUSH32 0x4E487B7100000000000000000000000000000000000000000000000000000000 PUSH0 MSTORE PUSH1 0x41 PUSH1 0x4 MSTORE PUSH1 0x24 PUSH0 REVERT JUMPDEST PUSH2 0xC6E DUP3 PUSH2 0xC28 JUMP JUMPDEST DUP2 ADD DUP2 DUP2 LT PUSH8 0xFFFFFFFFFFFFFFFF DUP3 GT OR ISZERO PUSH2 0xC8D JUMPI PUSH2 0xC8C PUSH2 0xC38 JUMP JUMPDEST JUMPDEST DUP1 PUSH1 0x40 MSTORE POP POP POP JUMP JUMPDEST PUSH0 PUSH2 0xC9F PUSH2 0xB92 JUMP JUMPDEST SWAP1 POP PUSH2 0xCAB DUP3 DUP3 PUSH2 0xC65 JUMP JUMPDEST SWAP2 SWAP1 POP JUMP JUMPDEST PUSH0 PUSH8 0xFFFFFFFFFFFFFFFF DUP3 GT ISZERO PUSH2 0xCCA JUMPI PUSH2 0xCC9 PUSH2 0xC38 JUMP JUMPDEST JUMPDEST PUSH2 0xCD3 DUP3 PUSH2 0xC28 JUMP JUMPDEST SWAP1 POP PUSH1 0x20 DUP2 ADD SWAP1 POP SWAP2 SWAP1 POP JUMP JUMPDEST DUP3 DUP2 DUP4 MCOPY PUSH0 DUP4 DUP4 ADD MSTORE POP POP POP JUMP JUMPDEST PUSH0 PUSH2 0xD00 PUSH2 0xCFB DUP5 PUSH2 0xCB0 JUMP JUMPDEST PUSH2 0xC96 JUMP JUMPDEST SWAP1 POP DUP3 DUP2 MSTORE PUSH1 0x20 DUP2 ADD DUP5 DUP5 DUP5 ADD GT ISZERO PUSH2 0xD1C JUMPI PUSH2 0xD1B PUSH2 0xC24 JUMP JUMPDEST JUMPDEST PUSH2 0xD27 DUP5 DUP3 DUP6 PUSH2 0xCE0 JUMP JUMPDEST POP SWAP4 SWAP3 POP POP POP JUMP JUMPDEST PUSH0 DUP3 PUSH1 0x1F DUP4 ADD SLT PUSH2 0xD43 JUMPI PUSH2 0xD42 PUSH2 0xC20 JUMP JUMPDEST JUMPDEST DUP2 MLOAD PUSH2 0xD53 DUP5 DUP3 PUSH1 0x20 DUP7 ADD PUSH2 0xCEE JUMP JUMPDEST SWAP2 POP POP SWAP3 SWAP2 POP POP JUMP JUMPDEST PUSH0 PUSH20 0xFFFFFFFFFFFFFFFFFFFFFFFFFFFFFFFFFFFFFFFF DUP3 AND SWAP1 POP SWAP2 SWAP1 POP JUMP JUMPDEST PUSH0 PUSH2 0xD85 DUP3 PUSH2 0xD5C JUMP JUMPDEST SWAP1 POP SWAP2 SWAP1 POP JUMP JUMPDEST PUSH2 0xD95 DUP2 PUSH2 0xD7B JUMP JUMPDEST DUP2 EQ PUSH2 0xD9F JUMPI PUSH0 DUP1 REVERT JUMPDEST POP JUMP JUMPDEST PUSH0 DUP2 MLOAD SWAP1 POP PUSH2 0xDB0 DUP2 PUSH2 0xD8C JUMP JUMPDEST SWAP3 SWAP2 POP POP JUMP JUMPDEST PUSH0 DUP2 ISZERO ISZERO SWAP1 POP SWAP2 SWAP1 POP JUMP JUMPDEST PUSH2 0xDCA DUP2 PUSH2 0xDB6 JUMP JUMPDEST DUP2 EQ PUSH2 0xDD4 JUMPI PUSH0 DUP1 REVERT JUMPDEST POP JUMP JUMPDEST PUSH0 DUP2 MLOAD SWAP1 POP PUSH2 0xDE5 DUP2 PUSH2 0xDC1 JUMP JUMPDEST SWAP3 SWAP2 POP POP JUMP JUMPDEST PUSH0 DUP1 PUSH0 DUP1 PUSH1 0x80 DUP6 DUP8 SUB SLT ISZERO PUSH2 0xE03 JUMPI PUSH2 0xE02 PUSH2 0xB9B JUMP JUMPDEST JUMPDEST PUSH0 DUP6 ADD MLOAD PUSH8 0xFFFFFFFFFFFFFFFF DUP2 GT ISZERO PUSH2 0xE20 JUMPI PUSH2 0xE1F PUSH2 0xB9F JUMP JUMPDEST JUMPDEST PUSH2 0xE2C DUP8 DUP3 DUP9 ADD PUSH2 0xD2F JUMP JUMPDEST SWAP5 POP POP PUSH1 0x20 PUSH2 0xE3D DUP8 DUP3 DUP9 ADD PUSH2 0xBB9 JUMP JUMPDEST SWAP4 POP POP PUSH1 0x40 PUSH2 0xE4E DUP8 DUP3 DUP9 ADD PUSH2 0xDA2 JUMP JUMPDEST SWAP3 POP POP PUSH1 0x60 PUSH2 0xE5F DUP8 DUP3 DUP9 ADD PUSH2 0xDD7 JUMP JUMPDEST SWAP2 POP POP SWAP3 SWAP6 SWAP2 SWAP5 POP SWAP3 POP JUMP JUMPDEST PUSH0 DUP2 MLOAD SWAP1 POP SWAP2 SWAP1 POP JUMP JUMPDEST PUSH0 DUP3 DUP3 MSTORE PUSH1 0x20 DUP3 ADD SWAP1 POP SWAP3 SWAP2 POP POP JUMP JUMPDEST PUSH0 PUSH2 0xE8F DUP3 PUSH2 0xE6B JUMP JUMPDEST PUSH2 0xE99 DUP2 DUP6 PUSH2 0xE75 JUMP JUMPDEST SWAP4 POP PUSH2 0xEA9 DUP2 DUP6 PUSH1 0x20 DUP7 ADD PUSH2 0xCE0 JUMP JUMPDEST PUSH2 0xEB2 DUP2 PUSH2 0xC28 JUMP JUMPDEST DUP5 ADD SWAP2 POP POP SWAP3 SWAP2 POP POP JUMP JUMPDEST PUSH0 PUSH2 0xEC9 PUSH1 0xD DUP4 PUSH2 0xE75 JUMP JUMPDEST SWAP2 POP PUSH2 0xED4 DUP3 PUSH2 0xAD1 JUMP JUMPDEST PUSH1 0x20 DUP3 ADD SWAP1 POP SWAP2 SWAP1 POP JUMP JUMPDEST PUSH32 0x5365637572697479206E616D652073686F756C64206D61746368000000000000 PUSH0 DUP3 ADD MSTORE POP JUMP JUMPDEST PUSH0 PUSH2 0xF13 PUSH1 0x1A DUP4 PUSH2 0xE75 JUMP JUMPDEST SWAP2 POP PUSH2 0xF1E DUP3 PUSH2 0xEDF JUMP JUMPDEST PUSH1 0x20 DUP3 ADD SWAP1 POP SWAP2 SWAP1 POP JUMP JUMPDEST PUSH0 PUSH1 0x60 DUP3 ADD SWAP1 POP DUP2 DUP2 SUB PUSH0 DUP4 ADD MSTORE PUSH2 0xF41 DUP2 DUP5 PUSH2 0xE85 JUMP JUMPDEST SWAP1 POP DUP2 DUP2 SUB PUSH1 0x20 DUP4 ADD MSTORE PUSH2 0xF54 DUP2 PUSH2 0xEBD JUMP JUMPDEST SWAP1 POP DUP2 DUP2 SUB PUSH1 0x40 DUP4 ADD MSTORE PUSH2 0xF67 DUP2 PUSH2 0xF07 JUMP JUMPDEST SWAP1 POP SWAP3 SWAP2 POP POP JUMP JUMPDEST PUSH0 PUSH1 0x20 DUP3 DUP5 SUB SLT ISZERO PUSH2 0xF84 JUMPI PUSH2 0xF83 PUSH2 0xB9B JUMP JUMPDEST JUMPDEST PUSH0 PUSH2 0xF91 DUP5 DUP3 DUP6 ADD PUSH2 0xDD7 JUMP JUMPDEST SWAP2 POP POP SWAP3 SWAP2 POP POP JUMP JUMPDEST PUSH2 0xFA3 DUP2 PUSH2 0xB24 JUMP JUMPDEST DUP3 MSTORE POP POP JUMP JUMPDEST PUSH2 0xFB2 DUP2 PUSH2 0xB36 JUMP JUMPDEST DUP3 MSTORE POP POP JUMP JUMPDEST PUSH32 0x53656375726974792070726963652073686F756C64206D617463680000000000 PUSH0 DUP3 ADD MSTORE POP JUMP JUMPDEST PUSH0 PUSH2 0xFEC PUSH1 0x1B DUP4 PUSH2 0xE75 JUMP JUMPDEST SWAP2 POP PUSH2 0xFF7 DUP3 PUSH2 0xFB8 JUMP JUMPDEST PUSH1 0x20 DUP3 ADD SWAP1 POP SWAP2 SWAP1 POP JUMP JUMPDEST PUSH0 PUSH1 0x60 DUP3 ADD SWAP1 POP PUSH2 0x1015 PUSH0 DUP4 ADD DUP6 PUSH2 0xF9A JUMP JUMPDEST PUSH2 0x1022 PUSH1 0x20 DUP4 ADD DUP5 PUSH2 0xFA9 JUMP JUMPDEST DUP2 DUP2 SUB PUSH1 0x40 DUP4 ADD MSTORE PUSH2 0x1033 DUP2 PUSH2 0xFE0 JUMP JUMPDEST SWAP1 POP SWAP4 SWAP3 POP POP POP JUMP JUMPDEST PUSH2 0x1045 DUP2 PUSH2 0xD7B JUMP JUMPDEST DUP3 MSTORE POP POP JUMP JUMPDEST PUSH32 0x5365637572697479206F776E65722073686F756C64206265207465737420636F PUSH0 DUP3 ADD MSTORE PUSH32 0x6E74726163740000000000000000000000000000000000000000000000000000 PUSH1 0x20 DUP3 ADD MSTORE POP JUMP JUMPDEST PUSH0 PUSH2 0x10A5 PUSH1 0x26 DUP4 PUSH2 0xE75 JUMP JUMPDEST SWAP2 POP PUSH2 0x10B0 DUP3 PUSH2 0x104B JUMP JUMPDEST PUSH1 0x40 DUP3 ADD SWAP1 POP SWAP2 SWAP1 POP JUMP JUMPDEST PUSH0 PUSH1 0x60 DUP3 ADD SWAP1 POP PUSH2 0x10CE PUSH0 DUP4 ADD DUP6 PUSH2 0x103C JUMP JUMPDEST PUSH2 0x10DB PUSH1 0x20 DUP4 ADD DUP5 PUSH2 0x103C JUMP JUMPDEST DUP2 DUP2 SUB PUSH1 0x40 DUP4 ADD MSTORE PUSH2 0x10EC DUP2 PUSH2 0x1099 JUMP JUMPDEST SWAP1 POP SWAP4 SWAP3 POP POP POP JUMP JUMPDEST PUSH2 0x10FE DUP2 PUSH2 0xDB6 JUMP JUMPDEST DUP3 MSTORE POP POP JUMP JUMPDEST PUSH32 0x53656375726974792073686F756C64206265206C697374656400000000000000 PUSH0 DUP3 ADD MSTORE POP JUMP JUMPDEST PUSH0 PUSH2 0x1138 PUSH1 0x19 DUP4 PUSH2 0xE75 JUMP JUMPDEST SWAP2 POP PUSH2 0x1143 DUP3 PUSH2 0x1104 JUMP JUMPDEST PUSH1 0x20 DUP3 ADD SWAP1 POP SWAP2 SWAP1 POP JUMP JUMPDEST PUSH0 PUSH1 0x60 DUP3 ADD SWAP1 POP PUSH2 0x1161 PUSH0 DUP4 ADD DUP6 PUSH2 0x10F5 JUMP JUMPDEST PUSH2 0x116E PUSH1 0x20 DUP4 ADD DUP5 PUSH2 0x10F5 JUMP JUMPDEST DUP2 DUP2 SUB PUSH1 0x40 DUP4 ADD MSTORE PUSH2 0x117F DUP2 PUSH2 0x112C JUMP JUMPDEST SWAP1 POP SWAP4 SWAP3 POP POP POP JUMP JUMPDEST PUSH32 0x5365637572697479206C697374696E6720746573742070617373656400000000 PUSH0 DUP3 ADD MSTORE POP JUMP JUMPDEST PUSH0 PUSH2 0x11BC PUSH1 0x1C DUP4 PUSH2 0xAC1 JUMP JUMPDEST SWAP2 POP PUSH2 0x11C7 DUP3 PUSH2 0x1188 JUMP JUMPDEST PUSH1 0x20 DUP3 ADD SWAP1 POP SWAP2 SWAP1 POP JUMP JUMPDEST PUSH0 PUSH1 0x20 DUP3 ADD SWAP1 POP DUP2 DUP2 SUB PUSH0 DUP4 ADD MSTORE PUSH2 0x11E9 DUP2 PUSH2 0x11B0 JUMP JUMPDEST SWAP1 POP SWAP2 SWAP1 POP JUMP JUMPDEST PUSH32 0x5365637572697479203100000000000000000000000000000000000000000000 PUSH0 DUP3 ADD MSTORE POP JUMP JUMPDEST PUSH0 PUSH2 0x1224 PUSH1 0xA DUP4 PUSH2 0xAC1 JUMP JUMPDEST SWAP2 POP PUSH2 0x122F DUP3 PUSH2 0x11F0 JUMP JUMPDEST PUSH1 0x20 DUP3 ADD SWAP1 POP SWAP2 SWAP1 POP JUMP JUMPDEST PUSH0 PUSH1 0x40 DUP3 ADD SWAP1 POP DUP2 DUP2 SUB PUSH0 DUP4 ADD MSTORE PUSH2 0x1251 DUP2 PUSH2 0x1218 JUMP JUMPDEST SWAP1 POP PUSH2 0x1260 PUSH1 0x20 DUP4 ADD DUP5 PUSH2 0xB57 JUMP JUMPDEST SWAP3 SWAP2 POP POP JUMP JUMPDEST PUSH32 0x5365637572697479203200000000000000000000000000000000000000000000 PUSH0 DUP3 ADD MSTORE POP JUMP JUMPDEST PUSH0 PUSH2 0x129A PUSH1 0xA DUP4 PUSH2 0xAC1 JUMP JUMPDEST SWAP2 POP PUSH2 0x12A5 DUP3 PUSH2 0x1266 JUMP JUMPDEST PUSH1 0x20 DUP3 ADD SWAP1 POP SWAP2 SWAP1 POP JUMP JUMPDEST PUSH0 DUP2 SWAP1 POP SWAP2 SWAP1 POP JUMP JUMPDEST PUSH0 PUSH2 0x12D3 PUSH2 0x12CE PUSH2 0x12C9 DUP5 PUSH2 0x12B0 JUMP JUMPDEST PUSH2 0xB2D JUMP JUMPDEST PUSH2 0xB24 JUMP JUMPDEST SWAP1 POP SWAP2 SWAP1 POP JUMP JUMPDEST PUSH2 0x12E3 DUP2 PUSH2 0x12B9 JUMP JUMPDEST DUP3 MSTORE POP POP JUMP JUMPDEST PUSH0 PUSH1 0x40 DUP3 ADD SWAP1 POP DUP2 DUP2 SUB PUSH0 DUP4 ADD MSTORE PUSH2 0x1300 DUP2 PUSH2 0x128E JUMP JUMPDEST SWAP1 POP PUSH2 0x130F PUSH1 0x20 DUP4 ADD DUP5 PUSH2 0x12DA JUMP JUMPDEST SWAP3 SWAP2 POP POP JUMP JUMPDEST PUSH0 PUSH8 0xFFFFFFFFFFFFFFFF DUP3 GT ISZERO PUSH2 0x132F JUMPI PUSH2 0x132E PUSH2 0xC38 JUMP JUMPDEST JUMPDEST PUSH1 0x20 DUP3 MUL SWAP1 POP PUSH1 0x20 DUP2 ADD SWAP1 POP SWAP2 SWAP1 POP JUMP JUMPDEST PUSH0 DUP1 REVERT JUMPDEST PUSH0 PUSH2 0x1356 PUSH2 0x1351 DUP5 PUSH2 0x1315 JUMP JUMPDEST PUSH2 0xC96 JUMP JUMPDEST SWAP1 POP DUP1 DUP4 DUP3 MSTORE PUSH1 0x20 DUP3 ADD SWAP1 POP PUSH1 0x20 DUP5 MUL DUP4 ADD DUP6 DUP2 GT ISZERO PUSH2 0x1379 JUMPI PUSH2 0x1378 PUSH2 0x1340 JUMP JUMPDEST JUMPDEST DUP4 JUMPDEST DUP2 DUP2 LT ISZERO PUSH2 0x13A2 JUMPI DUP1 PUSH2 0x138E DUP9 DUP3 PUSH2 0xBB9 JUMP JUMPDEST DUP5 MSTORE PUSH1 0x20 DUP5 ADD SWAP4 POP POP PUSH1 0x20 DUP2 ADD SWAP1 POP PUSH2 0x137B JUMP JUMPDEST POP POP POP SWAP4 SWAP3 POP POP POP JUMP JUMPDEST PUSH0 DUP3 PUSH1 0x1F DUP4 ADD SLT PUSH2 0x13C0 JUMPI PUSH2 0x13BF PUSH2 0xC20 JUMP JUMPDEST JUMPDEST DUP2 MLOAD PUSH2 0x13D0 DUP5 DUP3 PUSH1 0x20 DUP7 ADD PUSH2 0x1344 JUMP JUMPDEST SWAP2 POP POP SWAP3 SWAP2 POP POP JUMP JUMPDEST PUSH0 PUSH8 0xFFFFFFFFFFFFFFFF DUP3 GT ISZERO PUSH2 0x13F3 JUMPI PUSH2 0x13F2 PUSH2 0xC38 JUMP JUMPDEST JUMPDEST PUSH1 0x20 DUP3 MUL SWAP1 POP PUSH1 0x20 DUP2 ADD SWAP1 POP SWAP2 SWAP1 POP JUMP JUMPDEST PUSH0 PUSH2 0x1416 PUSH2 0x1411 DUP5 PUSH2 0x13D9 JUMP JUMPDEST PUSH2 0xC96 JUMP JUMPDEST SWAP1 POP DUP1 DUP4 DUP3 MSTORE PUSH1 0x20 DUP3 ADD SWAP1 POP PUSH1 0x20 DUP5 MUL DUP4 ADD DUP6 DUP2 GT ISZERO PUSH2 0x1439 JUMPI PUSH2 0x1438 PUSH2 0x1340 JUMP JUMPDEST JUMPDEST DUP4 JUMPDEST DUP2 DUP2 LT ISZERO PUSH2 0x1480 JUMPI DUP1 MLOAD PUSH8 0xFFFFFFFFFFFFFFFF DUP2 GT ISZERO PUSH2 0x145E JUMPI PUSH2 0x145D PUSH2 0xC20 JUMP JUMPDEST JUMPDEST DUP1 DUP7 ADD PUSH2 0x146B DUP10 DUP3 PUSH2 0xD2F JUMP JUMPDEST DUP6 MSTORE PUSH1 0x20 DUP6 ADD SWAP5 POP POP POP PUSH1 0x20 DUP2 ADD SWAP1 POP PUSH2 0x143B JUMP JUMPDEST POP POP POP SWAP4 SWAP3 POP POP POP JUMP JUMPDEST PUSH0 DUP3 PUSH1 0x1F DUP4 ADD SLT PUSH2 0x149E JUMPI PUSH2 0x149D PUSH2 0xC20 JUMP JUMPDEST JUMPDEST DUP2 MLOAD PUSH2 0x14AE DUP5 DUP3 PUSH1 0x20 DUP7 ADD PUSH2 0x1404 JUMP JUMPDEST SWAP2 POP POP SWAP3 SWAP2 POP POP JUMP JUMPDEST PUSH0 DUP1 PUSH0 PUSH1 0x60 DUP5 DUP7 SUB SLT ISZERO PUSH2 0x14CE JUMPI PUSH2 0x14CD PUSH2 0xB9B JUMP JUMPDEST JUMPDEST PUSH0 DUP5 ADD MLOAD PUSH8 0xFFFFFFFFFFFFFFFF DUP2 GT ISZERO PUSH2 0x14EB JUMPI PUSH2 0x14EA PUSH2 0xB9F JUMP JUMPDEST JUMPDEST PUSH2 0x14F7 DUP7 DUP3 DUP8 ADD PUSH2 0x13AC JUMP JUMPDEST SWAP4 POP POP PUSH1 0x20 DUP5 ADD MLOAD PUSH8 0xFFFFFFFFFFFFFFFF DUP2 GT ISZERO PUSH2 0x1518 JUMPI PUSH2 0x1517 PUSH2 0xB9F JUMP JUMPDEST JUMPDEST PUSH2 0x1524 DUP7 DUP3 DUP8 ADD PUSH2 0x148A JUMP JUMPDEST SWAP3 POP POP PUSH1 0x40 DUP5 ADD MLOAD PUSH8 0xFFFFFFFFFFFFFFFF DUP2 GT ISZERO PUSH2 0x1545 JUMPI PUSH2 0x1544 PUSH2 0xB9F JUMP JUMPDEST JUMPDEST PUSH2 0x1551 DUP7 DUP3 DUP8 ADD PUSH2 0x13AC JUMP JUMPDEST SWAP2 POP POP SWAP3 POP SWAP3 POP SWAP3 JUMP JUMPDEST PUSH32 0x417272617973206C656E6774682073686F756C64206D61746368000000000000 PUSH0 DUP3 ADD MSTORE POP JUMP JUMPDEST PUSH0 PUSH2 0x158F PUSH1 0x1A DUP4 PUSH2 0xE75 JUMP JUMPDEST SWAP2 POP PUSH2 0x159A DUP3 PUSH2 0x155B JUMP JUMPDEST PUSH1 0x20 DUP3 ADD SWAP1 POP SWAP2 SWAP1 POP JUMP JUMPDEST PUSH0 PUSH1 0x60 DUP3 ADD SWAP1 POP PUSH2 0x15B8 PUSH0 DUP4 ADD DUP6 PUSH2 0xF9A JUMP JUMPDEST PUSH2 0x15C5 PUSH1 0x20 DUP4 ADD DUP5 PUSH2 0xF9A JUMP JUMPDEST DUP2 DUP2 SUB PUSH1 0x40 DUP4 ADD MSTORE PUSH2 0x15D6 DUP2 PUSH2 0x1583 JUMP JUMPDEST SWAP1 POP SWAP4 SWAP3 POP POP POP JUMP JUMPDEST PUSH0 DUP2 SWAP1 POP SWAP2 SWAP1 POP JUMP JUMPDEST PUSH0 PUSH2 0x1602 PUSH2 0x15FD PUSH2 0x15F8 DUP5 PUSH2 0x15DF JUMP JUMPDEST PUSH2 0xB2D JUMP JUMPDEST PUSH2 0xB24 JUMP JUMPDEST SWAP1 POP SWAP2 SWAP1 POP JUMP JUMPDEST PUSH2 0x1612 DUP2 PUSH2 0x15E8 JUMP JUMPDEST DUP3 MSTORE POP POP JUMP JUMPDEST PUSH32 0x53686F756C642068617665207365637572697469657300000000000000000000 PUSH0 DUP3 ADD MSTORE POP JUMP JUMPDEST PUSH0 PUSH2 0x164C PUSH1 0x16 DUP4 PUSH2 0xE75 JUMP JUMPDEST SWAP2 POP PUSH2 0x1657 DUP3 PUSH2 0x1618 JUMP JUMPDEST PUSH1 0x20 DUP3 ADD SWAP1 POP SWAP2 SWAP1 POP JUMP JUMPDEST PUSH0 PUSH1 0x60 DUP3 ADD SWAP1 POP PUSH2 0x1675 PUSH0 DUP4 ADD DUP6 PUSH2 0xF9A JUMP JUMPDEST PUSH2 0x1682 PUSH1 0x20 DUP4 ADD DUP5 PUSH2 0x1609 JUMP JUMPDEST DUP2 DUP2 SUB PUSH1 0x40 DUP4 ADD MSTORE PUSH2 0x1693 DUP2 PUSH2 0x1640 JUMP JUMPDEST SWAP1 POP SWAP4 SWAP3 POP POP POP JUMP JUMPDEST PUSH32 0x4765742075736572207365637572697469657320746573742070617373656400 PUSH0 DUP3 ADD MSTORE POP JUMP JUMPDEST PUSH0 PUSH2 0x16D0 PUSH1 0x1F DUP4 PUSH2 0xAC1 JUMP JUMPDEST SWAP2 POP PUSH2 0x16DB DUP3 PUSH2 0x169C JUMP JUMPDEST PUSH1 0x20 DUP3 ADD SWAP1 POP SWAP2 SWAP1 POP JUMP JUMPDEST PUSH0 PUSH1 0x20 DUP3 ADD SWAP1 POP DUP2 DUP2 SUB PUSH0 DUP4 ADD MSTORE PUSH2 0x16FD DUP2 PUSH2 0x16C4 JUMP JUMPDEST SWAP1 POP SWAP2 SWAP1 POP JUMP JUMPDEST PUSH32 0x496E697469616C2062616C616E63652073686F756C6420626520300000000000 PUSH0 DUP3 ADD MSTORE POP JUMP JUMPDEST PUSH0 PUSH2 0x1738 PUSH1 0x1B DUP4 PUSH2 0xE75 JUMP JUMPDEST SWAP2 POP PUSH2 0x1743 DUP3 PUSH2 0x1704 JUMP JUMPDEST PUSH1 0x20 DUP3 ADD SWAP1 POP SWAP2 SWAP1 POP JUMP JUMPDEST PUSH0 PUSH1 0x60 DUP3 ADD SWAP1 POP PUSH2 0x1761 PUSH0 DUP4 ADD DUP6 PUSH2 0xF9A JUMP JUMPDEST PUSH2 0x176E PUSH1 0x20 DUP4 ADD DUP5 PUSH2 0x1609 JUMP JUMPDEST DUP2 DUP2 SUB PUSH1 0x40 DUP4 ADD MSTORE PUSH2 0x177F DUP2 PUSH2 0x172C JUMP JUMPDEST SWAP1 POP SWAP4 SWAP3 POP POP POP JUMP JUMPDEST PUSH32 0x42616C616E636520636865636B20746573742070617373656400000000000000 PUSH0 DUP3 ADD MSTORE POP JUMP JUMPDEST PUSH0 PUSH2 0x17BC PUSH1 0x19 DUP4 PUSH2 0xAC1 JUMP JUMPDEST SWAP2 POP PUSH2 0x17C7 DUP3 PUSH2 0x1788 JUMP JUMPDEST PUSH1 0x20 DUP3 ADD SWAP1 POP SWAP2 SWAP1 POP JUMP JUMPDEST PUSH0 PUSH1 0x20 DUP3 ADD SWAP1 POP DUP2 DUP2 SUB PUSH0 DUP4 ADD MSTORE PUSH2 0x17E9 DUP2 PUSH2 0x17B0 JUMP JUMPDEST SWAP1 POP SWAP2 SWAP1 POP JUMP JUMPDEST PUSH0 PUSH2 0x17FA DUP3 PUSH2 0xE6B JUMP JUMPDEST PUSH2 0x1804 DUP2 DUP6 PUSH2 0xAC1 JUMP JUMPDEST SWAP4 POP PUSH2 0x1814 DUP2 DUP6 PUSH1 0x20 DUP7 ADD PUSH2 0xCE0 JUMP JUMPDEST PUSH2 0x181D DUP2 PUSH2 0xC28 JUMP JUMPDEST DUP5 ADD SWAP2 POP POP SWAP3 SWAP2 POP POP JUMP JUMPDEST PUSH0 PUSH1 0x20 DUP3 ADD SWAP1 POP DUP2 DUP2 SUB PUSH0 DUP4 ADD MSTORE PUSH2 0x1840 DUP2 DUP5 PUSH2 0x17F0 JUMP JUMPDEST SWAP1 POP SWAP3 SWAP2 POP POP JUMP JUMPDEST PUSH32 0x4E487B7100000000000000000000000000000000000000000000000000000000 PUSH0 MSTORE PUSH1 0x51 PUSH1 0x4 MSTORE PUSH1 0x24 PUSH0 REVERT INVALID PUSH1 0x80 PUSH1 0x40 MSTORE PUSH1 0x1 PUSH1 0x4 SSTORE PUSH1 0x1 PUSH1 0x5 SSTORE CALLVALUE DUP1 ISZERO PUSH1 0x18 JUMPI PUSH0 DUP1 REVERT JUMPDEST POP PUSH2 0x25F9 DUP1 PUSH2 0x26 PUSH0 CODECOPY PUSH0 RETURN INVALID PUSH1 0x80 PUSH1 0x40 MSTORE PUSH1 0x4 CALLDATASIZE LT PUSH2 0x89 JUMPI PUSH0 CALLDATALOAD PUSH1 0xE0 SHR DUP1 PUSH4 0x8A2355BB GT PUSH2 0x58 JUMPI DUP1 PUSH4 0x8A2355BB EQ PUSH2 0x217 JUMPI DUP1 PUSH4 0x8CA305A0 EQ PUSH2 0x243 JUMPI DUP1 PUSH4 0x9E15438A EQ PUSH2 0x26B JUMPI DUP1 PUSH4 0xC6F6298C EQ PUSH2 0x293 JUMPI DUP1 PUSH4 0xFCD68FB8 EQ PUSH2 0x2D2 JUMPI PUSH2 0x131 JUMP JUMPDEST DUP1 PUSH4 0x12065FE0 EQ PUSH2 0x135 JUMPI DUP1 PUSH4 0x204E73A0 EQ PUSH2 0x15F JUMPI DUP1 PUSH4 0x3BF13B44 EQ PUSH2 0x19B JUMPI DUP1 PUSH4 0x646F9004 EQ PUSH2 0x1DB JUMPI PUSH2 0x131 JUMP JUMPDEST CALLDATASIZE PUSH2 0x131 JUMPI CALLVALUE PUSH1 0x3 PUSH0 CALLER PUSH20 0xFFFFFFFFFFFFFFFFFFFFFFFFFFFFFFFFFFFFFFFF AND PUSH20 0xFFFFFFFFFFFFFFFFFFFFFFFFFFFFFFFFFFFFFFFF AND DUP2 MSTORE PUSH1 0x20 ADD SWAP1 DUP2 MSTORE PUSH1 0x20 ADD PUSH0 KECCAK256 PUSH0 DUP3 DUP3 SLOAD PUSH2 0xDA SWAP2 SWAP1 PUSH2 0x16C1 JUMP JUMPDEST SWAP3 POP POP DUP2 SWAP1 SSTORE POP CALLER PUSH20 0xFFFFFFFFFFFFFFFFFFFFFFFFFFFFFFFFFFFFFFFF AND PUSH32 0xE96DD7A15A3974E8E7D5EB80DE2CB6FD69907A1EE089170CD976CFFFAEDFA8AC CALLVALUE PUSH1 0x40 MLOAD PUSH2 0x127 SWAP2 SWAP1 PUSH2 0x1703 JUMP JUMPDEST PUSH1 0x40 MLOAD DUP1 SWAP2 SUB SWAP1 LOG2 STOP JUMPDEST PUSH0 DUP1 REVERT JUMPDEST CALLVALUE DUP1 ISZERO PUSH2 0x140 JUMPI PUSH0 DUP1 REVERT JUMPDEST POP PUSH2 0x149 PUSH2 0x2EE JUMP JUMPDEST PUSH1 0x40 MLOAD PUSH2 0x156 SWAP2 SWAP1 PUSH2 0x1703 JUMP JUMPDEST PUSH1 0x40 MLOAD DUP1 SWAP2 SUB SWAP1 RETURN JUMPDEST CALLVALUE DUP1 ISZERO PUSH2 0x16A JUMPI PUSH0 DUP1 REVERT JUMPDEST POP PUSH2 0x185 PUSH1 0x4 DUP1 CALLDATASIZE SUB DUP2 ADD SWAP1 PUSH2 0x180 SWAP2 SWAP1 PUSH2 0x1757 JUMP JUMPDEST PUSH2 0x332 JUMP JUMPDEST PUSH1 0x40 MLOAD PUSH2 0x192 SWAP2 SWAP1 PUSH2 0x1703 JUMP JUMPDEST PUSH1 0x40 MLOAD DUP1 SWAP2 SUB SWAP1 RETURN JUMPDEST CALLVALUE DUP1 ISZERO PUSH2 0x1A6 JUMPI PUSH0 DUP1 REVERT JUMPDEST POP PUSH2 0x1C1 PUSH1 0x4 DUP1 CALLDATASIZE SUB DUP2 ADD SWAP1 PUSH2 0x1BC SWAP2 SWAP1 PUSH2 0x1795 JUMP JUMPDEST PUSH2 0x6B7 JUMP JUMPDEST PUSH1 0x40 MLOAD PUSH2 0x1D2 SWAP6 SWAP5 SWAP4 SWAP3 SWAP2 SWAP1 PUSH2 0x1819 JUMP JUMPDEST PUSH1 0x40 MLOAD DUP1 SWAP2 SUB SWAP1 RETURN JUMPDEST CALLVALUE DUP1 ISZERO PUSH2 0x1E6 JUMPI PUSH0 DUP1 REVERT JUMPDEST POP PUSH2 0x201 PUSH1 0x4 DUP1 CALLDATASIZE SUB DUP2 ADD SWAP1 PUSH2 0x1FC SWAP2 SWAP1 PUSH2 0x19A6 JUMP JUMPDEST PUSH2 0x734 JUMP JUMPDEST PUSH1 0x40 MLOAD PUSH2 0x20E SWAP2 SWAP1 PUSH2 0x1703 JUMP JUMPDEST PUSH1 0x40 MLOAD DUP1 SWAP2 SUB SWAP1 RETURN JUMPDEST CALLVALUE DUP1 ISZERO PUSH2 0x222 JUMPI PUSH0 DUP1 REVERT JUMPDEST POP PUSH2 0x22B PUSH2 0x908 JUMP JUMPDEST PUSH1 0x40 MLOAD PUSH2 0x23A SWAP4 SWAP3 SWAP2 SWAP1 PUSH2 0x1BD2 JUMP JUMPDEST PUSH1 0x40 MLOAD DUP1 SWAP2 SUB SWAP1 RETURN JUMPDEST CALLVALUE DUP1 ISZERO PUSH2 0x24E JUMPI PUSH0 DUP1 REVERT JUMPDEST POP PUSH2 0x269 PUSH1 0x4 DUP1 CALLDATASIZE SUB DUP2 ADD SWAP1 PUSH2 0x264 SWAP2 SWAP1 PUSH2 0x1795 JUMP JUMPDEST PUSH2 0xBEC JUMP JUMPDEST STOP JUMPDEST CALLVALUE DUP1 ISZERO PUSH2 0x276 JUMPI PUSH0 DUP1 REVERT JUMPDEST POP PUSH2 0x291 PUSH1 0x4 DUP1 CALLDATASIZE SUB DUP2 ADD SWAP1 PUSH2 0x28C SWAP2 SWAP1 PUSH2 0x1795 JUMP JUMPDEST PUSH2 0xD2F JUMP JUMPDEST STOP JUMPDEST CALLVALUE DUP1 ISZERO PUSH2 0x29E JUMPI PUSH0 DUP1 REVERT JUMPDEST POP PUSH2 0x2B9 PUSH1 0x4 DUP1 CALLDATASIZE SUB DUP2 ADD SWAP1 PUSH2 0x2B4 SWAP2 SWAP1 PUSH2 0x1795 JUMP JUMPDEST PUSH2 0x11CF JUMP JUMPDEST PUSH1 0x40 MLOAD PUSH2 0x2C9 SWAP5 SWAP4 SWAP3 SWAP2 SWAP1 PUSH2 0x1C64 JUMP JUMPDEST PUSH1 0x40 MLOAD DUP1 SWAP2 SUB SWAP1 RETURN JUMPDEST PUSH2 0x2EC PUSH1 0x4 DUP1 CALLDATASIZE SUB DUP2 ADD SWAP1 PUSH2 0x2E7 SWAP2 SWAP1 PUSH2 0x1795 JUMP JUMPDEST PUSH2 0x12AC JUMP JUMPDEST STOP JUMPDEST PUSH0 PUSH1 0x3 PUSH0 CALLER PUSH20 0xFFFFFFFFFFFFFFFFFFFFFFFFFFFFFFFFFFFFFFFF AND PUSH20 0xFFFFFFFFFFFFFFFFFFFFFFFFFFFFFFFFFFFFFFFF AND DUP2 MSTORE PUSH1 0x20 ADD SWAP1 DUP2 MSTORE PUSH1 0x20 ADD PUSH0 KECCAK256 SLOAD SWAP1 POP SWAP1 JUMP JUMPDEST PUSH0 DUP1 PUSH0 DUP1 DUP6 DUP2 MSTORE PUSH1 0x20 ADD SWAP1 DUP2 MSTORE PUSH1 0x20 ADD PUSH0 KECCAK256 SWAP1 POP PUSH0 DUP1 PUSH0 DUP6 DUP2 MSTORE PUSH1 0x20 ADD SWAP1 DUP2 MSTORE PUSH1 0x20 ADD PUSH0 KECCAK256 SWAP1 POP DUP2 PUSH1 0x2 ADD PUSH1 0x14 SWAP1 SLOAD SWAP1 PUSH2 0x100 EXP SWAP1 DIV PUSH1 0xFF AND DUP1 ISZERO PUSH2 0x385 JUMPI POP DUP1 PUSH1 0x2 ADD PUSH1 0x14 SWAP1 SLOAD SWAP1 PUSH2 0x100 EXP SWAP1 DIV PUSH1 0xFF AND JUMPDEST PUSH2 0x3C4 JUMPI PUSH1 0x40 MLOAD PUSH32 0x8C379A000000000000000000000000000000000000000000000000000000000 DUP2 MSTORE PUSH1 0x4 ADD PUSH2 0x3BB SWAP1 PUSH2 0x1CF8 JUMP JUMPDEST PUSH1 0x40 MLOAD DUP1 SWAP2 SUB SWAP1 REVERT JUMPDEST CALLER PUSH20 0xFFFFFFFFFFFFFFFFFFFFFFFFFFFFFFFFFFFFFFFF AND DUP3 PUSH1 0x2 ADD PUSH0 SWAP1 SLOAD SWAP1 PUSH2 0x100 EXP SWAP1 DIV PUSH20 0xFFFFFFFFFFFFFFFFFFFFFFFFFFFFFFFFFFFFFFFF AND PUSH20 0xFFFFFFFFFFFFFFFFFFFFFFFFFFFFFFFFFFFFFFFF AND EQ PUSH2 0x455 JUMPI PUSH1 0x40 MLOAD PUSH32 0x8C379A000000000000000000000000000000000000000000000000000000000 DUP2 MSTORE PUSH1 0x4 ADD PUSH2 0x44C SWAP1 PUSH2 0x1D86 JUMP JUMPDEST PUSH1 0x40 MLOAD DUP1 SWAP2 SUB SWAP1 REVERT JUMPDEST CALLER PUSH20 0xFFFFFFFFFFFFFFFFFFFFFFFFFFFFFFFFFFFFFFFF AND DUP2 PUSH1 0x2 ADD PUSH0 SWAP1 SLOAD SWAP1 PUSH2 0x100 EXP SWAP1 DIV PUSH20 0xFFFFFFFFFFFFFFFFFFFFFFFFFFFFFFFFFFFFFFFF AND PUSH20 0xFFFFFFFFFFFFFFFFFFFFFFFFFFFFFFFFFFFFFFFF AND SUB PUSH2 0x4E6 JUMPI PUSH1 0x40 MLOAD PUSH32 0x8C379A000000000000000000000000000000000000000000000000000000000 DUP2 MSTORE PUSH1 0x4 ADD PUSH2 0x4DD SWAP1 PUSH2 0x1DEE JUMP JUMPDEST PUSH1 0x40 MLOAD DUP1 SWAP2 SUB SWAP1 REVERT JUMPDEST PUSH0 PUSH1 0x5 PUSH0 DUP2 SLOAD DUP1 SWAP3 SWAP2 SWAP1 PUSH2 0x4F9 SWAP1 PUSH2 0x1E0C JUMP JUMPDEST SWAP2 SWAP1 POP SSTORE SWAP1 POP PUSH1 0x40 MLOAD DUP1 PUSH1 0xA0 ADD PUSH1 0x40 MSTORE DUP1 DUP8 DUP2 MSTORE PUSH1 0x20 ADD DUP7 DUP2 MSTORE PUSH1 0x20 ADD CALLER PUSH20 0xFFFFFFFFFFFFFFFFFFFFFFFFFFFFFFFFFFFFFFFF AND DUP2 MSTORE PUSH1 0x20 ADD DUP4 PUSH1 0x2 ADD PUSH0 SWAP1 SLOAD SWAP1 PUSH2 0x100 EXP SWAP1 DIV PUSH20 0xFFFFFFFFFFFFFFFFFFFFFFFFFFFFFFFFFFFFFFFF AND PUSH20 0xFFFFFFFFFFFFFFFFFFFFFFFFFFFFFFFFFFFFFFFF AND DUP2 MSTORE PUSH1 0x20 ADD PUSH1 0x1 ISZERO ISZERO DUP2 MSTORE POP PUSH1 0x1 PUSH0 DUP4 DUP2 MSTORE PUSH1 0x20 ADD SWAP1 DUP2 MSTORE PUSH1 0x20 ADD PUSH0 KECCAK256 PUSH0 DUP3 ADD MLOAD DUP2 PUSH0 ADD SSTORE PUSH1 0x20 DUP3 ADD MLOAD DUP2 PUSH1 0x1 ADD SSTORE PUSH1 0x40 DUP3 ADD MLOAD DUP2 PUSH1 0x2 ADD PUSH0 PUSH2 0x100 EXP DUP2 SLOAD DUP2 PUSH20 0xFFFFFFFFFFFFFFFFFFFFFFFFFFFFFFFFFFFFFFFF MUL NOT AND SWAP1 DUP4 PUSH20 0xFFFFFFFFFFFFFFFFFFFFFFFFFFFFFFFFFFFFFFFF AND MUL OR SWAP1 SSTORE POP PUSH1 0x60 DUP3 ADD MLOAD DUP2 PUSH1 0x3 ADD PUSH0 PUSH2 0x100 EXP DUP2 SLOAD DUP2 PUSH20 0xFFFFFFFFFFFFFFFFFFFFFFFFFFFFFFFFFFFFFFFF MUL NOT AND SWAP1 DUP4 PUSH20 0xFFFFFFFFFFFFFFFFFFFFFFFFFFFFFFFFFFFFFFFF AND MUL OR SWAP1 SSTORE POP PUSH1 0x80 DUP3 ADD MLOAD DUP2 PUSH1 0x3 ADD PUSH1 0x14 PUSH2 0x100 EXP DUP2 SLOAD DUP2 PUSH1 0xFF MUL NOT AND SWAP1 DUP4 ISZERO ISZERO MUL OR SWAP1 SSTORE POP SWAP1 POP POP DUP1 PUSH32 0x6EDFDC9B701A7247AC2F7823B864E96BECB1B22964C1EB1C1F9AF42F4CE10F5D DUP8 DUP8 CALLER DUP7 PUSH1 0x2 ADD PUSH0 SWAP1 SLOAD SWAP1 PUSH2 0x100 EXP SWAP1 DIV PUSH20 0xFFFFFFFFFFFFFFFFFFFFFFFFFFFFFFFFFFFFFFFF AND PUSH1 0x40 MLOAD PUSH2 0x6A3 SWAP5 SWAP4 SWAP3 SWAP2 SWAP1 PUSH2 0x1E53 JUMP JUMPDEST PUSH1 0x40 MLOAD DUP1 SWAP2 SUB SWAP1 LOG2 DUP1 SWAP4 POP POP POP POP SWAP3 SWAP2 POP POP JUMP JUMPDEST PUSH1 0x1 PUSH1 0x20 MSTORE DUP1 PUSH0 MSTORE PUSH1 0x40 PUSH0 KECCAK256 PUSH0 SWAP2 POP SWAP1 POP DUP1 PUSH0 ADD SLOAD SWAP1 DUP1 PUSH1 0x1 ADD SLOAD SWAP1 DUP1 PUSH1 0x2 ADD PUSH0 SWAP1 SLOAD SWAP1 PUSH2 0x100 EXP SWAP1 DIV PUSH20 0xFFFFFFFFFFFFFFFFFFFFFFFFFFFFFFFFFFFFFFFF AND SWAP1 DUP1 PUSH1 0x3 ADD PUSH0 SWAP1 SLOAD SWAP1 PUSH2 0x100 EXP SWAP1 DIV PUSH20 0xFFFFFFFFFFFFFFFFFFFFFFFFFFFFFFFFFFFFFFFF AND SWAP1 DUP1 PUSH1 0x3 ADD PUSH1 0x14 SWAP1 SLOAD SWAP1 PUSH2 0x100 EXP SWAP1 DIV PUSH1 0xFF AND SWAP1 POP DUP6 JUMP JUMPDEST PUSH0 DUP1 DUP3 GT PUSH2 0x777 JUMPI PUSH1 0x40 MLOAD PUSH32 0x8C379A000000000000000000000000000000000000000000000000000000000 DUP2 MSTORE PUSH1 0x4 ADD PUSH2 0x76E SWAP1 PUSH2 0x1EE0 JUMP JUMPDEST PUSH1 0x40 MLOAD DUP1 SWAP2 SUB SWAP1 REVERT JUMPDEST PUSH0 PUSH1 0x4 PUSH0 DUP2 SLOAD DUP1 SWAP3 SWAP2 SWAP1 PUSH2 0x78A SWAP1 PUSH2 0x1E0C JUMP JUMPDEST SWAP2 SWAP1 POP SSTORE SWAP1 POP PUSH1 0x40 MLOAD DUP1 PUSH1 0x80 ADD PUSH1 0x40 MSTORE DUP1 DUP6 DUP2 MSTORE PUSH1 0x20 ADD DUP5 DUP2 MSTORE PUSH1 0x20 ADD CALLER PUSH20 0xFFFFFFFFFFFFFFFFFFFFFFFFFFFFFFFFFFFFFFFF AND DUP2 MSTORE PUSH1 0x20 ADD PUSH1 0x1 ISZERO ISZERO DUP2 MSTORE POP PUSH0 DUP1 DUP4 DUP2 MSTORE PUSH1 0x20 ADD SWAP1 DUP2 MSTORE PUSH1 0x20 ADD PUSH0 KECCAK256 PUSH0 DUP3 ADD MLOAD DUP2 PUSH0 ADD SWAP1 DUP2 PUSH2 0x7ED SWAP2 SWAP1 PUSH2 0x20F8 JUMP JUMPDEST POP PUSH1 0x20 DUP3 ADD MLOAD DUP2 PUSH1 0x1 ADD SSTORE PUSH1 0x40 DUP3 ADD MLOAD DUP2 PUSH1 0x2 ADD PUSH0 PUSH2 0x100 EXP DUP2 SLOAD DUP2 PUSH20 0xFFFFFFFFFFFFFFFFFFFFFFFFFFFFFFFFFFFFFFFF MUL NOT AND SWAP1 DUP4 PUSH20 0xFFFFFFFFFFFFFFFFFFFFFFFFFFFFFFFFFFFFFFFF AND MUL OR SWAP1 SSTORE POP PUSH1 0x60 DUP3 ADD MLOAD DUP2 PUSH1 0x2 ADD PUSH1 0x14 PUSH2 0x100 EXP DUP2 SLOAD DUP2 PUSH1 0xFF MUL NOT AND SWAP1 DUP4 ISZERO ISZERO MUL OR SWAP1 SSTORE POP SWAP1 POP POP PUSH1 0x2 PUSH0 CALLER PUSH20 0xFFFFFFFFFFFFFFFFFFFFFFFFFFFFFFFFFFFFFFFF AND PUSH20 0xFFFFFFFFFFFFFFFFFFFFFFFFFFFFFFFFFFFFFFFF AND DUP2 MSTORE PUSH1 0x20 ADD SWAP1 DUP2 MSTORE PUSH1 0x20 ADD PUSH0 KECCAK256 DUP2 SWAP1 DUP1 PUSH1 0x1 DUP2 SLOAD ADD DUP1 DUP3 SSTORE DUP1 SWAP2 POP POP PUSH1 0x1 SWAP1 SUB SWAP1 PUSH0 MSTORE PUSH1 0x20 PUSH0 KECCAK256 ADD PUSH0 SWAP1 SWAP2 SWAP1 SWAP2 SWAP1 SWAP2 POP SSTORE DUP1 PUSH32 0xCEB0BF651DFCD2820B323207631D6BA7C71C145C326D630F7D9CA846AEAF25B0 DUP6 DUP6 CALLER PUSH1 0x40 MLOAD PUSH2 0x8F6 SWAP4 SWAP3 SWAP2 SWAP1 PUSH2 0x21C7 JUMP JUMPDEST PUSH1 0x40 MLOAD DUP1 SWAP2 SUB SWAP1 LOG2 DUP1 SWAP2 POP POP SWAP3 SWAP2 POP POP JUMP JUMPDEST PUSH1 0x60 DUP1 PUSH1 0x60 PUSH0 PUSH1 0x2 PUSH0 CALLER PUSH20 0xFFFFFFFFFFFFFFFFFFFFFFFFFFFFFFFFFFFFFFFF AND PUSH20 0xFFFFFFFFFFFFFFFFFFFFFFFFFFFFFFFFFFFFFFFF AND DUP2 MSTORE PUSH1 0x20 ADD SWAP1 DUP2 MSTORE PUSH1 0x20 ADD PUSH0 KECCAK256 SWAP1 POP PUSH0 DUP2 DUP1 SLOAD SWAP1 POP SWAP1 POP DUP1 PUSH8 0xFFFFFFFFFFFFFFFF DUP2 GT ISZERO PUSH2 0x96F JUMPI PUSH2 0x96E PUSH2 0x1882 JUMP JUMPDEST JUMPDEST PUSH1 0x40 MLOAD SWAP1 DUP1 DUP3 MSTORE DUP1 PUSH1 0x20 MUL PUSH1 0x20 ADD DUP3 ADD PUSH1 0x40 MSTORE DUP1 ISZERO PUSH2 0x9A2 JUMPI DUP2 PUSH1 0x20 ADD JUMPDEST PUSH1 0x60 DUP2 MSTORE PUSH1 0x20 ADD SWAP1 PUSH1 0x1 SWAP1 SUB SWAP1 DUP2 PUSH2 0x98D JUMPI SWAP1 POP JUMPDEST POP SWAP4 POP DUP1 PUSH8 0xFFFFFFFFFFFFFFFF DUP2 GT ISZERO PUSH2 0x9BF JUMPI PUSH2 0x9BE PUSH2 0x1882 JUMP JUMPDEST JUMPDEST PUSH1 0x40 MLOAD SWAP1 DUP1 DUP3 MSTORE DUP1 PUSH1 0x20 MUL PUSH1 0x20 ADD DUP3 ADD PUSH1 0x40 MSTORE DUP1 ISZERO PUSH2 0x9ED JUMPI DUP2 PUSH1 0x20 ADD PUSH1 0x20 DUP3 MUL DUP1 CALLDATASIZE DUP4 CALLDATACOPY DUP1 DUP3 ADD SWAP2 POP POP SWAP1 POP JUMPDEST POP SWAP3 POP DUP1 PUSH8 0xFFFFFFFFFFFFFFFF DUP2 GT ISZERO PUSH2 0xA0A JUMPI PUSH2 0xA09 PUSH2 0x1882 JUMP JUMPDEST JUMPDEST PUSH1 0x40 MLOAD SWAP1 DUP1 DUP3 MSTORE DUP1 PUSH1 0x20 MUL PUSH1 0x20 ADD DUP3 ADD PUSH1 0x40 MSTORE DUP1 ISZERO PUSH2 0xA38 JUMPI DUP2 PUSH1 0x20 ADD PUSH1 0x20 DUP3 MUL DUP1 CALLDATASIZE DUP4 CALLDATACOPY DUP1 DUP3 ADD SWAP2 POP POP SWAP1 POP JUMPDEST POP SWAP5 POP PUSH0 JUMPDEST DUP2 DUP2 LT ISZERO PUSH2 0xBE4 JUMPI PUSH0 DUP4 DUP3 DUP2 SLOAD DUP2 LT PUSH2 0xA59 JUMPI PUSH2 0xA58 PUSH2 0x2203 JUMP JUMPDEST JUMPDEST SWAP1 PUSH0 MSTORE PUSH1 0x20 PUSH0 KECCAK256 ADD SLOAD SWAP1 POP PUSH0 DUP1 PUSH0 DUP4 DUP2 MSTORE PUSH1 0x20 ADD SWAP1 DUP2 MSTORE PUSH1 0x20 ADD PUSH0 KECCAK256 SWAP1 POP CALLER PUSH20 0xFFFFFFFFFFFFFFFFFFFFFFFFFFFFFFFFFFFFFFFF AND DUP2 PUSH1 0x2 ADD PUSH0 SWAP1 SLOAD SWAP1 PUSH2 0x100 EXP SWAP1 DIV PUSH20 0xFFFFFFFFFFFFFFFFFFFFFFFFFFFFFFFFFFFFFFFF AND PUSH20 0xFFFFFFFFFFFFFFFFFFFFFFFFFFFFFFFFFFFFFFFF AND EQ DUP1 ISZERO PUSH2 0xAE3 JUMPI POP DUP1 PUSH1 0x2 ADD PUSH1 0x14 SWAP1 SLOAD SWAP1 PUSH2 0x100 EXP SWAP1 DIV PUSH1 0xFF AND JUMPDEST ISZERO PUSH2 0xBD5 JUMPI DUP2 DUP9 DUP5 DUP2 MLOAD DUP2 LT PUSH2 0xAFC JUMPI PUSH2 0xAFB PUSH2 0x2203 JUMP JUMPDEST JUMPDEST PUSH1 0x20 MUL PUSH1 0x20 ADD ADD DUP2 DUP2 MSTORE POP POP DUP1 PUSH0 ADD DUP1 SLOAD PUSH2 0xB16 SWAP1 PUSH2 0x1F2B JUMP JUMPDEST DUP1 PUSH1 0x1F ADD PUSH1 0x20 DUP1 SWAP2 DIV MUL PUSH1 0x20 ADD PUSH1 0x40 MLOAD SWAP1 DUP2 ADD PUSH1 0x40 MSTORE DUP1 SWAP3 SWAP2 SWAP1 DUP2 DUP2 MSTORE PUSH1 0x20 ADD DUP3 DUP1 SLOAD PUSH2 0xB42 SWAP1 PUSH2 0x1F2B JUMP JUMPDEST DUP1 ISZERO PUSH2 0xB8D JUMPI DUP1 PUSH1 0x1F LT PUSH2 0xB64 JUMPI PUSH2 0x100 DUP1 DUP4 SLOAD DIV MUL DUP4 MSTORE SWAP2 PUSH1 0x20 ADD SWAP2 PUSH2 0xB8D JUMP JUMPDEST DUP3 ADD SWAP2 SWAP1 PUSH0 MSTORE PUSH1 0x20 PUSH0 KECCAK256 SWAP1 JUMPDEST DUP2 SLOAD DUP2 MSTORE SWAP1 PUSH1 0x1 ADD SWAP1 PUSH1 0x20 ADD DUP1 DUP4 GT PUSH2 0xB70 JUMPI DUP3 SWAP1 SUB PUSH1 0x1F AND DUP3 ADD SWAP2 JUMPDEST POP POP POP POP POP DUP8 DUP5 DUP2 MLOAD DUP2 LT PUSH2 0xBA5 JUMPI PUSH2 0xBA4 PUSH2 0x2203 JUMP JUMPDEST JUMPDEST PUSH1 0x20 MUL PUSH1 0x20 ADD ADD DUP2 SWAP1 MSTORE POP DUP1 PUSH1 0x1 ADD SLOAD DUP7 DUP5 DUP2 MLOAD DUP2 LT PUSH2 0xBC8 JUMPI PUSH2 0xBC7 PUSH2 0x2203 JUMP JUMPDEST JUMPDEST PUSH1 0x20 MUL PUSH1 0x20 ADD ADD DUP2 DUP2 MSTORE POP POP JUMPDEST POP POP DUP1 DUP1 PUSH1 0x1 ADD SWAP2 POP POP PUSH2 0xA3D JUMP JUMPDEST POP POP POP SWAP1 SWAP2 SWAP3 JUMP JUMPDEST PUSH0 PUSH1 0x1 PUSH0 DUP4 DUP2 MSTORE PUSH1 0x20 ADD SWAP1 DUP2 MSTORE PUSH1 0x20 ADD PUSH0 KECCAK256 SWAP1 POP DUP1 PUSH1 0x3 ADD PUSH1 0x14 SWAP1 SLOAD SWAP1 PUSH2 0x100 EXP SWAP1 DIV PUSH1 0xFF AND PUSH2 0xC51 JUMPI PUSH1 0x40 MLOAD PUSH32 0x8C379A000000000000000000000000000000000000000000000000000000000 DUP2 MSTORE PUSH1 0x4 ADD PUSH2 0xC48 SWAP1 PUSH2 0x227A JUMP JUMPDEST PUSH1 0x40 MLOAD DUP1 SWAP2 SUB SWAP1 REVERT JUMPDEST DUP1 PUSH1 0x3 ADD PUSH0 SWAP1 SLOAD SWAP1 PUSH2 0x100 EXP SWAP1 DIV PUSH20 0xFFFFFFFFFFFFFFFFFFFFFFFFFFFFFFFFFFFFFFFF AND PUSH20 0xFFFFFFFFFFFFFFFFFFFFFFFFFFFFFFFFFFFFFFFF AND CALLER PUSH20 0xFFFFFFFFFFFFFFFFFFFFFFFFFFFFFFFFFFFFFFFF AND EQ PUSH2 0xCE2 JUMPI PUSH1 0x40 MLOAD PUSH32 0x8C379A000000000000000000000000000000000000000000000000000000000 DUP2 MSTORE PUSH1 0x4 ADD PUSH2 0xCD9 SWAP1 PUSH2 0x22E2 JUMP JUMPDEST PUSH1 0x40 MLOAD DUP1 SWAP2 SUB SWAP1 REVERT JUMPDEST PUSH0 DUP2 PUSH1 0x3 ADD PUSH1 0x14 PUSH2 0x100 EXP DUP2 SLOAD DUP2 PUSH1 0xFF MUL NOT AND SWAP1 DUP4 ISZERO ISZERO MUL OR SWAP1 SSTORE POP DUP2 PUSH32 0xA1C9C2960DE4CF480352C598967A5BC05FDF3EBFF2DA8172B62187AFA5DC0343 PUSH1 0x40 MLOAD PUSH1 0x40 MLOAD DUP1 SWAP2 SUB SWAP1 LOG2 POP POP JUMP JUMPDEST PUSH0 PUSH1 0x1 PUSH0 DUP4 DUP2 MSTORE PUSH1 0x20 ADD SWAP1 DUP2 MSTORE PUSH1 0x20 ADD PUSH0 KECCAK256 SWAP1 POP PUSH0 DUP1 PUSH0 DUP4 PUSH0 ADD SLOAD DUP2 MSTORE PUSH1 0x20 ADD SWAP1 DUP2 MSTORE PUSH1 0x20 ADD PUSH0 KECCAK256 SWAP1 POP PUSH0 DUP1 PUSH0 DUP5 PUSH1 0x1 ADD SLOAD DUP2 MSTORE PUSH1 0x20 ADD SWAP1 DUP2 MSTORE PUSH1 0x20 ADD PUSH0 KECCAK256 SWAP1 POP DUP3 PUSH1 0x3 ADD PUSH1 0x14 SWAP1 SLOAD SWAP1 PUSH2 0x100 EXP SWAP1 DIV PUSH1 0xFF AND PUSH2 0xDC1 JUMPI PUSH1 0x40 MLOAD PUSH32 0x8C379A000000000000000000000000000000000000000000000000000000000 DUP2 MSTORE PUSH1 0x4 ADD PUSH2 0xDB8 SWAP1 PUSH2 0x227A JUMP JUMPDEST PUSH1 0x40 MLOAD DUP1 SWAP2 SUB SWAP1 REVERT JUMPDEST DUP3 PUSH1 0x3 ADD PUSH0 SWAP1 SLOAD SWAP1 PUSH2 0x100 EXP SWAP1 DIV PUSH20 0xFFFFFFFFFFFFFFFFFFFFFFFFFFFFFFFFFFFFFFFF AND PUSH20 0xFFFFFFFFFFFFFFFFFFFFFFFFFFFFFFFFFFFFFFFF AND CALLER PUSH20 0xFFFFFFFFFFFFFFFFFFFFFFFFFFFFFFFFFFFFFFFF AND EQ PUSH2 0xE52 JUMPI PUSH1 0x40 MLOAD PUSH32 0x8C379A000000000000000000000000000000000000000000000000000000000 DUP2 MSTORE PUSH1 0x4 ADD PUSH2 0xE49 SWAP1 PUSH2 0x234A JUMP JUMPDEST PUSH1 0x40 MLOAD DUP1 SWAP2 SUB SWAP1 REVERT JUMPDEST CALLER PUSH20 0xFFFFFFFFFFFFFFFFFFFFFFFFFFFFFFFFFFFFFFFF AND DUP2 PUSH1 0x2 ADD PUSH0 SWAP1 SLOAD SWAP1 PUSH2 0x100 EXP SWAP1 DIV PUSH20 0xFFFFFFFFFFFFFFFFFFFFFFFFFFFFFFFFFFFFFFFF AND PUSH20 0xFFFFFFFFFFFFFFFFFFFFFFFFFFFFFFFFFFFFFFFF AND EQ PUSH2 0xEE3 JUMPI PUSH1 0x40 MLOAD PUSH32 0x8C379A000000000000000000000000000000000000000000000000000000000 DUP2 MSTORE PUSH1 0x4 ADD PUSH2 0xEDA SWAP1 PUSH2 0x23D8 JUMP JUMPDEST PUSH1 0x40 MLOAD DUP1 SWAP2 SUB SWAP1 REVERT JUMPDEST PUSH2 0xF13 DUP4 PUSH1 0x2 ADD PUSH0 SWAP1 SLOAD SWAP1 PUSH2 0x100 EXP SWAP1 DIV PUSH20 0xFFFFFFFFFFFFFFFFFFFFFFFFFFFFFFFFFFFFFFFF AND DUP5 PUSH0 ADD SLOAD PUSH2 0x1594 JUMP JUMPDEST PUSH2 0xF44 DUP4 PUSH1 0x3 ADD PUSH0 SWAP1 SLOAD SWAP1 PUSH2 0x100 EXP SWAP1 DIV PUSH20 0xFFFFFFFFFFFFFFFFFFFFFFFFFFFFFFFFFFFFFFFF AND DUP5 PUSH1 0x1 ADD SLOAD PUSH2 0x1594 JUMP JUMPDEST PUSH0 DUP3 PUSH1 0x2 ADD PUSH0 SWAP1 SLOAD SWAP1 PUSH2 0x100 EXP SWAP1 DIV PUSH20 0xFFFFFFFFFFFFFFFFFFFFFFFFFFFFFFFFFFFFFFFF AND SWAP1 POP DUP2 PUSH1 0x2 ADD PUSH0 SWAP1 SLOAD SWAP1 PUSH2 0x100 EXP SWAP1 DIV PUSH20 0xFFFFFFFFFFFFFFFFFFFFFFFFFFFFFFFFFFFFFFFF AND DUP4 PUSH1 0x2 ADD PUSH0 PUSH2 0x100 EXP DUP2 SLOAD DUP2 PUSH20 0xFFFFFFFFFFFFFFFFFFFFFFFFFFFFFFFFFFFFFFFF MUL NOT AND SWAP1 DUP4 PUSH20 0xFFFFFFFFFFFFFFFFFFFFFFFFFFFFFFFFFFFFFFFF AND MUL OR SWAP1 SSTORE POP DUP1 DUP3 PUSH1 0x2 ADD PUSH0 PUSH2 0x100 EXP DUP2 SLOAD DUP2 PUSH20 0xFFFFFFFFFFFFFFFFFFFFFFFFFFFFFFFFFFFFFFFF MUL NOT AND SWAP1 DUP4 PUSH20 0xFFFFFFFFFFFFFFFFFFFFFFFFFFFFFFFFFFFFFFFF AND MUL OR SWAP1 SSTORE POP PUSH1 0x2 PUSH0 DUP5 PUSH1 0x2 ADD PUSH0 SWAP1 SLOAD SWAP1 PUSH2 0x100 EXP SWAP1 DIV PUSH20 0xFFFFFFFFFFFFFFFFFFFFFFFFFFFFFFFFFFFFFFFF AND PUSH20 0xFFFFFFFFFFFFFFFFFFFFFFFFFFFFFFFFFFFFFFFF AND PUSH20 0xFFFFFFFFFFFFFFFFFFFFFFFFFFFFFFFFFFFFFFFF AND DUP2 MSTORE PUSH1 0x20 ADD SWAP1 DUP2 MSTORE PUSH1 0x20 ADD PUSH0 KECCAK256 DUP5 PUSH0 ADD SLOAD SWAP1 DUP1 PUSH1 0x1 DUP2 SLOAD ADD DUP1 DUP3 SSTORE DUP1 SWAP2 POP POP PUSH1 0x1 SWAP1 SUB SWAP1 PUSH0 MSTORE PUSH1 0x20 PUSH0 KECCAK256 ADD PUSH0 SWAP1 SWAP2 SWAP1 SWAP2 SWAP1 SWAP2 POP SSTORE PUSH1 0x2 PUSH0 DUP4 PUSH1 0x2 ADD PUSH0 SWAP1 SLOAD SWAP1 PUSH2 0x100 EXP SWAP1 DIV PUSH20 0xFFFFFFFFFFFFFFFFFFFFFFFFFFFFFFFFFFFFFFFF AND PUSH20 0xFFFFFFFFFFFFFFFFFFFFFFFFFFFFFFFFFFFFFFFF AND PUSH20 0xFFFFFFFFFFFFFFFFFFFFFFFFFFFFFFFFFFFFFFFF AND DUP2 MSTORE PUSH1 0x20 ADD SWAP1 DUP2 MSTORE PUSH1 0x20 ADD PUSH0 KECCAK256 DUP5 PUSH1 0x1 ADD SLOAD SWAP1 DUP1 PUSH1 0x1 DUP2 SLOAD ADD DUP1 DUP3 SSTORE DUP1 SWAP2 POP POP PUSH1 0x1 SWAP1 SUB SWAP1 PUSH0 MSTORE PUSH1 0x20 PUSH0 KECCAK256 ADD PUSH0 SWAP1 SWAP2 SWAP1 SWAP2 SWAP1 SWAP2 POP SSTORE PUSH0 DUP5 PUSH1 0x3 ADD PUSH1 0x14 PUSH2 0x100 EXP DUP2 SLOAD DUP2 PUSH1 0xFF MUL NOT AND SWAP1 DUP4 ISZERO ISZERO MUL OR SWAP1 SSTORE POP DUP5 PUSH32 0x4CCE1D3129DD8E1D74219F4329D186F2910A4806AB09294065620E13E099BA7F DUP6 PUSH0 ADD SLOAD DUP7 PUSH1 0x1 ADD SLOAD DUP7 PUSH1 0x2 ADD PUSH0 SWAP1 SLOAD SWAP1 PUSH2 0x100 EXP SWAP1 DIV PUSH20 0xFFFFFFFFFFFFFFFFFFFFFFFFFFFFFFFFFFFFFFFF AND DUP7 PUSH1 0x2 ADD PUSH0 SWAP1 SLOAD SWAP1 PUSH2 0x100 EXP SWAP1 DIV PUSH20 0xFFFFFFFFFFFFFFFFFFFFFFFFFFFFFFFFFFFFFFFF AND PUSH1 0x40 MLOAD PUSH2 0x11C0 SWAP5 SWAP4 SWAP3 SWAP2 SWAP1 PUSH2 0x1E53 JUMP JUMPDEST PUSH1 0x40 MLOAD DUP1 SWAP2 SUB SWAP1 LOG2 POP POP POP POP POP JUMP JUMPDEST PUSH0 PUSH1 0x20 MSTORE DUP1 PUSH0 MSTORE PUSH1 0x40 PUSH0 KECCAK256 PUSH0 SWAP2 POP SWAP1 POP DUP1 PUSH0 ADD DUP1 SLOAD PUSH2 0x11ED SWAP1 PUSH2 0x1F2B JUMP JUMPDEST DUP1 PUSH1 0x1F ADD PUSH1 0x20 DUP1 SWAP2 DIV MUL PUSH1 0x20 ADD PUSH1 0x40 MLOAD SWAP1 DUP2 ADD PUSH1 0x40 MSTORE DUP1 SWAP3 SWAP2 SWAP1 DUP2 DUP2 MSTORE PUSH1 0x20 ADD DUP3 DUP1 SLOAD PUSH2 0x1219 SWAP1 PUSH2 0x1F2B JUMP JUMPDEST DUP1 ISZERO PUSH2 0x1264 JUMPI DUP1 PUSH1 0x1F LT PUSH2 0x123B JUMPI PUSH2 0x100 DUP1 DUP4 SLOAD DIV MUL DUP4 MSTORE SWAP2 PUSH1 0x20 ADD SWAP2 PUSH2 0x1264 JUMP JUMPDEST DUP3 ADD SWAP2 SWAP1 PUSH0 MSTORE PUSH1 0x20 PUSH0 KECCAK256 SWAP1 JUMPDEST DUP2 SLOAD DUP2 MSTORE SWAP1 PUSH1 0x1 ADD SWAP1 PUSH1 0x20 ADD DUP1 DUP4 GT PUSH2 0x1247 JUMPI DUP3 SWAP1 SUB PUSH1 0x1F AND DUP3 ADD SWAP2 JUMPDEST POP POP POP POP POP SWAP1 DUP1 PUSH1 0x1 ADD SLOAD SWAP1 DUP1 PUSH1 0x2 ADD PUSH0 SWAP1 SLOAD SWAP1 PUSH2 0x100 EXP SWAP1 DIV PUSH20 0xFFFFFFFFFFFFFFFFFFFFFFFFFFFFFFFFFFFFFFFF AND SWAP1 DUP1 PUSH1 0x2 ADD PUSH1 0x14 SWAP1 SLOAD SWAP1 PUSH2 0x100 EXP SWAP1 DIV PUSH1 0xFF AND SWAP1 POP DUP5 JUMP JUMPDEST PUSH0 DUP1 PUSH0 DUP4 DUP2 MSTORE PUSH1 0x20 ADD SWAP1 DUP2 MSTORE PUSH1 0x20 ADD PUSH0 KECCAK256 SWAP1 POP DUP1 PUSH1 0x2 ADD PUSH1 0x14 SWAP1 SLOAD SWAP1 PUSH2 0x100 EXP SWAP1 DIV PUSH1 0xFF AND PUSH2 0x1310 JUMPI PUSH1 0x40 MLOAD PUSH32 0x8C379A000000000000000000000000000000000000000000000000000000000 DUP2 MSTORE PUSH1 0x4 ADD PUSH2 0x1307 SWAP1 PUSH2 0x2440 JUMP JUMPDEST PUSH1 0x40 MLOAD DUP1 SWAP2 SUB SWAP1 REVERT JUMPDEST DUP1 PUSH1 0x1 ADD SLOAD CALLVALUE LT ISZERO PUSH2 0x1357 JUMPI PUSH1 0x40 MLOAD PUSH32 0x8C379A000000000000000000000000000000000000000000000000000000000 DUP2 MSTORE PUSH1 0x4 ADD PUSH2 0x134E SWAP1 PUSH2 0x24A8 JUMP JUMPDEST PUSH1 0x40 MLOAD DUP1 SWAP2 SUB SWAP1 REVERT JUMPDEST CALLER PUSH20 0xFFFFFFFFFFFFFFFFFFFFFFFFFFFFFFFFFFFFFFFF AND DUP2 PUSH1 0x2 ADD PUSH0 SWAP1 SLOAD SWAP1 PUSH2 0x100 EXP SWAP1 DIV PUSH20 0xFFFFFFFFFFFFFFFFFFFFFFFFFFFFFFFFFFFFFFFF AND PUSH20 0xFFFFFFFFFFFFFFFFFFFFFFFFFFFFFFFFFFFFFFFF AND SUB PUSH2 0x13E8 JUMPI PUSH1 0x40 MLOAD PUSH32 0x8C379A000000000000000000000000000000000000000000000000000000000 DUP2 MSTORE PUSH1 0x4 ADD PUSH2 0x13DF SWAP1 PUSH2 0x2510 JUMP JUMPDEST PUSH1 0x40 MLOAD DUP1 SWAP2 SUB SWAP1 REVERT JUMPDEST PUSH0 DUP2 PUSH1 0x2 ADD PUSH0 SWAP1 SLOAD SWAP1 PUSH2 0x100 EXP SWAP1 DIV PUSH20 0xFFFFFFFFFFFFFFFFFFFFFFFFFFFFFFFFFFFFFFFF AND SWAP1 POP PUSH2 0x1419 DUP2 DUP5 PUSH2 0x1594 JUMP JUMPDEST PUSH1 0x2 PUSH0 CALLER PUSH20 0xFFFFFFFFFFFFFFFFFFFFFFFFFFFFFFFFFFFFFFFF AND PUSH20 0xFFFFFFFFFFFFFFFFFFFFFFFFFFFFFFFFFFFFFFFF AND DUP2 MSTORE PUSH1 0x20 ADD SWAP1 DUP2 MSTORE PUSH1 0x20 ADD PUSH0 KECCAK256 DUP4 SWAP1 DUP1 PUSH1 0x1 DUP2 SLOAD ADD DUP1 DUP3 SSTORE DUP1 SWAP2 POP POP PUSH1 0x1 SWAP1 SUB SWAP1 PUSH0 MSTORE PUSH1 0x20 PUSH0 KECCAK256 ADD PUSH0 SWAP1 SWAP2 SWAP1 SWAP2 SWAP1 SWAP2 POP SSTORE CALLER DUP3 PUSH1 0x2 ADD PUSH0 PUSH2 0x100 EXP DUP2 SLOAD DUP2 PUSH20 0xFFFFFFFFFFFFFFFFFFFFFFFFFFFFFFFFFFFFFFFF MUL NOT AND SWAP1 DUP4 PUSH20 0xFFFFFFFFFFFFFFFFFFFFFFFFFFFFFFFFFFFFFFFF AND MUL OR SWAP1 SSTORE POP CALLVALUE PUSH1 0x3 PUSH0 DUP4 PUSH20 0xFFFFFFFFFFFFFFFFFFFFFFFFFFFFFFFFFFFFFFFF AND PUSH20 0xFFFFFFFFFFFFFFFFFFFFFFFFFFFFFFFFFFFFFFFF AND DUP2 MSTORE PUSH1 0x20 ADD SWAP1 DUP2 MSTORE PUSH1 0x20 ADD PUSH0 KECCAK256 PUSH0 DUP3 DUP3 SLOAD PUSH2 0x1508 SWAP2 SWAP1 PUSH2 0x16C1 JUMP JUMPDEST SWAP3 POP POP DUP2 SWAP1 SSTORE POP DUP1 PUSH20 0xFFFFFFFFFFFFFFFFFFFFFFFFFFFFFFFFFFFFFFFF AND PUSH2 0x8FC CALLVALUE SWAP1 DUP2 ISZERO MUL SWAP1 PUSH1 0x40 MLOAD PUSH0 PUSH1 0x40 MLOAD DUP1 DUP4 SUB DUP2 DUP6 DUP9 DUP9 CALL SWAP4 POP POP POP POP ISZERO DUP1 ISZERO PUSH2 0x1552 JUMPI RETURNDATASIZE PUSH0 DUP1 RETURNDATACOPY RETURNDATASIZE PUSH0 REVERT JUMPDEST POP DUP3 PUSH32 0xFC401AFD9F3C929A6EDA9E334BF948AA13A3A1DE1A30BBE5985780A7BD5040F DUP3 CALLER CALLVALUE PUSH1 0x40 MLOAD PUSH2 0x1587 SWAP4 SWAP3 SWAP2 SWAP1 PUSH2 0x252E JUMP JUMPDEST PUSH1 0x40 MLOAD DUP1 SWAP2 SUB SWAP1 LOG2 POP POP POP JUMP JUMPDEST PUSH0 PUSH1 0x2 PUSH0 DUP5 PUSH20 0xFFFFFFFFFFFFFFFFFFFFFFFFFFFFFFFFFFFFFFFF AND PUSH20 0xFFFFFFFFFFFFFFFFFFFFFFFFFFFFFFFFFFFFFFFF AND DUP2 MSTORE PUSH1 0x20 ADD SWAP1 DUP2 MSTORE PUSH1 0x20 ADD PUSH0 KECCAK256 SWAP1 POP PUSH0 JUMPDEST DUP2 DUP1 SLOAD SWAP1 POP DUP2 LT ISZERO PUSH2 0x1685 JUMPI DUP3 DUP3 DUP3 DUP2 SLOAD DUP2 LT PUSH2 0x15F6 JUMPI PUSH2 0x15F5 PUSH2 0x2203 JUMP JUMPDEST JUMPDEST SWAP1 PUSH0 MSTORE PUSH1 0x20 PUSH0 KECCAK256 ADD SLOAD SUB PUSH2 0x1678 JUMPI DUP2 PUSH1 0x1 DUP4 DUP1 SLOAD SWAP1 POP PUSH2 0x1616 SWAP2 SWAP1 PUSH2 0x2563 JUMP JUMPDEST DUP2 SLOAD DUP2 LT PUSH2 0x1627 JUMPI PUSH2 0x1626 PUSH2 0x2203 JUMP JUMPDEST JUMPDEST SWAP1 PUSH0 MSTORE PUSH1 0x20 PUSH0 KECCAK256 ADD SLOAD DUP3 DUP3 DUP2 SLOAD DUP2 LT PUSH2 0x1643 JUMPI PUSH2 0x1642 PUSH2 0x2203 JUMP JUMPDEST JUMPDEST SWAP1 PUSH0 MSTORE PUSH1 0x20 PUSH0 KECCAK256 ADD DUP2 SWAP1 SSTORE POP DUP2 DUP1 SLOAD DUP1 PUSH2 0x1660 JUMPI PUSH2 0x165F PUSH2 0x2596 JUMP JUMPDEST JUMPDEST PUSH1 0x1 SWAP1 SUB DUP2 DUP2 SWAP1 PUSH0 MSTORE PUSH1 0x20 PUSH0 KECCAK256 ADD PUSH0 SWAP1 SSTORE SWAP1 SSTORE PUSH2 0x1685 JUMP JUMPDEST DUP1 DUP1 PUSH1 0x1 ADD SWAP2 POP POP PUSH2 0x15D6 JUMP JUMPDEST POP POP POP POP JUMP JUMPDEST PUSH0 DUP2 SWAP1 POP SWAP2 SWAP1 POP JUMP JUMPDEST PUSH32 0x4E487B7100000000000000000000000000000000000000000000000000000000 PUSH0 MSTORE PUSH1 0x11 PUSH1 0x4 MSTORE PUSH1 0x24 PUSH0 REVERT JUMPDEST PUSH0 PUSH2 0x16CB DUP3 PUSH2 0x168B JUMP JUMPDEST SWAP2 POP PUSH2 0x16D6 DUP4 PUSH2 0x168B JUMP JUMPDEST SWAP3 POP DUP3 DUP3 ADD SWAP1 POP DUP1 DUP3 GT ISZERO PUSH2 0x16EE JUMPI PUSH2 0x16ED PUSH2 0x1694 JUMP JUMPDEST JUMPDEST SWAP3 SWAP2 POP POP JUMP JUMPDEST PUSH2 0x16FD DUP2 PUSH2 0x168B JUMP JUMPDEST DUP3 MSTORE POP POP JUMP JUMPDEST PUSH0 PUSH1 0x20 DUP3 ADD SWAP1 POP PUSH2 0x1716 PUSH0 DUP4 ADD DUP5 PUSH2 0x16F4 JUMP JUMPDEST SWAP3 SWAP2 POP POP JUMP JUMPDEST PUSH0 PUSH1 0x40 MLOAD SWAP1 POP SWAP1 JUMP JUMPDEST PUSH0 DUP1 REVERT JUMPDEST PUSH0 DUP1 REVERT JUMPDEST PUSH2 0x1736 DUP2 PUSH2 0x168B JUMP JUMPDEST DUP2 EQ PUSH2 0x1740 JUMPI PUSH0 DUP1 REVERT JUMPDEST POP JUMP JUMPDEST PUSH0 DUP2 CALLDATALOAD SWAP1 POP PUSH2 0x1751 DUP2 PUSH2 0x172D JUMP JUMPDEST SWAP3 SWAP2 POP POP JUMP JUMPDEST PUSH0 DUP1 PUSH1 0x40 DUP4 DUP6 SUB SLT ISZERO PUSH2 0x176D JUMPI PUSH2 0x176C PUSH2 0x1725 JUMP JUMPDEST JUMPDEST PUSH0 PUSH2 0x177A DUP6 DUP3 DUP7 ADD PUSH2 0x1743 JUMP JUMPDEST SWAP3 POP POP PUSH1 0x20 PUSH2 0x178B DUP6 DUP3 DUP7 ADD PUSH2 0x1743 JUMP JUMPDEST SWAP2 POP POP SWAP3 POP SWAP3 SWAP1 POP JUMP JUMPDEST PUSH0 PUSH1 0x20 DUP3 DUP5 SUB SLT ISZERO PUSH2 0x17AA JUMPI PUSH2 0x17A9 PUSH2 0x1725 JUMP JUMPDEST JUMPDEST PUSH0 PUSH2 0x17B7 DUP5 DUP3 DUP6 ADD PUSH2 0x1743 JUMP JUMPDEST SWAP2 POP POP SWAP3 SWAP2 POP POP JUMP JUMPDEST PUSH0 PUSH20 0xFFFFFFFFFFFFFFFFFFFFFFFFFFFFFFFFFFFFFFFF DUP3 AND SWAP1 POP SWAP2 SWAP1 POP JUMP JUMPDEST PUSH0 PUSH2 0x17E9 DUP3 PUSH2 0x17C0 JUMP JUMPDEST SWAP1 POP SWAP2 SWAP1 POP JUMP JUMPDEST PUSH2 0x17F9 DUP2 PUSH2 0x17DF JUMP JUMPDEST DUP3 MSTORE POP POP JUMP JUMPDEST PUSH0 DUP2 ISZERO ISZERO SWAP1 POP SWAP2 SWAP1 POP JUMP JUMPDEST PUSH2 0x1813 DUP2 PUSH2 0x17FF JUMP JUMPDEST DUP3 MSTORE POP POP JUMP JUMPDEST PUSH0 PUSH1 0xA0 DUP3 ADD SWAP1 POP PUSH2 0x182C PUSH0 DUP4 ADD DUP9 PUSH2 0x16F4 JUMP JUMPDEST PUSH2 0x1839 PUSH1 0x20 DUP4 ADD DUP8 PUSH2 0x16F4 JUMP JUMPDEST PUSH2 0x1846 PUSH1 0x40 DUP4 ADD DUP7 PUSH2 0x17F0 JUMP JUMPDEST PUSH2 0x1853 PUSH1 0x60 DUP4 ADD DUP6 PUSH2 0x17F0 JUMP JUMPDEST PUSH2 0x1860 PUSH1 0x80 DUP4 ADD DUP5 PUSH2 0x180A JUMP JUMPDEST SWAP7 SWAP6 POP POP POP POP POP POP JUMP JUMPDEST PUSH0 DUP1 REVERT JUMPDEST PUSH0 DUP1 REVERT JUMPDEST PUSH0 PUSH1 0x1F NOT PUSH1 0x1F DUP4 ADD AND SWAP1 POP SWAP2 SWAP1 POP JUMP JUMPDEST PUSH32 0x4E487B7100000000000000000000000000000000000000000000000000000000 PUSH0 MSTORE PUSH1 0x41 PUSH1 0x4 MSTORE PUSH1 0x24 PUSH0 REVERT JUMPDEST PUSH2 0x18B8 DUP3 PUSH2 0x1872 JUMP JUMPDEST DUP2 ADD DUP2 DUP2 LT PUSH8 0xFFFFFFFFFFFFFFFF DUP3 GT OR ISZERO PUSH2 0x18D7 JUMPI PUSH2 0x18D6 PUSH2 0x1882 JUMP JUMPDEST JUMPDEST DUP1 PUSH1 0x40 MSTORE POP POP POP JUMP JUMPDEST PUSH0 PUSH2 0x18E9 PUSH2 0x171C JUMP JUMPDEST SWAP1 POP PUSH2 0x18F5 DUP3 DUP3 PUSH2 0x18AF JUMP JUMPDEST SWAP2 SWAP1 POP JUMP JUMPDEST PUSH0 PUSH8 0xFFFFFFFFFFFFFFFF DUP3 GT ISZERO PUSH2 0x1914 JUMPI PUSH2 0x1913 PUSH2 0x1882 JUMP JUMPDEST JUMPDEST PUSH2 0x191D DUP3 PUSH2 0x1872 JUMP JUMPDEST SWAP1 POP PUSH1 0x20 DUP2 ADD SWAP1 POP SWAP2 SWAP1 POP JUMP JUMPDEST DUP3 DUP2 DUP4 CALLDATACOPY PUSH0 DUP4 DUP4 ADD MSTORE POP POP POP JUMP JUMPDEST PUSH0 PUSH2 0x194A PUSH2 0x1945 DUP5 PUSH2 0x18FA JUMP JUMPDEST PUSH2 0x18E0 JUMP JUMPDEST SWAP1 POP DUP3 DUP2 MSTORE PUSH1 0x20 DUP2 ADD DUP5 DUP5 DUP5 ADD GT ISZERO PUSH2 0x1966 JUMPI PUSH2 0x1965 PUSH2 0x186E JUMP JUMPDEST JUMPDEST PUSH2 0x1971 DUP5 DUP3 DUP6 PUSH2 0x192A JUMP JUMPDEST POP SWAP4 SWAP3 POP POP POP JUMP JUMPDEST PUSH0 DUP3 PUSH1 0x1F DUP4 ADD SLT PUSH2 0x198D JUMPI PUSH2 0x198C PUSH2 0x186A JUMP JUMPDEST JUMPDEST DUP2 CALLDATALOAD PUSH2 0x199D DUP5 DUP3 PUSH1 0x20 DUP7 ADD PUSH2 0x1938 JUMP JUMPDEST SWAP2 POP POP SWAP3 SWAP2 POP POP JUMP JUMPDEST PUSH0 DUP1 PUSH1 0x40 DUP4 DUP6 SUB SLT ISZERO PUSH2 0x19BC JUMPI PUSH2 0x19BB PUSH2 0x1725 JUMP JUMPDEST JUMPDEST PUSH0 DUP4 ADD CALLDATALOAD PUSH8 0xFFFFFFFFFFFFFFFF DUP2 GT ISZERO PUSH2 0x19D9 JUMPI PUSH2 0x19D8 PUSH2 0x1729 JUMP JUMPDEST JUMPDEST PUSH2 0x19E5 DUP6 DUP3 DUP7 ADD PUSH2 0x1979 JUMP JUMPDEST SWAP3 POP POP PUSH1 0x20 PUSH2 0x19F6 DUP6 DUP3 DUP7 ADD PUSH2 0x1743 JUMP JUMPDEST SWAP2 POP POP SWAP3 POP SWAP3 SWAP1 POP JUMP JUMPDEST PUSH0 DUP2 MLOAD SWAP1 POP SWAP2 SWAP1 POP JUMP JUMPDEST PUSH0 DUP3 DUP3 MSTORE PUSH1 0x20 DUP3 ADD SWAP1 POP SWAP3 SWAP2 POP POP JUMP JUMPDEST PUSH0 DUP2 SWAP1 POP PUSH1 0x20 DUP3 ADD SWAP1 POP SWAP2 SWAP1 POP JUMP JUMPDEST PUSH2 0x1A32 DUP2 PUSH2 0x168B JUMP JUMPDEST DUP3 MSTORE POP POP JUMP JUMPDEST PUSH0 PUSH2 0x1A43 DUP4 DUP4 PUSH2 0x1A29 JUMP JUMPDEST PUSH1 0x20 DUP4 ADD SWAP1 POP SWAP3 SWAP2 POP POP JUMP JUMPDEST PUSH0 PUSH1 0x20 DUP3 ADD SWAP1 POP SWAP2 SWAP1 POP JUMP JUMPDEST PUSH0 PUSH2 0x1A65 DUP3 PUSH2 0x1A00 JUMP JUMPDEST PUSH2 0x1A6F DUP2 DUP6 PUSH2 0x1A0A JUMP JUMPDEST SWAP4 POP PUSH2 0x1A7A DUP4 PUSH2 0x1A1A JUMP JUMPDEST DUP1 PUSH0 JUMPDEST DUP4 DUP2 LT ISZERO PUSH2 0x1AAA JUMPI DUP2 MLOAD PUSH2 0x1A91 DUP9 DUP3 PUSH2 0x1A38 JUMP JUMPDEST SWAP8 POP PUSH2 0x1A9C DUP4 PUSH2 0x1A4F JUMP JUMPDEST SWAP3 POP POP PUSH1 0x1 DUP2 ADD SWAP1 POP PUSH2 0x1A7D JUMP JUMPDEST POP DUP6 SWAP4 POP POP POP POP SWAP3 SWAP2 POP POP JUMP JUMPDEST PUSH0 DUP2 MLOAD SWAP1 POP SWAP2 SWAP1 POP JUMP JUMPDEST PUSH0 DUP3 DUP3 MSTORE PUSH1 0x20 DUP3 ADD SWAP1 POP SWAP3 SWAP2 POP POP JUMP JUMPDEST PUSH0 DUP2 SWAP1 POP PUSH1 0x20 DUP3 ADD SWAP1 POP SWAP2 SWAP1 POP JUMP JUMPDEST PUSH0 DUP2 MLOAD SWAP1 POP SWAP2 SWAP1 POP JUMP JUMPDEST PUSH0 DUP3 DUP3 MSTORE PUSH1 0x20 DUP3 ADD SWAP1 POP SWAP3 SWAP2 POP POP JUMP JUMPDEST DUP3 DUP2 DUP4 MCOPY PUSH0 DUP4 DUP4 ADD MSTORE POP POP POP JUMP JUMPDEST PUSH0 PUSH2 0x1B12 DUP3 PUSH2 0x1AE0 JUMP JUMPDEST PUSH2 0x1B1C DUP2 DUP6 PUSH2 0x1AEA JUMP JUMPDEST SWAP4 POP PUSH2 0x1B2C DUP2 DUP6 PUSH1 0x20 DUP7 ADD PUSH2 0x1AFA JUMP JUMPDEST PUSH2 0x1B35 DUP2 PUSH2 0x1872 JUMP JUMPDEST DUP5 ADD SWAP2 POP POP SWAP3 SWAP2 POP POP JUMP JUMPDEST PUSH0 PUSH2 0x1B4B DUP4 DUP4 PUSH2 0x1B08 JUMP JUMPDEST SWAP1 POP SWAP3 SWAP2 POP POP JUMP JUMPDEST PUSH0 PUSH1 0x20 DUP3 ADD SWAP1 POP SWAP2 SWAP1 POP JUMP JUMPDEST PUSH0 PUSH2 0x1B69 DUP3 PUSH2 0x1AB7 JUMP JUMPDEST PUSH2 0x1B73 DUP2 DUP6 PUSH2 0x1AC1 JUMP JUMPDEST SWAP4 POP DUP4 PUSH1 0x20 DUP3 MUL DUP6 ADD PUSH2 0x1B85 DUP6 PUSH2 0x1AD1 JUMP JUMPDEST DUP1 PUSH0 JUMPDEST DUP6 DUP2 LT ISZERO PUSH2 0x1BC0 JUMPI DUP5 DUP5 SUB DUP10 MSTORE DUP2 MLOAD PUSH2 0x1BA1 DUP6 DUP3 PUSH2 0x1B40 JUMP JUMPDEST SWAP5 POP PUSH2 0x1BAC DUP4 PUSH2 0x1B53 JUMP JUMPDEST SWAP3 POP PUSH1 0x20 DUP11 ADD SWAP10 POP POP PUSH1 0x1 DUP2 ADD SWAP1 POP PUSH2 0x1B88 JUMP JUMPDEST POP DUP3 SWAP8 POP DUP8 SWAP6 POP POP POP POP POP POP SWAP3 SWAP2 POP POP JUMP JUMPDEST PUSH0 PUSH1 0x60 DUP3 ADD SWAP1 POP DUP2 DUP2 SUB PUSH0 DUP4 ADD MSTORE PUSH2 0x1BEA DUP2 DUP7 PUSH2 0x1A5B JUMP JUMPDEST SWAP1 POP DUP2 DUP2 SUB PUSH1 0x20 DUP4 ADD MSTORE PUSH2 0x1BFE DUP2 DUP6 PUSH2 0x1B5F JUMP JUMPDEST SWAP1 POP DUP2 DUP2 SUB PUSH1 0x40 DUP4 ADD MSTORE PUSH2 0x1C12 DUP2 DUP5 PUSH2 0x1A5B JUMP JUMPDEST SWAP1 POP SWAP5 SWAP4 POP POP POP POP JUMP JUMPDEST PUSH0 DUP3 DUP3 MSTORE PUSH1 0x20 DUP3 ADD SWAP1 POP SWAP3 SWAP2 POP POP JUMP JUMPDEST PUSH0 PUSH2 0x1C36 DUP3 PUSH2 0x1AE0 JUMP JUMPDEST PUSH2 0x1C40 DUP2 DUP6 PUSH2 0x1C1C JUMP JUMPDEST SWAP4 POP PUSH2 0x1C50 DUP2 DUP6 PUSH1 0x20 DUP7 ADD PUSH2 0x1AFA JUMP JUMPDEST PUSH2 0x1C59 DUP2 PUSH2 0x1872 JUMP JUMPDEST DUP5 ADD SWAP2 POP POP SWAP3 SWAP2 POP POP JUMP JUMPDEST PUSH0 PUSH1 0x80 DUP3 ADD SWAP1 POP DUP2 DUP2 SUB PUSH0 DUP4 ADD MSTORE PUSH2 0x1C7C DUP2 DUP8 PUSH2 0x1C2C JUMP JUMPDEST SWAP1 POP PUSH2 0x1C8B PUSH1 0x20 DUP4 ADD DUP7 PUSH2 0x16F4 JUMP JUMPDEST PUSH2 0x1C98 PUSH1 0x40 DUP4 ADD DUP6 PUSH2 0x17F0 JUMP JUMPDEST PUSH2 0x1CA5 PUSH1 0x60 DUP4 ADD DUP5 PUSH2 0x180A JUMP JUMPDEST SWAP6 SWAP5 POP POP POP POP POP JUMP JUMPDEST PUSH32 0x426F74682073656375726974696573206D757374206265206C69737465640000 PUSH0 DUP3 ADD MSTORE POP JUMP JUMPDEST PUSH0 PUSH2 0x1CE2 PUSH1 0x1E DUP4 PUSH2 0x1C1C JUMP JUMPDEST SWAP2 POP PUSH2 0x1CED DUP3 PUSH2 0x1CAE JUMP JUMPDEST PUSH1 0x20 DUP3 ADD SWAP1 POP SWAP2 SWAP1 POP JUMP JUMPDEST PUSH0 PUSH1 0x20 DUP3 ADD SWAP1 POP DUP2 DUP2 SUB PUSH0 DUP4 ADD MSTORE PUSH2 0x1D0F DUP2 PUSH2 0x1CD6 JUMP JUMPDEST SWAP1 POP SWAP2 SWAP1 POP JUMP JUMPDEST PUSH32 0x596F75206D757374206F776E20746865206F6666657265642073656375726974 PUSH0 DUP3 ADD MSTORE PUSH32 0x7900000000000000000000000000000000000000000000000000000000000000 PUSH1 0x20 DUP3 ADD MSTORE POP JUMP JUMPDEST PUSH0 PUSH2 0x1D70 PUSH1 0x21 DUP4 PUSH2 0x1C1C JUMP JUMPDEST SWAP2 POP PUSH2 0x1D7B DUP3 PUSH2 0x1D16 JUMP JUMPDEST PUSH1 0x40 DUP3 ADD SWAP1 POP SWAP2 SWAP1 POP JUMP JUMPDEST PUSH0 PUSH1 0x20 DUP3 ADD SWAP1 POP DUP2 DUP2 SUB PUSH0 DUP4 ADD MSTORE PUSH2 0x1D9D DUP2 PUSH2 0x1D64 JUMP JUMPDEST SWAP1 POP SWAP2 SWAP1 POP JUMP JUMPDEST PUSH32 0x43616E6E6F742065786368616E6765207769746820796F757273656C66000000 PUSH0 DUP3 ADD MSTORE POP JUMP JUMPDEST PUSH0 PUSH2 0x1DD8 PUSH1 0x1D DUP4 PUSH2 0x1C1C JUMP JUMPDEST SWAP2 POP PUSH2 0x1DE3 DUP3 PUSH2 0x1DA4 JUMP JUMPDEST PUSH1 0x20 DUP3 ADD SWAP1 POP SWAP2 SWAP1 POP JUMP JUMPDEST PUSH0 PUSH1 0x20 DUP3 ADD SWAP1 POP DUP2 DUP2 SUB PUSH0 DUP4 ADD MSTORE PUSH2 0x1E05 DUP2 PUSH2 0x1DCC JUMP JUMPDEST SWAP1 POP SWAP2 SWAP1 POP JUMP JUMPDEST PUSH0 PUSH2 0x1E16 DUP3 PUSH2 0x168B JUMP JUMPDEST SWAP2 POP PUSH32 0xFFFFFFFFFFFFFFFFFFFFFFFFFFFFFFFFFFFFFFFFFFFFFFFFFFFFFFFFFFFFFFFF DUP3 SUB PUSH2 0x1E48 JUMPI PUSH2 0x1E47 PUSH2 0x1694 JUMP JUMPDEST JUMPDEST PUSH1 0x1 DUP3 ADD SWAP1 POP SWAP2 SWAP1 POP JUMP JUMPDEST PUSH0 PUSH1 0x80 DUP3 ADD SWAP1 POP PUSH2 0x1E66 PUSH0 DUP4 ADD DUP8 PUSH2 0x16F4 JUMP JUMPDEST PUSH2 0x1E73 PUSH1 0x20 DUP4 ADD DUP7 PUSH2 0x16F4 JUMP JUMPDEST PUSH2 0x1E80 PUSH1 0x40 DUP4 ADD DUP6 PUSH2 0x17F0 JUMP JUMPDEST PUSH2 0x1E8D PUSH1 0x60 DUP4 ADD DUP5 PUSH2 0x17F0 JUMP JUMPDEST SWAP6 SWAP5 POP POP POP POP POP JUMP JUMPDEST PUSH32 0x5072696365206D7573742062652067726561746572207468616E203000000000 PUSH0 DUP3 ADD MSTORE POP JUMP JUMPDEST PUSH0 PUSH2 0x1ECA PUSH1 0x1C DUP4 PUSH2 0x1C1C JUMP JUMPDEST SWAP2 POP PUSH2 0x1ED5 DUP3 PUSH2 0x1E96 JUMP JUMPDEST PUSH1 0x20 DUP3 ADD SWAP1 POP SWAP2 SWAP1 POP JUMP JUMPDEST PUSH0 PUSH1 0x20 DUP3 ADD SWAP1 POP DUP2 DUP2 SUB PUSH0 DUP4 ADD MSTORE PUSH2 0x1EF7 DUP2 PUSH2 0x1EBE JUMP JUMPDEST SWAP1 POP SWAP2 SWAP1 POP JUMP JUMPDEST PUSH32 0x4E487B7100000000000000000000000000000000000000000000000000000000 PUSH0 MSTORE PUSH1 0x22 PUSH1 0x4 MSTORE PUSH1 0x24 PUSH0 REVERT JUMPDEST PUSH0 PUSH1 0x2 DUP3 DIV SWAP1 POP PUSH1 0x1 DUP3 AND DUP1 PUSH2 0x1F42 JUMPI PUSH1 0x7F DUP3 AND SWAP2 POP JUMPDEST PUSH1 0x20 DUP3 LT DUP2 SUB PUSH2 0x1F55 JUMPI PUSH2 0x1F54 PUSH2 0x1EFE JUMP JUMPDEST JUMPDEST POP SWAP2 SWAP1 POP JUMP JUMPDEST PUSH0 DUP2 SWAP1 POP DUP2 PUSH0 MSTORE PUSH1 0x20 PUSH0 KECCAK256 SWAP1 POP SWAP2 SWAP1 POP JUMP JUMPDEST PUSH0 PUSH1 0x20 PUSH1 0x1F DUP4 ADD DIV SWAP1 POP SWAP2 SWAP1 POP JUMP JUMPDEST PUSH0 DUP3 DUP3 SHL SWAP1 POP SWAP3 SWAP2 POP POP JUMP JUMPDEST PUSH0 PUSH1 0x8 DUP4 MUL PUSH2 0x1FB7 PUSH32 0xFFFFFFFFFFFFFFFFFFFFFFFFFFFFFFFFFFFFFFFFFFFFFFFFFFFFFFFFFFFFFFFF DUP3 PUSH2 0x1F7C JUMP JUMPDEST PUSH2 0x1FC1 DUP7 DUP4 PUSH2 0x1F7C JUMP JUMPDEST SWAP6 POP DUP1 NOT DUP5 AND SWAP4 POP DUP1 DUP7 AND DUP5 OR SWAP3 POP POP POP SWAP4 SWAP3 POP POP POP JUMP JUMPDEST PUSH0 DUP2 SWAP1 POP SWAP2 SWAP1 POP JUMP JUMPDEST PUSH0 PUSH2 0x1FFC PUSH2 0x1FF7 PUSH2 0x1FF2 DUP5 PUSH2 0x168B JUMP JUMPDEST PUSH2 0x1FD9 JUMP JUMPDEST PUSH2 0x168B JUMP JUMPDEST SWAP1 POP SWAP2 SWAP1 POP JUMP JUMPDEST PUSH0 DUP2 SWAP1 POP SWAP2 SWAP1 POP JUMP JUMPDEST PUSH2 0x2015 DUP4 PUSH2 0x1FE2 JUMP JUMPDEST PUSH2 0x2029 PUSH2 0x2021 DUP3 PUSH2 0x2003 JUMP JUMPDEST DUP5 DUP5 SLOAD PUSH2 0x1F88 JUMP JUMPDEST DUP3 SSTORE POP POP POP POP JUMP JUMPDEST PUSH0 SWAP1 JUMP JUMPDEST PUSH2 0x203D PUSH2 0x2031 JUMP JUMPDEST PUSH2 0x2048 DUP2 DUP5 DUP5 PUSH2 0x200C JUMP JUMPDEST POP POP POP JUMP JUMPDEST JUMPDEST DUP2 DUP2 LT ISZERO PUSH2 0x206B JUMPI PUSH2 0x2060 PUSH0 DUP3 PUSH2 0x2035 JUMP JUMPDEST PUSH1 0x1 DUP2 ADD SWAP1 POP PUSH2 0x204E JUMP JUMPDEST POP POP JUMP JUMPDEST PUSH1 0x1F DUP3 GT ISZERO PUSH2 0x20B0 JUMPI PUSH2 0x2081 DUP2 PUSH2 0x1F5B JUMP JUMPDEST PUSH2 0x208A DUP5 PUSH2 0x1F6D JUMP JUMPDEST DUP2 ADD PUSH1 0x20 DUP6 LT ISZERO PUSH2 0x2099 JUMPI DUP2 SWAP1 POP JUMPDEST PUSH2 0x20AD PUSH2 0x20A5 DUP6 PUSH2 0x1F6D JUMP JUMPDEST DUP4 ADD DUP3 PUSH2 0x204D JUMP JUMPDEST POP POP JUMPDEST POP POP POP JUMP JUMPDEST PUSH0 DUP3 DUP3 SHR SWAP1 POP SWAP3 SWAP2 POP POP JUMP JUMPDEST PUSH0 PUSH2 0x20D0 PUSH0 NOT DUP5 PUSH1 0x8 MUL PUSH2 0x20B5 JUMP JUMPDEST NOT DUP1 DUP4 AND SWAP2 POP POP SWAP3 SWAP2 POP POP JUMP JUMPDEST PUSH0 PUSH2 0x20E8 DUP4 DUP4 PUSH2 0x20C1 JUMP JUMPDEST SWAP2 POP DUP3 PUSH1 0x2 MUL DUP3 OR SWAP1 POP SWAP3 SWAP2 POP POP JUMP JUMPDEST PUSH2 0x2101 DUP3 PUSH2 0x1AE0 JUMP JUMPDEST PUSH8 0xFFFFFFFFFFFFFFFF DUP2 GT ISZERO PUSH2 0x211A JUMPI PUSH2 0x2119 PUSH2 0x1882 JUMP JUMPDEST JUMPDEST PUSH2 0x2124 DUP3 SLOAD PUSH2 0x1F2B JUMP JUMPDEST PUSH2 0x212F DUP3 DUP3 DUP6 PUSH2 0x206F JUMP JUMPDEST PUSH0 PUSH1 0x20 SWAP1 POP PUSH1 0x1F DUP4 GT PUSH1 0x1 DUP2 EQ PUSH2 0x2160 JUMPI PUSH0 DUP5 ISZERO PUSH2 0x214E JUMPI DUP3 DUP8 ADD MLOAD SWAP1 POP JUMPDEST PUSH2 0x2158 DUP6 DUP3 PUSH2 0x20DD JUMP JUMPDEST DUP7 SSTORE POP PUSH2 0x21BF JUMP JUMPDEST PUSH1 0x1F NOT DUP5 AND PUSH2 0x216E DUP7 PUSH2 0x1F5B JUMP JUMPDEST PUSH0 JUMPDEST DUP3 DUP2 LT ISZERO PUSH2 0x2195 JUMPI DUP5 DUP10 ADD MLOAD DUP3 SSTORE PUSH1 0x1 DUP3 ADD SWAP2 POP PUSH1 0x20 DUP6 ADD SWAP5 POP PUSH1 0x20 DUP2 ADD SWAP1 POP PUSH2 0x2170 JUMP JUMPDEST DUP7 DUP4 LT ISZERO PUSH2 0x21B2 JUMPI DUP5 DUP10 ADD MLOAD PUSH2 0x21AE PUSH1 0x1F DUP10 AND DUP3 PUSH2 0x20C1 JUMP JUMPDEST DUP4 SSTORE POP JUMPDEST PUSH1 0x1 PUSH1 0x2 DUP9 MUL ADD DUP9 SSTORE POP POP POP JUMPDEST POP POP POP POP POP POP JUMP JUMPDEST PUSH0 PUSH1 0x60 DUP3 ADD SWAP1 POP DUP2 DUP2 SUB PUSH0 DUP4 ADD MSTORE PUSH2 0x21DF DUP2 DUP7 PUSH2 0x1C2C JUMP JUMPDEST SWAP1 POP PUSH2 0x21EE PUSH1 0x20 DUP4 ADD DUP6 PUSH2 0x16F4 JUMP JUMPDEST PUSH2 0x21FB PUSH1 0x40 DUP4 ADD DUP5 PUSH2 0x17F0 JUMP JUMPDEST SWAP5 SWAP4 POP POP POP POP JUMP JUMPDEST PUSH32 0x4E487B7100000000000000000000000000000000000000000000000000000000 PUSH0 MSTORE PUSH1 0x32 PUSH1 0x4 MSTORE PUSH1 0x24 PUSH0 REVERT JUMPDEST PUSH32 0x45786368616E67652072657175657374206973206E6F742070656E64696E6700 PUSH0 DUP3 ADD MSTORE POP JUMP JUMPDEST PUSH0 PUSH2 0x2264 PUSH1 0x1F DUP4 PUSH2 0x1C1C JUMP JUMPDEST SWAP2 POP PUSH2 0x226F DUP3 PUSH2 0x2230 JUMP JUMPDEST PUSH1 0x20 DUP3 ADD SWAP1 POP SWAP2 SWAP1 POP JUMP JUMPDEST PUSH0 PUSH1 0x20 DUP3 ADD SWAP1 POP DUP2 DUP2 SUB PUSH0 DUP4 ADD MSTORE PUSH2 0x2291 DUP2 PUSH2 0x2258 JUMP JUMPDEST SWAP1 POP SWAP2 SWAP1 POP JUMP JUMPDEST PUSH32 0x4F6E6C792072656365697665722063616E2072656A6563740000000000000000 PUSH0 DUP3 ADD MSTORE POP JUMP JUMPDEST PUSH0 PUSH2 0x22CC PUSH1 0x18 DUP4 PUSH2 0x1C1C JUMP JUMPDEST SWAP2 POP PUSH2 0x22D7 DUP3 PUSH2 0x2298 JUMP JUMPDEST PUSH1 0x20 DUP3 ADD SWAP1 POP SWAP2 SWAP1 POP JUMP JUMPDEST PUSH0 PUSH1 0x20 DUP3 ADD SWAP1 POP DUP2 DUP2 SUB PUSH0 DUP4 ADD MSTORE PUSH2 0x22F9 DUP2 PUSH2 0x22C0 JUMP JUMPDEST SWAP1 POP SWAP2 SWAP1 POP JUMP JUMPDEST PUSH32 0x4F6E6C792072656365697665722063616E20617070726F766500000000000000 PUSH0 DUP3 ADD MSTORE POP JUMP JUMPDEST PUSH0 PUSH2 0x2334 PUSH1 0x19 DUP4 PUSH2 0x1C1C JUMP JUMPDEST SWAP2 POP PUSH2 0x233F DUP3 PUSH2 0x2300 JUMP JUMPDEST PUSH1 0x20 DUP3 ADD SWAP1 POP SWAP2 SWAP1 POP JUMP JUMPDEST PUSH0 PUSH1 0x20 DUP3 ADD SWAP1 POP DUP2 DUP2 SUB PUSH0 DUP4 ADD MSTORE PUSH2 0x2361 DUP2 PUSH2 0x2328 JUMP JUMPDEST SWAP1 POP SWAP2 SWAP1 POP JUMP JUMPDEST PUSH32 0x596F75206D757374206F776E2074686520726571756573746564207365637572 PUSH0 DUP3 ADD MSTORE PUSH32 0x6974790000000000000000000000000000000000000000000000000000000000 PUSH1 0x20 DUP3 ADD MSTORE POP JUMP JUMPDEST PUSH0 PUSH2 0x23C2 PUSH1 0x23 DUP4 PUSH2 0x1C1C JUMP JUMPDEST SWAP2 POP PUSH2 0x23CD DUP3 PUSH2 0x2368 JUMP JUMPDEST PUSH1 0x40 DUP3 ADD SWAP1 POP SWAP2 SWAP1 POP JUMP JUMPDEST PUSH0 PUSH1 0x20 DUP3 ADD SWAP1 POP DUP2 DUP2 SUB PUSH0 DUP4 ADD MSTORE PUSH2 0x23EF DUP2 PUSH2 0x23B6 JUMP JUMPDEST SWAP1 POP SWAP2 SWAP1 POP JUMP JUMPDEST PUSH32 0x5365637572697479206973206E6F74206C697374656400000000000000000000 PUSH0 DUP3 ADD MSTORE POP JUMP JUMPDEST PUSH0 PUSH2 0x242A PUSH1 0x16 DUP4 PUSH2 0x1C1C JUMP JUMPDEST SWAP2 POP PUSH2 0x2435 DUP3 PUSH2 0x23F6 JUMP JUMPDEST PUSH1 0x20 DUP3 ADD SWAP1 POP SWAP2 SWAP1 POP JUMP JUMPDEST PUSH0 PUSH1 0x20 DUP3 ADD SWAP1 POP DUP2 DUP2 SUB PUSH0 DUP4 ADD MSTORE PUSH2 0x2457 DUP2 PUSH2 0x241E JUMP JUMPDEST SWAP1 POP SWAP2 SWAP1 POP JUMP JUMPDEST PUSH32 0x496E73756666696369656E74207061796D656E74000000000000000000000000 PUSH0 DUP3 ADD MSTORE POP JUMP JUMPDEST PUSH0 PUSH2 0x2492 PUSH1 0x14 DUP4 PUSH2 0x1C1C JUMP JUMPDEST SWAP2 POP PUSH2 0x249D DUP3 PUSH2 0x245E JUMP JUMPDEST PUSH1 0x20 DUP3 ADD SWAP1 POP SWAP2 SWAP1 POP JUMP JUMPDEST PUSH0 PUSH1 0x20 DUP3 ADD SWAP1 POP DUP2 DUP2 SUB PUSH0 DUP4 ADD MSTORE PUSH2 0x24BF DUP2 PUSH2 0x2486 JUMP JUMPDEST SWAP1 POP SWAP2 SWAP1 POP JUMP JUMPDEST PUSH32 0x43616E6E6F742062757920796F7572206F776E20736563757269747900000000 PUSH0 DUP3 ADD MSTORE POP JUMP JUMPDEST PUSH0 PUSH2 0x24FA PUSH1 0x1C DUP4 PUSH2 0x1C1C JUMP JUMPDEST SWAP2 POP PUSH2 0x2505 DUP3 PUSH2 0x24C6 JUMP JUMPDEST PUSH1 0x20 DUP3 ADD SWAP1 POP SWAP2 SWAP1 POP JUMP JUMPDEST PUSH0 PUSH1 0x20 DUP3 ADD SWAP1 POP DUP2 DUP2 SUB PUSH0 DUP4 ADD MSTORE PUSH2 0x2527 DUP2 PUSH2 0x24EE JUMP JUMPDEST SWAP1 POP SWAP2 SWAP1 POP JUMP JUMPDEST PUSH0 PUSH1 0x60 DUP3 ADD SWAP1 POP PUSH2 0x2541 PUSH0 DUP4 ADD DUP7 PUSH2 0x17F0 JUMP JUMPDEST PUSH2 0x254E PUSH1 0x20 DUP4 ADD DUP6 PUSH2 0x17F0 JUMP JUMPDEST PUSH2 0x255B PUSH1 0x40 DUP4 ADD DUP5 PUSH2 0x16F4 JUMP JUMPDEST SWAP5 SWAP4 POP POP POP POP JUMP JUMPDEST PUSH0 PUSH2 0x256D DUP3 PUSH2 0x168B JUMP JUMPDEST SWAP2 POP PUSH2 0x2578 DUP4 PUSH2 0x168B JUMP JUMPDEST SWAP3 POP DUP3 DUP3 SUB SWAP1 POP DUP2 DUP2 GT ISZERO PUSH2 0x2590 JUMPI PUSH2 0x258F PUSH2 0x1694 JUMP JUMPDEST JUMPDEST SWAP3 SWAP2 POP POP JUMP JUMPDEST PUSH32 0x4E487B7100000000000000000000000000000000000000000000000000000000 PUSH0 MSTORE PUSH1 0x31 PUSH1 0x4 MSTORE PUSH1 0x24 PUSH0 REVERT INVALID LOG2 PUSH5 0x6970667358 0x22 SLT KECCAK256 0xB3 PUSH26 0x4F37BE427C6A9FCE31A8631CC0609B3DB73DF334F3E634242875 PUSH19 0xCE17E264736F6C634300081A0033A264697066 PUSH20 0x582212207BC325FC59B680D38250352C8D918BD3 LOG4 TSTORE XOR 0x26 SAR NUMBER 0xAB SWAP10 DUP9 LOG3 0x24 PUSH21 0xA54E887064736F6C634300081A0033000000000000 "
		},
		"gasEstimates": {
			"creation": {
				"codeDepositCost": "3214800",
				"executionCost": "3561",
				"totalCost": "3218361"
			},
			"external": {
				"beforeAll()": "infinite",
				"checkBalance()": "infinite",
				"checkGetUserSecurities()": "infinite",
				"checkSecurityListing()": "infinite"
			}
		},
		"methodIdentifiers": {
			"beforeAll()": "7fea0d4b",
			"checkBalance()": "c71daccb",
			"checkGetUserSecurities()": "8513b994",
			"checkSecurityListing()": "5fd1afd1"
		}
	},
	"abi": [
		{
			"anonymous": false,
			"inputs": [
				{
					"indexed": false,
					"internalType": "string",
					"name": "message",
					"type": "string"
				}
			],
			"name": "TestEvent",
			"type": "event"
		},
		{
			"inputs": [],
			"name": "beforeAll",
			"outputs": [],
			"stateMutability": "nonpayable",
			"type": "function"
		},
		{
			"inputs": [],
			"name": "checkBalance",
			"outputs": [],
			"stateMutability": "nonpayable",
			"type": "function"
		},
		{
			"inputs": [],
			"name": "checkGetUserSecurities",
			"outputs": [],
			"stateMutability": "nonpayable",
			"type": "function"
		},
		{
			"inputs": [],
			"name": "checkSecurityListing",
			"outputs": [],
			"stateMutability": "nonpayable",
			"type": "function"
		}
	]
}